:020000040800F2
:10000000A8820020A5010008D5820008957E00087E
:10001000D1820008F10A000885CB0008000000002A
:1000200000000000000000000000000051870008F0
:10003000510E000800000000E1860008CD8700088E
:10004000BF010008BF010008BF010008BF01000890
:10005000BF010008BF010008BF010008BF01000880
:10006000BF010008BF010008BF010008BF01000870
:10007000790C0008BF010008BF010008BF0100089B
:10008000BF010008BF010008BF010008BF01000850
:10009000F50A0008050B0008BF010008BF010008B1
:1000A000BF010008BF010008BF010008BF01000830
:1000B000BF010008BF010008BF010008BF01000820
:1000C000BF010008BF010008BF010008BF01000810
:1000D000BF01000821920008BF010008319200080A
:1000E000BF010008BF010008BF010008BF010008F0
:1000F000BF010008BF010008BF010008BF010008E0
:10010000BF010008BF010008BF010008BF010008CF
:10011000BF010008BF010008BD880008BF0100083A
:10012000BF010008890C0008990C0008BF010008F5
:10013000BF010008BF010008BF010008BF0100089F
:10014000150B0008250B0008BF01000845830008B7
:10015000BF010008A90C0008BF0100084192000877
:10016000BF010008BF010008BF010008BF0100086F
:10017000BF010008BF010008BF0100080000000027
:10018000BF010008BF010008DFF814D000F0FCFB3D
:1001900000F07EF800480047D174010800F026FC0A
:1001A000A88200200648804706480047FEE7FEE791
:1001B000FEE7FEE7FEE7FEE7FEE7FEE7FEE7FEE717
:1001C000A9880008890100082DE9F05F0546002094
:1001D00092469B4688460646814640241BE02846B8
:1001E00041464746224600F0F0FA53465A46C01AA6
:1001F000914110D311461846224600F0D7FA2D1A25
:1002000067EB01084F4622460120002100F0CEFA9C
:1002100017EB00094E41201EA4F10104DFDC484623
:1002200031462A464346BDE8F09F10B5431A934233
:1002300009D28318881803E010F8011D03F8011D86
:10024000521EF9D210BD40EA01039B0703D009E01A
:1002500008C9121F08C0042AFAD203E011F8013BB2
:1002600000F8013B521EF9D210BDD2B201E000F8F5
:10027000012B491EFBD270470022F6E710B513464A
:100280000A4604461946FFF7F0FF204610BD00005D
:100290007CB507480090074801900546009C04E0A3
:1002A0002046016808448047241DAC42F8D17CBD3B
:1002B000B0B20108C0B201080B460146184600F072
:1002C000B8BA2DE9FE4F804681EA0300C00F0C4604
:1002D000009021F0004123F00045B8EB0200A94155
:1002E00005D24046214690461C460B46024623F066
:1002F0000040104347D0270DC7F30A00C3F30A514B
:100300000290401A019040286BDAC3F3130040F4C6
:10031000801B0098924620B10023D2EB030A63EBC6
:100320000B0B01985946C0F14002504600F03EFACE
:1003300006460D4650465946019A00F056FA10EB13
:1003400008006141002487EA115284EAE7731A43E6
:1003500040D0009A62B3019A012A4FEA075215DC95
:10036000001B61EB02014FF0004202EA0752CDE9A7
:100370000042001C41F5801132462B4600F0B6FACF
:1003800003B0BDE8F08F40462146F9E7001B61EB62
:100390000201001C41F5801300185B412018A2F5F2
:1003A000001747EB030140EAD570B6196D4111E023
:1003B0006D084FEA360645EAC0754FEA0752001B42
:1003C00061EB0201001C41F5801149084FEA300041
:1003D0000019514132462B4603B0BDE8F04F00F002
:1003E00076BA0098012240000023D0EB020263EBB2
:1003F000E073009821464FEAE074B8EB000061EB2F
:100400000401E9E783F000435BE781F0004158E72E
:100410002DE9FE4F81EA030404F0004421F000417D
:1004200000944FF0000B23F0004350EA01045ED02B
:1004300052EA03045BD0C3F30A54C1F30A552C44B7
:10044000A4F2F3340194A0FB0254C1F3130141F46C
:100450008011C3F3130343F4801301FB024400FB38
:10046000034E840A970A44EA815447EA8357A4FB5F
:10047000076802958D0A05FB07854FEA932C04FB5C
:100480000C542705029D4FEA065847EA1637B5EB8C
:1004900008056EEB070C870E920E47EA811742EAB9
:1004A0008312A7FB0201B6EB0B0164EB00042B0DDA
:1004B00043EA0C335E1844EB1C50DA465146E7FB26
:1004C0000201C5F313044FEA0B3343EA14534FEA16
:1004D0000432019C43EA0603A4F10C040294009C3C
:1004E000CDE900B400F002FA03B0BDE8F08F0020BF
:1004F0000146F9E72DE9F04D81EA030404F0004BD1
:1005000021F0004514464FF0000A23F0004150EA64
:10051000050220D054EA01021DD0C5F30A57024655
:10052000C5F31303C1F31300C1F30A5640F4801559
:1005300043F48013A7EB0608101BD64608F2FD38DB
:1005400073EB050002D308F1010801E092185B414A
:10055000B8F1000F03DA00200146BDE8F08D00205D
:100560004FF48011064684460EE0171B73EB050717
:1005700005D3121B63EB050306434CEA010C490843
:100580004FEA300092185B4150EA0107EDD152EA80
:10059000030012D082EA040083EA0501084305D073
:1005A000101BAB4106D20122002306E000224FF0CF
:1005B000004302E06FF0010253101AEB06004CEB0F
:1005C000085110EB0A0041EB0B01BDE8F04D00F0C3
:1005D0007EB930B5041E71F1000404DB4FF0004415
:1005E000404264EB0101141E73F1000405DB1C465C
:1005F0004FF00043524263EB0403801A994101D348
:10060000012030BD002030BD30B5041E71F1000462
:1006100004DB4FF00044404264EB0101141E73F10F
:10062000000405DB1C464FF00043524263EB040319
:10063000101A8B4101D2012030BD002030BD30B5F1
:10064000041E71F1000404DB4FF00044404264EBEF
:100650000101141E73F1000405DB1C464FF000433A
:10066000524263EB0403101A8B4101D3012030BDC9
:10067000002030BD30B5041E71F1000404DB4FF0E2
:100680000044404264EB0101141E73F1000405DBD9
:100690001C464FF00043524263EB040342404B4080
:1006A0001A4301D0002030BD012030BD0EB5C10F6E
:1006B00080EAE0700844CA07002140F233438DE825
:1006C0000E000A460B4600F011F903B000BD0EB54E
:1006D00040F2334102910021CDE900110A460B4658
:1006E00000F004F903B000BD3EB5CA17CB0F0024DB
:1006F00050405140C0186141DA0740F23343009442
:10070000CDE901232246234600F0F0F803B030BDC6
:1007100070B5C1F30A5201F000450024C1F3130182
:1007200040F2FF3341F480119A4201DA002070BD9B
:1007300040F233439A42A2F2334203DC524200F0C9
:1007400044F800E090402C43F1D0404270BD00F0EE
:10075000004230F000400AD0C10D01F56071C0F3D5
:10076000160042EA0151C2084007114370470020B9
:100770000146704701F0004330B421F0004150EAD7
:10078000010206D00A0DA2F56072C1F31301002A1E
:1007900002DC30BC00207047440F44EAC104C100B1
:1007A000E01830BC00EBC25000F05AB8202A04DB3D
:1007B000203A00FA02F1002070479140C2F1200374
:1007C00020FA03F3194390407047202A04DB203AB3
:1007D00021FA02F00021704721FA02F3D040C2F161
:1007E00020029140084319467047202A06DBCB17A8
:1007F000203A41FA02F043EAE07306E041FA02F3DC
:10080000D040C2F12002914008431946704710B50C
:100810000446481E014201D1042901D2052010BD21
:10082000104619F0DFFC10B12060002010BD06203A
:1008300010BD2DE9F041074615460E46102019F06F
:10084000F1FD04000AD06760C4E9026500F0CAF84F
:100850000168216004600020BDE8F0810120FBE711
:100860000029A8BF7047401C490008BF20F00100C4
:10087000704710B4B0FA80FC00FA0CF050EA0104A2
:1008800004BF10BC704749B1CCF1200421FA04F434
:1008900011FA0CF118BF012121430843A3EB0C010D
:1008A000CB1D4FEA00614FEA102042BF002010BC70
:1008B000704700EBC35010440029A4BF10BC704720
:1008C000401C490008BF20F0010010BC704710B563
:1008D000141E73F1000408DA401C41F10001921863
:1008E0005B411A4301D120F0010010BD2DE9F04D0C
:1008F00092469B4611B1B1FA81F202E0B0FA80F261
:1009000020329046FFF752FF04460F4640EA0A00A5
:1009100041EA0B0153465A46084313D0114653EAA5
:10092000010019D0C8F140025046FFF74EFF0546BE
:100930000E46504659464246FFF738FF084305D059
:10094000012004E020463946BDE8F08D0020054333
:1009500046EAE0762C4337430A986305E40AA0EBA5
:1009600008000022FD0A44EA47540A3002D500205C
:100970000146E9E7010510196941DDE9084500195B
:100980006941BDE8F04DA2E71CB50948009009484F
:1009900001900546009C06E0E06840F0010394E801
:1009A000070098471034AC42F6D3FFF7F1FB000084
:1009B00090B20108B0B2010830B50B4601460020E4
:1009C0002022012409E021FA02F59D4205D303FA11
:1009D00002F5491B04FA02F52844151EA2F1010292
:1009E000F1DC30BD00487047100000202DE9F041D7
:1009F0000646FFF7F7FF8046454613E016B1E0686C
:100A0000B0420ED120682860D4E90101D8F8007006
:100A10008847204619F036FCD8F80000B842EBD1E0
:100A200000E025462C68002CE8D1BDE8F081C1F338
:100A30000A52C1F3130140F2FF3341F480119A428C
:100A400002DA00200146704740F233439A42A2F294
:100A5000334202DC5242FFF7B8BEFFF7A7BE0000E8
:100A600030B5041E71F1000404DB4FF00044404235
:100A700064EB0101141E73F1000405DB1C464FF00A
:100A80000043524263EB0403994208BF904230BDD9
:100A9000704770B58D1810F8014B14F0030201D1A6
:100AA00010F8012B231106D110F8013B03E010F8D8
:100AB000016B01F8016B521EF9D1ABB110F8012B9B
:100AC00004F00C048A1A0C2C03D0A2EB84129B1C99
:100AD00008E010F8014BA2EB0422F8E712F8014BF2
:100AE00001F8014B5B1EF9D5A942D4D3002070BD9B
:100AF000FFE7FEE780B542F68430C2F2000002F064
:100B00006FFE80BD80B542F68430C2F2000002F074
:100B100067FE80BD80B542F6AC30C2F2000002F044
:100B20005FFE80BD80B542F6AC30C2F2000002F03C
:100B300057FE80BD84B08DF80F000291ADF80620FD
:100B40009DF80F000146009123281DD80099DFE889
:100B500001F012131415161B1B1B1B1B1B1B1B1B4D
:100B60001B1B1B1B1B1B1B1B1B1B1B1B1B1B1B1BD5
:100B70001B1B1718191A08E007E006E005E004E05F
:100B800003E002E001E000E0FFE7002004B070476E
:100B90000020704780B582B042F6A800C2F2000083
:100BA000009041F2EC31C2F200010022019208F003
:100BB000E9FE009840F6EC31C2F2000108F0C4FEF4
:100BC000019802B080BD000080B584B0039002910E
:100BD0000398029909680BF0D7FF039942F6A80021
:100BE000C2F20000019008F0AFFE019808F052FE3A
:100BF000002004B080BD000080B584B00390029155
:100C00008DF8072000208DF806000BF0C9FF9DF934
:100C1000060004B080BD000080B586B00490ADF839
:100C20000E1000208DF80D0042F6A800C2F2000060
:100C3000D0F8BC0202900298D0F8140220B1FFE76D
:100C400001208DF8170013E00499BDF80E2042F63C
:100C5000A800C2F20000019008F094FE019808F08C
:100C60009BFF8DF80D009DF80D008DF81700FFE734
:100C70009DF8170006B080BD80B542F63440C2F240
:100C8000000003F003FC80BD80B542F69440C2F240
:100C9000000003F0FBFB80BD80B542F6D430C2F209
:100CA000000003F0F3FB80BD80B542F6F440C2F2D1
:100CB000000003F0EBFB80BD82B00190019800784A
:100CC00010384AF6AB21CAF6AA21A0FB0110000990
:100CD000009000994AF6BC60C0F60100405C0199A2
:100CE000C8650098042807D3FFE701990868042223
:100CF00062F30900886506E00199086840F2FF3256
:100D000090438865FFE70198806D02B0704700004E
:100D100086B0059000208DF813000598806A039036
:100D20000598806910BBFFE70398029003281BD841
:100D30000299DFE801F0020D0218059890F82F00E3
:100D4000C00720B1FFE701208DF81300FFE70CE09A
:100D50000598C06AB0F1C07F04D1FFE701208DF88B
:100D60001300FFE701E000E0FFE745E00598806938
:100D7000B0F5005F25D1FFE70398019003281ED846
:100D80000199DFE801F00206021101208DF813003D
:100D900016E0059890F82F00C00720B1FFE701206A
:100DA0008DF81300FFE70BE00598C06AB0F1C07F33
:100DB00004D1FFE701208DF81300FFE700E0FFE713
:100DC00019E003980090032804D3FFE70098032854
:100DD00004D00EE001208DF813000BE0059890F888
:100DE0002F00C00720B1FFE701208DF81300FFE7B7
:100DF00000E0FFE7FFE7FFE79DF8130006B070474C
:100E000084B00390029101920093039801680868EE
:100E100020F48020086000980399096848600398CE
:100E20008068402809D1FFE7019803990968886024
:100E3000029803990968C86008E002980399096854
:100E40008860019803990968C860FFE704B070479B
:100E50007047000072B6FFE7FEE7000080B584B07F
:100E600047F61020C1F6FF700068039047F6142083
:100E7000C1F6FF700068029047F61820C1F6FF70B7
:100E8000006801900199039808440390039888B181
:100E9000FFE7039840F21441C2F2000100910231D1
:100EA000082206F0F9FF009902981231042206F098
:100EB000F3FFFFE704B080BD80B5ACB012F0CEFD0B
:100EC00012F0F0FE2B9012F0C9FD12F0F5FE2A9000
:100ED00041F6F030C2F200000078BFF35F8FC00728
:100EE00018BBFFE741F6F030C2F2000017F0CDFC6E
:100EF000D8B1FFE72B9942F28010C2F200001490A3
:100F0000002210F07BFC149941F6D500C0F60100D8
:100F100040F20002C0F60002FFF7CEF941F6F030D1
:100F2000C2F2000017F0C7FCFFE741F6F430C2F24E
:100F300000000078BFF35F8FC00718BBFFE741F6E2
:100F4000F430C2F2000017F0A0FCD8B1FFE72B99F3
:100F500042F24020C2F200001390002210F0C4FCC4
:100F6000139941F6BD10C0F6010040F20002C0F630
:100F70000002FFF7A1F941F6F430C2F2000017F0C9
:100F80009AFCFFE741F6F830C2F200000078BFF3A8
:100F90005F8FC00718BBFFE741F6F830C2F20000D0
:100FA00017F073FCD8B1FFE72B9942F2C020C2F2D0
:100FB00000001290012211F07BFA129942F2455082
:100FC000C0F6010040F20002C0F60002FFF774F91B
:100FD00041F6F830C2F2000017F06DFCFFE741F671
:100FE000FC30C2F200000078BFF35F8FC00770BB17
:100FF000FFE741F6FC30C2F2000017F046FC30B3C8
:10100000FFE72B9901208DF8A60002208DF8A7009C
:1010100068464FF40072026042F27030C2F2000083
:1010200011900DF1A60311F03DFD119942F63D30EE
:10103000C0F6010040F20002C0F60002FFF73CF9E2
:1010400041F6FC30C2F2000017F035FCFFE742F237
:101050006811C2F2000142F28010C2F20000099051
:10106000086042F26411C2F2000142F24020C2F272
:1010700000000A90086042F27811C2F2000142F2C8
:10108000C020C2F200000B90086042F27C11C2F254
:10109000000142F27030C2F200000F9008602B98FD
:1010A000019025A8029015F08BFE01980299026824
:1010B000D2699047029815F0B3FE2B98039020A8B0
:1010C000049015F089FE039804990268D26990474C
:1010D000049815F0A5FE2B9805901BA8069015F016
:1010E00087FE059806990268D2699047069815F020
:1010F00097FE2B98079016A8089015F085FE079884
:1011000008990268D2699047089815F089FE41F65F
:101110002040C2F200000FF0DDFA41F6C040C2F2FA
:1011200000000FF0DFF811F077FF11F0E1FE42F25E
:10113000A800C2F200000DF001F80CF011FB0CF059
:101140003FFA4FF4FA7003F04BFC099801210C911F
:101150000FF0FAFF0A20109003F042FC09980221D8
:101160000D910FF0F1FF109803F03AFC0A980C99DA
:101170000FF05EFC109803F033FC0B980C9910F004
:10118000EBFC109803F02CFC0B980C9900220E92AB
:1011900010F096FC109803F023FC0C990E9A0F980F
:1011A00011F0DAF90D990E9A0F9811F0D5F90F9800
:1011B00011F05CFA109803F013FC2CB080BD000015
:1011C00080B5ADF57A7D42F2A800C2F200005D90D4
:1011D0000DF0FEF840F23420C2F200005B9000F106
:1011E000200141F62040C2F200005C900BF0EAFDC5
:1011F0005B995C98343054310BF0E4FD5B995C985A
:10120000683088310BF0DEFD5C9842F26811C2F262
:101210000001096842F26412C2F2000212680FF083
:101220009BFA5D9814F0DAF80146002918BF0121F5
:1012300041F6C040C2F2000080F8B21390F8B20349
:10124000A0B3FFE742F2A800C2F20000589014F0E9
:10125000CDF858989FEDD51A8DED591A20EE410A18
:1012600041F6C041C2F200015A9181EDEA0A14F040
:10127000A1F858989DED591A5A9920EE410A81ED2E
:10128000EB0A14F0A1F89DED591A5A9820EE010AC4
:1012900080EDED0AD0F8A82340F23401C2F200013B
:1012A0004A64D0F8B403C1F8B00015E041F620401C
:1012B000C2F20000569014F0F9F8569840F234014A
:1012C000C2F20001579181ED110A343014F0C6F8D2
:1012D000579880ED2C0AFFE740F28070C2F20000C0
:1012E000007800285ED1FFE703F078FDF990F998C7
:1012F00042F24441C2F200010968401AC82850D3A2
:10130000FFE7F99842F24441C2F20001086042F25C
:101310006810C2F20000006838B3FFE742F26810BC
:10132000C2F200000068012111F0AAFC48B9FFE7F1
:1013300042F26810C2F20000006801210FF004FFC1
:10134000FFE742F26810C2F200000068022111F0CB
:1013500097FC48B9FFE742F26810C2F2000000684B
:1013600002210FF0F1FEFFE7FFE742F26410C2F244
:1013700000000068A0B1FFE742F26410C2F2000072
:101380000068012111F0E4FB48B9FFE742F2641064
:10139000C2F20000006801210FF04AFBFFE7FFE7FF
:1013A000FFE7FFE711F038FEF890F89814F016FB0D
:1013B000F790F89814F018FBF690F89811F06EFE7C
:1013C0008DF8D703F798022806D1FFE7F699012098
:1013D0000229559004D0FFE79DF8D7035590FFE709
:1013E000559800F001008DF8D603F79840F280710F
:1013F000C2F200018870F698C8709DF8D70300F01B
:1014000001004870002048719DF8D603C0070028ED
:1014100056D0FFE740F28070C2F20000007800284A
:101420004DD1FFE740F28072C2F20002012010703D
:1014300040F23401C2F2000191F83800D07191F805
:10144000A400107291F8100150720020907181F880
:10145000380081F8A40081F8100142F26810C2F24D
:101460000000006878B1FFE742F26810C2F20000A5
:101470005490006801210FF091FE549800680221F9
:101480000FF08CFEFFE742F26410C2F20000006829
:1014900048B1FFE742F26410C2F200000068012187
:1014A0000FF0F0FAFFE740F24431C2F200010320EE
:1014B000887640F28071C2F200014871FFE794E142
:1014C00040F28070C2F200000078002847D0FFE7A9
:1014D00040F28071C2F200010020087042F26810F0
:1014E000C2F20000006878B1FFE742F26810C2F271
:1014F00000005390006801210FF026FE5398006809
:1015000002210FF021FEFFE742F26410C2F2000058
:10151000006848B1FFE742F26410C2F200000068C0
:1015200001210FF085FAFFE740F28071C2F200015D
:10153000C87940F23402C2F2000282F83800087A18
:1015400082F8A400487A82F810010020887140F2E5
:101550004432C2F2000204209076487144E1F898C7
:1015600014F03CFA014600200329529013D1FFE702
:10157000F89814F039FA01460020032952900AD154
:10158000FFE740F2D020C2F200000078002818BF28
:1015900001205290FFE7529800F001008DF8D3032C
:1015A0009DF8D303C00768B902E000BF35FA8E3C4E
:1015B00040F28070C2F20000811D0DF2D53015F0AE
:1015C00001FDFFE79DF8D303C007002879D0FFE7AE
:1015D000F89814F0ABF9ADF8D10340F2A470C2F260
:1015E000000000788DF8D00342F24140C2F20000C2
:1015F000007800BBFFE79DF8D203C0F3801042F2F1
:101600003C41C2F20001087040F28071C2F2000158
:10161000002088729DF8D00302280BD0FFE740F22B
:101620008070C2F2000000F10A01F5A8012215F055
:1016300039FDFFE7FFE79DF8D203C0F380108DF876
:10164000CF0340F28070C2F20000807A58B1FFE709
:1016500040F28070C2F2000000F10A010DF2D530B4
:1016600015F0B0FCFFE79DF8CF03D0B1FFE742F2E1
:101670003C40C2F20000007898B9FFE79DF8D00323
:10168000022818BF01208DF8CE039DF8CE2340F22A
:101690008070C2F2000000F10A01F5A815F002FD09
:1016A000FFE79DF8CF0342F23C41C2F2000108700F
:1016B000F89814F093F940F28071C2F200010871B9
:1016C00088E040F28071C2F200010020887242F28C
:1016D0003C42C2F200021070F7988DF8CD039DF8DD
:1016E000CD030979884274D0FFE79DF8CD03012826
:1016F0000AD0FFE79DF8CD03032805D0FFE79DF84A
:10170000CD0302285CD1FFE79DF8CD03022818BF66
:1017100001208DF8CC0313F013FC14F091FAF29031
:10172000F2980138B0FA80F040098DF8C7039DF8AF
:10173000C703C007B8B9FFE741F6C040C2F20000D6
:1017400090F8080178B1FFE740F23400C2F20000DF
:10175000007F40B1FFE740F20020C2F20000007DB0
:1017600001281AD1FFE741F6C040C2F200005190B3
:1017700090EDEA0A0EF008FA519840F23401C2F2F4
:10178000000101220A77D0F8A803086040F2002186
:10179000C2F2000100200875FFE79DF8CC0340F27B
:1017A0008071C2F2000101F8060F50910DF2D530A0
:1017B00015F008FC50999DF8CD0301F8020C07E0E4
:1017C0009DF8CD0340F28071C2F200010871FFE77D
:1017D000FFE7FFE79DF8D30300F0010042F241412B
:1017E000C2F200010870FFE7FFE740F2A470C2F206
:1017F00000006946086042F28000C2F2000041F633
:101800002041C2F2000140F23402C2F2000240F272
:101810004433C2F2000311F03FFD0BF0A1FF0BF0C7
:101820004BFE11F0F9FBF090F09814F0D7F8EF9020
:10183000F09814F0D9F8EE90EF99012003294F9019
:1018400007D0FFE7EF980138B0FA80F040094F90D9
:10185000FFE74F9800F001008DF8B703EF990020E3
:1018600001294E9010D1FFE7EE99012001294D90FA
:1018700007D0FFE7EE980238B0FA80F040094D90AB
:10188000FFE74D984E90FFE74E9800F001008DF86D
:10189000B6039DF8B6130020C9074C9099B1FFE735
:1018A00040F23040C2F20000817E00204C9051B1E5
:1018B000FFE740F23040C2F20000007C002818BF71
:1018C00001204C90FFE74C9800F001008DF8B50323
:1018D00040F2A470C2F20000007812F091F88DF886
:1018E000B4039DF8B5130020C9074B9079B1FFE709
:1018F00040F28070C2F20000017800204B9031B9B4
:10190000FFE79DF8B40380F001004B90FFE74B9890
:1019100000F001008DF8B30300208DF8B2039DF8AC
:10192000B303C007002800F0A680FFE742F23E4064
:10193000C2F200000078002840F09D80FFE742F2EC
:101940003E41C2F20001012008708DF8B20341F659
:101950002040C2F20000343013F0B0FDA0B1FFE728
:1019600041F6C040C2F2000090F8B20360B1FFE758
:1019700041F6C040C2F20000D0F8B40340F2340196
:10198000C2F20001C86617E041F62040C2F2000032
:10199000343013F093FD70B1FFE741F62040C2F2FE
:1019A0000000343013F05AFD40F23400C2F200005F
:1019B00080ED1B0AFFE7FFE741F62040C2F200007E
:1019C00013F07CFD002840D0FFE740F20020C2F277
:1019D0000000007D012815D1FFE741F6C040C2F2AA
:1019E000000090EDEA0A0EF0CFF840F23401C2F2A6
:1019F00000010120087740F20021C2F2000100201E
:101A00000875FFE741F6C040C2F2000090F8B2034B
:101A100048B1FFE741F6C040C2F2000090EDEA0A8B
:101A20008DED4A0A08E041F62040C2F2000013F0B2
:101A30003DFD8DED4A0AFFE79DED4A0A40F2340074
:101A4000C2F2000080ED000AFFE741F6C040C2F29A
:101A50000000499012F0DAFA4998783012F0D6FA7C
:101A6000499800F59C7012F0D1FA499800F5D870A9
:101A700012F0CCFA95E09DF8B303C007002840F0BF
:101A80008F80FFE742F23E40C2F20000007800285B
:101A900000F08680FFE742F23E41C2F200010020E2
:101AA00008708DF8B2039DF8B403C007002861D117
:101AB000FFE740F28070C2F200000078002859D1A0
:101AC000FFE741F62040C2F2000013F0F7FC18B324
:101AD000FFE741F6C040C2F2000090F8B20348B1FF
:101AE000FFE741F6C040C2F2000090EDEA0A8DED3A
:101AF000480A08E041F62040C2F2000013F0D6FC8C
:101B00008DED480AFFE79DED480A40F23400C2F22D
:101B1000000080ED000AFFE741F62040C2F200001D
:101B2000343013F0CBFC20B3FFE741F6C040C2F2E3
:101B3000000090F8B20348B1FFE741F6C040C2F29E
:101B4000000090EDED0A8DED470A09E041F62040D6
:101B5000C2F20000343013F081FC8DED470AFFE73C
:101B60009DED470A40F23400C2F2000080ED1B0AEE
:101B7000FFE7FFE741F6C040C2F20000469012F0D6
:101B800045FA4698783012F041FA469800F59C7074
:101B900012F03CFA469800F5D87012F037FAFFE7D9
:101BA000FFE713F0CDF914F04BF8EB9040F2A4707E
:101BB000C2F2000000788DF8AB03EB9900200429F5
:101BC000459008D1FFE79DF8AB030438B0FA80F0E8
:101BD00040094590FFE7459800F001008DF8AA0301
:101BE0009DF8AA0300F001008DF8A9039DF8A90350
:101BF00042F24841C2F20001097888425AD0FFE718
:101C00009DF8A90318B3FFE741F62040C2F2000097
:101C100013F04CFC8DEDE90A41F6C040C2F2000021
:101C20000021449180F8B0139DEDE90A0DF0ACFF5E
:101C3000449840F23402C2F2000201211177E9997E
:101C4000116040F20021C2F20001087531E041F656
:101C5000C040C2F20000012180F8B01390F8B20336
:101C600048B1FFE741F6C040C2F2000090EDEA0A39
:101C70008DED430A08E041F62040C2F2000013F067
:101C800015FC8DED430AFFE79DED430A8DEDE80A53
:101C90009DEDE80A41F6C040C2F200000DF074FF6D
:101CA00040F23401C2F2000101200877E898086090
:101CB000FFE7FFE79DF8A90342F24841C2F20001A5
:101CC000087040F28070C2F20000007848B9FFE767
:101CD00040F2A470C2F20000007811F091FE08B149
:101CE000FFE7B2E29DF8B703C007002800F08C8040
:101CF000FFE742F23E40C2F200000078002800F008
:101D00008380FFE79DF8B20300287CD1FFE741F60E
:101D10002040C2F20000343013F0D0FB002872D013
:101D2000FFE740F23040C2F2000090ED000A9FED64
:101D3000D61A20EE010A8DEDE70A41F6C040C2F244
:101D4000000090F8B20358B3FFE747F20720C3F64C
:101D50001370E69046F2F360CBF6DF60E5909DED00
:101D6000E70A9FEDCA1AB4EE410AF1EE10FA06DD59
:101D7000FFE747F20720C3F61370E790FFE79DEDFA
:101D8000E70A9FEDC31AB4EE410AF1EE10FA06DA43
:101D9000FFE746F2F360CBF6DF60E790FFE72BE06A
:101DA00041F62040C2F20000343013F091FBE49081
:101DB000E498007CF8B9FFE79DEDE70AE49890ED20
:101DC000021AB4EE410AF1EE10FA04DDFFE7E498DE
:101DD0008068E790FFE79DEDE70AE49890ED011A2F
:101DE000B4EE410AF1EE10FA04DAFFE7E498406835
:101DF000E790FFE7FFE7FFE7E79840F23401C2F220
:101E00000001C866FFE71FE29DF8B703C00700287E
:101E100000F01982FFE711F0FFF8E390E39813F068
:101E2000DDFD014600200329429013D1FFE7E3982E
:101E300013F0DAFD01460020032942900AD1FFE7A2
:101E400040F2D020C2F200000078002818BF012024
:101E50004290FFE7429800F001008DF88B039DF857
:101E60008B0300F001000BF0C5F98DF88A039DF893
:101E70008B03C007D0B1FFE742F24240C2F200003C
:101E8000007898B9FFE740F23401C2F20001486CD3
:101E90000860D1F8B000C86640F2D021C2F200015B
:101EA0000020C862086348638863FFE79DF88B03DE
:101EB00000F0010042F24241C2F2000108709DF8B8
:101EC0008A03C00750B1FFE740F2D021C2F20001FF
:101ED00000200863C86288634863B3E19DF88B0300
:101EE000C007002800F0F080FFE7E39813F054FDEE
:101EF0008DEDDC0B8DEDDE1B9DEDDE0B51EC100B43
:101F0000FEF738FCE19040F2D020C2F200004068B9
:101F1000DB909DEDE10A9DEDDB1AB1EE411AB4EEC6
:101F2000410AF1EE10FA0DDDFFE79DEDE10A9DEDAE
:101F3000DB1AB4EE410AF1EE10FA03DAFFE70020F3
:101F4000E190FFE79DEDE10A40F2D020C2F20000EF
:101F5000419090ED121A20EE010A8DEDDA0A9DED06
:101F6000DA0A90ED141AF1EE410A0AF05DFE41988A
:101F70008DEDD90A41F26F21C3F68321D8919DEDF1
:101F8000D90AD0ED0F0A90ED101A3830DFED411A62
:101F90000BF0DAF841998DEDD70AD798086341F62E
:101FA0002040C2F20000343013F088FA002800F01C
:101FB0008A80FFE740F23400C2F2000090ED1B1A65
:101FC0009DEDD70A9FED332A20EE020A30EE010A7A
:101FD0008DEDD60A41F6C040C2F2000090F8B2037F
:101FE00058B3FFE747F20720C3F61370D5904FF6BA
:101FF0003520CBF68E60D4909DEDD60A9FED231A46
:10200000B4EE410AF1EE10FA06DDFFE747F20720D1
:10201000C3F61370D690FFE79DEDD60A9FED1E1A0A
:10202000B4EE410AF1EE10FA06DAFFE74FF635207A
:10203000CBF68E60D690FFE73EE041F62040C2F23C
:102040000000343013F044FAD390D398007C90BB56
:10205000FFE79DEDD60AD39890ED021AB4EE410A3F
:10206000F1EE10FA04DDFFE7D3988068D690FFE721
:102070009DEDD60AD39890ED011AB4EE410AF1EE27
:1020800010FA17DA12E000BF35FA8E3C0772133FE0
:10209000F366DFBE6F12833A35FA8EBECDCC4CBDEF
:1020A000CDCC4C3D3333334035FA8EBCD3984068A9
:1020B000D690FFE7FFE7FFE7D69840F23401C2F27F
:1020C0000001C866FFE7BCE040F2D021C2F2000187
:1020D00000200863E39813F095FC51EC100BFEF719
:1020E00049FBD2904CF6CD40C3F64C50D1909DEDBB
:1020F000D20A1FED161AB4EE410AF1EE10FA0DDD08
:10210000FFE79DEDD20A1FED1A1AB4EE410AF1EE77
:1021100010FA03DAFFE70020D290FFE743F23330F2
:10212000C4F23300D0909DEDD20A1FED221A20EEAA
:10213000010A8DEDCF0A41F26F20C3F68320CE90C5
:1021400041F62040C2F20000343013F0B7F9002805
:1021500076D0FFE740F23400C2F2000090ED1B1A87
:102160009DEDCF0A1FED352A20EE020A30EE010A5E
:102170008DEDCD0A41F6C040C2F2000090F8B203E6
:1021800058B3FFE747F20720C3F61370CC904FF621
:102190003520CBF68E60CB909DEDCD0A1FED451A14
:1021A000B4EE410AF1EE10FA06DDFFE747F2072030
:1021B000C3F61370CD90FFE79DEDCD0A1FED4A1ACF
:1021C000B4EE410AF1EE10FA06DAFFE74FF63520D9
:1021D000CBF68E60CD90FFE72BE041F62040C2F2B7
:1021E0000000343013F074F9CA90CA98007CF8B932
:1021F000FFE79DEDCD0ACA9890ED021AB4EE410AB0
:10220000F1EE10FA04DDFFE7CA988068CD90FFE791
:102210009DEDCD0ACA9890ED011AB4EE410AF1EE97
:1022200010FA04DAFFE7CA984068CD90FFE7FFE7AD
:10223000FFE7CD9840F23401C2F20001C866FFE723
:10224000FFE7FFE7FFE7FFE7FFE740F28070C2F23A
:102250000000007848B9FFE740F2A470C2F2000025
:10226000007811F0CDFB08B1FFE7AAE29DF8B703B3
:10227000C00758B3FFE742F23E40C2F200000078C8
:1022800020B3FFE79DF8B203F8B9FFE741F620401D
:10229000C2F2000013F012F9B8B1FFE740F230408B
:1022A000C2F2000090ED010A90ED0B1A30EE410AE7
:1022B0001FED831A20EE010A8DEDC90AC99840F27C
:1022C0003401C2F200010860FFE779E29DF8B7032C
:1022D000C007002800F07382FFE710F09DFEC89051
:1022E000C89813F07BFB014600200329409013D1CE
:1022F000FFE7C89813F078FB0146002003294090BF
:102300000AD1FFE740F2D020C2F200000078002896
:1023100018BF01204090FFE7409800F001008DF8C1
:102320001F039DF81F0300F001000AF063FF8DF802
:102330001E0312F005FE13F083FCC690C699002020
:1023400001293F9006D1FFE79DF81F0380F00100AF
:102350003F90FFE73F9800F001008DF81703002041
:10236000C49041F6C040C2F2000090F8B203D0B170
:10237000FFE742F2A800C2F2000013F01BF81FEDC5
:10238000B61A20EE010A8DEDC40AC49841F6C04188
:10239000C2F20001C1F8AC03C49840F20021C2F2BD
:1023A00000014860FFE79DF8170300F001008DF879
:1023B0000F039DF80F1300203E9051B3FFE742F248
:1023C0004040C2F20000017801203D90F1B1FFE7EA
:1023D00040F20020C2F20000017D012001293D9061
:1023E00014D1FFE741F6C040C2F2000090F8081196
:1023F00001203D9051B9FFE740F23400C2F20000E5
:10240000007F002818BF01203D90FFE73D983E90D7
:10241000FFE73E9800F001008DF80E039DF80F13C2
:1024200000203C9051BBFFE742F24040C2F2000066
:10243000017801203B90F1B9FFE740F20020C2F2A1
:102440000000017D01203B90A9B9FFE741F6C040A3
:10245000C2F2000090F80811012001293B900AD136
:10246000FFE740F23400C2F20000007F013818BFDD
:1024700001203B90FFE73B983C90FFE73C9800F041
:1024800001008DF80D039DF80E03C007A8B1FFE70A
:102490009DEDC40A41F6C040C2F200000DF08EFB73
:1024A00040F20021C2F200010120087540F234011F
:1024B000C2F20001002008771FE09DF80D03C0075D
:1024C000D0B1FFE741F6C040C2F200003A9090ED73
:1024D000EA0A0DF059FB3A9840F20022C2F20002DB
:1024E0000021117540F23401C2F2000101220A7785
:1024F000D0F8A8030860FFE7FFE79DF80F0342F25A
:102500004041C2F200010870C89813F073FA51EC10
:10251000100BFEF72FF9C2904CF6CD40C3F64C508D
:10252000C1909DEDC20A9FEDDD1AB4EE410AF1EEB5
:1025300010FA0DDDFFE79DEDC20A9FEDD91AB4EE4A
:10254000410AF1EE10FA03DAFFE70020C290FFE73C
:1025500043F23330C4F23300C0909DEDC20A9FEDC8
:10256000D11A20EE010A8DEDBF0A41F62040C2F2D9
:10257000000012F0A3FF002800F02081FFE79DF883
:102580001E03C00740B1FFE740F2D021C2F20001B4
:102590000020C862486310E19DF81F03C0070028AF
:1025A0006DD0FFE7C89813F0F7F98DEDBA0B8DEDFC
:1025B000BC1B9DEDBA0B51EC100BFEF7DBF8BE9087
:1025C00040F2D020C2F200004068B9909DEDBE0AF2
:1025D0009DEDB91AB1EE411AB4EE410AF1EE10FACE
:1025E0000DDDFFE79DEDBE0A9DEDB91AB4EE410A7F
:1025F000F1EE10FA03DAFFE70020BE90FFE741F2A8
:102600006F20C3F68320B8909DEDBE0A40F2D02023
:10261000C2F20000389090ED111A20EE010A8DED03
:10262000B70A9DEDB70A90ED131AF1EE410A0AF0D0
:10263000FBFA38988DEDB60A9DEDB60AD0ED0F0A7B
:1026400090ED101A3430DFED981ACDED391A0AF0FA
:102650007BFD38999DED392A8DEDB50AB598C86294
:102660009DEDB50A40F23400C2F2000090ED001A70
:1026700020EE020A30EE010A80ED000A9CE09DF88F
:102680001703C007002879D0FFE740F2D021C2F23B
:1026900000010020C8624863BF9840F20021C2F2E6
:1026A000000108608868CA682E9209693091FEF7B7
:1026B0004EF802462E982F920A462F9942EC101B94
:1026C0008DED320BFEF743F80246309831920A4600
:1026D000319942EC101B8DED340BFEF738F89DED6F
:1026E000320B9DED341B41EC120BAEA811F020FE15
:1026F0009DEDBF0ADDEDC40AAE98AF99B09AB19BCB
:10270000DDF8C8C2DDF8CCE2CDF8ACE2CDF8A8C265
:10271000A993A892A791A6909DEDA61B9DEDA82B2D
:102720009DEDAA3B41F6C040C2F200000DF0A8F9B1
:102730008DEDAD0A42F26810C2F2000000683790D9
:102740009DEDAD0A8DED360A41F62040C2F2000043
:1027500012F0BEFE9DED360A0146379891ED031A40
:1027600020EE012A0121DFED511AB0EE610AF0EEF0
:10277000610AB0EE611A0EF0BFFE1CE040F2D021FB
:10278000C2F200010020C862486341F26F20C3F624
:102790008320A5909DEDBF0A40F23400C2F20000F4
:1027A00090ED001A9FED402A20EE020A30EE010A59
:1027B00080ED000AFFE7FFE7FFE7FFE7FFE7FFE73E
:1027C000FFE712F0BDFB12F0FDFA40F2A470C2F276
:1027D0000000007811F014F98DF8930242F23E40A7
:1027E000C2F20000007830B1FFE740F26040C2F270
:1027F00000002D9005E040F23400C2F200002D9060
:10280000FFE72D9989A86C22FDF70FFD40F23400F7
:10281000C2F200000168899190F838008DF85C02DE
:1028200042F23E40C2F20000007838B1FFE740F2C9
:102830006040C2F200006C302C9006E040F23400A0
:10284000C2F200006C302C90FFE72C996EA86C222D
:10285000FDF7EBFC40F23400C2F20000C16E6E9155
:1028600090F8A4008DF8F00142F23E40C2F2000060
:102870000078002818BF012041F6C041C2F20001D3
:1028800081F8B10340F20020C2F20000007D88B15F
:10289000FFE79DF89302C007A0B10BE0CDCC4CBD83
:1028A000CDCC4C3D333333406F12833A00000000EF
:1028B00035FA8E3C41F6C041C2F2000189A80AF007
:1028C0007BFBFFE741F6C040C2F200002B9000F511
:1028D0009C716EA80AF070FB2B9940F23400C2F292
:1028E0000000D83001F51C710AF066FB42F2A80026
:1028F000C2F2000012F072FD01462B98002918BFA9
:10290000012180F8B21390F8B20348B3FFE742F216
:10291000A800C2F20000289012F068FD28981FED70
:102920001C1A8DED291A20EE410A41F6C041C2F26F
:1029300000012A9181EDEA0A12F03CFD28989DEDF4
:10294000291A2A9920EE410A81EDEB0A12F03CFD8A
:102950009DED291A2A9820EE010A80EDED0AFFE785
:1029600042F26810C2F20000026842F26410C2F241
:102970000000036841F6C040C2F20000249041F616
:102980002041C2F2000122910DF01EFD229840F27A
:102990003421C2F2000121910AF0CCF92199229848
:1029A0003430239034310AF0C5F9219922986830E7
:1029B000269068310AF0BEF9229A249842F23E41EC
:1029C000C2F2000127910978B1FA81F14B0940F276
:1029D0003401C2F2000125910AF0A0FA239A24984A
:1029E0002599279B1B78B3FA83F35B0900F59C704C
:1029F0006C310AF093FA24982599269A00F51C70F8
:102A0000D83101230AF08AFA27980078F0B1FFE75D
:102A100041F6C040C2F200001D9040F26041C2F297
:102A200000011E9141F62042C2F200021F920123D2
:102A300020930AF073FA1D981E991F9A209B00F5A7
:102A40009C706C3134320AF069FAFFE740F23401CD
:102A5000C2F2000101F16C0241F6C040C2F2000076
:102A60000AF056F942F23E40C2F20000007868B126
:102A7000FFE740F26041C2F2000101F16C0241F651
:102A8000C040C2F200000AF043F9FFE710F0C4FAB8
:102A90006D906D9812F0AEFF51EC100BFDF76AFED1
:102AA00040F2C851C2F200011A9108606D9812F00C
:102AB000A9FF51EC100BFDF75DFE1A9948606D9867
:102AC00012F0A8FF51EC100BFDF754FE1A99886024
:102AD0006D9812F0A7FF51EC100BFDF74BFE1A9901
:102AE000C8606D9812F07AFF1A9908746D9812F008
:102AF0007BFF1A9948746D9812F04EFF8DED680BAC
:102B00008DED6A1B9DED680B51EC100BFDF732FE4D
:102B10001A9948616D9812F03FFF8DED640B8DEDB1
:102B2000661B9DED660B51EC100BFDF723FE1A9909
:102B300088616D9812F07EFF1A998DF88F019DF8CB
:102B40008F0100F0010008776D9812F073FF1A9959
:102B50008DF88E019DF88E01C0F3400048776D9886
:102B600012F0E4FE1A99ADF88C019DF88C0100F08A
:102B7000010088779DF88C01C0F34000C8779DF86C
:102B80008C01C0F3800081F820009DF88C01C0F317
:102B9000C00081F821009DF88C01C0F3001081F87D
:102BA00022009DF88C01C0F3401081F823009DF8AD
:102BB0008C01C0F3801081F824009DF88C01C009BD
:102BC00081F825009DF88D0100F0010081F82600B4
:102BD0009DF88D01C0F3400081F827009DF88D011C
:102BE000C0F3800081F828009DF88D01C0F3C0007B
:102BF00081F829009DF88D01C0F3001081F82A00AA
:102C00009DF88D01C0F3401081F82B009DF88D01D7
:102C1000C0F3801081F82C009DF88D01C00981F867
:102C20002D006D9812F012FF51EC100BFDF7A2FD74
:102C30001A9908636D9810F031FA1A9980F0010022
:102C400081F834006D9812F09FFE40F20061C2F2EC
:102C500000011B9108606D9812F0B0FE1B9948604E
:102C60006D9812F0B3FE1B9988606D9812F06AFEA1
:102C70001B9988816D9812F06DFE1B9908616D9803
:102C800012F0ACFE0146002003291C9009D1FFE799
:102C90006D9812F0A9FE0338B0FA80F040091C903C
:102CA000FFE71C9800F0010140F20060C2F2000052
:102CB0000175017D00201990A1B1FFE740F2C850D5
:102CC000C2F2000090F834100020199051B1FFE7D3
:102CD00040F2D020C2F200000078002818BF012086
:102CE0001990FFE7199800F0010040F2D021C2F2DC
:102CF000000181F8200042F2A800C2F20000179003
:102D000012F012FB179840F21C71C2F200011891E8
:102D100081ED000A12F058FB1798189981ED010A0D
:102D200012F02AFB1798189981ED020A12F02EFB77
:102D30001798189981ED030A12F032FB1798189929
:102D400081ED040A12F036FB1798189981ED050AF7
:102D500012F0F4FA1798189981ED060A12F0F8FAB1
:102D60001798189981ED070A12F0FCFA179818992C
:102D700081ED080A12F042FB1798189981ED090AB3
:102D800012F046FB1798189981ED0A0A12F04AFBD7
:102D90001798189981ED0B0A12F04EFB17981899A5
:102DA00081ED0C0A12F022FB1798189981ED0D0A9B
:102DB00012F0AAFA189A01461798916312F0ACFA29
:102DC000189A0146179882F83C1012F007FB1899E0
:102DD00081F83D0042F27810C2F20000006800283D
:102DE00058D0FFE742F27810C2F200001590006858
:102DF0000121149112F046FC1598149940F260726A
:102E0000C2F20002169282ED000A006812F0A0FCE5
:102E100015981499169A82ED010A006812F0BAFC0E
:102E200015981499169A82ED020A006812F06EFC49
:102E300015981499169A82ED030A006812F064FB43
:102E40001499169B024615986292629AD2881A8249
:102E5000629A92885A82629A52889A82629A127808
:102E60009A75006812F042FB1499169B0246159859
:102E70006192619A52881A83619A12799A76619A5C
:102E8000527902F00102DA7600680FF061FE1699BD
:102E90000877FFE742F27C10C2F2000000680028C9
:102EA00060D0FFE742F27C10C2F200000068609040
:102EB00060980121119112F08FFC119940F2E460A9
:102EC000C2F20000139080ED000A609812F0B2FB8D
:102ED0001199139880ED010A609812F0E3FC1199A2
:102EE000139880ED020A609812F0FEFC1199139875
:102EF00080ED030A609812F0B3FC1199139880EDED
:102F0000040A60980FF0BCFE1399087560980221BE
:102F1000129112F061FC1299139880ED060A6098E4
:102F200012F088FB1299139880ED070A609812F04E
:102F3000B9FC1299139880ED080A609812F0D4FC3D
:102F40001299139880ED090A609812F089FC129981
:102F5000139880ED0A0A60980FF092FE139981F899
:102F60002C00FFE70AF0FCFB0AF0A6FA8DF87F01BF
:102F700040F23040C2F2000090F82800002818BF4C
:102F800001208DF87E019DF87F01C00728B9FFE779
:102F90009DF87E01C007B8B1FFE742F23F40C2F2A0
:102FA0000000017801310170007802280BDBFFE797
:102FB00042F23F41C2F20001002008700AF0D0FB4B
:102FC0000AF022FBFFE7FFE742F23D40C2F20000B9
:102FD0000178013101700078022879DBFFE742F2C5
:102FE0003D41C2F200010020087041F6C040C2F22B
:102FF000000090F8080130B1FFE741F6C040C2F28E
:103000000000109006E041F6C040C2F200007830A7
:103010001090FFE710985E9041F6C040C2F20000A9
:1030200090ED4E0B90ED521B8DED021B90ED6C1B45
:103030008DED041B90ED701B8DED061B51EC100BFC
:10304000FDF798FB9DED020B01EE100A8DED0B1ABA
:1030500051EC100BFDF78EFB9DED040B01EE100AF9
:103060008DED0C1A51EC100BFDF784FB9DED060B5A
:1030700001EE100A8DED0D1A51EC100BFDF77AFBE5
:1030800000EE100A8DED0E0A5E9890ED000B90EDAB
:10309000041B8DED081B51EC100BFDF76BFB9DED38
:1030A000080B01EE100A8DED0F1A51EC100BFDF715
:1030B00061FB9DED0B0ADDED0C0A9DED0D1ADDEDBA
:1030C0000E1A9DED0F2A02EE900A09F06FFDFFE740
:1030D00041F60040C2F200000078BFF35F8FC007E6
:1030E000B0B9FFE741F60040C2F2000015F0CDFB99
:1030F00070B1FFE711F050FD42F23841C2F2000119
:10310000086041F60040C2F2000015F0D4FBFFE772
:1031100042F23840C2F200000190006811F0DEF97E
:103120000198006811F05EFD0DF57A7D80BD00000C
:1031300084B002900191029890F820008DF803006D
:103140009DF80300012805D0FFE79DF80300022841
:103150000AD1FFE7019A0298016848691043486163
:1031600000208DF80F0008E00299486A40F48020A2
:10317000486201208DF80F00FFE79DF80F0004B0B2
:103180007047000088B0069005910492039306985A
:1031900090F820008DF8070006980068806800907D
:1031A0000598806808B9FFE700E0FFE79DF8070091
:1031B000012806D0FFE79DF80700022840F0808034
:1031C000FFE79DF80300400700280CD4FFE79DF8B7
:1031D00003000007002806D4FFE79DF80300C0069F
:1031E000002864D5FFE70098C0F3016002900299BF
:1031F00001208840039908600598806868B9FFE756
:1032000005980168C06840EA415006990968029A29
:1032100001EB0211C1F880010EE005994A68886847
:10322000C96840EAC200084306990968029A01EB9E
:103230000211C1F88001FFE7059800690699096845
:10324000029A01EB0211C1F884010598007D012862
:103250000CD1FFE706980068029900EB0111D1F844
:10326000840140F48070C1F88401FFE7049840684D
:1032700006990968029A01EB0211C1F88C010498C1
:10328000006806990968029A01EB0211C1F88801E9
:1032900006980068029900EB0111D1F8800140F016
:1032A0000100C1F8800100208DF81F0011E006998F
:1032B000486A40F40010486201208DF81F0008E0C1
:1032C0000699486A40F48020486201208DF81F006A
:1032D000FFE79DF81F0008B07047000086B004901B
:1032E0000391049890F820008DF803009DF80300E6
:1032F000012806D0FFE79DF80300022840F0B080C7
:10330000FFE746F20040C4F2000001900199D1F8B5
:10331000000240F00100C1F800020199D1F800025A
:1033200020F47C50C1F800020398426A0199D1F858
:10333000000240EA0220C1F800020398406900F050
:103340001F01012088400290029A0199D1F81C02C5
:103350009043C1F81C020398C069F0B9FFE7029AD4
:103360000199D1F80C029043C1F80C02039A90889D
:10337000D168526940EA0140019901EBC201C1F8EC
:103380004002039A10889168526940EA014001990D
:1033900001EBC201C1F84402FFE70398C0690128AC
:1033A0001ED1FFE7029A0199D1F80C021043C1F82F
:1033B0000C02039A90881168526940EA0140019911
:1033C00001EBC201C1F84002039A908991685269E9
:1033D00040EA0140019901EBC201C1F84402FFE754
:1033E0000398806940B9FFE7029A0199D1F8040275
:1033F0009043C1F8040207E0029A0199D1F804024F
:103400001043C1F80402FFE70398006940B9FFE7E1
:10341000029A0199D1F814029043C1F8140207E00E
:10342000029A0199D1F814021043C1F81402FFE77F
:103430000398006A012808D1FFE7029A0199D1F8A0
:103440001C021043C1F81C02FFE70199D1F80002E9
:1034500020F00100C1F8000200208DF8170008E0FC
:103460000499486A40F48020486201208DF81700D2
:10347000FFE79DF8170006B07047000080B582B0E6
:1034800001900198006846F20041C4F200018842B0
:1034900001D0FFE730E0019800F030F8009042F6EC
:1034A0005401C2F20001086801300860009842F639
:1034B0005801C2F2000108609DF801008007002851
:1034C00008D5FFE742F66401C2F200010868013046
:1034D0000860FFE79DF800004007002808D5FFE7D7
:1034E00042F65001C2F20001086801300860FFE7AF
:1034F000019900204862FFE702B080BD81B00090D2
:103500000098406A01B0704784B003900291002097
:103510000190039890F820008DF803009DF80300B7
:10352000012805D0FFE79DF80300022812D1FFE72C
:10353000029838B9FFE703980068C06800F00300FC
:10354000019006E003980068006900F00300019014
:10355000FFE7FFE7019804B07047000086B00490D1
:10356000039102920193049890F820008DF80300D3
:103570009DF80300012806D0FFE79DF8030002280C
:1035800040F0E880FFE7039880B9FFE704980068FF
:10359000C068800748B9FFE70499486A40F4001002
:1035A000486201208DF81700DDE00FE00498006804
:1035B0000069800748B9FFE70499486A40F40010A1
:1035C000486201208DF81700CDE0FFE704980068FD
:1035D000039900EB0110D0F8B00100F0040002994B
:1035E00088600298806858B9FFE7049800680399DA
:1035F00000EB0110D0F8B001400D029908600AE01C
:1036000004980068039900EB0110D0F8B001C008DD
:1036100002994860FFE704980068039900EB0110E5
:10362000D0F8B00100F002000299C8600498006868
:10363000039900EB0110D0F8B40100F00F00082846
:1036400004D3FFE70299082008610BE004980068A2
:10365000039900EB0110D0F8B40100F00F000299BB
:103660000861FFE704980068039900EB0110D0F8A7
:10367000B40180B2000A0299886104980068039935
:1036800000EB0110D0F8B401000C029948610498D5
:103690000068039900EB0110D0F8B8010199087097
:1036A00004980068039900EB0110D0F8B801000AF3
:1036B0000199487004980068039900EB0110D0F854
:1036C000B801000C0199887004980068039900EB18
:1036D0000110D0F8B801000E0199C8700498006874
:1036E000039900EB0110D0F8BC010199087104980E
:1036F0000068039900EB0110D0F8BC01000A0199A1
:10370000487104980068039900EB0110D0F8BC01DF
:10371000000C0199887104980068039900EB01106E
:10372000D0F8BC01000E0199C871039838B9FFE7C1
:1037300004980168C86840F02000C86006E004985A
:103740000168086940F020000861FFE700208DF85B
:10375000170008E00499486A40F48020486201207C
:103760008DF81700FFE79DF8170006B070470000BE
:1037700083B0029000200190029890F820008DF80C
:1037800003009DF80300012805D0FFE79DF8030022
:10379000022822D1FFE702980068806840010028D3
:1037A00004D5FFE7019801300190FFE70298006817
:1037B00080680001002804D5FFE7019801300190DE
:1037C000FFE7029800688068C000002804D5FFE782
:1037D000019801300190FFE7FFE7019803B07047BF
:1037E00080B58AB009900020089009980068406967
:1037F00007900998006840680690099800688068FA
:10380000059009980068C0680490099800680069EC
:10381000039009980068806902909DF81C00C00719
:10382000002800F09480FFE79DF81400C00758B30B
:10383000FFE709980168012088609DF8140080075F
:10384000002804D5FFE7099800F06AFD1BE09DF809
:1038500014004007002805D5FFE7089840F40060F1
:1038600008900FE09DF814000007002805D5FFE739
:10387000089840F48050089003E0099800F04CFD4F
:10388000FFE7FFE7FFE7FFE79DF81500C00760B31C
:10389000FFE7099801684FF4807088609DF8150073
:1038A0008007002804D5FFE7099800F041FD1BE0E0
:1038B0009DF815004007002805D5FFE7089840F45B
:1038C000005008900FE09DF815000007002805D56E
:1038D000FFE7089840F48040089003E0099800F062
:1038E00023FDFFE7FFE7FFE7FFE79DF81600C007AE
:1038F00060B3FFE7099801684FF4803088609DF855
:1039000016008007002804D5FFE7099800F018FD8D
:103910001BE09DF816004007002805D5FFE7089832
:1039200040F4004008900FE09DF8160000070028C2
:1039300005D5FFE7089840F48030089003E0099827
:1039400000F0FAFCFFE7FFE7FFE7FFE7FFE79DF87E
:103950001C000007002810D5FFE79DF81000C006E6
:10396000002809D5FFE7089840F4007008900998EE
:1039700001681020C860FFE7FFE79DF81C004007C2
:1039800000280FD5FFE79DF810000007002808D594
:10399000FFE7099801680820C860099800F0E0FA7C
:1039A000FFE7FFE79DF81C00800700280BD5FFE725
:1039B00009980068C068800720B1FFE7099800F007
:1039C000E5FAFFE7FFE79DF81C004006002810D548
:1039D000FFE79DF80C00C006002809D5FFE708980E
:1039E00040F4806008900998016810200861FFE7A2
:1039F000FFE79DF81C00800600280FD5FFE79DF823
:103A00000C000007002808D5FFE709980168082086
:103A10000861099800F088FBFFE7FFE79DF81C00AC
:103A2000C00600280BD5FFE70998006800698007E9
:103A300020B1FFE7099800F07BFBFFE7FFE79DF867
:103A40001E00800700280FD5FFE79DF81800C0066C
:103A5000002808D5FFE709980168102048600998F8
:103A600000F010FCFFE7FFE79DF81E00C00778B1EB
:103A7000FFE79DF818000007002808D5FFE7099820
:103A8000016808204860099800F05EFCFFE7FFE746
:103A90009DF81D000006002840F18D80FFE79DF88D
:103AA00018004007002840F18180FFE79DF81D00C5
:103AB000C00750B1FFE79DF80800C00728B1FFE735
:103AC000089840F001000890FFE79DF81D0080076E
:103AD00000280BD5FFE79DF808008007002805D5D2
:103AE000FFE7089840F002000890FFE79DF81D00EE
:103AF000400700280BD5FFE79DF808004007002885
:103B000005D5FFE7089840F004000890FFE79DF80E
:103B10001D000007002848D5FFE79DF8080010F0B9
:103B2000700F42D0FFE7029800F07000014601914B
:103B3000102814D0FFE70198202815D0FFE701983E
:103B4000302816D0FFE70198402817D0FFE70198EA
:103B5000502818D0FFE70198602819D01DE0089878
:103B600040F00800089019E0089840F01000089014
:103B700014E0089840F0200008900FE0089840F00A
:103B8000400008900AE0089840F08000089005E0A6
:103B9000089840F48070089000E0FFE709980168F9
:103BA000886920F070008861FFE7FFE709980168E5
:103BB00004204860FFE7089848B1FFE7089A099990
:103BC000486A104348620998FFF758FCFFE70AB0BB
:103BD00080BD000080B584B00290029820B9FFE754
:103BE00001208DF80F00E0E0029890F8200020B945
:103BF000FFE7029800F0DEF8FFE702980168086826
:103C000040F00100086001F0E9F80190FFE7029838
:103C100000684068C007A8B9FFE701F0DFF8019924
:103C2000401A0B280DD3FFE70299486A40F4003090
:103C300048620299052081F8200001208DF80F00CC
:103C4000B3E0E4E702980168086820F00200086029
:103C500001F0C4F80190FFE702980068406880070F
:103C6000002815D5FFE701F0B9F80199401A0B2893
:103C70000DD3FFE70299486A40F400304862029988
:103C8000052081F8200001208DF80F008DE0E3E78A
:103C90000298007E012807D1FFE7029801680868B2
:103CA00040F08000086006E002980168086820F093
:103CB00080000860FFE70298407E012807D1FFE7F7
:103CC00002980168086840F04000086006E0029829
:103CD0000168086820F040000860FFE70298807ED5
:103CE000012807D1FFE702980168086840F020002A
:103CF000086006E002980168086820F0200008606B
:103D0000FFE70298C07E012807D1FFE7029801680B
:103D1000086820F01000086006E002980168086852
:103D200040F010000860FFE70298007F012807D1EB
:103D3000FFE702980168086840F00800086006E0A4
:103D400002980168086820F008000860FFE7029800
:103D5000407F012807D1FFE702980168086840F01A
:103D60000400086006E002980168086820F004007A
:103D70000860FFE7029B19685A689868D3F80CC07E
:103D800040EA0C00D3F810C040EA0C005B6918430D
:103D9000013A1043C861029900204862029A012149
:103DA00082F820108DF80F00FFE79DF80F0004B097
:103DB00080BD000080B594B0139000201290119047
:103DC00010900F900E901398006846F20041C4F2D4
:103DD0000001884253D1FFE740F21870C2F20000A0
:103DE0000168013101600068012812D1FFE7FFE797
:103DF00000200D9043F64000C4F20200016841F03B
:103E000000710160006800F000700D900D98FFE7F0
:103E1000FFE7FFE700200C9043F63000C4F20200F9
:103E2000016841F008010160006800F008000C9092
:103E30000C98FFE703200E9002210F9100210791BB
:103E4000109111900920129040F60040C4F2020037
:103E50000EA900F0E7FD079A1420059005210691B0
:103E600001F09AF8059801F08DF80699079A152047
:103E7000089001F091F8089801F084F86EE013982A
:103E8000006846F60001C4F20001884265D1FFE7F0
:103E9000FFE700200B9043F64000C4F202000168E7
:103EA00041F080610160006800F080600B900B9829
:103EB000FFE740F21870C2F20000016801310160B2
:103EC0000068012812D1FFE7FFE700200A9043F6BF
:103ED0004000C4F20200016841F000710160006816
:103EE00000F000700A900A98FFE7FFE7FFE7002064
:103EF000099043F63000C4F20200016841F002016B
:103F00000160006800F0020009900998FFE7602056
:103F10000E9002200F90002003901090032011902B
:103F20000920129040F20040C4F202000EA900F0F5
:103F300079FD039A402001900521029101F02CF8AF
:103F4000019801F01FF80299039A4120049001F0B2
:103F500023F8049801F016F8FFE7FFE714B080BDDE
:103F600081B000900098006846F20041C4F2000160
:103F7000884208D1FFE742F66001C2F200010868FA
:103F800001300860FFE701B07047000080B588B0DD
:103F900007900798006846F20041C4F20001884289
:103FA00040F0B480FFE70020069005900490039055
:103FB00002900190FFE70798002101AA08F05CFE3B
:103FC000002800F0A280FFE742F69001C2F2000153
:103FD000086801300860039842F68C01C2F20001C3
:103FE00008609DF81800C007E8B9FFE79DF81900C0
:103FF000C007C0B9FFE79DF81000082813D1FFE7FC
:1040000003980F280FD8FFE79DF804100320B0EBAA
:10401000111F08D1FFE742F65C01C2F200010868F7
:1040200001300860FFE70398009010B3FFE70098A5
:10403000012826D0FFE7009802282AD0FFE7009841
:1040400003282ED0FFE70098042832D0FFE700981D
:1040500040F24111884234D0FFE7009840F201213C
:10406000884236D0FFE7009840F20221884238D0DB
:104070003FE042F66801C2F20001086801300860C2
:104080003FE042F66C01C2F20001086801300860AE
:1040900037E042F67001C2F20001086801300860A2
:1040A0002FE042F67401C2F2000108680130086096
:1040B00027E042F67801C2F200010868013008608A
:1040C0001FE042F67C01C2F200010868013008607E
:1040D00017E042F68001C2F2000108680130086072
:1040E0000FE042F68401C2F2000108680130086066
:1040F00007E042F68801C2F200010868013008605A
:10410000FFE701A808F09AFE55E70AE00798006863
:1041100046F60001C4F20001884201D1FFE7FFE743
:10412000FFE708B080BD000081B0009001B070478B
:1041300080B588B007900798006846F60001C4F281
:104140000001884240F09C80FFE741F60840C2F23F
:1041500000000078BFF35F8FC007C0B9FFE741F6EA
:104160000840C2F2000014F090FB80B1FFE70FF0AE
:1041700075FC0FF0A1FD42F25041C2F2000108604F
:1041800041F60840C2F2000014F095FBFFE741F64B
:104190000440C2F200000078BFF35F8FC007B0B9DF
:1041A000FFE741F60440C2F2000014F06EFB70B16C
:1041B000FFE710F0F1FC42F24C41C2F2000108604E
:1041C00041F60440C2F2000014F075FBFFE7FFE780
:1041D00042F25040C2F20000006801684A6901A939
:1041E000904700284BD0FFE742F6A001C2F2000141
:1041F000086801300860039840F20121884206D027
:10420000FFE7039840F20221884217D1FFE70398A5
:1042100040F20121884208D1FFE742F69401C2F240
:10422000000108680130086007E042F69801C2F218
:104230000001086801300860FFE71FE0039840F2C2
:104240000721884205D0FFE70398B0F5027F0CD123
:10425000FFE742F24C40C2F20000006803999DF86B
:10426000103001AA10F07CF807E042F69C01C2F27F
:104270000001086801300860FFE7FFE7A8E7FFE7F3
:1042800008B080BD81B0009001B0704780B584B0A7
:104290000290029890F8200001282FD1FFE70299A0
:1042A000022081F8200002980168086820F00100CF
:1042B000086000F093FD0190FFE7029800684068F5
:1042C000C007A8B1FFE700F089FD0199401A0B284B
:1042D0000DD3FFE70299486A40F400304862029922
:1042E000052081F8200001208DF80F000FE0E4E7A1
:1042F0000299002048628DF80F0008E00299486A90
:1043000040F40020486201208DF80F00FFE79DF87F
:104310000F0004B080BD000081B0009001B0704774
:1043200081B0009001B0704781B0009001B070473B
:1043300081B0009001B0704781B0009001B070472B
:1043400081B0009001B0704781B0009001B070471B
:1043500080B584B002900298806D019000F03EFD1F
:104360000090029890F8350002280DD0FFE70299DE
:1043700080204865FFE70299002081F83400FFE7BC
:1043800001208DF80F0055E002980168086820F0C0
:104390001600086002980168486920F080004861B2
:1043A0000298006C20B9FFE70298806C38B1FFE7F3
:1043B00002980168086820F008000860FFE702988A
:1043C0000168086820F001000860FFE702980068B3
:1043D0000068C007C8B1FFE700F000FD0099401A6F
:1043E000062811D3FFE7029920204865029903208F
:1043F00081F83500FFE70299002081F83400FFE7DB
:1044000003208DF80F0015E0E0E70298C16D3F2012
:104410008840019988600299012081F83500FFE702
:104420000299002081F83400FFE7FFE700208DF8B3
:104430000F00FFE79DF80F0004B080BD82B0009030
:10444000009890F83500022807D0FFE700998020F7
:10445000486501208DF807000EE00099052081F8DD
:10446000350000980168086820F001000860FFE747
:1044700000208DF80700FFE79DF8070002B07047A5
:1044800081B000900098406D01B0704780B586B053
:1044900005900020039040F24030C2F20000006816
:1044A00048F2B511C1F64E31A0FB0110800A02900E
:1044B0000598806D01900198006804900498059912
:1044C000C96DC840000700281AD5FFE705980068A5
:1044D00000684007002812D5FFE7059801680868C2
:1044E00020F0040008600598C16D082088400199FB
:1044F00088600599486D40F001004865FFE7FFE7D7
:1045000004980599C96DC840C007A0B1FFE7059898
:1045100000684069000600280CD5FFE70598C16DCA
:1045200001208840019988600599486D40F002009B
:104530004865FFE7FFE704980599C96DC840400743
:10454000002814D5FFE70598006800688007002858
:104550000CD5FFE70598C16D04208840019988605B
:104560000599486D40F004004865FFE7FFE70498AF
:104570000599C96DC840C006002847D5FFE70598D2
:1045800000680068000700283FD5FFE70598C16D67
:1045900010208840019988600598006800684003F1
:1045A00000281AD5FFE70598006800680003002876
:1045B00009D4FFE70598006C20B1FFE70598016C6E
:1045C0008847FFE708E00598806C20B1FFE7059871
:1045D000816C8847FFE7FFE716E0059800680068F0
:1045E000C005002807D4FFE705980168086820F097
:1045F00008000860FFE70598006C20B1FFE7059808
:10460000016C8847FFE7FFE7FFE7FFE7049805999C
:10461000C96DC8408006002840F18D80FFE70598ED
:1046200000680068C006002840F18480FFE7059814
:10463000C16D2020884001998860059890F8350068
:10464000052834D1FFE705980168086820F01600B6
:10465000086005980168486920F080004861059865
:10466000006C20B9FFE70598806C38B1FFE705982A
:104670000168086820F008000860FFE70598C16D30
:104680003F208840019988600599012081F8350014
:10469000FFE70599002081F83400FFE70598006DD9
:1046A00020B1FFE70598016D8847FFE77BE005989B
:1046B00000680068400300281AD5FFE705980068E5
:1046C00000680003002809D4FFE70598406C20B17A
:1046D000FFE70598416C8847FFE708E00598C06B45
:1046E00020B1FFE70598C16B8847FFE7FFE720E0AF
:1046F000059800680068C005002811D4FFE70598F8
:104700000168086820F0100008600599012081F810
:104710003500FFE70599002081F83400FFE7FFE747
:104720000598C06B20B1FFE70598C16B8847FFE78C
:10473000FFE7FFE7FFE70598406DA0B3FFE70598A7
:10474000406DC00730B3FFE70599052081F83500BB
:1047500005980168086820F001000860FFE70398E9
:10476000013003900299884201D9FFE707E0FFE793
:10477000059800680068C0070028F0D1FFE7059998
:10478000012081F83500FFE70599002081F8340009
:10479000FFE7FFE70598C06C20B1FFE70598C16C03
:1047A0008847FFE7FFE706B080BD000080B586B010
:1047B00004900020039000F011FB0290049820B9AF
:1047C000FFE701208DF81700A3E00498406A08B1C4
:1047D000FFE7FFE70499022081F83500FFE704991D
:1047E000002081F83400FFE704980168086820F091
:1047F00001000860FFE7049800680068C00790B1F6
:10480000FFE700F0EBFA0299401A06280AD3FFE707
:104810000499202048650499032081F835008DF81B
:10482000170076E0E7E704980068006803900398B3
:1048300048F23F01CFF21001084003900499009123
:104840004868D1F808C0CB680A6940EA0C001843F0
:1048500010434A6910438A691043CA691043096AC0
:1048600001430398084303900498406A042808D140
:10487000FFE70499C86A096B014303980843039052
:10488000FFE7039804990968086004980068406984
:104890000390039820F0070003900498416A03985E
:1048A000084303900498406A04281AD1FFE704984B
:1048B000816A0398084303900498C06A80B1FFE7B7
:1048C0000498FCF725FA50B1FFE7049940204865A9
:1048D0000499012081F835008DF8170019E0FFE7F1
:1048E000FFE703980499096848610498FCF7E4F924
:1048F00001900498C16D3F20884001998860049917
:1049000000204865049A012182F835108DF81700BF
:10491000FFE79DF8170006B080BD000080B588B0A5
:10492000069005910492039300208DF80B000698E1
:10493000806D0190FFE7069890F83400012804D1BB
:10494000FFE702208DF81F0045E00699012081F85D
:104950003400FFE7FFE7069890F8350001282BD1D7
:10496000FFE70699022081F8350006990020486586
:1049700006980599049A039BFCF742FA0698C16DC4
:104980003F2088400199886006980168086840F0D7
:10499000160008600698006C38B1FFE706980168B9
:1049A000086840F008000860FFE70698016808689A
:1049B00040F00100086009E0FFE70699002081F857
:1049C0003400FFE702208DF80B00FFE79DF80B0095
:1049D0008DF81F00FFE79DF81F0008B080BD0000A4
:1049E00080B584B0039000F0F9F90290039801902B
:1049F0000198013048B1FFE740F2A450C2F2000034
:104A00000178019808440190FFE7FFE700F0E6F91C
:104A10000299401A0199884201D2FFE7F6E704B0F3
:104A200080BD00008EB00D900C9100200A9009907E
:104A300008900B90FFE70B980F2800F2CC81FFE75E
:104A40000B99012088400A900C9800680A99084048
:104A5000099009980A99884240F0B881FFE70C98BC
:104A6000406800F00300012807D0FFE70C98406879
:104A700000F0030002282FD1FFE70D98806808900E
:104A80000B984100032000FA01F108988843089030
:104A90000C98C0680B99490000FA01F10898084386
:104AA000089008980D9988600D98406808900B99B7
:104AB000012000FA01F10898884308900C9840689A
:104AC000C0F300100B9900FA01F108980843089010
:104AD00008980D994860FFE70C98406800F00300C3
:104AE000032818D0FFE70D98C06808900B98410084
:104AF000032000FA01F10898884308900C98806818
:104B00000B99490000FA01F10898084308900898A9
:104B10000D99C860FFE70C98406800F00300022878
:104B200026D1FFE70D980B996FF0030202EA5101BD
:104B30000844006A08900B9800F0070081000F20DD
:104B400000FA01F10898884308900C9800690B99C5
:104B500001F00701890000FA01F108980843089064
:104B600008980D990B9B02EA530211440862FFE773
:104B70000D98006808900B984100032000FA01F19D
:104B80000898884308900C98406800F003000B993F
:104B9000490000FA01F108980843089008980D9917
:104BA00008600C9880798007002800F00E81FFE7EC
:104BB000FFE70020079043F64400C4F202000168BA
:104BC00041F480410160006800F48040079007983C
:104BD000FFE70B9820F0030043F60801C4F201013F
:104BE000405808900B9800F0030081000F2000FA55
:104BF00001F10898884308900D980021C4F2020141
:104C0000884203D1FFE7002006905EE00D9840F255
:104C10000041C4F20201884203D1FFE70120059060
:104C200050E00D9840F60001C4F20201884203D121
:104C3000FFE70220049042E00D9840F60041C4F2E4
:104C40000201884203D1FFE70320039034E00D986E
:104C500041F20001C4F20201884203D1FFE70420BF
:104C6000029026E00D9841F20041C4F20201884210
:104C700003D1FFE70520019018E00D9841F60001EF
:104C8000C4F20201884203D1FFE7062000900AE047
:104C90000D9941F60042C4F202020820914208BF79
:104CA00007200090FFE700980190FFE7019802902D
:104CB000FFE702980390FFE703980490FFE704984A
:104CC0000590FFE705980690FFE70698C0B20B999C
:104CD00001F00301890000FA01F1089808430890E7
:104CE00008980B9921F0030143F60802C4F201026F
:104CF000885043F60840C4F2010000680890099902
:104D00000898884308900C988079C006002805D53B
:104D1000FFE70999089808430890FFE7089843F6C9
:104D20000841C4F20101086043F60C40C4F20100DE
:104D30000068089009990898884308900C98807931
:104D40008006002805D5FFE70999089808430890D0
:104D5000FFE7089843F60C41C4F20101086043F6EE
:104D60000440C4F20100006808900999089888433B
:104D700008900C9880798007002805D5FFE70999ED
:104D8000089808430890FFE7089843F60441C4F2E6
:104D90000101086043F60040C4F201000068089079
:104DA00009990898884308900C988079C00728B121
:104DB000FFE70999089808430890FFE7089843F629
:104DC0000041C4F201010860FFE7FFE7FFE70B982D
:104DD00001300B902FE60EB07047000047F2CC4038
:104DE000C2F200000068704740F2A450C2F2000016
:104DF000027847F2CC41C2F2000108681044086012
:104E00007047000080B543F60041C4F20201086813
:104E100040F400700860086840F48060086008682A
:104E200040F480700860032000F0D0F80F2000F0FC
:104E300005F800F07BF8002080BD000080B58CB044
:104E40000B90002004900390FFE70020009043F6B1
:104E50004000C4F20200016841F0100101600068E6
:104E600000F0100000900098FFE706A802A901F0EA
:104E70005BFB09980490049820B9FFE701F084FBDC
:104E8000059004E001F080FB40000590FFE70598E5
:104E90004DF68361C4F21B31A0FB01014FF0FF30DE
:104EA00000EB9140039043F23820C2F2000041F23F
:104EB0000001C4F20001016040F2E731C1600399D2
:104EC0004160002101618160816101F05DFF8DF829
:104ED00007009DF8070028BBFFE743F23820C2F225
:104EE000000001F0A3FF8DF807009DF80700C0B98E
:104EF000FFE7362000F046F80B980F280CD8FFE7A4
:104F00000B993620002200F047F80B9840F2A85188
:104F1000C2F20001086003E001208DF80700FFE7FE
:104F2000FFE7FFE79DF807000CB080BD80B582B0B9
:104F3000FFE70020019043F64400C4F2020001683C
:104F400041F480410160006800F4804001900198C4
:104F5000FFE7FFE70020009043F64000C4F20200A4
:104F6000016841F080510160006800F080500090BD
:104F70000098FFE76FF001000F21002200F00CF80D
:104F800002B080BD80B582B08DF807009DF90700A2
:104F900012F0AAF902B080BD80B586B08DF8170076
:104FA000049103920020029012F0B6F902909DF94C
:104FB0001700019002980499039A03F08DF90146B5
:104FC000019812F0B1F906B080BD000080B582B042
:104FD0000190019812F0ECF902B080BD82B001900E
:104FE0008DF8031002B0704782B00190ADF8021046
:104FF000BDF80200019909684862002002B07047BC
:1050000084B003908DF80B10ADF808200398006869
:10501000406A00909DF80B0048B9FFE7BDF8081002
:10502000009840EA014003990968886233E00398D8
:105030000068816A009800EB1140009000208DF814
:105040000700FFE79DF807009DF80B100139884223
:1050500013D2FFE7039800689DF8071000EB81006A
:10506000D0F80411009800EB11400090FFE79DF884
:10507000070001308DF80700E4E7BDF8081000983C
:1050800040EA0140039909689DF80B2001EB820179
:10509000C1F80001FFE7002004B0704780B582B07E
:1050A00001900198D0F8E00405F01AFC02B080BD30
:1050B00080B582B001908DF80310019AD2F8E00417
:1050C0009DF8031001EBC10302EB8302126A05F0A5
:1050D00065FA02B080BD000080B582B001908DF805
:1050E0000310019AD2F8E0049DF8031001EBC1030C
:1050F00002EB8302D2F8602205F018FB02B080BDFB
:1051000080B582B001900198D0F8E00405F0EEFB84
:1051100002B080BD80B584B003908DF80B109DF86F
:105120000B00000600280CD5FFE703989DF80B1034
:1051300001F00F0101EBC10100EB8100143001907F
:105140000CE003989DF80B1001F00F0101EBC10179
:1051500000EB810000F515700190FFE703980068EF
:10516000019907F047F98DF80A009DF80A0004B08C
:1051700080BD000080B584B002908DF807109DF8C6
:105180000700000600280FD5FFE702989DF80710DA
:1051900001F00F0101EBC10100EB81001430009020
:1051A0000099012048700FE002989DF8071001F067
:1051B0000F0101EBC10100EB810000F515700090BB
:1051C000009900204870FFE79DF8070000F00F00ED
:1051D00000990870FFE7029890F89404012804D120
:1051E000FFE702208DF80F0014E00299012081F8FA
:1051F0009404FFE7FFE702980068009906F0EAFBD5
:10520000FFE70299002081F89404FFE700208DF861
:105210000F00FFE79DF80F0004B080BD80B584B09B
:1052200002908DF807109DF8070000F00F0002991A
:105230000979884204D9FFE701208DF80F004DE07D
:105240009DF80700000600280FD5FFE702989DF89B
:10525000071001F00F0101EBC10100EB81001430D8
:1052600000900099012048700FE002989DF8071007
:1052700001F00F0101EBC10100EB810000F5157099
:105280000090009900204870FFE700990020887086
:105290009DF8070000F00F0000990870FFE70298E2
:1052A00090F89404012804D1FFE702208DF80F0044
:1052B00014E00299012081F89404FFE7FFE70298C7
:1052C0000068009906F0F6FDFFE70299002081F8DA
:1052D0009404FFE700208DF80F00FFE79DF80F0012
:1052E00004B080BD82B001908DF8031001989DF844
:1052F000031001F00F0101EBC10100EB8100D0F8B8
:10530000680202B07047000080B586B004908DF846
:105310000F10ADF80C208DF80B3000208DF80A002E
:105320009DF80F00000600280FD5FFE704989DF8B0
:105330000F1001F00F0101EBC10100EB81001430EF
:1053400001900199012048700FE004989DF80F101A
:1053500001F00F0101EBC10100EB810000F51570B8
:105360000190019900204870FFE79DF80F0000F0C0
:105370000F0001990870BDF80C006FF3DF20019950
:1053800088609DF80B00019908710198407820B160
:10539000FFE7019908784883FFE79DF80B00022892
:1053A00004D1FFE7019900204871FFE7FFE7049867
:1053B00090F89404012804D1FFE702208DF817002B
:1053C00015E00499012081F89404FFE7FFE70498B1
:1053D0000068019906F0C8F9FFE70499002081F8F8
:1053E0009404FFE79DF80A008DF81700FFE79DF889
:1053F000170006B080BD000080B586B005908DF81E
:1054000013100392029305989DF8131001F00F01F9
:1054100001EBC10100EB810000F5157001900398CC
:105420000199C860029801990861019900204861BA
:10543000019948709DF8130000F00F000199087061
:1054400005988079012804D1FFE703980199C86184
:10545000FFE7059A10680199927906F0CFFD0020C8
:1054600006B080BD80B584B002908DF807109DF81D
:10547000070000F00F0002990979884204D9FFE77C
:1054800001208DF80F0058E09DF807000006002865
:105490000FD5FFE702989DF8071001F00F0101EB0F
:1054A000C10100EB81001430009000990120487088
:1054B0000DE002989DF8071001EBC10100EB81009F
:1054C00000F515700090009900204870FFE70099E2
:1054D000012088709DF8070000F00F000099087007
:1054E000FFE7029890F89404012804D1FFE7022016
:1054F0008DF80F0021E00299012081F89404FFE764
:10550000FFE702980068009906F024FD9DF8070067
:10551000000740B9FFE7029A1068917902F29C42B5
:1055200006F078FCFFE7FFE70299002081F8940479
:10553000FFE700208DF80F00FFE79DF80F0004B093
:1055400080BD000080B586B005908DF813100392E1
:10555000029305989DF8131001F00F0101EBC101B2
:1055600000EB81001430019003980199C860029803
:105570000199086101990020486101990120487052
:105580009DF8130000F00F000199087005988079CC
:10559000012804D1FFE703980199C861FFE7059A44
:1055A00010680199927906F029FD002006B080BDAF
:1055B00080B58CB00B900B9800680A900A980990FF
:1055C0000B98006807F04CF8002840F00C84FFE7C7
:1055D0000B98006807F0B0F810B9FFE700F003BCC3
:1055E0000998D0F80808C0F30D200B99C1F8D4042D
:1055F0000B98006807F0A0F88007002807D5FFE7A0
:105600000B980168486900F002004861FFE70B98B9
:10561000006807F091F8C006002862D5FFE70B98F4
:105620000168886920F0100088610A98006A029079
:105630000B98029901F00F0101EBC10100EB810011
:1056400000F515700890029800F4F0110220B0EBFC
:10565000514F23D1FFE7BDF8080047F6F07108422B
:105660001BD0FFE70A980899C968029AC2F30A1288
:1056700007F070F8029847F6F07100EA0103089A03
:10568000D06800EB1310D060029800EA010208997C
:10569000486900EB12104861FFE71BE0029800F434
:1056A000F0110620B0EB514F12D1FFE70A980B9989
:1056B00001F29C41082207F04DF8029847F6F0717C
:1056C00000EA01020899486900EB1210486100E005
:1056D000FFE7FFE70B980168886940F010008861D8
:1056E000FFE70B98006807F027F80003002840F157
:1056F000A680FFE7002004900B98006806F0CAFF20
:105700000690FFE70698002800F09880FFE79DF8D4
:105710001800C007002800F08A80FFE70B98006897
:105720009DF8101006F0F0FF05909DF81400C007DA
:1057300060B1FFE70998049900EB41110120C1F81D
:10574000080B0B98049902F04BFEFFE79DF814003C
:10575000000700280CD5FFE70998049900EB4111D8
:105760000820C1F8080B0B98049902F0F3FDFFE73D
:105770009DF81400C006002808D5FFE70998049991
:1057800000EB41111020C1F8080BFFE79DF8140051
:10579000800700282DD5FFE70A98406900060028F9
:1057A00008D5FFE70999D1F8040840F48060C1F8F2
:1057B0000408FFE70B98049901EBC10100EB81009D
:1057C00000F5157008900898C078012809D1FFE706
:1057D00008990020C8700B989DF8101000F014FB79
:1057E000FFE70998049900EB41110220C1F8080B6A
:1057F000FFE79DF814008006002808D5FFE7099808
:10580000049900EB41112020C1F8080BFFE79DF837
:1058100015008006002809D5FFE70998049900EBD8
:1058200041114FF40050C1F8080BFFE7FFE704985F
:105830000130049006984008069063E7FFE70B9854
:10584000006806F079FF4003002840F1C680FFE7BA
:105850000B98006806F00CFF069000200490FFE70C
:105860000698002800F0B880FFE79DF81800C007F0
:10587000002800F0AA80FFE70B9800689DF8101040
:1058800006F01AFF05909DF81400C00700283ED0CE
:10589000FFE7049800F00F01012000FA01F10391E5
:1058A000039B099AD2F834189943C2F8341809991D
:1058B000049A01EB4211C1F808090B98807901287C
:1058C0001FD1FFE70B98049901EBC10100EB8101A7
:1058D000CA69086A10440862049888B9FFE70B98FF
:1058E000049901EBC10100EB8100406A40B9FFE778
:1058F0000B99086801F29C42012106F08BFAFFE740
:10590000FFE70B989DF81010FFF7D2FBFFE79DF81B
:1059100014000007002808D5FFE70998049900EB58
:1059200041110820C1F80809FFE79DF81400C006DE
:10593000002808D5FFE70998049900EB41111020D1
:10594000C1F80809FFE79DF814004006002808D5B3
:10595000FFE70998049900EB41114020C1F80809BC
:10596000FFE79DF814008007002822D5FFE70A987A
:10597000049906F011FE0B98049901EBC10100EBAC
:105980008100143008900898C078012809D1FFE7F9
:1059900008990020C8700B989DF8101000F026FAA6
:1059A000FFE70998049900EB41110220C1F80809AA
:1059B000FFE79DF814000006002805D5FFE70B98C7
:1059C000049902F0F1FDFFE7FFE70498013004902D
:1059D00006984008069043E7FFE70B98006806F03A
:1059E000ABFEC00F00B3FFE70999D1F8040820F01F
:1059F0000100C1F804080B9890F8CC04012808D1E4
:105A0000FFE70B98002180F8CC140B98FFF7E6FA1B
:105A100003E00B9800F0AAFBFFE70B9801684869C8
:105A200000F000404861FFE70B98006806F084FE34
:105A30000005002811D5FFE70998D0F80808C0072D
:105A400020B1FFE70B9800F01DFCFFE70B98016801
:105A5000486900F400604861FFE70B98006806F0B1
:105A60006BFEC004002840F18680FFE70999D1F859
:105A7000040820F00100C1F804080B980068102108
:105A800006F08AFD00200790FFE707980B99097937
:105A9000884231D2FFE70998079900EB41114FF690
:105AA0007F30C1F808090999079A01EB4212D2F830
:105AB000001921F40011C2F800190999079A01EBA5
:105AC0004211C1F8080B0998079900EB4111D1F870
:105AD000000B20F40010C1F8000B0998079900EBA7
