:020000040800F2
:10000000E00F0020A501000855400008FD3D000854
:1000100051400008B50900087147000800000000C1
:10002000000000000000000000000000C9400008BF
:10003000B10B000800000000C54000082141000885
:10004000BF010008BF010008BF010008BF01000890
:10005000BF010008BF010008BF010008BF01000880
:10006000BF010008BF010008BF010008BF01000870
:10007000BF010008BF010008BF010008BF01000860
:10008000BF010008BF010008BF010008BF01000850
:10009000B9090008C9090008BF010008BF0100082C
:1000A000BF010008BF010008BF010008BF01000830
:1000B000BF010008BF010008BF010008BF01000820
:1000C000BF010008BF010008BF010008BF01000810
:1000D000BF010008BF010008BF0100085147000828
:1000E000BF010008BF010008BF010008BF010008F0
:1000F000BF010008BF010008BF010008BF010008E0
:10010000BF010008BF010008BF010008BF010008CF
:10011000BF010008BF010008BF010008BF010008BF
:10012000BF010008F9090008BF010008BF0100086D
:10013000BF010008BF010008BF010008BF0100089F
:10014000D9090008E9090008BF010008BF0100083B
:10015000BF010008090A0008BF0100086147000844
:10016000BF010008BF010008BF010008BF0100086F
:10017000BF010008BF010008BF0100080000000027
:10018000BF010008BF010008DFF814D000F002FB37
:1001900000F070F800480047098D000800F02CFBC3
:1001A000E00F00200648804706480047FEE7FEE7CC
:1001B000FEE7FEE7FEE7FEE7FEE7FEE7FEE7FEE717
:1001C000E5410008890100082DE9F05F054600209F
:1001D00092469B4688460646814640241BE02846B8
:1001E00041464746224600F007FA53465A46C01A8F
:1001F000914110D311461846224600F0EEF92D1A0F
:1002000067EB01084F4622460120002100F0E5F986
:1002100017EB00094E41201EA4F10104DFDC484623
:1002200031462A464346BDE8F09F40EA01039B075A
:1002300003D009E008C9121F08C0042AFAD203E05B
:1002400011F8013B00F8013B521EF9D27047D2B2BF
:1002500001E000F8012B491EFBD270470022F6E7AF
:1002600010B513460A4604461946FFF7F0FF20462C
:1002700010BD00007CB50748009007480190054676
:10028000009C04E02046016808448047241DAC42DD
:10029000F8D17CBD0C9D0008149D00080B4601465A
:1002A000184600F0CBB92DE9FE4F804681EA0300E5
:1002B000C00F0C46009021F0004123F00045B8EB40
:1002C0000200A94105D24046214690461C460B46F5
:1002D000024623F00040104347D0270DC7F30A0021
:1002E000C3F30A510290401A019040286BDAC3F31D
:1002F000130040F4801B0098924620B10023D2EBFB
:10030000030A63EB0B0B01985946C0F140025046BB
:1003100000F063F906460D4650465946019A00F032
:100320007BF910EB08006141002487EA115284EA4E
:10033000E7731A4340D0009A62B3019A012A4FEA48
:10034000075215DC001B61EB02014FF0004202EA8C
:100350000752CDE90042001C41F5801132462B4680
:1003600000F0C9F903B0BDE8F08F40462146F9E737
:10037000001B61EB0201001C41F5801300185B417A
:100380002018A2F5001747EB030140EAD570B61913
:100390006D4111E06D084FEA360645EAC0754FEA37
:1003A0000752001B61EB0201001C41F58011490856
:1003B0004FEA30000019514132462B4603B0BDE8E8
:1003C000F04F00F089B90098012240000023D0EBE3
:1003D000020263EBE073009821464FEAE074B8EB49
:1003E000000061EB0401E9E783F000435BE781F083
:1003F000004158E72DE9FE4F81EA030404F0004470
:1004000021F0004100944FF0000B23F0004350EA2C
:1004100001045ED052EA03045BD0C3F30A54C1F373
:100420000A552C44A4F2F3340194A0FB0254C1F306
:10043000130141F48011C3F3130343F4801301FB50
:10044000024400FB034E840A970A44EA815447EAB7
:100450008357A4FB076802958D0A05FB07854FEAC1
:10046000932C04FB0C542705029D4FEA065847EADB
:100470001637B5EB08056EEB070C870E920E47EAB0
:10048000811742EA8312A7FB0201B6EB0B0164EB72
:1004900000042B0D43EA0C335E1844EB1C50DA4683
:1004A0005146E7FB0201C5F313044FEA0B3343EA5D
:1004B00014534FEA0432019C43EA0603A4F10C04EE
:1004C0000294009CCDE900B400F015F903B0BDE83A
:1004D000F08F00200146F9E730B5041E71F10004E9
:1004E00004DB4FF00044404264EB0101141E73F141
:1004F000000405DB1C464FF00043524263EB04034B
:10050000801A994101D3012030BD002030BD30B5A3
:10051000041E71F1000404DB4FF00044404264EB20
:100520000101141E73F1000405DB1C464FF000436B
:10053000524263EB0403101A8B4101D3012030BDFA
:10054000002030BD30B5041E71F1000404DB4FF013
:100550000044404264EB0101141E73F1000405DB0A
:100560001C464FF00043524263EB040342404B40B1
:100570001A4301D0002030BD012030BD00F0004200
:1005800030F000400AD0C10D01F56071C0F31600D3
:1005900042EA0151C208400711437047002001465A
:1005A000704701F0004330B421F0004150EA0102ED
:1005B00006D00A0DA2F56072C1F31301002A02DC15
:1005C00030BC00207047440F44EAC104C100E01869
:1005D00030BC00EBC25000F048B8202A04DB203ABF
:1005E00000FA02F1002070479140C2F1200320FA86
:1005F00003F3194390407047202A04DB203A21FA84
:1006000002F00021704721FA02F3D040C2F120022B
:100610009140084319467047202A06DBCB17203A41
:1006200041FA02F043EAE07306E041FA02F3D040F7
:10063000C2F1200291400843194670472DE9F0416C
:10064000074615460E46102008F0C2FC04000AD0EA
:100650006760C4E9026500F0CBF8016821600460BE
:100660000020BDE8F0810120FBE70029A8BF70470A
:10067000401C490008BF20F00100704710B4B0FAD8
:1006800080FC00FA0CF050EA010404BF10BC704773
:1006900049B1CCF1200421FA04F411FA0CF118BF8D
:1006A000012121430843A3EB0C01CB1D4FEA00615C
:1006B0004FEA102042BF002010BC704700EBC3502F
:1006C00010440029A4BF10BC7047401C490008BF5B
:1006D00020F0010010BC704710B5141E73F1000427
:1006E00008DA401C41F1000192185B411A4301D124
:1006F00020F0010010BD2DE9F04D92469B4611B14E
:10070000B1FA81F202E0B0FA80F220329046FFF7AF
:1007100064FF04460F4640EA0A0041EA0B015346D3
:100720005A46084313D0114653EA010019D0C8F1C4
:1007300040025046FFF760FF05460E4650465946B8
:100740004246FFF74AFF084305D0012004E0204657
:100750003946BDE8F08D0020054346EAE0762C439B
:1007600037430A986305E40AA0EB08000022FD0A5B
:1007700044EA47540A3002D500200146E9E7010562
:1007800010196941DDE9084500196941BDE8F04DDE
:10079000A2E700001CB509480090094801900546F1
:1007A000009C06E0E06840F0010394E807009847E9
:1007B0001034AC42F6D3FFF7EBFC0000EC9C0008D1
:1007C0000C9D000830B50B46014600202022012474
:1007D00009E021FA02F59D4205D303FA02F5491B0F
:1007E00004FA02F52844151EA2F10102F1DC30BD25
:1007F00000487047100000202DE9F0410646FFF741
:10080000F7FF8046454613E016B1E068B0420ED1CE
:1008100020682860D4E90101D8F800708847204694
:1008200008F006FBD8F80000B842EBD100E02546FE
:100830002C68002CE8D1BDE8F0812DE9F04D81EA6B
:10084000030404F0004B21F0004514464FF0000A69
:1008500023F0004150EA050220D054EA01021DD0E5
:10086000C5F30A570246C5F31303C1F31300C1F3DE
:100870000A5640F4801543F48013A7EB0608101BBA
:10088000D64608F2FD3873EB050002D308F10108E3
:1008900001E092185B41B8F1000F03DA0020014635
:1008A000BDE8F08D00204FF48011064684460EE02E
:1008B000171B73EB050705D3121B63EB05030643F8
:1008C0004CEA010C49084FEA300092185B4150EAAB
:1008D0000107EDD152EA030012D082EA040083EA54
:1008E0000501084305D0101BAB4106D201220023AD
:1008F00006E000224FF0004302E06FF001025310C7
:100900001AEB06004CEB085110EB0A0041EB0B010F
:10091000BDE8F04DFFF7E0BEC1F30A52C1F3130189
:1009200040F2FF3341F480119A4202DA002001467E
:10093000704740F233439A42A2F2334202DC524201
:10094000FFF75ABEFFF749BE30B5041E71F100042F
:1009500004DB4FF00044404264EB0101141E73F1CC
:10096000000405DB1C464FF00043524263EB0403D6
:10097000994208BF904230BD704730B58C1810F8CE
:10098000012B12F00F0301D110F8013B120906D11F
:1009900010F8012B03E010F8015B01F8015B5B1E0E
:1009A000F9D101E001F8013B521EFBD1A142E6D38F
:1009B000002030BDFFE7FEE780B540F63C00C2F204
:1009C000000000F0B1FD80BD80B540F63C00C2F2F1
:1009D000000000F0A9FD80BD80B540F66400C2F2C1
:1009E000000000F0A1FD80BD80B540F66400C2F2B9
:1009F000000000F099FD80BD80B540F68C00C2F289
:100A0000000001F0AFFA80BD80B540F6EC00C2F204
:100A1000000001F0A7FA80BD82B001900198007833
:100A200010384AF6AB21CAF6AA21A0FB0110000932
:100A30000090009949F66820C0F60000405C0199DA
:100A4000C8650098042807D3FFE7019908680422C5
:100A500062F30900886506E00199086840F2FF32F8
:100A600090438865FFE70198806D02B070470000F1
:100A700086B0059000208DF813000598806A0390D9
:100A80000598806910BBFFE70398029003281BD8E4
:100A90000299DFE801F0020D0218059890F82F0086
:100AA000C00720B1FFE701208DF81300FFE70CE03D
:100AB0000598C06AB0F1C07F04D1FFE701208DF82E
:100AC0001300FFE701E000E0FFE745E005988069DB
:100AD000B0F5005F25D1FFE70398019003281ED8E9
:100AE0000199DFE801F00206021101208DF81300E0
:100AF00016E0059890F82F00C00720B1FFE701200D
:100B00008DF81300FFE70BE00598C06AB0F1C07FD5
:100B100004D1FFE701208DF81300FFE700E0FFE7B5
:100B200019E003980090032804D3FFE700980328F6
:100B300004D00EE001208DF813000BE0059890F82A
:100B40002F00C00720B1FFE701208DF81300FFE759
:100B500000E0FFE7FFE7FFE79DF8130006B07047EE
:100B600084B0039002910192009303980168086891
:100B700020F4802008600098039909684860039871
:100B80008068402809D1FFE70198039909688860C7
:100B9000029803990968C86008E0029803990968F7
:100BA0008860019803990968C860FFE704B070473E
:100BB0007047000072B6FFE7FEE7000080B596B010
:100BC00006F0D2F906F0F2FA159040F23020C2F2A7
:100BD00000000078BFF35F8FC00718BBFFE740F24B
:100BE0003020C2F2000008F0ACF8D8B1FFE7159948
:100BF00040F2B860C2F200000A90002205F050FCFA
:100C00000A9946F27150C0F6000040F20002C0F6A8
:100C10000002FFF743FB40F23020C2F2000008F070
:100C2000A6F8FFE740F23420C2F200000078BFF3DC
:100C30005F8FC00718BBFFE740F23420C2F200000C
:100C400008F07FF8D8B1FFE7159940F26870C2F25A
:100C500000000990002205F095FC099946F25560C4
:100C6000C0F6000040F20002C0F60002FFF716FBDB
:100C700040F23420C2F2000008F079F8FFE740F2B9
:100C8000B061C2F2000140F2B860C2F2000005900B
:100C9000086040F2AC61C2F2000140F26870C2F23A
:100CA0000000069008601598019011A8029007F0C6
:100CB000B9FE019802990268D2699047029807F03C
:100CC000C9FE159803900CA8049007F0B7FE03988E
:100CD00004990268D2699047049807F0BBFE40F27D
:100CE0004020C2F2000004F09FFC40F2E020C2F27B
:100CF000000004F003FB4FF4FA7001F0DDFB0598EF
:100D00000121079105F004F90A20089001F0D4FBB5
:100D10000598022105F0FCF8089801F0CDFB069833
:100D2000079904F02FFE089801F0C6FB16B080BDAD
:100D300080B590B040F24C10C2F20000049000F177
:100D4000200140F24020C2F20000099003F094FD1F
:100D50000499099834300C90543103F08DFD0499B6
:100D6000099801F13402059268300F90883103F040
:100D700083FD049909986831069140F2B061C2F28E
:100D800000010291096840F2AC62C2F200020392D3
:100D9000126804F08BFC099940F21420C2F20000A2
:100DA0006A46106040F28860C2F2000040F214020D
:100DB000C2F20002089240F2EC13C2F2000305F006
:100DC00025FE089840F2E021C2F20001079103F0ED
:100DD000D5FD0799089868300B9001F59C710A9130
:100DE00003F0CCFD07990898D0300E9001F51C71E6
:100DF0000D9103F0C3FD029A039B079809991268AD
:100E00001B6804F0D5FA0499099803F0EDFC0599E4
:100E10000C9803F0E9FC06990F9803F0E5FC07989D
:100E20000899099A03F064FD0A980B990C9A03F04B
:100E30005FFD0D980E990F9A03F05AFD40F2E07095
:100E4000C2F200000178013101700078022809DB4C
:100E5000FFE740F2E071C2F200010020087003F0E9
:100E600089FCFFE710B080BD84B002900191029828
:100E700090F820008DF803009DF80300012805D0AC
:100E8000FFE79DF8030002282AD1FFE79DF8040040
:100E9000C00738B1FFE702980168886840F0800019
:100EA0008860FFE79DF804008007002807D5FFE76A
:100EB00002980168886840F400408860FFE79DF868
:100EC00004004007002807D5FFE7029801688868FA
:100ED00040F400008860FFE700208DF80F0008E074
:100EE0000299486A40F48020486201208DF80F0082
:100EF000FFE79DF80F0004B07047000084B0029037
:100F00000191029890F820008DF803009DF80300ED
:100F1000012805D0FFE79DF8030002280AD1FFE76A
:100F2000019A0298016848691043486100208DF8D1
:100F30000F0008E00299486A40F4802048620120CE
:100F40008DF80F00FFE79DF80F0004B07047000018
:100F500088B00690059104920393069890F82000BB
:100F60008DF80700069800688068009005988068F2
:100F700008B9FFE700E0FFE79DF80700012806D069
:100F8000FFE79DF80700022840F08080FFE79DF80A
:100F90000300400700280CD4FFE79DF8030000077A
:100FA000002806D4FFE79DF80300C006002864D59A
:100FB000FFE70098C0F30160029002990120884089
:100FC000039908600598806868B9FFE7059801688B
:100FD000C06840EA415006990968029A01EB021183
:100FE000C1F880010EE005994A688868C96840EA3E
:100FF000C200084306990968029A01EB0211C1F880
:101000008001FFE70598006906990968029A01EBDB
:101010000211C1F884010598007D01280CD1FFE779
:1010200006980068029900EB0111D1F8840140F4A0
:101030008070C1F88401FFE7049840680699096848
:10104000029A01EB0211C1F88C010498006806991C
:101050000968029A01EB0211C1F88801069800683C
:10106000029900EB0111D1F8800140F00100C1F8B4
:10107000800100208DF81F0011E00699486A40F4B5
:101080000010486201208DF81F0008E00699486AA8
:1010900040F48020486201208DF81F00FFE79DF892
:1010A0001F0008B07047000086B0049003910498B8
:1010B00090F820008DF803009DF80300012806D069
:1010C000FFE79DF80300022840F0B080FFE746F2FA
:1010D0000040C4F2000001900199D1F8000240F0F4
:1010E0000100C1F800020199D1F8000220F47C50FF
:1010F000C1F800020398426A0199D1F8000240EA5F
:101100000220C1F800020398406900F01F0101208D
:1011100088400290029A0199D1F81C029043C1F8CC
:101120001C020398C069F0B9FFE7029A0199D1F84F
:101130000C029043C1F80C02039A9088D16852695E
:1011400040EA0140019901EBC201C1F84002039A53
:1011500010889168526940EA0140019901EBC2018F
:10116000C1F84402FFE70398C06901281ED1FFE7D8
:10117000029A0199D1F80C021043C1F80C02039AAB
:1011800090881168526940EA0140019901EBC2015F
:10119000C1F84002039A90899168526940EA01407F
:1011A000019901EBC201C1F84402FFE7039880698D
:1011B00040B9FFE7029A0199D1F804029043C1F8BF
:1011C000040207E0029A0199D1F804021043C1F821
:1011D0000402FFE70398006940B9FFE7029A01990A
:1011E000D1F814029043C1F8140207E0029A019961
:1011F000D1F814021043C1F81402FFE70398006A03
:10120000012808D1FFE7029A0199D1F81C02104386
:10121000C1F81C02FFE70199D1F8000220F001009B
:10122000C1F8000200208DF8170008E00499486A10
:1012300040F48020486201208DF81700FFE79DF8F8
:10124000170006B07047000081B0009001B07047F1
:1012500084B00390029100200190039890F8200040
:101260008DF803009DF80300012805D0FFE79DF8E5
:101270000300022812D1FFE7029838B9FFE703986C
:101280000068C06800F00300019006E00398006861
:10129000006900F003000190FFE7FFE7019804B048
:1012A0007047000086B00490039102920193049865
:1012B00090F820008DF803009DF80300012806D067
:1012C000FFE79DF80300022840F0E880FFE703985D
:1012D00080B9FFE704980068C068800748B9FFE755
:1012E0000499486A40F40010486201208DF8170004
:1012F000DDE00FE0049800680069800748B9FFE767
:101300000499486A40F40010486201208DF81700E3
:10131000CDE0FFE704980068039900EB0110D0F8D6
:10132000B00100F00400029988600298806858B902
:10133000FFE704980068039900EB0110D0F8B001B2
:10134000400D029908600AE004980068039900EBD8
:101350000110D0F8B001C00802994860FFE7049876
:101360000068039900EB0110D0F8B00100F0020012
:101370000299C86004980068039900EB0110D0F846
:10138000B40100F00F00082804D3FFE702990820F9
:1013900008610BE004980068039900EB0110D0F895
:1013A000B40100F00F0002990861FFE7049800689B
:1013B000039900EB0110D0F8B40180B2000A029941
:1013C000886104980068039900EB0110D0F8B4011B
:1013D000000C0299486104980068039900EB011021
:1013E000D0F8B8010199087004980068039900EBDF
:1013F0000110D0F8B801000A0199487004980068FB
:10140000039900EB0110D0F8B801000C0199887025
:1014100004980068039900EB0110D0F8B801000EA1
:101420000199C87004980068039900EB0110D0F886
:10143000BC010199087104980068039900EB011040
:10144000D0F8BC01000A019948710498006803991A
:1014500000EB0110D0F8BC01000C019988710498D0
:101460000068039900EB0110D0F8BC01000E01994F
:10147000C871039838B9FFE704980168C86840F05C
:101480002000C86006E004980168086940F0200068
:101490000861FFE700208DF8170008E00499486A0A
:1014A00040F48020486201208DF81700FFE79DF886
:1014B000170006B07047000083B002900020019032
:1014C000029890F820008DF803009DF80300012891
:1014D00005D0FFE79DF80300022822D1FFE702981C
:1014E000006880684001002804D5FFE701980130BA
:1014F0000190FFE70298006880680001002804D589
:10150000FFE7019801300190FFE7029800688068CA
:10151000C000002804D5FFE7019801300190FFE7E3
:10152000FFE7019803B0704780B58AB009900020AA
:101530000890099800684069079009980068406819
:101540000690099800688068059009980068C0684E
:101550000490099800680069039009980068806900
:1015600002909DF81C00C007002800F09480FFE75F
:101570009DF81400C00758B3FFE7099801680120DF
:1015800088609DF814008007002804D5FFE70998BB
:1015900000F032FC1BE09DF814004007002805D540
:1015A000FFE7089840F4006008900FE09DF81400F1
:1015B0000007002805D5FFE7089840F48050089000
:1015C00003E0099800F014FCFFE7FFE7FFE7FFE7FF
:1015D0009DF81500C00760B3FFE7099801684FF454
:1015E000807088609DF815008007002804D5FFE70B
:1015F000099800F009FC1BE09DF815004007002841
:1016000005D5FFE7089840F4005008900FE09DF8DA
:1016100015000007002805D5FFE7089840F4804032
:10162000089003E0099800F0EBFBFFE7FFE7FFE716
:10163000FFE79DF81600C00760B3FFE7099801684F
:101640004FF4803088609DF816008007002804D58C
:10165000FFE7099800F0E0FB1BE09DF8160040074B
:10166000002805D5FFE7089840F4004008900FE0F7
:101670009DF816000007002805D5FFE7089840F4FC
:101680008030089003E0099800F0C2FBFFE7FFE715
:10169000FFE7FFE7FFE79DF81C000007002810D5D3
:1016A000FFE79DF81000C006002809D5FFE708985D
:1016B00040F400700890099801681020C860FFE7A6
:1016C000FFE79DF81C00400700280FD5FFE79DF8B5
:1016D00010000007002808D5FFE7099801680820D6
:1016E000C860099800F0DEFAFFE7FFE79DF81C00EC
:1016F000800700280BD5FFE709980068C0688007BD
:1017000020B1FFE7099800F0D1FAFFE7FFE79DF865
:101710001C004006002810D5FFE79DF80C00C0060D
:10172000002809D5FFE7089840F4806008900998E0
:10173000016810200861FFE7FFE79DF81C008006A4
:1017400000280FD5FFE79DF80C000007002808D5FA
:10175000FFE70998016808200861099800F0ECFA91
:10176000FFE7FFE79DF81C00C00600280BD5FFE748
:10177000099800680069800720B1FFE7099800F028
:10178000DFFAFFE7FFE79DF81E00800700280FD56E
:10179000FFE79DF81800C006002808D5FFE7099864
:1017A000016810204860099800F0D8FAFFE7FFE7C9
:1017B0009DF81E00C00778B1FFE79DF818000007EC
:1017C000002808D5FFE709980168082048600998B3
:1017D00000F026FBFFE7FFE79DF81D00000600284C
:1017E00040F18D80FFE79DF818004007002840F188
:1017F0008180FFE79DF81D00C00750B1FFE79DF80D
:101800000800C00728B1FFE7089840F001000890E1
:10181000FFE79DF81D00800700280BD5FFE79DF826
:1018200008008007002805D5FFE7089840F002006F
:101830000890FFE79DF81D00400700280BD5FFE743
:101840009DF808004007002805D5FFE7089840F0FC
:1018500004000890FFE79DF81D000007002848D508
:10186000FFE79DF8080010F0700F42D0FFE70298E4
:1018700000F0700001460191102814D0FFE7019894
:10188000202815D0FFE70198302816D0FFE70198EF
:10189000402817D0FFE70198502818D0FFE701989B
:1018A000602819D01DE0089840F00800089019E061
:1018B000089840F01000089014E0089840F02000CC
:1018C00008900FE0089840F0400008900AE008985F
:1018D00040F08000089005E0089840F4807008907F
:1018E00000E0FFE709980168886920F070008861CE
:1018F000FFE7FFE70998016804204860FFE70898C0
:1019000048B1FFE7089A0999486A10434862099864
:10191000FFF79AFCFFE70AB080BD000080B584B0F5
:101920000290029820B9FFE701208DF80F00E0E057
:10193000029890F8200020B9FFE7029800F0DEF846
:10194000FFE702980168086840F00100086000F0B5
:10195000B1FF0190FFE7029800684068C007A8B98E
:10196000FFE700F0A7FF0199401A0B280DD3FFE70E
:101970000299486A40F4003048620299052081F8D3
:10198000200001208DF80F00B3E0E4E70298016821
:10199000086820F00200086000F08CFF0190FFE76B
:1019A0000298006840688007002815D5FFE700F01E
:1019B00081FF0199401A0B280DD3FFE70299486A6D
:1019C00040F4003048620299052081F8200001208F
:1019D0008DF80F008DE0E3E70298007E012807D123
:1019E000FFE702980168086840F08000086006E0A0
:1019F00002980168086820F080000860FFE70298FC
:101A0000407E012807D1FFE702980168086840F08E
:101A10004000086006E002980168086820F0400075
:101A20000860FFE70298807E012807D1FFE702984F
:101A30000168086840F02000086006E0029801682C
:101A4000086820F020000860FFE70298C07E0128A7
:101A500007D1FFE702980168086820F010000860CD
:101A600006E002980168086840F010000860FFE78F
:101A70000298007F012807D1FFE7029801680868F3
:101A800040F00800086006E002980168086820F04D
:101A900008000860FFE70298407F012807D1FFE7B0
:101AA00002980168086840F00400086006E00298A7
:101AB0000168086820F004000860FFE7029B1968CD
:101AC0005A689868D3F80CC040EA0C00D3F810C0EC
:101AD00040EA0C005B691843013A1043C86102995F
:101AE00000204862029A012182F820108DF80F0030
:101AF000FFE79DF80F0004B080BD000080B592B0F4
:101B00001190002010900F900E900D900C90119855
:101B1000006846F20041C4F20001884252D1FFE75A
:101B200040F21020C2F2000001680131016000683B
:101B3000012812D1FFE7FFE700200B9043F6400099
:101B4000C4F20200016841F000710160006800F019
:101B500000700B900B98FFE7FFE7FFE700200A906B
:101B600043F63000C4F20200016841F00801016050
:101B7000006800F008000A900A98FFE703200C9024
:101B800002210D91002105910E910F9009201090D6
:101B900040F60040C4F202000CA900F0AFFC059A28
:101BA00014200490114600F01DFF049800F010FF6F
:101BB000059A15200690114600F014FF069800F0D3
:101BC00007FF6DE01198006846F60001C4F20001BD
:101BD000884264D1FFE7FFE70020099043F6400008
:101BE000C4F20200016841F080610160006800F009
:101BF000806009900998FFE740F21020C2F20000CF
:101C00000168013101600068012812D1FFE7FFE798
:101C10000020089043F64000C4F20200016841F041
:101C200000710160006800F0007008900898FFE7FC
:101C3000FFE7FFE70020079043F63000C4F2020000
:101C4000016841F002010160006800F002000790A5
:101C50000798FFE760200C9002200D900020029072
:101C60000E9003200F900920109040F20040C4F223
:101C700002000CA900F042FC029A4020019011469B
:101C800000F0B0FE019800F0A3FE029A41200390FC
:101C9000114600F0A7FE039800F09AFEFFE7FFE769
:101CA00012B080BD81B0009001B0704780B588B09F
:101CB00007900798006846F20041C4F2000188428C
:101CC0002CD1FFE740F23820C2F200000078BFF3C9
:101CD0005F8FC007C0B9FFE740F23820C2F20000B2
:101CE00007F02FF880B1FFE705F03EF905F05EFA46
:101CF00040F2E471C2F20001086040F23820C2F202
:101D0000000007F034F8FFE740F2E470C2F2000090
:101D1000006801684A6901A990470AE007980068CD
:101D200046F60001C4F20001884201D1FFE7FFE757
:101D3000FFE708B080BD000081B0009001B070479F
:101D400081B000900098006846F60001C4F20001DE
:101D5000884201D1FFE7FFE701B0704781B00090F2
:101D600001B0704780B584B00290029890F82000CE
:101D700001282FD1FFE70299022081F82000029864
:101D80000168086820F00100086000F093FD0190F0
:101D9000FFE7029800684068C007A8B1FFE700F0BD
:101DA00089FD0199401A0B280DD3FFE70299486A73
:101DB00040F4003048620299052081F8200001209B
:101DC0008DF80F000FE0E4E70299002048628DF8DB
:101DD0000F0008E00299486A40F4002048620120A0
:101DE0008DF80F00FFE79DF80F0004B080BD0000E4
:101DF00081B0009001B0704781B0009001B0704791
:101E000081B0009001B0704781B0009001B0704780
:101E100081B0009001B0704781B0009001B0704770
:101E200081B0009001B0704780B584B002900298F4
:101E3000806D019000F03EFD0090029890F8350012
:101E400002280DD0FFE7029980204865FFE702993C
:101E5000002081F83400FFE701208DF80F0055E0E5
:101E600002980168086820F016000860029801686E
:101E7000486920F0800048610298006C20B9FFE7B3
:101E80000298806C38B1FFE702980168086820F07A
:101E900008000860FFE702980168086820F0010068
:101EA0000860FFE7029800680068C007C8B1FFE754
:101EB00000F000FD0099401A062811D3FFE70299AF
:101EC000202048650299032081F83500FFE7029938
:101ED000002081F83400FFE703208DF80F0015E0A3
:101EE000E0E70298C16D3F2088400199886002991F
:101EF000012081F83500FFE70299002081F83400C5
:101F0000FFE7FFE700208DF80F00FFE79DF80F00C7
:101F100004B080BD82B00090009890F8350002288F
:101F200007D0FFE700998020486501208DF8070061
:101F30000EE00099052081F83500009801680868D6
:101F400020F001000860FFE700208DF80700FFE7A0
:101F50009DF8070002B0704781B000900098406D76
:101F600001B0704780B586B005900020039040F224
:101F7000E810C2F20000006848F2B511C1F64E3117
:101F8000A0FB0110800A02900598806D01900198D5
:101F90000068049004980599C96DC840000700289E
:101FA0001AD5FFE70598006800684007002812D599
:101FB000FFE705980168086820F0040008600598AC
:101FC000C16D08208840019988600599486D40F0EE
:101FD00001004865FFE7FFE704980599C96DC8400F
:101FE000C007A0B1FFE70598006840690006002817
:101FF0000CD5FFE70598C16D0120884001998860E4
:102000000599486D40F002004865FFE7FFE7049836
:102010000599C96DC8404007002814D5FFE7059809
:1020200000680068800700280CD5FFE70598C16D9F
:1020300004208840019988600599486D40F00400AB
:102040004865FFE7FFE704980599C96DC840C006D9
:10205000002847D5FFE705980068006800070028BA
:102060003FD5FFE70598C16D102088400199886031
:10207000059800680068400300281AD5FFE7059816
:10208000006800680003002809D4FFE70598006C89
:1020900020B1FFE70598016C8847FFE708E0059845
:1020A000806C20B1FFE70598816C8847FFE7FFE768
:1020B00016E0059800680068C005002807D4FFE70F
:1020C00005980168086820F008000860FFE7059897
:1020D000006C20B1FFE70598016C8847FFE7FFE738
:1020E000FFE7FFE704980599C96DC84080060028FE
:1020F00040F18D80FFE7059800680068C006002861
:1021000040F18480FFE70598C16D20208840019947
:102110008860059890F83500052834D1FFE70598C8
:102120000168086820F01600086005980168486991
:1021300020F0800048610598006C20B9FFE7059801
:10214000806C38B1FFE705980168086820F0080046
:102150000860FFE70598C16D3F20884001998860BD
:102160000599012081F83500FFE70599002081F8E5
:102170003400FFE70598006D20B1FFE70598016D79
:102180008847FFE77BE00598006800684003002867
:102190001AD5FFE70598006800680003002809D4F5
:1021A000FFE70598406C20B1FFE70598416C884730
:1021B000FFE708E00598C06B20B1FFE70598C16B09
:1021C0008847FFE7FFE720E0059800680068C00542
:1021D000002811D4FFE705980168086820F0100076
:1021E00008600599012081F83500FFE70599002076
:1021F00081F83400FFE7FFE70598C06B20B1FFE7E7
:102200000598C16B8847FFE7FFE7FFE7FFE7059801
:10221000406DA0B3FFE70598406DC00730B3FFE7FE
:102220000599052081F8350005980168086820F0B7
:1022300001000860FFE7039801300390029988428B
:1022400001D9FFE707E0FFE7059800680068C007CD
:102250000028F0D1FFE70599012081F83500FFE75C
:102260000599002081F83400FFE7FFE70598C06C6E
:1022700020B1FFE70598C16C8847FFE7FFE706B08C
:1022800080BD000080B586B004900020039000F06F
:1022900011FB0290049820B9FFE701208DF8170088
:1022A000A3E00498406A08B1FFE7FFE70499022021
:1022B00081F83500FFE70499002081F83400FFE73A
:1022C00004980168086820F001000860FFE704989E
:1022D00000680068C00790B1FFE700F0EBFA0299D0
:1022E000401A06280AD3FFE704992020486504997C
:1022F000032081F835008DF8170076E0E7E70498B1
:10230000006800680390039848F23F01CFF2100183
:1023100008400390049900914868D1F808C0CB6840
:102320000A6940EA0C00184310434A6910438A695D
:102330001043CA691043096A014303980843039094
:102340000498406A042808D1FFE70499C86A096B19
:102350000143039808430390FFE703980499096831
:1023600008600498006840690390039820F0070013
:1023700003900498416A0398084303900498406AC4
:1023800004281AD1FFE70498816A03980843039050
:102390000498C06A80B1FFE70498FEF769FB50B16A
:1023A000FFE70499402048650499012081F8350031
:1023B0008DF8170019E0FFE7FFE703980499096813
:1023C00048610498FEF728FB01900498C16D3F20F6
:1023D000884001998860049900204865049A012189
:1023E00082F835108DF81700FFE79DF8170006B04A
:1023F00080BD000080B588B00690059104920393DB
:1024000000208DF80B000698806D0190FFE706987C
:1024100090F83400012804D1FFE702208DF81F0056
:1024200045E00699012081F83400FFE7FFE70698B0
:1024300090F8350001282BD1FFE70699022081F89A
:10244000350006990020486506980599049A039B73
:10245000FEF786FB0698C16D3F2088400199886091
:1024600006980168086840F0160008600698006C3D
:1024700038B1FFE706980168086840F00800086076
:10248000FFE706980168086840F00100086009E06D
:10249000FFE70699002081F83400FFE702208DF85D
:1024A0000B00FFE79DF80B008DF81F00FFE79DF87C
:1024B0001F0008B080BD000080B584B0039000F01C
:1024C000F9F90290039801900198013048B1FFE7B3
:1024D00040F20420C2F20000017801980844019003
:1024E000FFE7FFE700F0E6F90299401A01998842F8
:1024F00001D2FFE7F6E704B080BD00008EB00D907A
:102500000C9100200A90099008900B90FFE70B981F
:102510000F2800F2CC81FFE70B99012088400A9038
:102520000C9800680A990840099009980A9988420D
:1025300040F0B881FFE70C98406800F003000128E4
:1025400007D0FFE70C98406800F0030002282FD165
:10255000FFE70D98806808900B984100032000FA6F
:1025600001F10898884308900C98C0680B994900BD
:1025700000FA01F108980843089008980D998860BE
:102580000D98406808900B99012000FA01F1089815
:10259000884308900C984068C0F300100B9900FA2B
:1025A00001F108980843089008980D994860FFE7E2
:1025B0000C98406800F00300032818D0FFE70D983E
:1025C000C06808900B984100032000FA01F10898B8
:1025D000884308900C9880680B99490000FA01F133
:1025E00008980843089008980D99C860FFE70C9870
:1025F000406800F00300022826D1FFE70D980B99F0
:102600006FF0030202EA51010844006A08900B9837
:1026100000F0070081000F2000FA01F108988843BC
:1026200008900C9800690B9901F00701890000FAE5
:1026300001F108980843089008980D990B9B02EA4D
:10264000530211440862FFE70D98006808900B9848
:102650004100032000FA01F10898884308900C9883
:10266000406800F003000B99490000FA01F1089856
:102670000843089008980D9908600C9880798007A5
:10268000002800F00E81FFE7FFE70020079043F6E7
:102690004400C4F20200016841F480410160006816
:1026A00000F4804007900798FFE70B9820F00300A4
:1026B00043F60801C4F20101405808900B9800F05D
:1026C000030081000F2000FA01F108988843089068
:1026D0000D980021C4F20201884203D1FFE70020D7
:1026E00006905EE00D9840F20041C4F2020188427B
:1026F00003D1FFE70120059050E00D9840F600015E
:10270000C4F20201884203D1FFE70220049042E0B4
:102710000D9840F60041C4F20201884203D1FFE760
:102720000320039034E00D9841F20001C4F202014D
:10273000884203D1FFE70420029026E00D9841F281
:102740000041C4F20201884203D1FFE70520019055
:1027500018E00D9841F60001C4F20201884203D14D
:10276000FFE7062000900AE00D9941F60042C4F20E
:1027700002020820914208BF07200090FFE700985E
:102780000190FFE701980290FFE702980390FFE7AE
:1027900003980490FFE704980590FFE705980690DA
:1027A000FFE70698C0B20B9901F00301890000FA17
:1027B00001F108980843089008980B9921F003014B
:1027C00043F60802C4F20102885043F60840C4F2FE
:1027D00001000068089009990898884308900C98AF
:1027E0008079C006002805D5FFE7099908980843B5
:1027F0000890FFE7089843F60841C4F20101086019
:1028000043F60C40C4F2010000680890099908984A
:10281000884308900C9880798006002805D5FFE74A
:102820000999089808430890FFE7089843F60C4177
:10283000C4F20101086043F60440C4F201000068DC
:10284000089009990898884308900C988079800727
:10285000002805D5FFE70999089808430890FFE785
:10286000089843F60441C4F20101086043F60040B1
:10287000C4F20100006808900999089888430890FC
:102880000C988079C00728B1FFE709990898084398
:102890000890FFE7089843F60041C4F20101086080
:1028A000FFE7FFE7FFE70B9801300B902FE60EB034
:1028B0007047000040F6DC10C2F20000006870476C
:1028C00040F20420C2F20000027840F6DC11C2F2AD
:1028D00000010868104408607047000080B543F6A6
:1028E0000041C4F20201086840F400700860086802
:1028F00040F480600860086840F48070086003203D
:1029000000F08AF80F2000F005F800F03BF80020F6
:1029100080BD000080B582B0009040F2E810C2F2A5
:102920000000006840F20421C2F200010A784FF46E
:102930007A71B1FBF2F1B0FBF1F000F0A5FD20B12E
:10294000FFE701208DF8070018E000980F280DD848
:10295000FFE700994FF0FF30002200F043F80098A5
:1029600040F20821C2F20001086003E001208DF866
:10297000070003E000208DF80700FFE79DF807003F
:1029800002B080BD82B0FFE70020019043F6440012
:10299000C4F20200016841F480410160006800F463
:1029A000804001900198FFE7FFE70020009043F688
:1029B0004000C4F20200016841F0805101600068EB
:1029C00000F0805000900098FFE702B070470000D0
:1029D00080B582B08DF807009DF9070006F006F972
:1029E00002B080BD80B586B08DF8170004910392C7
:1029F0000020029006F012F902909DF91700019054
:102A000002980499039A01F027FB0146019806F009
:102A10000DF906B080BD000080B582B0019001982C
:102A200006F026F902B080BD80B584B00290019115
:102A3000029820B9FFE701208DF80F0021E10198ED
:102A400043F60041C4F20201096801F0070188421F
:102A500012D9FFE7019943F60040C4F20200017069
:102A6000006800F007000199884204D0FFE70120C8
:102A70008DF80F0005E1FFE7029800788007002835
:102A80002AD5FFE7029800784007002809D5FFE71C
:102A900043F60801C4F20201086840F4E0500860FF
:102AA000FFE7029800780007002809D5FFE743F602
:102AB0000801C4F20201086840F460400860FFE7C2
:102AC00043F60801C4F20201086820F0F000029AFF
:102AD000926810430860FFE702980078C00700285A
:102AE0006ED0FFE702984068012811D1FFE743F656
:102AF0000000C4F20200006800F400310020B0EBD6
:102B0000514F04D1FFE701208DF80F00B9E02CE010
:102B100002984068022805D0FFE702984068032821
:102B200011D1FFE743F60000C4F20200006800F094
:102B300000710020B0EB516F04D1FFE701208DF848
:102B40000F009EE010E043F60000C4F202000068AF
:102B500000F002010020B0EB510F04D1FFE701208B
:102B60008DF80F008DE0FFE7FFE743F60801C4F2A0
:102B70000201086820F00300029A526810430860BE
:102B8000FFF798FE0090FFE743F60800C4F202004A
:102B9000006800F00C0002994968B0EB810F0ED07C
:102BA000FFE7FFF787FE0099401A41F2893188421A
:102BB00004D3FFE703208DF80F0062E0E4E7FFE7AE
:102BC000019843F60041C4F20201096801F00701CF
:102BD000884212D2FFE7019943F60040C4F2020096
:102BE0000170006800F007000199884204D0FFE7F7
:102BF00001208DF80F0044E0FFE7029800784007BD
:102C000000280CD5FFE743F60801C4F2020108686A
:102C100020F4E050029AD26810430860FFE702985F
:102C20000078000700280DD5FFE743F60801C4F23D
:102C30000201086820F46040029A126940EAC2006A
:102C40000860FFE700F04CF843F60801C4F2020107
:102C50000968C9B20A0949F65021C0F60001895C29
:102C6000C84040F2E811C2F20001086040F20820BA
:102C7000C2F200000068FFF74DFE00208DF80F0043
:102C8000FFE79DF80F0004B080BD000040F2E8109F
:102C9000C2F200000068704780B5FFF7F7FF43F607
:102CA0000801C4F202010968C1F3822249F66021D9
:102CB000C0F60001895CC84080BD000080B5FFF708
:102CC000E5FF43F60801C4F20201096889B24A0B24
:102CD00049F66021C0F60001895CC84080BD000053
:102CE00080B586B00020059004900390029043F6D2
:102CF0000800C4F20200006800F00C0001460191D7
:102D000040B1FFE7019804280AD0FFE7019808289E
:102D10000CD04FE042F20040C0F2F40002904FE0CD
:102D200041F60030C0F2B700029049E043F60400DB
:102D3000C4F20200016801F03F0105910068400201
:102D4000002813D5FFE743F60400C4F20200006830
:102D5000C0F3881041F60031C0F2B701A0FB0101B9
:102D6000059A0023FDF730FA049012E043F60400C0
:102D7000C4F202000068C0F3881042F20041C0F2C1
:102D8000F401A0FB0101059A0023FDF71DFA049050
:102D9000FFE743F60400C4F20200006800F440318B
:102DA000022000EBD130039004980399B0FBF1F0BE
:102DB000029005E042F20040C0F2F4000290FFE70A
:102DC000029806B080BD000080B586B004900498DB
:102DD00020B9FFE701208DF8170050E30498007830
:102DE000C007002800F0A580FFE743F60800C4F202
:102DF0000200006800F00C00042813D0FFE743F63F
:102E00000800C4F20200006800F00C0008281ED17F
:102E1000FFE743F60400C4F2020000684002002805
:102E200015D5FFE743F60000C4F20200006800F485
:102E300000310020B0EB514F08D0FFE70498406804
:102E400020B9FFE701208DF8170018E370E0FFE7D5
:102E500004984068B0F5803F09D1FFE743F60001D0
:102E6000C4F20201086840F48030086020E0049851
:102E70004068B0F5A02F0DD1FFE743F60001C4F282
:102E80000201086840F480200860086840F480303F
:102E900008600CE043F60001C4F20201086820F467
:102EA00080300860086820F480200860FFE7FFE7B2
:102EB000FFE704984068E8B1FFE7FFF7FBFC0390E9
:102EC000FFE743F60000C4F20200006800F400319E
:102ED0000020B0EB514F0CD1FFE7FFF7EBFC03995B
:102EE000401A652804D3FFE703208DF81700C6E2D7
:102EF000E7E71CE0FFF7DEFC0390FFE743F6000086
:102F0000C4F20200006800F400310020B0EB514F21
:102F10000CD0FFE7FFF7CEFC0399401A652804D3D5
:102F2000FFE703208DF81700A9E2E7E7FFE7FFE7D7
:102F3000FFE7049800788007002840F19680FFE7BB
:102F400043F60800C4F20200006810F00C0F13D022
:102F5000FFE743F60800C4F20200006800F00C002E
:102F600008282CD1FFE743F60400C4F202000068F1
:102F70004002002823D4FFE743F60000C4F2020019
:102F8000006800F002010020B0EB510F09D0FFE70C
:102F90000498C068012804D0FFE701208DF81700CD
:102FA0006DE243F60001C4F20201086820F0F80067
:102FB000049A126940EAC2000860FFE754E00498EE
:102FC000C06870B3FFE70021C4F247210120086008
:102FD000FFF770FC0390FFE743F60000C4F2020025
:102FE000006800F002010020B0EB510F0CD1FFE7A8
:102FF000FFF760FC0399401A032804D3FFE703207E
:103000008DF817003BE2E7E743F60001C4F2020146
:10301000086820F0F800049A126940EAC2000860CB
:1030200021E00021C4F2472100200860FFF742FCA4
:103030000390FFE743F60000C4F20200006800F0CE
:1030400002010020B0EB510F0CD0FFE7FFF732FC7C
:103050000399401A032804D3FFE703208DF81700D3
:103060000DE2E7E7FFE7FFE7FFE7049800780007D6
:1030700000284BD5FFE70498406918B3FFE740F6F6
:103080008061C4F2472101200860FFF713FC039020
:10309000FFE743F67400C4F20200006800F002018A
:1030A0000020B0EB510F0CD1FFE7FFF703FC0399B1
:1030B000401A032804D3FFE703208DF81700DEE150
:1030C000E7E722E040F68061C4F247210020086073
:1030D000FFF7F0FB0390FFE743F67400C4F2020031
:1030E000006800F002010020B0EB510F0CD0FFE7A8
:1030F000FFF7E0FB0399401A032804D3FFE70320FE
:103100008DF81700BBE1E7E7FFE7FFE704980078D9
:103110004007002840F1CE80FFE700208DF807002F
:1031200043F64000C4F202000068C000002815D435
:10313000FFE7FFE70020009043F64000C4F20200E2
:10314000016841F080510160006800F080500090FB
:103150000098FFE701208DF80700FFE747F2000025
:10316000C4F200000068C005002822D4FFE747F23F
:103170000001C4F20001086840F480700860FFF7A5
:1031800099FB0390FFE747F20000C4F200000068DB
:10319000C00500280CD4FFE7FFF78CFB0399401A09
:1031A000032804D3FFE703208DF8170067E1EAE75F
:1031B000FFE7FFE704988068012809D1FFE743F69D
:1031C0007001C4F20201086840F0010008601FE0CD
:1031D0000498806805280DD1FFE743F67001C4F21A
:1031E0000201086840F004000860086840F001002F
:1031F00008600CE043F67001C4F20201086820F098
:1032000001000860086820F004000860FFE7FFE79D
:10321000FFE704988068F8B1FFE7FFF74BFB0390E6
:10322000FFE743F67000C4F20200006800F00201FC
:103230000020B0EB510F0ED1FFE7FFF73BFB0399E6
:10324000401A41F28931884204D3FFE703208DF808
:10325000170014E1E5E71EE0FFF72CFB0390FFE702
:1032600043F67000C4F20200006800F00201002082
:10327000B0EB510F0ED0FFE7FFF71CFB0399401A8C
:1032800041F28931884204D3FFE703208DF817000B
:10329000F5E0E5E7FFE79DF80700012809D1FFE722
:1032A00043F64001C4F20201086820F08050086033
:1032B000FFE7FFE704988069002800F0DC80FFE763
:1032C00043F60800C4F20200006800F00C00082871
:1032D00000F08580FFE70498806902285CD1FFE751
:1032E0006021C4F2472100200860FFF7E3FA039051
:1032F000FFE743F60000C4F20200006800F000712E
:103300000020B0EB516F0CD0FFE7FFF7D3FA039921
:10331000401A032804D3FFE703208DF81700AEE01E
:10332000E7E70499C869D1F820C04B6A8A6A40EA85
:103330000C0040EA8310D2034FF6FF739A43A2F5C4
:1033400080321043C96A40EA016043F60401C4F2C6
:10335000020108606021C4F2472101200860FFF7E4
:10336000A9FA0390FFE743F60000C4F202000068E8
:1033700000F000710020B0EB516F0CD1FFE7FFF7B8
:1033800099FA0399401A032804D3FFE703208DF824
:10339000170074E0E7E721E06021C4F24721002034
:1033A0000860FFF787FA0390FFE743F60000C4F2D6
:1033B0000200006800F000710020B0EB516F0CD0EB
:1033C000FFE7FFF777FA0399401A032804D3FFE7D2
:1033D00003208DF8170052E0E7E7FFE74AE0049882
:1033E0008069012804D1FFE701208DF8170046E02D
:1033F00043F60400C4F20200006802900498806959
:10340000012831D0FFE7029800F480000499C969CF
:10341000884229D1FFE7029800F03F000499096A29
:10342000884221D1FFE7029847F6C071084004990D
:10343000496AB0EB811F17D1FFE7029800F44030D2
:103440000499896AC9034FF6FF729143A1F580314F
:10345000884209D1FFE7029800F070600499C96AB8
:10346000B0EB016F04D0FFE701208DF8170006E0F4
:10347000FFE7FFE7FFE700208DF81700FFE79DF863
:10348000170006B080BD000080B582B001900198A1
:1034900000F01CFE02B080BD82B00190ADF80210B9
:1034A00002B0704780B584B00290FFE7FFE7029852
:1034B000006850E8030F20F0C0000190FFE7019979
:1034C0000298026842E803100028F0D1FFE7FFE706
:1034D0000298006840690006002832D5FFE7FFE740
:1034E000FFE70298006850E8050F20F08000009088
:1034F000FFE700990298026842E805100028F0D121
:10350000FFE7FFE70298806BD0B1FFE70298816B7D
:10351000002008650298806BFEF786FC78B1FFE713
:103520000298806BFEF718FD202807D1FFE702996B
:103530001020486403208DF80F000CE0FFE7FFE740
:10354000FFE702990020C884029A202182F84110E6
:103550008DF80F00FFE79DF80F0004B080BD00005C
:1035600080B586B005900598006841F20041C4F22C
:10357000010188423AD1FFE7FFE700200490059857
:1035800000680068049005980068406804900498FA
:10359000FFE7FFE7002003900598006800680390AC
:1035A00005980068406803900398FFE7FFE7002054
:1035B00002900598006800680290059800684068CD
:1035C00002900298FFE7FFE700200190059800684D
:1035D0000068019005980068406801900198FFE735
:1035E00001F0F0F80598FFF75DFFFFE706B080BD3A
:1035F00080B592B0119011980068006810901198F1
:103600000068C0680F901198006840690E90002013
:103610000D900C90109800F00F000D900D9888B947
:10362000FFE79DF84000800600280AD5FFE79DF8D7
:103630003C008006002804D5FFE7119800F0ECFE5E
:1036400002E2FFE70D98002800F0C280FFE79DF836
:103650003800C00738B9FFE7BDF83C0010F4907F90
:1036600000F0B680FFE79DF84000C00758B1FFE7C3
:103670009DF83D00C00730B1FFE71199486C40F05C
:1036800001004864FFE79DF84000400700280BD583
:10369000FFE79DF83800C00730B1FFE71199486C8B
:1036A00040F002004864FFE79DF8400080070028D2
:1036B0000BD5FFE79DF83800C00730B1FFE711993F
:1036C000486C40F004004864FFE79DF840000007A4
:1036D000002811D5FFE79DF83C008006002805D49E
:1036E000FFE79DF83800C00730B1FFE71199486C3B
:1036F00040F008004864FFE71198406C002866D04D
:10370000FFE79DF84000800600280AD5FFE79DF8F6
:103710003C008006002804D5FFE7119800F07CFEED
:10372000FFE7119800684069C0F380100C90119871
:10373000406C0007002804D4FFE70C9800283ED016
:10374000FFE7119800F0EEFD11980068406940060F
:1037500000282FD5FFE7FFE7FFE71198006850E842
:10376000050F20F040000B90FFE70B9911980268BD
:1037700042E805100028F0D1FFE7FFE71198C06B81
:1037800098B1FFE71198C16B44F2F910C0F6000040
:1037900008651198C06BFEF7BDFB28B1FFE71198D3
:1037A000C06B016D8847FFE703E01198FFF7D8FE73
:1037B000FFE703E01198FFF7D3FEFFE706E011985B
:1037C000FFF7CEFE119900204864FFE7FFE73BE1D9
:1037D0001198006B012840F01781FFE79DF8400029
:1037E000C006002840F11081FFE79DF83C00C006AC
:1037F000002840F10981FFE7FFE700200A901198B7
:10380000006800680A901198006840680A900A9859
:10381000FFE71198006840694006002840F19A804F
:10382000FFE71198C06B00684068ADF82600BDF84E
:103830002600002875D0FFE7BDF826001199898D74
:1038400088426EDAFFE7BDF826001199C885119805
:10385000C06BC069B0F5807F58D0FFE7FFE7FFE796
:103860001198006850E8030F20F480700890FFE77B
:1038700008991198026842E803100028F0D1FFE788
:10388000FFE7FFE7FFE71198006850E8050F20F019
:1038900001000790FFE707991198026842E80510B8
:1038A0000028F0D1FFE7FFE7FFE7FFE71198006886
:1038B00050E8050F20F040000690FFE706991198A8
:1038C000026842E805100028F0D1FFE7FFE71199F0
:1038D000202081F84200119900200863FFE7FFE7EC
:1038E0001198006850E8030F20F010000590FFE7E2
:1038F00005991198026842E803100028F0D1FFE70B
:10390000FFE71198C06BFEF78FFAFFE711990220CD
:1039100048631198818DC28D891A89B2FFF7BCFD69
:1039200017E0BDF826001199898D884210D1FFE774
:103930001198C06BC069B0F5807F08D1FFE711997D
:10394000022048631198818DFFF7A6FDFFE7FFE78E
:10395000FFE779E01199888DC98D401AADF8120002
:103960001198C08D00284ED0FFE7BDF81200002846
:1039700049D0FFE7FFE7FFE71198006850E8030F21
:1039800020F490700390FFE703991198026842E8D1
:1039900003100028F0D1FFE7FFE7FFE7FFE71198EA
:1039A000006850E8050F20F001000290FFE702993F
:1039B0001198026842E805100028F0D1FFE7FFE700
:1039C0001199202081F84200119900200863FFE737
:1039D000FFE71198006850E8030F20F010000190F5
:1039E000FFE701991198026842E803100028F0D11E
:1039F000FFE7FFE71199022048631198BDF8121004
:103A0000FFF74AFDFFE71FE09DF840000006002891
:103A10000AD5FFE79DF83C000006002804D5FFE723
:103A2000119800F04BFE0FE09DF840004006002882
:103A30000AD5FFE79DF83C004006002804D5FFE7C3
:103A4000119800F0B9FCFFE712B080BD80B582B0DC
:103A50000090009820B9FFE701208DF8070040E0B2
:103A60000098806908B1FFE700E0FFE7009890F850
:103A7000410040B9FFE70099002081F8400000981C
:103A800000F034F8FFE70099242081F84100009805
:103A90000168C86820F40050C860009800F070FD0C
:103AA00000980168086920F4904008610098016856
:103AB000486920F02A00486100980168C86840F40D
:103AC0000050C860009900204864009A202182F8C4
:103AD0004110009A82F84210009948638DF807005F
:103AE000FFE79DF8070002B080BD000080B590B0F0
:103AF0000F9000200E900D900C900B900A900F9854
:103B0000006844F60001C4F2000188423FD1FFE79B
:103B1000FFE70020099043F64000C4F2020001686C
:103B200041F480210160006800F480200990099828
:103B3000FFE7FFE70020089043F63000C4F20200E0
:103B4000016841F004010160006800F00400089081
:103B50000898FFE74FF440600A9002200B90002085
:103B600004900C9003200D9007200E9040F600006A
:103B7000C4F202000AA9FEF7C1FC049A27200590AE
:103B80001146FEF72FFF0598FEF722FF9CE00F98E5
:103B9000006841F20041C4F20101884240F0938084
:103BA000FFE7FFE70020079043F64400C4F202005D
:103BB000016841F020010160006800F020000790DA
:103BC0000798FFE7FFE70020069043F63000C4F2B5
:103BD0000200016841F040010160006800F040000F
:103BE00006900698FFE74FF484400A9002200B905D
:103BF000002002900C9003200D9008200E9041F6BA
:103C00000000C4F202000AA9FEF778FC029940F60F
:103C10008C00C2F20000039046F22842C4F2020275
:103C200002604FF0206242608160C1604FF48062A8
:103C3000026141618161C16101624162FEF722FB63
:103C400018B1FFE7FCF7B6FFFFE7FFE70F9840F674
:103C50008C01C2F20001C1630F988863FFE740F650
:103C6000EC00C2F20000019046F2A041C4F2020151
:103C700001604FF020614160402181600021C160FE
:103C80004FF48062026141618161C1610162416200
:103C9000FEF7F8FA18B1FFE7FCF78CFFFFE7FFE744
:103CA0000F9840F6EC01C2F2000181630F9888631F
:103CB000FFE74720009000221146FEF793FE009890
:103CC000FEF786FEFFE7FFE710B080BD81B00090F1
:103CD00001B0704780B586B004900391ADF80A201A
:103CE000049890F8410020286AD1FFE7039820B19A
:103CF000FFE7BDF80A0020B9FFE701208DF81700A3
:103D000062E0039804990862BDF80A000499888467
:103D1000BDF80A000499C884049900204864049AF4
:103D2000212182F8411004998A6B44F29121C0F656
:103D30000001D16304998A6B44F20D31C0F6000191
:103D4000116404998A6B44F21521C0F60001D16414
:103D50000499896B086503A8019004980268806B38
:103D6000019909680432BDF80A30FEF743FB58B1E7
:103D7000FFE70499102048640499202081F841004D
:103D800001208DF817001FE0049801686FF04000D3
:103D90000860FFE7FFE70498006850E8050F40F06F
:103DA00080000090FFE700990498026842E805103F
:103DB0000028F0D1FFE7FFE700208DF8170003E0AF
:103DC00002208DF81700FFE79DF8170006B080BDB0
:103DD00080B582B001900198006841F20041C4F2C0
:103DE0000101884203D1FFE700F0ECFCFFE702B0DD
:103DF00080BD000081B0009001B07047FFE7FEE792
:103E000080B582B040F63C00C2F20000019046F25C
:103E10000041C4F20001016006214160002181607F
:103E2000C1604FF4403202614FF48012426101766A
:103E3000012242768276C27601774177FDF76EFDE8
:103E400018B1FFE7FCF7B6FEFFE702B080BD000047
:103E500080B582B040F66400C2F20000019046F6E0
:103E60000001C4F20001016006214160002181606F
:103E7000C1604FF4403202614FF48012426101761A
:103E8000012242768276C27601774177FDF746FDC0
:103E900018B1FFE7FCF78EFEFFE702B080BD00001F
:103EA00080B584B0FFE70020039043F63000C4F2F1
:103EB0000200016841F480010160006800F48000A4
:103EC00003900398FFE739200090002201921146E9
:103ED000FEF788FD0098FEF77BFD019A45200290D1
:103EE0001146FEF77FFD0298FEF772FD04B080BD1B
:103EF00086B0FFE70020059043F63000C4F20200D0
:103F0000016841F002010160006800F002000590C4
:103F10000598FFE7FFE70020049043F63000C4F265
:103F20000200016841F040010160006800F04000BB
:103F300004900498FFE7FFE70020039043F6300069
:103F4000C4F20200016841F001010160006800F064
:103F5000010003900398FFE7FFE70020029043F67B
:103F60003000C4F20200016841F0080101600068FD
:103F700000F0080002900298FFE7FFE700200190A0
:103F800043F63000C4F20200016841F00401016010
:103F9000006800F0040001900198FFE7FFE70020AF
:103FA000009043F63000C4F20200016841F0800145
:103FB0000160006800F0800000900098FFE706B004
:103FC0007047000080B582B040F64C10C2F200008D
:103FD000019044F60001C4F20001016048F2A061C2
:103FE000C0F2010141604FF4805181600021C16045
:103FF0004FF4806202610C2242618161C161FFF76E
:1040000025FD18B1FFE7FCF7D5FDFFE702B080BD45
:1040100080B582B040F69410C2F20000019041F2E7
:104020000041C4F2010101604FF4E131416000211F
:104030008160C16001610C2242618161C161FFF751
:1040400005FD18B1FFE7FCF7B5FDFFE702B080BD45
:10405000FFE7FEE7FFE7FEE788B0079006910592CD
:10406000079800F0070004900498C0F107000528A5
:1040700003D3FFE70420019004E00498C0F1070097
:104080000190FFE70198039004980430062803D8B4
:10409000FFE70020009003E0049803380090FFE75A
:1040A0000098029006980399012202FA01F1013961
:1040B0000840029B984005999A40013A11400843F4
:1040C00008B07047704700007047000080B582B0AC
:1040D000009000980138B0F1807F03D3FFE7012002
:1040E000019019E0009801384EF21401CEF200015F
:1040F00008604FF0FF300F2104F098FD4EF21801D8
:10410000CEF20001002008604EF21002CEF2000252
:10411000072111600190FFE7019802B080BD000007
:1041200080B5FEF7CDFB80BD80B594B008A83021E6
:10413000FCF794F8002007900690059004900390F7
:10414000FFE70020029043F64000C4F2020001683D
:1041500041F080510160006800F0805002900298A8
:10416000FFE7FFE70020019047F20000C4F20000E3
:10417000016841F480410160006800F480400190D2
:104180000198FFE7012008904FF480300990022049
:104190000E904FF480010F9106211091A8211191EA
:1041A00012900420139008A8FEF70EFE18B1FFE746
:1041B000FCF700FDFFE70F20039002200490002091
:1041C00005904FF4A05006904FF48050079003A83C
:1041D0000521FEF729FC18B1FFE7FCF7EBFCFFE730
:1041E00014B080BD4EF68851CEF20001086840F44C
:1041F000700008607047000080B582B0019001989F
:10420000806B009000990020C8850098FFF7A8F9FE
:1042100002B080BD80B584B0039000200290039866
:10422000806B0190019800684069C0B2C00902909B
:10423000019890F8410021280AD1FFE7029838B18F
:10424000FFE701990020C884019800F0C9F8FFE752
:10425000019800684069C0F380100290019890F8BE
:10426000420022280AD1FFE7029838B1FFE70199FE
:104270000020C885019800F055F8FFE70199486CC7
:1042800040F0100048640198FFF76AF904B080BD5F
:1042900080B584B003900398806B02900398006807
:1042A0000068C00500282AD4FFE702990020C884CE
:1042B000FFE7FFE70298006850E8050F20F0800054
:1042C0000190FFE701990298026842E80510002872
:1042D000F0D1FFE7FFE7FFE7FFE70298006850E84B
:1042E000030F40F040000090FFE700990298026839
:1042F00042E803100028F0D1FFE7FFE703E002984F
:10430000FFF766FDFFE704B080BD000080B582B016
:1043100001900198806B00900098FFF76BFD02B050
:1043200080BD000084B00390FFE7FFE703980068BA
:1043300050E8030F20F490700290FFE70299039871
:10434000026842E803100028F0D1FFE7FFE7FFE72B
:10435000FFE70398006850E8050F20F00100019086
:10436000FFE701990398026842E805100028F0D1A0
:10437000FFE7FFE70398006B012814D1FFE7FFE791
:10438000FFE70398006850E8030F20F0100000904A
:10439000FFE700990398026842E803100028F0D173
:1043A000FFE7FFE7FFE70399202081F84200039928
:1043B0000020086304B0704780B582B00190019876
:1043C0000168C86820F04000C8600199202081F889
:1043D00041000198FFF7FCFC002002B080BD000006
:1043E00082B00190FFE7FFE70198006850E8030FF3
:1043F00020F0C0000090FFE700990198026842E8B1
:1044000003100028F0D1FFE7FFE70199202081F891
:10441000410002B07047000080B586B004900020D3
:1044200003900290049890F84200222840F0A08067
:10443000FFE704988068B0F5805F13D1FFE7049828
:10444000006978B9FFE70498806A029004980068D0
:1044500040686FF35F20029908800499886A0230EF
:10446000886223E00498806A039004988068B0F51D
:10447000805F08D0FFE70498806850B9FFE7049890
:10448000006930B9FFE70498006840680399087034
:1044900007E004980068406800F07F000399087006
:1044A000FFE70499886A01308862FFE70499C88DA4
:1044B0000138C8850004002856D1FFE70498016838
:1044C000C86820F02000C86004980168C86820F41B
:1044D0008070C86004980168486920F00100486154
:1044E0000499202081F84200049900204863049830
:1044F000006B012830D1FFE7049900200863FFE733
:10450000FFE70498006850E8030F20F010000190C6
:10451000FFE701990498026842E803100028F0D1EF
:10452000FFE7FFE7049800680068C00600280ED582
:10453000FFE7FFE700200090049800680068009003
:1045400004980068406800900098FFE7FFE704982F
:10455000818DFEF7A1FF03E00498FFF7B7FBFFE7AB
:1045600000208DF8170007E000208DF8170003E009
:1045700002208DF81700FFE79DF8170006B080BDF8
:1045800080B586B0059005980068006920F4405019
:10459000059A1168D26810430861059988680B690B
:1045A0004A69C96918431043084304900598006894
:1045B000C06849F20C618843049908430599096869
:1045C000C86005980068406920F44070059A116839
:1045D0009269104348610598006841F20001C4F2F5
:1045E0000101884209D0FFE70598006841F20041C7
:1045F000C4F20101884204D1FFE7FEF75FFB03909C
:1046000003E0FEF749FB0390FFE70598C069B0F5AA
:10461000004F29D1FFE703981921A0FB0101059A5A
:104620001368029353685A00DB0FFBF7CDFD029924
:10463000864648F21F53C5F2EB13AEFB0320420936
:1046400010014FF0640C02FB1CEC322202EBCC0296
:10465000A2FB0332F82303EA521300EB4300C2F338
:1046600042121044886026E003981921A0FB010142
:10467000059A1368019353689A009B0FFBF7A4FDFA
:104680000199844648F21F52C5F2EB12ACFB02308E
:104690004309642003FB10CC322000EB0C10A0FB7C
:1046A0000202F02000EA521000EB0310C2F34312A2
:1046B00010448860FFE706B080BD000083B0019021
:1046C000019890F8410021283AD1FFE701988068CD
:1046D000B0F5805F13D1FFE70198006978B9FFE773
:1046E0000198006A0090009800886FF35F2001999C
:1046F000096848600199086A0230086208E0019A76
:10470000106A411C11620078019909684860FFE74E
:104710000199C88C0138C884000468B9FFE7019882
:104720000168C86820F08000C86001980168C86806
:1047300040F04000C860FFE700208DF80B0003E068
:1047400002208DF80B00FFE79DF80B0003B07047C7
:1047500080B540F64C10C2F20000FEF749FF80BD64
:1047600080B540F69410C2F20000FEF741FF80BD14
:10477000FFE7FEE780B540F21420C2F200000178A6
:1047800000EE101AB8EE400A40F21401C2F2000125
:10479000D1ED1A0A91ED2B1AD1ED341A91ED452A7B
:1047A000808A03EE100AB8EE433A9FED054AC3EE45
:1047B000042A40F28C60C2F2000000F0AFF980BD24
:1047C00000007A4480B540F28C60C2F2000000F034
:1047D0009DF980BD80B504F07DFA04F08BFA80BDB0
:1047E00080B504F07FFA80BD80B584B0039002915B
:1047F000039803F047F8029880ED000A039803F04D
:1048000021F8029880ED010A039803F043F802981A
:1048100080ED020A039803F00DF8029880ED040A77
:10482000039803F04FF8029880ED050A039803F00F
:1048300021F8029880ED060A039803F033F80299F4
:104840000877039803F00EF8029880ED030A0398A6
:1048500003F032F80190019800680299086201980B
:10486000407C029981F83100039802F0F3FF02992D
:1048700081F8320004B080BD80B588B00790069101
:10488000069800680090079801F03EF801460098ED
:104890000860069840680190079801F035F80146D5
:1048A00001984860069880680290079801F02CF8FB
:1048B0000146029888600698C0680390079801F046
:1048C00023F801460398C8600698007C0490079876
:1048D00001F01AF80146049808740698407C059087
:1048E000079801F011F801460598487408B080BD9A
:1048F00080B584B00390029101920398D0F8100122
:10490000029948640398D0F81401029988640398C6
:10491000D0F818010299C8640398D0F81C010299D4
:1049200008650398D0F82001029948650398D0F8EB
:104930002401029988650398D0F830010299C8656E
:10494000039890F82801029981F83800039890F8AC
:104950000801029908770398D0F80C0102990860C1
:10496000019802F0A9FF406802990866019802F0D8
:10497000A3FF80680299486604B080BD80B584B00A
:104980000390029103984068FBF7F8FD41EC100B8F
:10499000029880ED180B03988068FBF7EFFD41EC5F
:1049A000100B029880ED1A0B0398C068FBF7E6FD28
:1049B00041EC100B029880ED1C0B0398006AFBF78A
:1049C000DDFD41EC100B029880ED360B0398406A38
:1049D000FBF7D4FD41EC100B029880ED380B0398E7
:1049E000806AFBF7CBFD41EC100B029880ED3A0B8F
:1049F000039800690299C1F8F00003984069029990
:104A0000C1F8F400039880690299C1F8F80003988E
:104A1000C06A0299C1F8FC000398006B0299C1F8C2
:104A200000010398406B0299C1F804010398C06B20
:104A30000299C1F82C01039890F84000002818BF93
:104A40000120029981F83401039840690299886530
:104A500003988069FBF792FD41EC100B029880ED02
:104A6000140B0398006B0299C1F8D0000398406BB7
:104A7000FBF784FD41EC100B029880ED320B03989C
:104A8000007F002818BF01208DF807009DF807005F
:104A9000029991F8081188420DD0FFE79DF80700B0
:104AA000029981F80801029802F014FD029878300A
:104AB00002F010FDFFE7029890F8290130B1FFE7FE
:104AC000039800680299C1F80C01FFE7039890F879
:104AD000380048B1FFE7029890F8280120B9FFE7B5
:104AE000029800F09DF90EE0039890F8380048B95C
:104AF000FFE7029890F8280120B1FFE7029800F044
:104B000043FBFFE7FFE704B080BD000081B00090E9
:104B100000990020087701B07047000080B58AB086
:104B200003A9009101460098099180ED050AC0EDA6
:104B3000040A80ED031AC0ED021A80ED012AC0EDCF
:104B4000002A09980190007FC00708B1FFE71CE028
:104B500001990120087704208DF80B00089808605F
:104B600007984860069888600598C86004980861AE
:104B7000039848614FF0FF40886140F69410C2F2FC
:104B800000001C22FFF7A6F8FFE70AB080BD000076
:104B900081B000900098002101778161416101613D
:104BA000C16081604160016001B0704780B584B030
:104BB000039003980090FDF77DFE00990290029803
:104BC0004968884207D2FFE7009802994068C043CD
:104BD0000844019005E0009902984968401A019044
:104BE000FFE7009901980968884204D3FFE700991C
:104BF0000120886003E0009900208860FFE704B08E
:104C000080BD000080B582B0019001980090FDF752
:104C100051FE0099486002B080BD000082B0019052
:104C2000009101980099016000214160012181609B
:104C300002B0704781B000900098642101600021AB
:104C400041600121816001B0704700000000000058
:104C500010B5D4B053908DF84B118DED510ACDEDB8
:104C6000500A8DED4F1ACDED4E1A8DED4D2ACDED3A
:104C70004C2A53990F919DF84B0181F835015198B9
:104C8000C1F8F0005098C1F8F4004F98C1F8F8004E
:104C90004E98C1F8FC004D98C1F800014C98C1F83D
:104CA0000401D1F8F400D1F8F8100091FBF766FC8C
:104CB0000246009801920A46019942EC101B8DEDC4
:104CC000020BFBF75BFC9DED020B41EC110B34A8D2
:104CD000059002F071FD0F98059960220B92FBF789
:104CE000A4FA0F99D1F80001D1F804110691FBF74D
:104CF00045FC0246069807920A46079942EC101BAB
:104D00008DED080BFBF73AFC9DED080B41EC110B08
:104D10001CA80A9002F050FD0F980A990B9A78305F
:104D2000FBF783FA16A89FED302B8DED0C2BB0EE20
:104D3000420AF0EE620AB0EE421AF0EE621A02F097
:104D40005BFD9DED0C2B0F991698179A189BDDF8BB
:104D500064C0DDF868E01B9C4C67C1F870E0C1F8E6
:104D60006CC08B664A66086610A8B0EE420AF0EE88
:104D7000620AB0EE421AF0EE621A02F03DFD0F999F
:104D80001098119A129BDDF84CC0DDF850E0159C8C
:104D9000C1F8EC40C1F8E8E0C1F8E4C0C1F8E03087
:104DA000C1F8DC20C1F8D8000020C1F80C01C1F81E
:104DB0001001C1F81401C1F81801C1F81C01C1F8B3
:104DC0002001C1F8240181F8280181F8290181F826
:104DD0000801C1F82C01C1F8300181F8340154B048
:104DE00010BD00BF00BF00BF0000000000000000B9
:104DF00080B582B001900198009002F06BFB0098A2
:104E0000783002F067FB00990020C1F82401C1F856
:104E10001401C1F81801C1F8200102B080BD0000E2
:104E200080B582B001900198009090F8280140B9B7
:104E3000FFE7009802F04EFB0098783002F04AFB42
:104E4000FFE70099012081F8280102B080BD000031
:104E500010B5BAB038908DED370ACDED360A8DED2C
:104E6000351A389821903699C0F810113599C0F844
:104E70001C1190F8290140B9FFE721993698C1F833
:104E80000C01012081F8290104E021993798C1F82B
:104E90000C01FFE7219890F8280198B9FFE72198C5
:104EA00002F018FB2198783002F014FB21990020C1
:104EB000C1F81401C1F82001C1F81801C1F824019A
:104EC00039905DE1219890F80801002800F0AB804E
:104ED000FFE72199086E4A6E8B6ED1F86CC0D1F84D
:104EE00070E04C6F3394CDF8C8E0CDF8C4C0309377
:104EF0002F922E90D1F8FC000E90D1F80C01D1F831
:104F000010110C91FBF73AFB02460C980D920A46E1
:104F10000D9942EC101B8DED100BFBF72FFB024699
:104F20000E980F920A460F9942EC101B8DED120B52
:104F3000FBF724FB9DED103B9DED124B02462198A3
:104F400015920A46159942EC151B9DED2E0B9DED11
:104F5000301B9DED322B02F0D3FA51EC100BFBF716
:104F600020FB01462198C0F8181102F0A5FA2199FA
:104F700081ED450A01F178002090D1F8D800D1F8F0
:104F8000DC20D1F8E030D1F8E4C0D1F8E8E0D1F885
:104F9000EC402D94CDF8B0E0CDF8ACC02A93299226
:104FA0002890D1F8F0001890D1F81801D1F81C1110
:104FB0001691FBF7E3FA0246169817920A461799DC
:104FC00042EC101B8DED1A0BFBF7D8FA024618982D
:104FD00019920A46199942EC101B8DED1C0BFBF738
:104FE000CDFA9DED1A3B9DED1C4B024620981F9279
:104FF0000A461F9942EC151B9DED280B9DED2A1BBF
:105000009DED2C2B02F07CFA51EC100BFBF7C9FA4A
:10501000219A01462098C2F8241102F04DFA2198F5
:1050200080ED480A56E02199086E4A6E8B6ED1F8E1
:105030006CC0D1F870E04C6F2794CDF898E0CDF8B3
:1050400094C0249323922290D1F8F0000490D1F8D8
:105050000C01D1F810110291FBF790FA0246029868
:1050600003920A46039942EC101B8DED060BFBF7E9
:1050700085FA0246049805920A46059942EC101BEF
:105080008DED080BFBF77AFA9DED063B9DED084B85
:10509000024621980B920A460B9942EC151B9DED96
:1050A000220B9DED241B9DED262B02F029FA51ECDD
:1050B000100BFBF776FA01462198C0F8241102F094
:1050C000FBF9219981ED450A0020C1F81801C1F8CA
:1050D0002001FFE7219890F83401002846D0FFE72F
:1050E000219890F80801002840D0FFE7219890ED22
:1050F000440A90ED4B1A8DED011A03F0C1FE219880
:10510000B0EE401A9DED010A20EE010A80ED4C0A36
:1051100090ED490A90ED4C1A30EE010A80ED490AF3
:1051200090ED3C1A90ED490AB4EE410AF1EE10FA06
:1051300006DDFFE72199D1F8F000C1F82401FFE76F
:10514000219890ED3C1A90ED490AB1EE411AB4EE67
:10515000410AF1EE10FA08DAFFE7219890ED3C0AD7
:10516000B1EE400A80ED490AFFE704E021990020F2
:10517000C1F83001FFE72198D0F824013990FFE70A
:105180009DED390A3AB010BD80B584B00390039804
:1051900001900021029180F8281102F09BF90198FA
:1051A000783002F097F901990298C1F82401C1F80A
:1051B0001801C1F8200104B080BD0000000000000B
:1051C00080B584B00390039802909FED2F1B8DED66
:1051D000001BB0EE410AF0EE610A02F0EDFA02980F
:1051E0009DED002B6030B0EE420AF0EE620AB0EEA8
:1051F000421AF0EE621A02F0FFFA02989DED001BCF
:105200007830B0EE410AF0EE610A02F0D5FA029869
:105210009DED002BD830B0EE420AF0EE620AB0EEFF
:10522000421AF0EE621A02F0E7FA02980021C0F882
:10523000F010C0F8F410C0F8F810C0F8FC10C0F876
:105240000011C0F8041180F80811C0F80C11C0F862
:105250001011C0F81411C0F81811C0F81C11C0F8D2
:105260002011C0F8241180F8281180F82911C0F805
:105270002C11C0F8301180F83411012180F835115B
:1052800004B080BD00BF00BF0000000000000000AF
:1052900080B586B0049003918DED020A039802F068
:1052A0000BFB01900198007C18B1FFE70298059074
:1052B00020E09DED020A019890ED021AB4EE410A39
:1052C000F1EE10FA04DDFFE701988068059011E027
:1052D0009DED020A019890ED011AB4EE410AF1EE3B
:1052E00010FA04DAFFE701984068059002E002989E
:1052F0000590FFE79DED050A06B080BD80B58AB038
:105300000990099806900021B2EE040A8DED010A79
:10531000DFED250ACDED040AB0EE001A8DED021A7C
:10532000DFED222AF0EE621AB0EE622AFFF790FC5F
:105330000698FFF729FFDDED011ADDED022ADDED0C
:10534000040A069800F59C70039001210791B7EEBE
:10535000002A8DED052AB0EE610AB0EE621AFFF761
:1053600077FC0398069A079982F84012FFF758FDD8
:10537000DDED040A9DED052A069800F51C700890E5
:105380000221B3EE0C0AF1EE042AB0EE621AF0EE3E
:10539000621AFFF75DFC069A0799089882F878135D
:1053A000FFF73EFD0AB080BDCDCCCC3D0000000033
:1053B00080B59AB019901891179216931998099080
:1053C0001798D0B3FFE7189802F06CFAA8B3FFE77C
:1053D000189802F037FA8DED150A189802F02AFA9B
:1053E00009988DED140AD0F80C1113919DED130A54
:1053F000DDED150A9DED141AFFF72AFD8DED120A59
:10540000179808909DED120A8DED070A189802F082
:1054100053FA9DED070A0146089891ED031A20EE14
:10542000012A0121DFED751AB0EE610AF0EE610A82
:10543000B0EE611A00F0B6FE15E0179890B1FFE7E4
:105440000998FFF7D5FC179801219FED6C2AB0EE63
:10545000420AF0EE420AB0EE421AF0EE421A00F0B2
:10546000A1FEFFE7FFE71798002848D0FFE718984C
:10547000343002F017FA002841D0FFE71898343092
:1054800002F0E0F98DED110A1898343002F0D2F9EB
:1054900009988DED100A1899343100F59C72049228
:1054A00090ED910AFFF7F4FE04988DED0F0A9DED43
:1054B0000F0ADDED110A9DED101AFFF7C9FC8DED05
:1054C0000E0A179806909DED0E0A8DED050A1898A4
:1054D000343002F0F1F99DED050A0146069891ED90
:1054E000031A20EE012A0221DFED441AB0EE610A10
:1054F000F0EE610AB0EE611A00F054FE17E0179862
:10550000A0B1FFE7099800F59C70FFF771FC1798B0
:1055100002219FED3A2AB0EE420AF0EE420AB0EEC6
:10552000421AF0EE421A00F03DFEFFE7FFE7169840
:10553000002848D0FFE71898683002F0B3F9002837
:1055400041D0FFE71898683002F07CF98DED0D0A24
:105550001898683002F06EF909988DED0C0A1899C8
:10556000683100F51C72019290EDDF0AFFF790FEA2
:1055700001988DED0B0A9DED0B0ADDED0D0A9DEDF9
:105580000C1AFFF765FC8DED0A0A169803909DED45
:105590000A0A8DED020A1898683002F08DF99DED27
:1055A000020A0146039891ED031A20EE012A012117
:1055B000DFED121AB0EE610AF0EE610AB0EE611A88
:1055C00000F02AFB17E01698A0B1FFE7099800F554
:1055D0001C70FFF70DFC169801219FED082AB0EE14
:1055E000420AF0EE420AB0EE421AF0EE421A00F021
:1055F00013FBFFE7FFE71AB080BD00BF000000000B
:1056000080B582B0019001980090FFF7D9FD009815
:1056100000F59C70FFF7D4FD009800F51C70FFF7B3
:10562000CFFD009802B080BD80B586B0059005988A
:1056300001909FED160A8DED020ADFED150A9FED30
:10564000151AF7EE001A012100F0C4F80198343061
:105650009FED110ADFED110A9FED111AFFEE001AFE
:10566000CDED031A0021049100F0B4F801989DEDEE
:10567000020ADDED031A04996830DFED0A0A9FED96
:105680000A1A00F0A7F806B080BD00BF00000000B5
:10569000DB0F49C0DB0F494085EB613F63EE4ABF3A
:1056A000E2E9253FF90FC9BFF90FC93F80B596B0B0
:1056B000159014911392159812901498002856D0B2
:1056C000FFE714980121079102F08CF907998DEDFD
:1056D000080A149802F0CAF907998DED090A14987E
:1056E00002F0E6F907998DED0A0A149802F09CF988
:1056F00007998DED0B0A149801F0C4F89DED080A86
:10570000DDED090A9DED0A1ADDED0B1A014612982E
:1057100000F084F8129834301190149802210C9102
:1057200002F060F90C998DED0D0A149802F09EF9C3
:105730000C998DED0E0A149802F0BAF90C998DEDC2
:105740000F0A149802F070F90C998DED100A149854
:1057500001F098F89DED0D0ADDED0E0A9DED0F1A92
:10576000DDED101A0146119800F058F8FFE7139884
:1057700068B3FFE7129868300690139801210191F1
:1057800002F0A8F801998DED020A139802F0E6F8EC
:1057900001998DED030A139802F002F901998DED3C
:1057A000040A139802F0B8F801998DED050A1398D0
:1057B00000F0D2FF9DED020ADDED030A9DED041A13
:1057C000DDED051A0146069800F028F8FFE716B04F
:1057D00080BD000087B002AA00920246009806929F
:1057E00080ED030AC0ED020A80ED011AC0ED001A37
:1057F0008DF807100699059808600498486003988A
:1058000088600298C8609DF8070000F001000874E5
:105810000020487481F8310007B0704780B58AB025
:1058200005AA01920A46019902920246029809923B
:1058300081ED030AC1ED020A81ED011AC1ED001AE2
:105840008DF8130009980390089A426191ED020ABD
:1058500090ED031A20EE010A80ED090A0699816293
:105860000599C1629DF8131001F0010180F8301014
:10587000407C48B1FFE7039908980860012081F84F
:10588000310000204874FFE70398019991ED030A65
:1058900090ED002A90ED031A30EE420A20EE010A44
:1058A00080ED060A007C48B1FFE7039890ED060AF8
:1058B00000F030F8039880ED070A23E0039890ED9C
:1058C000021A90ED060AB4EE410AF1EE10FA04DD78
:1058D000FFE703998868C86113E0039890ED011A07
:1058E00090ED060AB4EE410AF1EE10FA04DAFFE791
:1058F00003994868C86103E003998869C861FFE7B4
:10590000FFE7FFE70AB080BD81B00090009801B0CA
:105910007047000081B08DED000AFFE79DED000AA1
:105920009FED141AB4EE410AF1EE10FA09DDFFE71B
:105930009DED000A9FED121A30EE010A8DED000A6E
:10594000ECE7FFE79DED000A9FED0B1AB4EE410A6C
:10595000F1EE10FA09DAFFE79DED000A9FED071A54
:1059600030EE010A8DED000AECE79DED000A01B072
:10597000704700BFDB0F4940DB0F49C0DB0FC94058
:10598000DB0FC9C080B586B004908DF80F10049865
:1059900000909DF80F0028B1FFE79DF80F00022846
:1059A00004DBFFE700208DF8170011E000986FF08E
:1059B000407102914FF0FF3101919DF80F1000EB03
:1059C0008101C96A01AA00F005F98DF81700FFE707
:1059D0009DF8170006B080BD80B58AB00990089187
:1059E0000998049000208DF81F00FFE79DF81F0024
:1059F000002800F3ED80FFE7049A08988068916A18
:105A00009DF81F3002EB8302D26A1144884240F0B5
:105A1000D880FFE7049908980690069890F800C08F
:105A200001F1600002909DF81F201301C25C02F09A
:105A3000F00242EA1C12C254069A92F800C09DF885
:105A40001F201301C25C02F00F0242EA0C12C25482
:105A5000069A5378927842EA03229DF81F3000EBB1
:105A600003135A80069BDA781B79120142EA131C51
:105A70009DF81F2000EB02139A8802F470426244E2
:105A80009A80069A1379527903F00F0342EA032CA5
:105A90009DF81F2000EB0213DA8802F47042624482
:105AA000DA80069A92799DF81F3000EB03131A7280
:105AB000069AD2799DF81F3000EB03135A729DF8B5
:105AC0001F2000EB0210408891ED0D0AD1ED0E0A67
:105AD000102100F011FE029804990A1D01929DF810
