:020000040800F2
:10000000D8630020A501000821610008D55D000823
:100010001D610008710A0008C96C0008000000009A
:100020000000000000000000000000000162000865
:100030008D0C000800000000916100084562000876
:10004000BF010008BF010008BF010008BF01000890
:10005000BF010008BF010008BF010008BF01000880
:10006000BF010008BF010008BF010008BF01000870
:10007000B50A0008BF010008BF010008BF01000861
:10008000BF010008BF010008BF010008BF01000850
:10009000750A0008850A0008BF010008BF010008B2
:1000A000BF010008BF010008BF010008BF01000830
:1000B000BF010008BF010008BF010008BF01000820
:1000C000BF010008BF010008BF010008BF01000810
:1000D000BF010008996C0008BF010008A96C000866
:1000E000BF010008BF010008BF010008BF010008F0
:1000F000BF010008BF010008BF010008BF010008E0
:10010000BF010008BF010008BF010008BF010008CF
:10011000BF010008BF01000835630008BF010008E7
:10012000BF010008C50A0008D50A0008BF01000881
:10013000BF010008BF010008BF010008BF0100089F
:10014000950A0008A50A0008BF010008BF010008C1
:10015000BF010008E50A0008BF010008B96C0008EB
:10016000BF010008BF010008BF010008BF0100086F
:10017000BF010008BF010008BF0100080000000027
:10018000BF010008BF010008DFF814D000F0C0FB79
:1001900000F07EF8004800472DF1000800F0EAFB6F
:1001A000D86300200648804706480047FEE7FEE780
:1001B000FEE7FEE7FEE7FEE7FEE7FEE7FEE7FEE717
:1001C00021630008890100082DE9F05F0546002041
:1001D00092469B4688460646814640241BE02846B8
:1001E00041464746224600F0B4FA53465A46C01AE2
:1001F000914110D311461846224600F09BFA2D1A61
:1002000067EB01084F4622460120002100F092FAD8
:1002100017EB00094E41201EA4F10104DFDC484623
:1002200031462A464346BDE8F09F10B5431A934233
:1002300009D28318881803E010F8011D03F8011D86
:10024000521EF9D210BD40EA01039B0703D009E01A
:1002500008C9121F08C0042AFAD203E011F8013BB2
:1002600000F8013B521EF9D210BDD2B201E000F8F5
:10027000012B491EFBD270470022F6E710B513464A
:100280000A4604461946FFF7F0FF204610BD00005D
:100290007CB507480090074801900546009C04E0A3
:1002A0002046016808448047241DAC42F8D17CBD3B
:1002B000C42E0108D42E01080B460146184600F052
:1002C0007CBA2DE9FE4F804681EA0300C00F0C4640
:1002D000009021F0004123F00045B8EB0200A94155
:1002E00005D24046214690461C460B46024623F066
:1002F0000040104347D0270DC7F30A00C3F30A514B
:100300000290401A019040286BDAC3F3130040F4C6
:10031000801B0098924620B10023D2EB030A63EBC6
:100320000B0B01985946C0F14002504600F002FA0A
:1003300006460D4650465946019A00F01AFA10EB4F
:1003400008006141002487EA115284EAE7731A43E6
:1003500040D0009A62B3019A012A4FEA075215DC95
:10036000001B61EB02014FF0004202EA0752CDE9A7
:100370000042001C41F5801132462B4600F07AFA0B
:1003800003B0BDE8F08F40462146F9E7001B61EB62
:100390000201001C41F5801300185B412018A2F5F2
:1003A000001747EB030140EAD570B6196D4111E023
:1003B0006D084FEA360645EAC0754FEA0752001B42
:1003C00061EB0201001C41F5801149084FEA300041
:1003D0000019514132462B4603B0BDE8F04F00F002
:1003E0003ABA0098012240000023D0EB020263EBEE
:1003F000E073009821464FEAE074B8EB000061EB2F
:100400000401E9E783F000435BE781F0004158E72E
:100410002DE9FE4F81EA030404F0004421F000417D
:1004200000944FF0000B23F0004350EA01045ED02B
:1004300052EA03045BD0C3F30A54C1F30A552C44B7
:10044000A4F2F3340194A0FB0254C1F3130141F46C
:100450008011C3F3130343F4801301FB024400FB38
:10046000034E840A970A44EA815447EA8357A4FB5F
:10047000076802958D0A05FB07854FEA932C04FB5C
:100480000C542705029D4FEA065847EA1637B5EB8C
:1004900008056EEB070C870E920E47EA811742EAB9
:1004A0008312A7FB0201B6EB0B0164EB00042B0DDA
:1004B00043EA0C335E1844EB1C50DA465146E7FB26
:1004C0000201C5F313044FEA0B3343EA14534FEA16
:1004D0000432019C43EA0603A4F10C040294009C3C
:1004E000CDE900B400F0C6F903B0BDE8F08F0020FC
:1004F0000146F9E72DE9F04D81EA030404F0004BD1
:1005000021F0004514464FF0000A23F0004150EA64
:10051000050220D054EA01021DD0C5F30A57024655
:10052000C5F31303C1F31300C1F30A5640F4801559
:1005300043F48013A7EB0608101BD64608F2FD38DB
:1005400073EB050002D308F1010801E092185B414A
:10055000B8F1000F03DA00200146BDE8F08D00205D
:100560004FF48011064684460EE0171B73EB050717
:1005700005D3121B63EB050306434CEA010C490843
:100580004FEA300092185B4150EA0107EDD152EA80
:10059000030012D082EA040083EA0501084305D073
:1005A000101BAB4106D20122002306E000224FF0CF
:1005B000004302E06FF0010253101AEB06004CEB0F
:1005C000085110EB0A0041EB0B01BDE8F04D00F0C3
:1005D00042B930B5041E71F1000404DB4FF0004451
:1005E000404264EB0101141E73F1000405DB1C465C
:1005F0004FF00043524263EB0403801A994101D348
:10060000012030BD002030BD30B5041E71F1000462
:1006100004DB4FF00044404264EB0101141E73F10F
:10062000000405DB1C464FF00043524263EB040319
:10063000101A8B4101D3012030BD002030BD30B5F0
:10064000041E71F1000404DB4FF00044404264EBEF
:100650000101141E73F1000405DB1C464FF000433A
:10066000524263EB040342404B401A4301D0002046
:1006700030BD012030BD0EB5C10F80EAE0700844E6
:10068000CA07002140F233438DE80E000A460B46AC
:1006900000F0F0F803B000BD70B5C1F30A5201F0EC
:1006A00000450024C1F3130140F2FF3341F48011EF
:1006B0009A4201DA002070BD40F233439A42A2F21E
:1006C000334203DC524200F044F800E090402C43F7
:1006D000F1D0404270BD00F0004230F000400AD03E
:1006E000C10D01F56071C0F3160042EA0151C20864
:1006F00040071143704700200146704701F0004356
:1007000030B421F0004150EA010206D00A0DA2F5F2
:100710006072C1F31301002A02DC30BC0020704774
:10072000440F44EAC104C100E01830BC00EBC250E1
:1007300000F05AB8202A04DB203A00FA02F1002027
:1007400070479140C2F1200320FA03F3194390400F
:100750007047202A04DB203A21FA02F0002170477A
:1007600021FA02F3D040C2F1200291400843194619
:100770007047202A06DBCB17203A41FA02F043EA01
:10078000E07306E041FA02F3D040C2F1200291404A
:1007900008431946704710B50446481E014201D16E
:1007A000042901D2052010BD104611F047FB10B1FD
:1007B0002060002010BD062010BD2DE9F041074645
:1007C00015460E46102011F059FC04000AD067604F
:1007D000C4E9026500F0CAF80168216004600020E5
:1007E000BDE8F0810120FBE70029A8BF7047401C4D
:1007F000490008BF20F00100704710B4B0FA80FC37
:1008000000FA0CF050EA010404BF10BC704749B173
:10081000CCF1200421FA04F411FA0CF118BF0121E3
:1008200021430843A3EB0C01CB1D4FEA00614FEAC3
:10083000102042BF002010BC704700EBC350104492
:100840000029A4BF10BC7047401C490008BF20F01D
:10085000010010BC704710B5141E73F1000408DAD3
:10086000401C41F1000192185B411A4301D120F074
:10087000010010BD2DE9F04D92469B4611B1B1FA31
:1008800081F202E0B0FA80F220329046FFF752FF88
:1008900004460F4640EA0A0041EA0B0153465A4615
:1008A000084313D0114653EA010019D0C8F14002A1
:1008B0005046FFF74EFF05460E4650465946424603
:1008C000FFF738FF084305D0012004E020463946F1
:1008D000BDE8F08D0020054346EAE0762C4337431F
:1008E0000A986305E40AA0EB08000022FD0A44EA26
:1008F00047540A3002D500200146E9E701051019E6
:100900006941DDE9084500196941BDE8F04DA2E7FC
:100910001CB509480090094801900546009C06E076
:10092000E06840F0010394E8070098471034AC42B7
:10093000F6D3FFF72DFC0000A42E0108C42E0108F9
:1009400030B50B46014600202022012409E021FA9F
:1009500002F59D4205D303FA02F5491B04FA02F59C
:100960002844151EA2F10102F1DC30BD0048704799
:10097000100000202DE9F0410646FFF7F7FF804602
:10098000454613E016B1E068B0420ED120682860F9
:10099000D4E90101D8F800708847204611F09EFA8A
:1009A000D8F80000B842EBD100E025462C68002CB6
:1009B000E8D1BDE8F081C1F30A52C1F3130140F25E
:1009C000FF3341F480119A4202DA00200146704759
:1009D00040F233439A42A2F2334202DC5242FFF722
:1009E000B8BEFFF7A7BE000030B5041E71F10004C9
:1009F00004DB4FF00044404264EB0101141E73F12C
:100A0000000405DB1C464FF00043524263EB040335
:100A1000994208BF904230BD704770B58C1810F8ED
:100A2000015B15F0070301D110F8013B2A1106D133
:100A300010F8012B03E010F8016B01F8016B5B1E4D
:100A4000F9D12B0705D40023521E0DD401F8013B28
:100A5000FAE710F8013BCB1A921C03E013F8015B94
:100A600001F8015B521EF9D5A142D8D3002070BD18
:100A7000FFE7FEE780B541F29810C2F2000001F0F6
:100A8000A5FF80BD80B541F29810C2F2000001F0D0
:100A90009DFF80BD80B541F2C010C2F2000001F0A0
:100AA00095FF80BD80B541F2C010C2F2000001F098
:100AB0008DFF80BD80B541F24820C2F2000002F0F7
:100AC000DBFD80BD80B541F2A820C2F2000002F03B
:100AD000D3FD80BD80B541F2E810C2F2000002F003
:100AE000CBFD80BD80B541F20830C2F2000002F0BB
:100AF000C3FD80BD82B001900198007810384AF69D
:100B0000AB21CAF6AA21A0FB0110000900900099B0
:100B100042F61430C0F60100405C0199C8650098A7
:100B2000042807D3FFE701990868042262F309004B
:100B3000886506E00199086840F2FF3290438865B5
:100B4000FFE70198806D02B07047000086B0059005
:100B500000208DF813000598806A0390059880693D
:100B600010BBFFE70398029003281BD80299DFE827
:100B700001F0020D0218059890F82F00C00720B16F
:100B8000FFE701208DF81300FFE70CE00598C06A2D
:100B9000B0F1C07F04D1FFE701208DF81300FFE71B
:100BA00001E000E0FFE745E005988069B0F5005FEF
:100BB00025D1FFE70398019003281ED80199DFE8AB
:100BC00001F00206021101208DF8130016E00598CD
:100BD00090F82F00C00720B1FFE701208DF8130027
:100BE000FFE70BE00598C06AB0F1C07F04D1FFE7D2
:100BF00001208DF81300FFE700E0FFE719E00398FC
:100C00000090032804D3FFE70098032804D00EE0E7
:100C100001208DF813000BE0059890F82F00C00715
:100C200020B1FFE701208DF81300FFE700E0FFE7A8
:100C3000FFE7FFE79DF8130006B0704784B003900C
:100C400002910192009303980168086820F48020C3
:100C500008600098039909684860039880684028F4
:100C600009D1FFE701980399096888600298039900
:100C70000968C86008E002980399096888600198CB
:100C800003990968C860FFE704B070477047000027
:100C900072B6FFE7FEE7000080B5ACB00BF0C6FB14
:100CA0000BF0E8FC2B900BF0C1FB0BF0EDFC2A9055
:100CB00040F2A850C2F200000078BFF35F8FC00777
:100CC00018BBFFE740F2A850C2F200000FF009FC89
:100CD000D8B1FFE72B9940F63830C2F200001490EB
:100CE000002209F0ABFD14994AF61110C0F600007D
:100CF00040F20002C0F60002FFF7DEFA40F2A85010
:100D0000C2F200000FF003FCFFE740F2AC50C2F269
:100D100000000078BFF35F8FC00718BBFFE740F209
:100D2000AC50C2F200000FF0DCFBD8B1FFE72B990A
:100D300040F6E830C2F200001390002209F0F2FD04
:100D400013994AF6F910C0F6000040F20002C0F60E
:100D50000002FFF7B1FA40F2AC50C2F200000FF00F
:100D6000D6FBFFE740F2B050C2F200000078BFF3BC
:100D70005F8FC00718BBFFE740F2B050C2F200001F
:100D80000FF0AFFBD8B1FFE72B9940F66040C2F2FD
:100D90000000129001220AF001FA12994BF2312060
:100DA000C0F6000040F20002C0F60002FFF784FA2D
:100DB00040F2B050C2F200000FF0A9FBFFE740F292
:100DC000B450C2F200000078BFF35F8FC00770BB61
:100DD000FFE740F2B450C2F200000FF082FB30B3E4
:100DE000FFE72B9901208DF8A60002208DF8A700BF
:100DF00068464FF40072026040F6D040C2F2000034
:100E000011900DF1A6030AF0C1FC11994BF62500D3
:100E1000C0F6000040F20002C0F60002FFF74CFAF4
:100E200040F2B450C2F200000FF071FBFFE740F651
:100E30002031C2F2000140F63830C2F200000990C1
:100E4000086040F61C31C2F2000140F6E830C2F200
:100E500000000A90086040F63031C2F2000140F60E
:100E60006040C2F200000B90086040F63431C2F2DC
:100E7000000140F6D040C2F200000F9008602B98AD
:100E8000019025A802900DF0FFFE019802990268DA
:100E9000D269904702980DF027FF2B98039020A865
:100EA00004900DF0FDFE039804990268D269904702
:100EB00004980DF019FF2B9805901BA806900DF0D3
:100EC000FBFE059806990268D269904706980DF0D6
:100ED0000BFF2B98079016A808900DF0F9FE0798C5
:100EE00008990268D269904708980DF0FDFE40F21B
:100EF000D850C2F2000008F0D9FC40F27860C2F28B
:100F0000000008F013FB0AF0DDFE0AF061FE40F677
:100F10006020C2F2000006F039FF06F033FB06F055
:100F20001FFA4FF4FA7002F051FE099801210C915A
:100F300009F092F90A20109002F048FE0998022167
:100F40000D9109F089F9109802F040FE0A980C9969
:100F500008F05AFE109802F039FE0B980C9909F02F
:100F600019FE109802F032FE0B980C9900220E9296
:100F700009F0C4FD109802F029FE0C990E9A0F9802
:100F80000AF060F90D990E9A0F980AF05BF90F9824
:100F90000AF0E2F9109802F019FE2CB080BD0000B2
:100FA00080B5ADF5267D40F66020C2F2000007F066
:100FB00037F840F2F410C2F200002E9000F1200148
:100FC00040F2D850C2F200002F9005F055FF2E9944
:100FD0002F983430543105F04FFF2E992F986830F8
:100FE000883105F049FF2F9840F62031C2F2000108
:100FF000096840F61C32C2F20002126808F098FC40
:1010000040F21C40C2F20000007800285ED1FFE7E9
:1010100002F0DAFFA590A59840F69051C2F20001C7
:101020000968401AC82850D3FFE7A59840F69051A8
:10103000C2F20001086040F62030C2F200000068F1
:1010400038B3FFE740F62030C2F20000006801210B
:101050000AF088FC48B9FFE740F62030C2F20000F1
:101060000068012109F0F8F8FFE740F62030C2F2ED
:101070000000006802210AF075FC48B9FFE740F65D
:101080002030C2F200000068022109F0E5F8FFE715
:10109000FFE740F61C30C2F200000068A0B1FFE795
:1010A00040F61C30C2F20000006801210AF0C4FBC7
:1010B00048B9FFE740F61C30C2F200000068012189
:1010C00008F0A2FDFFE7FFE7FFE7FFE70AF0FAFD00
:1010D000A490A4980CF02EFCA390A4980CF030FCE3
:1010E000A290A4980AF030FE8DF88702A3980228F7
:1010F00006D1FFE7A299012002292D9004D0FFE735
:101100009DF887022D90FFE72D9800F001008DF8E3
:101110008602A39840F21C41C2F200018870A29896
:10112000C8709DF8870200F00100487000204871E7
:101130009DF88602C007002855D0FFE740F21C400A
:10114000C2F20000007800284CD1FFE740F21C42B8
:10115000C2F200020120107040F23001C2F2000120
:1011600091F83800907191F8A400D07191F81001B5
:101170001072002081F8380081F8A40081F8100175
:1011800040F62030C2F20000006878B1FFE740F678
:101190002030C2F200002C900068012109F086F88E
:1011A0002C980068022109F081F8FFE740F61C3016
:1011B000C2F20000006848B1FFE740F61C30C2F2FE
:1011C00000000068012108F049FDFFE740F2B0216E
:1011D000C2F200010320887540F21C41C2F20001F6
:1011E0004871FFE7E1E040F21C40C2F200000078E5
:1011F000002845D0FFE740F21C41C2F20001002068
:10120000087040F62030C2F20000006878B1FFE7B5
:1012100040F62030C2F200002B900068012109F056
:101220001BF82B980068022109F016F8FFE740F63A
:101230001C30C2F20000006848B1FFE740F61C30E5
:10124000C2F200000068012108F0DEFCFFE740F276
:101250001C41C2F20001887940F23002C2F2000261
:1012600082F83800C87982F8A400087A82F8100160
:1012700040F2B022C2F2000204209075487193E05F
:10128000A3988DF885029DF8850240F21C41C2F2B8
:1012900000010979884200F08680FFE740F23C4077
:1012A000C2F20000007805280CD1FFE740F2B0211F
:1012B000C2F200010420887540F21C41C2F2000114
:1012C00048716FE09DF8850201280AD0FFE79DF87C
:1012D0008502032805D0FFE79DF88502022858D132
:1012E000FFE70CF053F80CF01DFCA090A09801381B
:1012F000B0FA80F040098DF87F029DF87F02C007A8
:1013000010B3FFE740F27860C2F2000090F80801E5
:10131000D0B9FFE740F27860C2F200002A9090ED69
:10132000EA0A07F055FD2A9840F23001C2F20001A6
:1013300001220A77D0F8A803086040F2DC11C2F25B
:10134000000100200875FFE79DF8850202280CD1F6
:10135000FFE740F2B021C2F200010220887540F29E
:101360001C41C2F2000148710BE040F2B021C2F210
:1013700000010120887540F21C41C2F20001487151
:10138000FFE79DF8850240F21C41C2F2000108719E
:1013900007E09DF8850240F21C41C2F2000108718D
:1013A000FFE7FFE7FFE7FFE7FFE740F23C40C2F25D
:1013B00000006946086040F63820C2F2000040F2A2
:1013C000D851C2F2000140F23002C2F2000240F2F3
:1013D000B023C2F200030AF0ABFD06F0D3F805F02B
:1013E00041FF0AF06FFC9E909E980CF0A3FA9D902E
:1013F0009E980CF0A5FA9C909D99012003292990B4
:1014000007D0FFE79D980138B0FA80F04009299095
:10141000FFE7299800F001008DF86F029D990020E8
:101420000129289010D1FFE79C99012002292790DB
:1014300007D0FFE79C980138B0FA80F04009279068
:10144000FFE727982890FFE7289800F001008DF823
:101450006E029DF86E120020C907269099B1FFE731
:1014600040F2C820C2F20000817E0020269051B1D7
:10147000FFE740F2C820C2F20000007C002818BF3D
:1014800001202690FFE7269800F001008DF86D02FC
:1014900000208DF86C029DF86D02C007002877D0FF
:1014A000FFE740F68D50C2F20000007800286FD1AF
:1014B000FFE740F68D51C2F20001012008708DF85F
:1014C0006C0240F2D850C2F2000034300CF07AF8CE
:1014D000A0B1FFE740F27860C2F2000090F8B003DC
:1014E00060B1FFE740F27860C2F20000D0F8B403C8
:1014F00040F23001C2F20001C86617E040F2D85055
:10150000C2F2000034300CF05DF870B1FFE740F239
:10151000D850C2F2000034300CF024F840F2300011
:10152000C2F2000080ED1B0AFFE7FFE740F2D8504F
:10153000C2F200000CF046F848B3FFE740F2DC10BE
:10154000C2F20000007D012815D1FFE740F278606B
:10155000C2F2000090EDEA0A07F03AFC40F23001D6
:10156000C2F200010120087740F2DC11C2F2000152
:1015700000200875FFE740F27860C2F20000D0F862
:10158000A80340F23001C2F200010860FFE715E055
:101590009DF86D02C00780B9FFE740F68D50C2F29A
:1015A0000000007848B1FFE740F68D51C2F200011B
:1015B000002008708DF86C02FFE7FFE740F21C4046
:1015C000C2F20000007848B9FFE740F23C40C2F2A6
:1015D000000000780AF0FCFE08B1FFE754E19DF836
:1015E0006F02C007002800F08C80FFE740F68D50A6
:1015F000C2F200000078002800F08380FFE79DF829
:101600006C0200287CD1FFE740F2D850C2F2000003
:1016100034300BF0D7FF002872D0FFE740F2C8202B
:10162000C2F2000090ED000A9FEDC81A20EE010AF8
:101630008DED9A0A40F27860C2F2000090F8B00393
:1016400058B3FFE747F20720C3F61370999046F2AC
:10165000F360CBF6DF6098909DED9A0A9FEDBC1A7F
:10166000B4EE410AF1EE10FA06DDFFE747F207207B
:10167000C3F613709A90FFE79DED9A0A9FEDB51A95
:10168000B4EE410AF1EE10FA06DAFFE746F2F36033
:10169000CBF6DF609A90FFE72BE040F2D850C2F221
:1016A000000034300BF098FF97909798007CF8B9C1
:1016B000FFE79DED9A0A979890ED021AB4EE410A61
:1016C000F1EE10FA04DDFFE7979880689A90FFE743
:1016D0009DED9A0A979890ED011AB4EE410AF1EE49
:1016E00010FA04DAFFE7979840689A90FFE7FFE75F
:1016F000FFE79A9840F23001C2F20001C866FFE7A6
:10170000C1E09DF86F02C007002800F0BB80FFE732
:101710000AF0D8FA969096980CF030F951EC100B2C
:10172000FEF7ECFF95904CF6CD40C3F64C509490EC
:101730009DED950A9FED881AB4EE410AF1EE10FA7C
:101740000DDDFFE79DED950A9FED841AB4EE410A89
:10175000F1EE10FA03DAFFE700209590FFE743F27D
:101760003330C4F2330093909DED950A9FED7C1ABF
:1017700020EE010A8DED920A41F26F20C3F683201C
:10178000919040F2D850C2F2000034300BF01AFFB2
:10179000002876D0FFE740F23000C2F2000090ED62
:1017A0001B1A9DED920A9FED6F2A20EE020A30EE81
:1017B000010A8DED900A40F27860C2F2000090F8C4
:1017C000B00358B3FFE747F20720C3F613708F90BA
:1017D00046F2F360CBF6DF608E909DED900A9FEDB0
:1017E0005C1AB4EE410AF1EE10FA06DDFFE747F2AB
:1017F0000720C3F613709090FFE79DED900A9FEDD0
:10180000551AB4EE410AF1EE10FA06DAFFE746F295
:10181000F360CBF6DF609090FFE72BE040F2D8500A
:10182000C2F2000034300BF0D7FE8D908D98007C12
:10183000F8B9FFE79DED900A8D9890ED021AB4EE8D
:10184000410AF1EE10FA04DDFFE78D988068909070
:10185000FFE79DED900A8D9890ED011AB4EE410AD4
:10186000F1EE10FA04DAFFE78D9840689090FFE7F8
:10187000FFE7FFE7909840F23001C2F20001C8662E
:10188000FFE7FFE7FFE7FFE740F21C40C2F200007E
:10189000007848B9FFE740F23C40C2F2000000780F
:1018A0000AF096FD08B1FFE795E19DF86F02C007C9
:1018B00058B3FFE740F68D50C2F20000007820B325
:1018C000FFE79DF86C02F8B9FFE740F2D850C2F28A
:1018D00000000BF077FEB8B1FFE740F2C820C2F27B
:1018E000000090ED010A90ED081A30EE410A9FEDDC
:1018F0001E1A20EE010A8DED8C0A8C9840F2300100
:10190000C2F200010860FFE764E19DF86F02C007C2
:10191000002800F05E81FFE70AF0D4F98B900BF00D
:1019200035FD0CF0FFF88A908A980138B0FA80F003
:1019300040098DF827020020889040F27860C2F2BA
:10194000000090F8B00378B314E000BF35FA8E3C85
:101950000772133FF366DFBECDCC4CBDCDCC4C3D02
:10196000333333406F12833A35FA8EBC00000000E7
:1019700035FA8E3C40F66020C2F200000BF09EFD6E
:101980001FED071A20EE010A8DED880A889840F2B3
:101990007861C2F20001C1F8AC03889840F2DC1112
:1019A000C2F200014860FFE79DF8270200F0010045
:1019B00040F68F51C2F20001097888423ED0FFE71D
:1019C0009DF82702C007A8B1FFE79DED880A40F205
:1019D0007860C2F2000007F015FA40F2DC11C2F2A2
:1019E00000010120087540F23001C2F20001002020
:1019F000087719E040F27860C2F20000259090ED7F
:101A0000EA0A07F0E5F9259840F2DC12C2F200027A
:101A10000021117540F23001C2F2000101220A7763
:101A2000D0F8A8030860FFE79DF8270200F0010046
:101A300040F68F51C2F200010870FFE78B980BF05F
:101A400095FF51EC100BFEF759FE87904CF6CD40F8
:101A5000C3F64C5086909DED870A1FED411AB4EEF7
:101A6000410AF1EE10FA0DDDFFE79DED870A1FED4B
:101A7000451AB4EE410AF1EE10FA03DAFFE700204E
:101A80008790FFE743F23330C4F2330085909DED39
:101A9000870A1FED4D1A20EE010A8DED840A40F2EF
:101AA000D850C2F200000BF08DFD002800F09080AD
:101AB000FFE79DF82702C007002872D0FFE784984F
:101AC00040F2DC11C2F2000108608868CA681A920C
:101AD00009691C91FEF7FFFD02461A981B920A46FF
:101AE0001B9942EC101B8DED1E0BFEF7F4FD024618
:101AF0001C981D920A461D9942EC101B8DED200B7F
:101B0000FEF7E9FD9DED1E0B9DED201B41EC120B38
:101B10007EA80BF0F5F89DED840ADDED880A7E982D
:101B20007F99809A819BDDF808C2DDF80CE2CDF840
:101B3000ECE1CDF8E8C179937892779176909DEDBC
:101B4000761B9DED782B9DED7A3B40F27860C2F2DA
:101B5000000007F0B9F88DED7D0A40F62030C2F2A2
:101B60000000006824909DED7D0A8DED230A40F26F
:101B7000D850C2F200000BF02FFD9DED230A014664
:101B8000249891ED031A20EE012A01215FED891AB4
:101B9000B0EE610AF0EE610AB0EE611A08F0D0FC16
:101BA00015E041F26F20C3F6832075909DED840A05
:101BB00040F23000C2F2000090ED001A1FED972AAB
:101BC00020EE020A30EE010A80ED000AFFE7FFE78F
:101BD000FFE7FFE7FFE70BF0D9FB0BF031FB40F22B
:101BE0003C40C2F2000000780AF0F2FB8DF8D3010D
:101BF0009DF86E02C00730B1FFE740F26040C2F2CC
:101C00000000199005E040F23000C2F20000199087
:101C1000FFE7199959A86C22FEF707FB40F2300044
:101C2000C2F200000168599190F838008DF89C01CB
:101C30009DF86E02C00738B1FFE740F26040C2F283
:101C400000006C30189006E040F23000C2F2000054
:101C50006C301890FFE718993EA86C22FEF7E5FA61
:101C600040F23000C2F20000C16E3E9190F8A40034
:101C70008DF8300140F2DC10C2F20000007D28B186
:101C8000FFE79DF8D301C00740B1FFE740F278615C
:101C9000C2F2000159A805F0E1F9FFE740F27860CF
:101CA000C2F20000179000F59C713EA805F0D6F92D
:101CB000179940F23000C2F20000D83001F51C71D3
:101CC00005F0CCF940F66020C2F200000BF00AFCEF
:101CD00001461798002918BF012180F8B01390F829
:101CE000B00348B3FFE740F66020C2F20000149052
:101CF0000BF000FC14981FEDE21A8DED151A20EE82
:101D0000410A40F27861C2F20001169181EDEA0ABF
:101D10000BF0D4FB14989DED151A169920EE410A8C
:101D200081EDEB0A0BF0D4FB9DED151A169820EE11
:101D3000010A80EDED0AFFE740F62030C2F2000014
:101D4000026840F61C30C2F20000036840F278607E
:101D5000C2F20000119040F2D851C2F200010F917E
:101D600007F050FC0F9840F2F411C2F200010E91FE
:101D700005F03AF80E990F9834301090343105F090
:101D800033F80E990F9868301390683105F02CF8ED
:101D90000F9A119840F23001C2F20001129105F041
:101DA00017F9109A1198129900F59C706C3105F092
:101DB0000FF911981299139A00F51C70D83105F09B
:101DC00007F99DF86E02C007D8B1FFE740F27860CE
:101DD000C2F200000B9040F26041C2F200010C918F
:101DE00040F2D852C2F200020D9205F0F1F80B98C1
:101DF0000C990D9A00F59C706C31343205F0E8F8BE
:101E0000FFE740F23001C2F2000101F16C0240F242
:101E10007860C2F2000004F0D5FF9DF86E02C007A2
:101E200068B1FFE740F26041C2F2000101F16C02CB
:101E300040F27860C2F2000004F0C4FFFFE709F04E
:101E400041FF3D903D980BF081FD51EC100BFEF7EA
:101E500055FC40F21031C2F20001089108603D9833
:101E60000BF07CFD51EC100BFEF748FC0899486024
:101E70003D980BF07BFD51EC100BFEF73FFC0899F1
:101E800088603D980BF07AFD51EC100BFEF736FCA4
:101E90000899C8603D980BF04DFD089908743D986D
:101EA0000BF04EFD089948743D980BF031FD8DED17
:101EB000380B8DED3A1B9DED380B51EC100BFEF7F6
:101EC0001DFC089948613D980BF022FD8DED340B07
:101ED0008DED361B9DED360B51EC100BFEF70EFC15
:101EE000089988613D980BF051FD08998DF8CF0055
:101EF0009DF8CF0000F0010008773D980BF046FDFB
:101F000008998DF8CE009DF8CE00C0F340004877C8
:101F10003D980BF0DFFC0899ADF8CC009DF8CC00A3
:101F200000F0010088779DF8CC00C0F34000C8772E
:101F30009DF8CC00C0F3800081F820009DF8CC0013
:101F4000C0F3C00081F821009DF8CC00C0F3001060
:101F500081F822009DF8CC00C0F3401081F82300E6
:101F60009DF8CC00C0F3801081F824009DF8CC00CF
:101F7000C00981F825009DF8CD0000F0010081F82E
:101F800026009DF8CD00C0F3400081F827009DF8A1
:101F9000CD00C0F3800081F828009DF8CD00C0F38B
:101FA000C00081F829009DF8CD00C0F3001081F831
:101FB0002A009DF8CD00C0F3401081F82B009DF859
:101FC000CD00C0F3801081F82C009DF8CD00C00931
:101FD00081F82D003D980BF0E5FC51EC100BFEF75D
:101FE0008DFB089908633D9809F0AEFE089980F0D2
:101FF000010081F8340040F66020C2F20000099030
:102000000BF016FA099840F2BC31C2F200010A91B5
:1020100081ED000A0BF05CFA09980A9981ED010A3A
:102020000BF02EFA09980A9981ED020A0BF032FAA8
:1020300009980A9981ED030A0BF036FA09980A9972
:1020400081ED040A0BF03AFA09980A9981ED050A24
:102050000BF0F8F909980A9981ED060A0BF0FCF9E2
:1020600009980A9981ED070A0BF000FA09980A9974
:1020700081ED080A0BF046FA09980A9981ED090AE0
:102080000BF04AFA09980A9981ED0A0A0BF04EFA08
:1020900009980A9981ED0B0A0BF052FA09980A99EE
:1020A00081ED0C0A0BF026FA09980A9981ED0D0AC8
:1020B0000BF0B6F90A9A0146099882F838100BF02D
:1020C00011FA0A9981F8390040F63030C2F2000066
:1020D0000068002858D0FFE740F63030C2F2000018
:1020E00006900068012105910BF0E4FA0698059925
:1020F00040F2FC32C2F20002079282ED000A006850
:102100000BF01CFB06980599079A82ED010A0068FE
:102110000BF036FB06980599079A82ED020A0068D3
:102120000BF0EAFA06980599079A82ED030A00680F
:102130000BF06EFA0599079B024606983292329A86
:10214000D2881A82329A92885A82329A52889A8215
:10215000329A12789A7500680BF04CFA0599079B31
:10216000024606983192319A52881A83319A12792E
:102170009A76319A527902F00102DA76006809F013
:102180005BFB07990877FFE740F63430C2F20000A6
:102190000068002860D0FFE740F63430C2F200004B
:1021A000006830903098012102910BF00BFB0299EE
:1021B00040F28430C2F20000049080ED000A3098B2
:1021C0000BF050FA0299049880ED010A30980BF058
:1021D0003DFB0299049880ED020A30980BF058FB01
:1021E0000299049880ED030A30980BF00DFB0299D8
:1021F000049880ED040A309809F0B4FB049908753E
:102200003098022103910BF0DDFA0399049880EDD8
:10221000060A30980BF026FA0399049880ED070A15
:1022200030980BF013FB0399049880ED080A30985E
:102230000BF02EFB0399049880ED090A30980BF0FF
:10224000E3FA0399049880ED0A0A309809F08AFBB2
:10225000049981F82C00FFE705F094F905F002F8E5
:10226000B8B1FFE740F68E50C2F2000001780131AC
:102270000170007805280BDBFFE740F68E51C2F2B3
:1022800000010020087005F07DF905F077F8FFE700
:1022900014E040F68C50C2F2000001780131017068
:1022A0000078022809DBFFE740F68C51C2F20001FA
:1022B0000020087004F00AFDFFE7FFE740F2B85085
:1022C000C2F200000078BFF35F8FC007B0B9FFE72C
:1022D00040F2B850C2F200000EF003F970B1FFE70F
:1022E0000AF098FE40F68851C2F20001086040F200
:1022F000B850C2F200000EF00AF9FFE740F688502D
:10230000C2F20000019000680AF0D0FD0198006858
:102310000AF0A6FE0DF5267D80BD000084B0029077
:102320000191029890F820008DF803009DF80300B9
:10233000012805D0FFE79DF8030002280AD1FFE736
:10234000019A0298016848691043486100208DF89D
:102350000F0008E00299486A40F48020486201209A
:102360008DF80F00FFE79DF80F0004B070470000E4
:1023700088B00690059104920393069890F8200087
:102380008DF80700069800688068009005988068BE
:1023900008B9FFE700E0FFE79DF80700012806D035
:1023A000FFE79DF80700022840F08080FFE79DF8D6
:1023B0000300400700280CD4FFE79DF80300000746
:1023C000002806D4FFE79DF80300C006002864D566
:1023D000FFE70098C0F30160029002990120884055
:1023E000039908600598806868B9FFE70598016857
:1023F000C06840EA415006990968029A01EB02114F
:10240000C1F880010EE005994A688868C96840EA09
:10241000C200084306990968029A01EB0211C1F84B
:102420008001FFE70598006906990968029A01EBA7
:102430000211C1F884010598007D01280CD1FFE745
:1024400006980068029900EB0111D1F8840140F46C
:102450008070C1F88401FFE7049840680699096814
:10246000029A01EB0211C1F88C01049800680699E8
:102470000968029A01EB0211C1F888010698006808
:10248000029900EB0111D1F8800140F00100C1F880
:10249000800100208DF81F0011E00699486A40F481
:1024A0000010486201208DF81F0008E00699486A74
:1024B00040F48020486201208DF81F00FFE79DF85E
:1024C0001F0008B07047000086B004900391049884
:1024D00090F820008DF803009DF80300012806D035
:1024E000FFE79DF80300022840F0B080FFE746F2C6
:1024F0000040C4F2000001900199D1F8000240F0C0
:102500000100C1F800020199D1F8000220F47C50CA
:10251000C1F800020398426A0199D1F8000240EA2A
:102520000220C1F800020398406900F01F01012059
:1025300088400290029A0199D1F81C029043C1F898
:102540001C020398C069F0B9FFE7029A0199D1F81B
:102550000C029043C1F80C02039A9088D16852692A
:1025600040EA0140019901EBC201C1F84002039A1F
:1025700010889168526940EA0140019901EBC2015B
:10258000C1F84402FFE70398C06901281ED1FFE7A4
:10259000029A0199D1F80C021043C1F80C02039A77
:1025A00090881168526940EA0140019901EBC2012B
:1025B000C1F84002039A90899168526940EA01404B
:1025C000019901EBC201C1F84402FFE70398806959
:1025D00040B9FFE7029A0199D1F804029043C1F88B
:1025E000040207E0029A0199D1F804021043C1F8ED
:1025F0000402FFE70398006940B9FFE7029A0199D6
:10260000D1F814029043C1F8140207E0029A01992C
:10261000D1F814021043C1F81402FFE70398006ACE
:10262000012808D1FFE7029A0199D1F81C02104352
:10263000C1F81C02FFE70199D1F8000220F0010067
:10264000C1F8000200208DF8170008E00499486ADC
:1026500040F48020486201208DF81700FFE79DF8C4
:10266000170006B07047000080B582B00190019855
:10267000006846F20041C4F20001884201D0FFE741
:1026800030E0019800F030F8009041F24411C2F2BD
:102690000001086801300860009841F24811C2F258
:1026A000000108609DF801008007002808D5FFE7B9
:1026B00041F25411C2F20001086801300860FFE7DE
:1026C0009DF800004007002808D5FFE741F24011BF
:1026D000C2F20001086801300860FFE7019900209C
:1026E0004862FFE702B080BD81B000900098406A68
:1026F00001B0704784B003900291002001900398CC
:1027000090F820008DF803009DF80300012805D003
:10271000FFE79DF80300022812D1FFE7029838B9BD
:10272000FFE703980068C06800F00300019006E02E
:1027300003980068006900F003000190FFE7FFE7DD
:10274000019804B07047000086B004900391029293
:102750000193049890F820008DF803009DF8030081
:10276000012806D0FFE79DF80300022840F0E8802A
:10277000FFE7039880B9FFE704980068C068800706
:1027800048B9FFE70499486A40F400104862012004
:102790008DF81700DDE00FE00498006800698007FD
:1027A00048B9FFE70499486A40F4001048620120E4
:1027B0008DF81700CDE0FFE704980068039900EB5F
:1027C0000110D0F8B00100F004000299886002986E
:1027D000806858B9FFE704980068039900EB01107E
:1027E000D0F8B001400D029908600AE00498006832
:1027F000039900EB0110D0F8B001C00802994860BD
:10280000FFE704980068039900EB0110D0F8B001CD
:1028100000F002000299C86004980068039900EB78
:102820000110D0F8B40100F00F00082804D3FFE72E
:102830000299082008610BE004980068039900EBF6
:102840000110D0F8B40100F00F0002990861FFE711
:1028500004980068039900EB0110D0F8B40180B22D
:10286000000A0299886104980068039900EB01103E
:10287000D0F8B401000C02994861049800680399EB
:1028800000EB0110D0F8B8010199087004980068B5
:10289000039900EB0110D0F8B801000A01994870C3
:1028A00004980068039900EB0110D0F8B801000CFF
:1028B0000199887004980068039900EB0110D0F822
:1028C000B801000E0199C87004980068039900EBE4
:1028D0000110D0F8BC0101990871049800680399AF
:1028E00000EB0110D0F8BC01000A0199487104986E
:1028F0000068039900EB0110D0F8BC01000C0199AD
:10290000887104980068039900EB0110D0F8BC01AD
:10291000000E0199C871039838B9FFE7049801685F
:10292000C86840F02000C86006E0049801680869A3
:1029300040F020000861FFE700208DF8170008E054
:102940000499486A40F48020486201208DF81700FD
:10295000FFE79DF8170006B07047000083B00290B3
:1029600000200190029890F820008DF803009DF857
:102970000300012805D0FFE79DF80300022822D1BB
:10298000FFE70298006880684001002804D5FFE74F
:10299000019801300190FFE702980068806800010B
:1029A000002804D5FFE7019801300190FFE7029865
:1029B00000688068C000002804D5FFE70198013056
:1029C0000190FFE7FFE7019803B0704780B58AB038
:1029D00009900020089009980068406907900998BC
:1029E000006840680690099800688068059009981A
:1029F0000068C0680490099800680069039009980D
:102A00000068806902909DF81C00C007002800F053
:102A10009480FFE79DF81400C00758B3FFE70998BA
:102A20000168012088609DF814008007002804D503
:102A3000FFE7099800F06AFD1BE09DF814004007CD
:102A4000002805D5FFE7089840F4006008900FE0E3
:102A50009DF814000007002805D5FFE7089840F40A
:102A60008050089003E0099800F04CFDFFE7FFE775
:102A7000FFE7FFE79DF81500C00760B3FFE709987F
:102A800001684FF4807088609DF815008007002869
:102A900004D5FFE7099800F041FD1BE09DF8150003
:102AA0004007002805D5FFE7089840F4005008903B
:102AB0000FE09DF815000007002805D5FFE70898EE
:102AC00040F48040089003E0099800F023FDFFE700
:102AD000FFE7FFE7FFE79DF81600C00760B3FFE7D9
:102AE000099801684FF4803088609DF816008007CF
:102AF000002804D5FFE7099800F018FD1BE09DF8B9
:102B000016004007002805D5FFE7089840F400406C
:102B100008900FE09DF816000007002805D5FFE794
:102B2000089840F48030089003E0099800F0FAFC1F
:102B3000FFE7FFE7FFE7FFE7FFE79DF81C0000075F
:102B4000002810D5FFE79DF81000C006002809D521
:102B5000FFE7089840F40070089009980168102079
:102B6000C860FFE7FFE79DF81C00400700280FD56D
:102B7000FFE79DF810000007002808D5FFE7099837
:102B800001680820C860099800F0E0FAFFE7FFE755
:102B90009DF81C00800700280BD5FFE70998006806
:102BA000C068800720B1FFE7099800F0E5FAFFE769
:102BB000FFE79DF81C004006002810D5FFE79DF8B0
:102BC0000C00C006002809D5FFE7089840F4806093
:102BD00008900998016810200861FFE7FFE79DF859
:102BE0001C00800600280FD5FFE79DF80C000007A9
:102BF000002808D5FFE709980168082008610998AE
:102C000000F088FBFFE7FFE79DF81C00C0060028E6
:102C10000BD5FFE7099800680069800720B1FFE73E
:102C2000099800F07BFBFFE7FFE79DF81E00800797
:102C300000280FD5FFE79DF81800C006002808D52A
:102C4000FFE70998016810204860099800F010FC1F
:102C5000FFE7FFE79DF81E00C00778B1FFE79DF88A
:102C600018000007002808D5FFE709980168082028
:102C70004860099800F05EFCFFE7FFE79DF81D0043
:102C80000006002840F18D80FFE79DF818004007FE
:102C9000002840F18180FFE79DF81D00C00750B17A
:102CA000FFE79DF80800C00728B1FFE7089840F04B
:102CB00001000890FFE79DF81D00800700280BD554
:102CC000FFE79DF808008007002805D5FFE7089872
:102CD00040F002000890FFE79DF81D004007002823
:102CE0000BD5FFE79DF808004007002805D5FFE752
:102CF000089840F004000890FFE79DF81D000007C9
:102D0000002848D5FFE79DF8080010F0700F42D06A
:102D1000FFE7029800F0700001460191102814D0DE
:102D2000FFE70198202815D0FFE70198302816D03A
:102D3000FFE70198402817D0FFE70198502818D0E6
:102D4000FFE70198602819D01DE0089840F00800BE
:102D5000089019E0089840F01000089014E00898D6
:102D600040F0200008900FE0089840F040000890E4
:102D70000AE0089840F08000089005E0089840F4C8
:102D80008070089000E0FFE709980168886920F0EA
:102D900070008861FFE7FFE7099801680420486038
:102DA000FFE7089848B1FFE7089A0999486A104375
:102DB00048620998FFF758FCFFE70AB080BD0000A1
:102DC00080B584B00290029820B9FFE701208DF809
:102DD0000F00E0E0029890F8200020B9FFE7029889
:102DE00000F0DEF8FFE702980168086840F0010093
:102DF000086001F0E9F80190FFE702980068406878
:102E0000C007A8B9FFE701F0DFF80199401A0B28C5
:102E10000DD3FFE70299486A40F4003048620299F6
:102E2000052081F8200001208DF80F00B3E0E4E7D1
:102E300002980168086820F00200086001F0C4F8F8
:102E40000190FFE70298006840688007002815D5C8
:102E5000FFE701F0B9F80199401A0B280DD3FFE7FD
:102E60000299486A40F4003048620299052081F8CE
:102E7000200001208DF80F008DE0E3E70298007E2E
:102E8000012807D1FFE702980168086840F0800038
:102E9000086006E002980168086820F08000086079
:102EA000FFE70298407E012807D1FFE702980168FA
:102EB000086840F04000086006E002980168086871
:102EC00020F040000860FFE70298807E012807D1CB
:102ED000FFE702980168086840F02000086006E0FB
:102EE00002980168086820F020000860FFE7029857
:102EF000C07E012807D1FFE702980168086820F02A
:102F00001000086006E002980168086840F01000B0
:102F10000860FFE70298007F012807D1FFE70298C9
:102F20000168086840F00800086006E0029801683F
:102F3000086820F008000860FFE70298407F012839
:102F400007D1FFE702980168086840F004000860B4
:102F500006E002980168086820F004000860FFE7B6
:102F6000029B19685A689868D3F80CC040EA0C00B4
:102F7000D3F810C040EA0C005B691843013A1043D3
:102F8000C861029900204862029A012182F820104B
:102F90008DF80F00FFE79DF80F0004B080BD000022
:102FA00080B594B0139000201290119010900F9063
:102FB0000E901398006846F20041C4F20001884266
:102FC00053D1FFE740F2B830C2F20000016801318E
:102FD00001600068012812D1FFE7FFE700200D9093
:102FE00043F64000C4F20200016841F00071016044
:102FF000006800F000700D900D98FFE7FFE7FFE715
:1030000000200C9043F63000C4F20200016841F049
:1030100008010160006800F008000C900C98FFE7C0
:1030200003200E9002210F91002107911091119021
:103030000920129040F60040C4F202000EA900F0F0
:10304000E7FD079A142005900521069101F09AF8F2
:10305000059801F08DF80699079A1520089001F05F
:1030600091F8089801F084F86EE01398006846F62D
:103070000001C4F20001884265D1FFE7FFE70020AC
:103080000B9043F64000C4F20200016841F08061F9
:103090000160006800F080600B900B98FFE740F241
:1030A000B830C2F2000001680131016000680128F7
:1030B00012D1FFE7FFE700200A9043F64000C4F278
:1030C0000200016841F000710160006800F00070CA
:1030D0000A900A98FFE7FFE7FFE70020099043F610
:1030E0003000C4F20200016841F002010160006892
:1030F00000F0020009900998FFE760200E9002207E
:103100000F9000200390109003201190092012903E
:1031100040F20040C4F202000EA900F079FD039ACB
:10312000402001900521029101F02CF8019801F056
:103130001FF80299039A4120049001F023F80498A3
:1031400001F016F8FFE7FFE714B080BD81B00090F2
:103150000098006846F20041C4F20001884208D19C
:10316000FFE741F25011C2F2000108680130086027
:10317000FFE701B07047000080B588B0079007985E
:10318000006846F20041C4F20001884240F0B48079
:10319000FFE70020069005900490039002900190B4
:1031A000FFE70798002101AA03F0C0FD002800F006
:1031B000A280FFE741F28011C2F2000108680130ED
:1031C0000860039841F27C11C2F2000108609DF88A
:1031D0001800C007E8B9FFE79DF81900C007C0B99B
:1031E000FFE79DF81000082813D1FFE703980F2888
:1031F0000FD8FFE79DF804100320B0EB111F08D192
:10320000FFE741F24C11C2F200010868013008608A
:10321000FFE70398009010B3FFE70098012826D03D
:10322000FFE7009802282AD0FFE7009803282ED055
:10323000FFE70098042832D0FFE7009840F24111E0
:10324000884234D0FFE7009840F20121884236D00E
:10325000FFE7009840F20221884238D03FE041F277
:103260005811C2F200010868013008603FE041F2E5
:103270005C11C2F2000108680130086037E041F2D9
:103280006011C2F200010868013008602FE041F2CD
:103290006411C2F2000108680130086027E041F2C1
:1032A0006811C2F200010868013008601FE041F2B5
:1032B0006C11C2F2000108680130086017E041F2A9
:1032C0007011C2F200010868013008600FE041F29D
:1032D0007411C2F2000108680130086007E041F291
:1032E0007811C2F20001086801300860FFE701A808
:1032F00003F0FEFD55E70AE00798006846F6000176
:10330000C4F20001884201D1FFE7FFE7FFE708B000
:1033100080BD000081B0009001B0704780B588B0DA
:1033200007900798006846F60001C4F20001884241
:1033300040F09C80FFE740F2C050C2F200000078ED
:10334000BFF35F8FC007C0B9FFE740F2C050C2F2C1
:1033500000000DF0C6F880B1FFE709F067F809F04A
:1033600093F940F69851C2F20001086040F2C05053
:10337000C2F200000DF0CBF8FFE740F2BC50C2F201
:1033800000000078BFF35F8FC007B0B9FFE740F2DD
:10339000BC50C2F200000DF0A4F870B1FFE709F0D4
:1033A00039FE40F69451C2F20001086040F2BC5070
:1033B000C2F200000DF0ABF8FFE7FFE740F69850CF
:1033C000C2F20000006801684A6901A9904700281C
:1033D0004BD0FFE741F29011C2F2000108680130C2
:1033E0000860039840F20121884206D0FFE7039865
:1033F00040F20221884217D1FFE7039840F20121F1
:10340000884208D1FFE741F28411C2F20001086846
:103410000130086007E041F28811C2F2000108683B
:1034200001300860FFE71FE0039840F2072188425F
:1034300005D0FFE70398B0F5027F0CD1FFE740F617
:103440009450C2F20000006803999DF8103001AA60
:1034500009F06EFC07E041F28C11C2F2000108682D
:1034600001300860FFE7FFE7A8E7FFE708B080BD8D
:1034700081B0009001B0704780B584B0029002988E
:1034800090F8200001282FD1FFE70299022081F84F
:10349000200002980168086820F00100086000F030
:1034A00093FD0190FFE7029800684068C007A8B14B
:1034B000FFE700F089FD0199401A0B280DD3FFE7C3
:1034C0000299486A40F4003048620299052081F868
:1034D000200001208DF80F000FE0E4E702990020A2
:1034E00048628DF80F0008E00299486A40F4002015
:1034F000486201208DF80F00FFE79DF80F0004B02F
:1035000080BD000081B0009001B0704781B0009094
:1035100001B0704781B0009001B0704781B0009059
:1035200001B0704781B0009001B0704781B0009049
:1035300001B0704781B0009001B0704780B584B091
:1035400002900298806D019000F03EFD009002987C
:1035500090F8350002280DD0FFE7029980204865D9
:10356000FFE70299002081F83400FFE701208DF881
:103570000F0055E002980168086820F01600086006
:1035800002980168486920F0800048610298006C48
:1035900020B9FFE70298806C38B1FFE70298016814
:1035A000086820F008000860FFE7029801680868D2
:1035B00020F001000860FFE7029800680068C0077B
:1035C000C8B1FFE700F000FD0099401A062811D3AA
:1035D000FFE70299202048650299032081F8350011
:1035E000FFE70299002081F83400FFE703208DF8FF
:1035F0000F0015E0E0E70298C16D3F208840019977
:1036000088600299012081F83500FFE702990020C7
:1036100081F83400FFE7FFE700208DF80F00FFE797
:103620009DF80F0004B080BD82B00090009890F823
:103630003500022807D0FFE7009980204865012067
:103640008DF807000EE00099052081F835000098FC
:103650000168086820F001000860FFE700208DF88D
:103660000700FFE79DF8070002B0704781B00090A7
:103670000098406D01B0704780B586B0059000207D
:10368000039040F2AC20C2F20000006848F2B5118D
:10369000C1F64E31A0FB0110800A02900598806DA2
:1036A000019001980068049004980599C96DC8407C
:1036B000000700281AD5FFE7059800680068400752
:1036C000002812D5FFE705980168086820F004007B
:1036D00008600598C16D08208840019988600599A7
:1036E000486D40F001004865FFE7FFE70498059941
:1036F000C96DC840C007A0B1FFE7059800684069E0
:10370000000600280CD5FFE70598C16D0120884010
:10371000019988600599486D40F002004865FFE70F
:10372000FFE704980599C96DC8404007002814D5E3
:10373000FFE7059800680068800700280CD5FFE7C0
:103740000598C16D04208840019988600599486DED
:1037500040F004004865FFE7FFE704980599C96D4C
:10376000C840C006002847D5FFE7059800680068F4
:10377000000700283FD5FFE70598C16D102088405D
:1037800001998860059800680068400300281AD5F0
:10379000FFE70598006800680003002809D4FFE7E8
:1037A0000598006C20B1FFE70598016C8847FFE79A
:1037B00008E00598806C20B1FFE70598816C884788
:1037C000FFE7FFE716E0059800680068C0050028DD
:1037D00007D4FFE705980168086820F00800086032
:1037E000FFE70598006C20B1FFE70598016C88475A
:1037F000FFE7FFE7FFE7FFE704980599C96DC840B9
:103800008006002840F18D80FFE705980068006879
:10381000C006002840F18480FFE70598C16D202094
:10382000884001998860059890F83500052834D1C2
:10383000FFE705980168086820F016000860059801
:103840000168486920F0800048610598006C20B943
:10385000FFE70598806C38B1FFE7059801680868B4
:1038600020F008000860FFE70598C16D3F20884000
:10387000019988600599012081F83500FFE70599D5
:10388000002081F83400FFE70598006D20B1FFE7C4
:103890000598016D8847FFE77BE0059800680068A0
:1038A000400300281AD5FFE7059800680068000368
:1038B000002809D4FFE70598406C20B1FFE7059880
:1038C000416C8847FFE708E00598C06B20B1FFE72F
:1038D0000598C16B8847FFE7FFE720E0059800687F
:1038E0000068C005002811D4FFE705980168086842
:1038F00020F0100008600599012081F83500FFE7ED
:103900000599002081F83400FFE7FFE70598C06BB8
:1039100020B1FFE70598C16B8847FFE7FFE7FFE7A6
:10392000FFE70598406DA0B3FFE70598406DC0071D
:1039300030B3FFE70599052081F835000598016847
:10394000086820F001000860FFE703980130039049
:103950000299884201D9FFE707E0FFE70598006870
:103960000068C0070028F0D1FFE70599012081F821
:103970003500FFE70599002081F83400FFE7FFE7F5
:103980000598C06C20B1FFE70598C16C8847FFE738
:10399000FFE706B080BD000080B586B0049000202F
:1039A000039000F011FB0290049820B9FFE701207A
:1039B0008DF81700A3E00498406A08B1FFE7FFE71D
:1039C0000499022081F83500FFE70499002081F86E
:1039D0003400FFE704980168086820F001000860DF
:1039E000FFE7049800680068C00790B1FFE700F0A7
:1039F000EBFA0299401A06280AD3FFE7049920201F
:103A000048650499032081F835008DF8170076E0A9
:103A1000E7E70498006800680390039848F23F01C4
:103A2000CFF2100108400390049900914868D1F842
:103A300008C0CB680A6940EA0C00184310434A6981
:103A400010438A691043CA691043096A0143039805
:103A5000084303900498406A042808D1FFE70499BA
:103A6000C86A096B0143039808430390FFE7039872
:103A700004990968086004980068406903900398F5
:103A800020F0070003900498416A039808430390CC
:103A90000498406A04281AD1FFE70498816A0398C1
:103AA000084303900498C06A80B1FFE70498FDF7CB
:103AB0004DF850B1FFE70499402048650499012072
:103AC00081F835008DF8170019E0FFE7FFE703984C
:103AD0000499096848610498FDF70CF8019004986E
:103AE000C16D3F2088400199886004990020486595
:103AF000049A012182F835108DF81700FFE79DF830
:103B0000170006B080BD000080B588B00690059112
:103B10000492039300208DF80B000698806D0190AD
:103B2000FFE7069890F83400012804D1FFE702204F
:103B30008DF81F0045E00699012081F83400FFE769
:103B4000FFE7069890F8350001282BD1FFE706998A
:103B5000022081F8350006990020486506980599ED
:103B6000049A039BFDF76AF80698C16D3F208840D0
:103B70000199886006980168086840F0160008609E
:103B80000698006C38B1FFE706980168086840F0B5
:103B900008000860FFE706980168086840F0010027
:103BA000086009E0FFE70699002081F83400FFE78C
:103BB00002208DF80B00FFE79DF80B008DF81F0029
:103BC000FFE79DF81F0008B080BD000080B584B0FD
:103BD000039000F0F9F902900398019001980130E8
:103BE00048B1FFE740F2EC20C2F2000001780198F2
:103BF00008440190FFE7FFE700F0E6F90299401A58
:103C00000199884201D2FFE7F6E704B080BD0000C9
:103C10008EB00D900C9100200A90099008900B90A6
:103C2000FFE70B980F2800F2CC81FFE70B990120EA
:103C300088400A900C9800680A99084009900998F1
:103C40000A99884240F0B881FFE70C98406800F07C
:103C50000300012807D0FFE70C98406800F003003C
:103C600002282FD1FFE70D98806808900B9841003B
:103C7000032000FA01F10898884308900C98C06866
:103C80000B99490000FA01F1089808430890089838
:103C90000D9988600D98406808900B99012000FAF2
:103CA00001F10898884308900C984068C0F3001010
:103CB0000B9900FA01F108980843089008980D99AB
:103CC0004860FFE70C98406800F00300032818D014
:103CD000FFE70D98C06808900B984100032000FA98
:103CE00001F10898884308900C9880680B99490066
:103CF00000FA01F108980843089008980D99C860E7
:103D0000FFE70C98406800F00300022826D1FFE787
:103D10000D980B996FF0030202EA51010844006A02
:103D200008900B9800F0070081000F2000FA01F1C5
:103D30000898884308900C9800690B9901F00701D6
:103D4000890000FA01F108980843089008980D9935
:103D50000B9B02EA530211440862FFE70D980068CA
:103D600008900B984100032000FA01F1089888435D
:103D700008900C98406800F003000B99490000FA85
:103D800001F108980843089008980D9908600C986C
:103D900080798007002800F00E81FFE7FFE7002010
:103DA000079043F64400C4F20200016841F48041E8
:103DB0000160006800F4804007900798FFE70B98C7
:103DC00020F0030043F60801C4F2010140580890B6
:103DD0000B9800F0030081000F2000FA01F1089811
:103DE000884308900D980021C4F20201884203D153
:103DF000FFE7002006905EE00D9840F20041C4F21B
:103E00000201884203D1FFE70120059050E00D98A0
:103E100040F60001C4F20201884203D1FFE702200C
:103E2000049042E00D9840F60041C4F2020188423D
:103E300003D1FFE70320039034E00D9841F2000125
:103E4000C4F20201884203D1FFE70420029026E079
:103E50000D9841F20041C4F20201884203D1FFE70C
:103E60000520019018E00D9841F60001C4F202010E
:103E7000884203D1FFE7062000900AE00D9941F641
:103E80000042C4F202020820914208BF07200090BD
:103E9000FFE700980190FFE701980290FFE7029882
:103EA0000390FFE703980490FFE704980590FFE76D
:103EB00005980690FFE70698C0B20B9901F0030140
:103EC000890000FA01F108980843089008980B99B6
:103ED00021F0030143F60802C4F20102885043F6C0
:103EE0000840C4F2010000680890099908988843C6
:103EF00008900C988079C006002805D5FFE709993D
:103F0000089808430890FFE7089843F60841C4F270
:103F10000101086043F60C40C4F2010000680890FB
:103F200009990898884308900C98807980060028A1
:103F300005D5FFE70999089808430890FFE7089816
:103F400043F60C41C4F20101086043F60440C4F298
:103F500001000068089009990898884308900C9817
:103F600080798007002805D5FFE70999089808435C
:103F70000890FFE7089843F60441C4F20101086085
:103F800043F60040C4F201000068089009990898BF
:103F9000884308900C988079C00728B1FFE70999F9
:103FA000089808430890FFE7089843F60041C4F2D8
:103FB00001010860FFE7FFE7FFE70B9801300B9076
:103FC0002FE60EB07047000045F2FC50C2F2000030
:103FD0000068704740F2EC20C2F20000027845F21F
:103FE000FC51C2F2000108681044086070470000EC
:103FF00080B543F60041C4F20201086840F4007045
:104000000860086840F480600860086840F48070C8
:104010000860032000F0D0F80F2000F005F800F051
:104020007BF8002080BD000080B58CB00B90002094
:1040300004900390FFE70020009043F64000C4F294
:104040000200016841F010010160006800F01000FA
:1040500000900098FFE706A802A900F0E7F9099888
:104060000490049820B9FFE700F010FA059004E0EE
:1040700000F00CFA40000590FFE705984DF68361CB
:10408000C4F21B31A0FB01014FF0FF3000EB914067
:10409000039041F26830C2F2000041F20001C4F224
:1040A0000001016040F2E731C160039941600021E5
:1040B00001618160816100F0E9FD8DF807009DF8E4
:1040C000070028BBFFE741F26830C2F2000000F0B1
:1040D0002FFE8DF807009DF80700C0B9FFE73620D6
:1040E00000F046F80B980F280CD8FFE70B99362004
:1040F000002200F047F80B9840F2F021C2F20001D4
:10410000086003E001208DF80700FFE7FFE7FFE705
:104110009DF807000CB080BD80B582B0FFE700209D
:10412000019043F64400C4F20200016841F480416A
:104130000160006800F4804001900198FFE7FFE70C
:104140000020009043F64000C4F20200016841F0F4
:1041500080510160006800F0805000900098FFE7F7
:104160006FF001000F21002200F00CF802B080BDBA
:1041700080B582B08DF807009DF907000AF0ECFECB
:1041800002B080BD80B586B08DF81700049103920F
:10419000002002900AF0F8FE02909DF917000190AD
:1041A00002980499039A01F0BDFF014601980AF0B4
:1041B000F3FE06B080BD000080B582B0019001988A
:1041C0000AF02EFF02B080BD80B584B0029001914C
:1041D000029820B9FFE701208DF80F0021E1019836
:1041E00043F60041C4F20201096801F00701884268
:1041F00012D9FFE7019943F60040C4F202000170B2
:10420000006800F007000199884204D0FFE7012010
:104210008DF80F0005E1FFE702980078800700287D
:104220002AD5FFE7029800784007002809D5FFE764
:1042300043F60801C4F20201086840F4E050086047
:10424000FFE7029800780007002809D5FFE743F64A
:104250000801C4F20201086840F460400860FFE70A
:1042600043F60801C4F20201086820F0F000029A47
:10427000926810430860FFE702980078C0070028A2
:104280006ED0FFE702984068012811D1FFE743F69E
:104290000000C4F20200006800F400310020B0EB1E
:1042A000514F04D1FFE701208DF80F00B9E02CE059
:1042B00002984068022805D0FFE70298406803286A
:1042C00011D1FFE743F60000C4F20200006800F0DD
:1042D00000710020B0EB516F04D1FFE701208DF891
:1042E0000F009EE010E043F60000C4F202000068F8
:1042F00000F002010020B0EB510F04D1FFE70120D4
:104300008DF80F008DE0FFE7FFE743F60801C4F2E8
:104310000201086820F00300029A52681043086006
:10432000FFF752FE0090FFE743F60800C4F20200D8
:10433000006800F00C0002994968B0EB810F0ED0C4
:10434000FFE7FFF741FE0099401A41F289318842A8
:1043500004D3FFE703208DF80F0062E0E4E7FFE7F6
:10436000019843F60041C4F20201096801F0070117
:10437000884212D2FFE7019943F60040C4F20200DE
:104380000170006800F007000199884204D0FFE73F
:1043900001208DF80F0044E0FFE702980078400705
:1043A00000280CD5FFE743F60801C4F202010868B3
:1043B00020F4E050029AD26810430860FFE70298A8
:1043C0000078000700280DD5FFE743F60801C4F286
:1043D0000201086820F46040029A126940EAC200B3
:1043E0000860FFE700F076F843F60801C4F2020126
:1043F0000968C9B20A0942F6FC21C0F60101895CCC
:10440000C84040F2AC21C2F20001086040F2F02046
:10441000C2F200000068FFF707FE00208DF80F00D1
:10442000FFE79DF80F0004B080BD000082B001904E
:10443000009101990F20086043F60800C4F20200C1
:10444000016801F00301019A5160016801F0F00177
:10445000019A9160016801F4E051019AD16000680D
:1044600000F46040C0080199086143F60040C4F2BE
:104470000200006800F007000099086002B0704771
:1044800040F2AC20C2F200000068704780B5FFF730
:10449000F7FF43F60801C4F202010968C1F3822262
:1044A00042F60C31C0F60101895CC84080BD0000B5
:1044B00080B5FFF7E5FF43F60801C4F20201096881
:1044C00089B24A0B42F60C31C0F60101895CC84042
:1044D00080BD000080B586B0002005900490039058
:1044E000029043F60800C4F20200006800F00C00DD
:1044F0000146019140B1FFE7019804280AD0FFE787
:10450000019808280CD04FE042F20040C0F2F400BD
:1045100002904FE041F60030C0F2B700029049E04F
:1045200043F60400C4F20200016801F03F01059166
:1045300000684002002813D5FFE743F60400C4F2E8
:1045400002000068C0F3881041F60031C0F2B701E4
:10455000A0FB0101059A0023FBF736FE049012E050
:1045600043F60400C4F202000068C0F3881042F26F
:104570000041C0F2F401A0FB0101059A0023FBF702
:1045800023FE0490FFE743F60400C4F20200006833
:1045900000F44031022000EBD130039004980399DD
:1045A000B0FBF1F0029005E042F20040C0F2F400EE
:1045B0000290FFE7029806B080BD000080B586B08B
:1045C0000490049820B9FFE701208DF8170050E30C
:1045D00004980078C007002800F0A580FFE743F6A4
:1045E0000800C4F20200006800F00C00042813D098
:1045F000FFE743F60800C4F20200006800F00C0078
:1046000008281ED1FFE743F60400C4F20200006848
:104610004002002815D5FFE743F60000C4F202006F
:10462000006800F400310020B0EB514F08D0FFE7E4
:104630000498406820B9FFE701208DF8170018E3BF
:1046400070E0FFE704984068B0F5803F09D1FFE7CC
:1046500043F60001C4F20201086840F480300860AB
:1046600020E004984068B0F5A02F0DD1FFE743F695
:104670000001C4F20201086840F480200860086864
:1046800040F4803008600CE043F60001C4F20201FF
:10469000086820F480300860086820F480200860F2
:1046A000FFE7FFE7FFE704984068E8B1FFE7FFF79F
:1046B0008BFC0390FFE743F60000C4F202000068A1
:1046C00000F400310020B0EB514F0CD1FFE7FFF7B1
:1046D0007BFC0399401A652804D3FFE703208DF87B
:1046E0001700C6E2E7E71CE0FFF76EFC0390FFE768
:1046F00043F60000C4F20200006800F4003100201C
:10470000B0EB514F0CD0FFE7FFF75EFC0399401A66
:10471000652804D3FFE703208DF81700A9E2E7E737
:10472000FFE7FFE7FFE7049800788007002840F1E3
:104730009680FFE743F60800C4F20200006810F01C
:104740000C0F13D0FFE743F60800C4F20200006824
:1047500000F00C0008282CD1FFE743F60400C4F257
:10476000020000684002002823D4FFE743F600005F
:10477000C4F20200006800F002010020B0EB510F0B
:1047800009D0FFE70498C068012804D0FFE70120A2
:104790008DF817006DE243F60001C4F202010868CB
:1047A00020F0F800049A126940EAC2000860FFE7AE
:1047B00054E00498C06870B3FFE70021C4F24721B9
:1047C00001200860FFF700FC0390FFE743F60000BC
:1047D000C4F20200006800F002010020B0EB510FAB
:1047E0000CD1FFE7FFF7F0FB0399401A032804D32D
:1047F000FFE703208DF817003BE2E7E743F60001EF
:10480000C4F20201086820F0F800049A126940EA34
:10481000C200086021E00021C4F2472100200860A6
:10482000FFF7D2FB0390FFE743F60000C4F202005B
:10483000006800F002010020B0EB510F0CD0FFE740
:10484000FFF7C2FB0399401A032804D3FFE70320B4
:104850008DF817000DE2E7E7FFE7FFE7FFE70498B1
:104860000078000700284BD5FFE70498406918B38B
:10487000FFE740F68061C4F2472101200860FFF79E
:10488000A3FB0390FFE743F67400C4F20200006844
:1048900000F002010020B0EB510F0CD1FFE7FFF751
:1048A00093FB0399401A032804D3FFE703208DF8F4
:1048B0001700DEE1E7E722E040F68061C4F247211D
:1048C00000200860FFF780FB0390FFE743F67400C9
:1048D000C4F20200006800F002010020B0EB510FAA
:1048E0000CD0FFE7FFF770FB0399401A032804D3AD
:1048F000FFE703208DF81700BBE1E7E7FFE7FFE7DD
:10490000049800784007002840F1CE80FFE700209F
:104910008DF8070043F64000C4F202000068C000B2
:10492000002815D4FFE7FFE70020009043F6400081
:10493000C4F20200016841F080510160006800F09B
:10494000805000900098FFE701208DF80700FFE7F6
:1049500047F20000C4F200000068C005002822D41D
:10496000FFE747F20001C4F20001086840F48070DC
:104970000860FFF729FB0390FFE747F20000C4F24D
:1049800000000068C00500280CD4FFE7FFF71CFBFF
:104990000399401A032804D3FFE703208DF817007A
:1049A00067E1EAE7FFE7FFE704988068012809D19B
:1049B000FFE743F67001C4F20201086840F001000D
:1049C00008601FE00498806805280DD1FFE743F6D2
:1049D0007001C4F20201086840F004000860086831
:1049E00040F0010008600CE043F67001C4F20201DF
:1049F000086820F001000860086820F004000860E2
:104A0000FFE7FFE7FFE704988068F8B1FFE7FFF7EB
:104A1000DBFA0390FFE743F67000C4F2020000687F
:104A200000F002010020B0EB510F0ED1FFE7FFF7BD
:104A3000CBFA0399401A41F28931884204D3FFE747
:104A400003208DF8170014E1E5E71EE0FFF7BCFA3C
:104A50000390FFE743F67000C4F20200006800F024
:104A600002010020B0EB510F0ED0FFE7FFF7ACFAC8
:104A70000399401A41F28931884204D3FFE70320A9
:104A80008DF81700F5E0E5E7FFE79DF8070001283E
:104A900009D1FFE743F64001C4F20201086820F0A3
:104AA00080500860FFE7FFE704988069002800F065
:104AB000DC80FFE743F60800C4F20200006800F063
:104AC0000C00082800F08580FFE704988069022820
:104AD0005CD1FFE76021C4F2472100200860FFF7A6
:104AE00073FA0390FFE743F60000C4F20200006887
:104AF00000F000710020B0EB516F0CD0FFE7FFF722
:104B000063FA0399401A032804D3FFE703208DF8C2
:104B10001700AEE0E7E70499C869D1F820C04B6AF6
:104B20008A6A40EA0C0040EA8310D2034FF6FF7312
:104B30009A43A2F580321043C96A40EA016043F605
:104B40000401C4F2020108606021C4F2472101207F
:104B50000860FFF739FA0390FFE743F60000C4F25C
:104B60000200006800F000710020B0EB516F0CD122
:104B7000FFE7FFF729FA0399401A032804D3FFE758
:104B800003208DF8170074E0E7E721E06021C4F20C
:104B9000472100200860FFF717FA0390FFE743F66C
:104BA0000000C4F20200006800F000710020B0EBC9
:104BB000516F0CD0FFE7FFF707FA0399401A03285B
:104BC00004D3FFE703208DF8170052E0E7E7FFE783
:104BD0004AE004988069012804D1FFE701208DF89C
:104BE000170046E043F60400C4F202000068029099
:104BF00004988069012831D0FFE7029800F4800012
:104C00000499C969884229D1FFE7029800F03F0062
:104C10000499096A884221D1FFE7029847F6C071DA
:104C200008400499496AB0EB811F17D1FFE7029849
:104C300000F440300499896AC9034FF6FF7291432A
:104C4000A1F58031884209D1FFE7029800F0706039
:104C50000499C96AB0EB016F04D0FFE701208DF819
:104C6000170006E0FFE7FFE7FFE700208DF81700D9
:104C7000FFE79DF8170006B080BD000081B00090EE
:104C800001B0704781B0009001B0704780B582B02C
:104C90000090009820B9FFE701208DF807003FE061
:104CA000009890F83D0040B9FFE70099002081F896
:104CB0003C00009800F038F8FFE70099022081F8E6
:104CC0003D00009951F8040B01F03CFB00990120D4
:104CD00081F84600FFE70099012081F83E00009925
:104CE00081F83F00009981F84000009981F8410067
:104CF000FFE7FFE70099012081F84200009981F861
:104D00004300009981F84400009981F84500FFE7CD
:104D10000099012081F83D0000208DF80700FFE791
:104D20009DF8070002B080BD81B0009001B07047CF
:104D300083B00190019890F83D00012804D0FFE76E
:104D400001208DF80B006AE00199022081F83D00F6
:104D500001980168C86840F00100C86001980068C7
:104D60000021C4F2010188423CD0FFE701980068AD
:104D7000B0F1804F36D0FFE70198006840F2004163
:104D8000C4F2000188422DD0FFE70198006840F688
:104D90000001C4F20001884224D0FFE701980068B6
:104DA00040F60041C4F2000188421BD0FFE70198A1
:104DB000006840F20041C4F20101884212D0FFE7CE
:104DC0000198006844F20001C4F20101884209D050
:104DD000FFE70198006841F60001C4F20001884233
:104DE00012D1FFE701980068806800F0070000908A
:104DF0000098062807D0FFE701980168086840F08E
:104E000001000860FFE706E001980168086840F0CB
:104E100001000860FFE700208DF80B00FFE79DF818
:104E20000B0003B07047000081B0009001B07047E4
:104E300080B584B0039003980068C068029003981E
:104E40000068006901909DF804008007002824D5BF
:104E5000FFE79DF80800800700281DD5FFE70398AD
:104E600001686FF002000861039901200877039838
:104E700000688069800720B1FFE70398FFF7D4FF3F
:104E800006E0039800F0E2F8039800F0E3F8FFE78B
:104E9000039900200877FFE7FFE79DF8040040072B
:104EA000002825D5FFE79DF80800400700281ED5FB
:104EB000FFE7039801686FF004000861039902207E
:104EC000087703980068806910F4407F04D0FFE7FA
:104ED0000398FFF7A9FF06E0039800F0B7F80398DE
:104EE00000F0B8F8FFE7039900200877FFE7FFE735
:104EF0009DF804000007002824D5FFE79DF808006E
:104F0000000700281DD5FFE7039801686FF008002F
:104F1000086103990420087703980068C069800736
:104F200020B1FFE70398FFF77FFF06E0039800F04A
:104F30008DF8039800F08EF8FFE7039900200877BA
:104F4000FFE7FFE79DF80400C006002825D5FFE72E
:104F50009DF80800C00600281ED5FFE703980168E9
:104F60006FF0100008610399082008770398006823
:104F7000C06910F4407F04D0FFE70398FFF754FFA7
:104F800006E0039800F062F8039800F063F8FFE78A
:104F9000039900200877FFE7FFE79DF80400C007AA
:104FA00078B1FFE79DF80800C00748B1FFE7039814
:104FB00001686FF001000861039800F04FF8FFE707
:104FC000FFE79DF804000006002810D5FFE79DF8D4
:104FD00008000006002809D5FFE7039801686FF074
:104FE000800008610398FFF749FEFFE7FFE79DF89F
:104FF00004004006002810D5FFE79DF80800400691
:10500000002809D5FFE7039801686FF040000861A8
:10501000039800F035F8FFE7FFE79DF804008006ED
:10502000002810D5FFE79DF808008006002809D564
:10503000FFE7039801686FF0200008610398FFF70D
:1050400021FEFFE7FFE704B080BD000081B00090C3
:1050500001B0704781B0009001B0704780B582B058
:1050600001900198006841F20001C4F200018842F9
:1050700003D1FFE7FEF7AEFFFFE702B080BD0000FF
:1050800081B0009001B0704780B586B00490039164
:10509000ADF80A20049890F84200202848D1FFE794
:1050A000039820B1FFE7BDF80A0020B9FFE701200F
:1050B0008DF8170040E0049901200863049900204E
:1050C000486304980399BDF80A2001F003FD8DF8A8
:1050D00009000498006B012821D1FFE7FFE70020B9
:1050E0000190049800680068019004980068406886
:1050F00001900198FFE7FFE7FFE70498006850E898
:10510000030F40F010000090FFE700990498026838
:1051100042E803100028F0D1FFE7FFE703E0012099
:105120008DF80900FFE79DF809008DF8170003E0EE
:1051300002208DF81700FFE79DF8170006B080BD2C
:1051400080B582B00190ADF802100198006844F675
:105150000001C4F20001884208D1FFE706F0B2FD69
:105160000199BDF8022006F04DFD25E00198006888
:1051700041F20001C4F2010188420AD1FFE701991E
:10518000BDF8022040F66020C2F2000002F040FEAE
:1051900011E00198006841F20041C4F20101884227
:1051A00008D1FFE702F0EEF90199BDF8022002F004
:1051B00047F9FFE7FFE7FFE702B080BD80B586B0A3
:1051C0000490FFE7FFE70498006850E8030F20F41D
:1051D00090700390FFE703990498026842E8031077
:1051E0000028F0D1FFE7FFE7FFE7FFE7049800683A
:1051F00050E8050F20F001000290FFE702990498A3
:10520000026842E805100028F0D1FFE7FFE70498A4
:10521000006B012814D1FFE7FFE7FFE7049800685F
:1052200050E8030F20F010000190FFE70199049867
:10523000026842E803100028F0D1FFE7FFE7FFE72C
:105240000498006840694006002832D5FFE7FFE770
:10525000FFE70498006850E8050F20F04000009038
:10526000FFE700990498026842E805100028F0D191
:10527000FFE7FFE70498C06BD0B1FFE70498C16B6C
:10528000002008650498C06BFEF758F978B1FFE775
:105290000498C06BFEF7EAF9202807D1FFE70499CC
:1052A0001020486403208DF817000EE0FFE7FFE7A9
:1052B000FFE704990020C885049A202182F8421053
:1052C000049908638DF81700FFE79DF8170006B0F2
:1052D00080BD000080B584B00290FFE7FFE7029830
:1052E000006850E8030F20F0C0000190FFE701992B
:1052F0000298026842E803100028F0D1FFE7FFE7B8
:105300000298006840690006002832D5FFE7FFE7F1
:10531000FFE70298006850E8050F20F08000009039
:10532000FFE700990298026842E805100028F0D1D2
:10533000FFE7FFE70298806BD0B1FFE70298816B2F
:10534000002008650298806BFEF7F8F878B1FFE757
:105350000298806BFEF78AF9202807D1FFE70299AF
:105360001020486403208DF80F000CE0FFE7FFE7F2
:10537000FFE702990020C884029A202182F8411098
:105380008DF80F00FFE79DF80F0004B080BD00000E
:1053900080B586B005900598006841F20041C4F2DE
:1053A0000101884242D1FFE7FFE700200490059801
:1053B00000680068049005980068406804900498AC
:1053C000FFE7FFE70020039005980068006803905E
:1053D00005980068406803900398FFE7FFE7002006
:1053E000029005980068006802900598006840687F
:1053F00002900298FFE7FFE70020019005980068FF
:105400000068019005980068406801900198FFE7E6
:1054100001F076FC02F0B6F801F01CFF0598FFF7EA
:1054200059FF02F0AFF801F09BFFFFE706B080BD27
:1054300080B592B011901198006800681090119892
:105440000068C0680F901198006840690E900020B5
:105450000D900C90109800F00F000D900D9888B9E9
:10546000FFE79DF84000800600280AD5FFE79DF879
:105470003C008006002804D5FFE7119801F0D8F918
:1054800002E2FFE70D98002800F0C280FFE79DF8D8
:105490003800C00738B9FFE7BDF83C0010F4907F32
:1054A00000F0B680FFE79DF84000C00758B1FFE765
:1054B0009DF83D00C00730B1FFE71199486C40F0FE
:1054C00001004864FFE79DF84000400700280BD525
:1054D000FFE79DF83800C00730B1FFE71199486C2D
:1054E00040F002004864FFE79DF840008007002874
:1054F0000BD5FFE79DF83800C00730B1FFE71199E1
:10550000486C40F004004864FFE79DF84000000745
:10551000002811D5FFE79DF83C008006002805D43F
:10552000FFE79DF83800C00730B1FFE71199486CDC
:1055300040F008004864FFE71198406C002866D0EE
:10554000FFE79DF84000800600280AD5FFE79DF898
:105550003C008006002804D5FFE7119801F068F9A7
:10556000FFE7119800684069C0F380100C90119813
:10557000406C0007002804D4FFE70C9800283ED0B8
:10558000FFE7119801F0DAF81198006840694006C9
:1055900000282FD5FFE7FFE7FFE71198006850E8E4
:1055A000050F20F040000B90FFE70B99119802685F
:1055B00042E805100028F0D1FFE7FFE71198C06B23
:1055C00098B1FFE71198C16B46F2E940C0F60000C0
:1055D00008651198C06BFEF727F828B1FFE711980E
:1055E000C06B016D8847FFE703E01198FFF7D0FE1D
:1055F000FFE703E01198FFF7CBFEFFE706E0119805
:10560000FFF7C6FE119900204864FFE7FFE73BE182
:105610001198006B012840F01781FFE79DF84000CA
:10562000C006002840F11081FFE79DF83C00C0064D
:10563000002840F10981FFE7FFE700200A90119858
:10564000006800680A901198006840680A900A98FB
:10565000FFE71198006840694006002840F19A80F1
:10566000FFE71198C06B00684068ADF82600BDF8F0
:105670002600002875D0FFE7BDF826001199898D16
:1056800088426EDAFFE7BDF826001199C8851198A7
:10569000C06BC069B0F5807F58D0FFE7FFE7FFE738
:1056A0001198006850E8030F20F480700890FFE71D
:1056B00008991198026842E803100028F0D1FFE72A
:1056C000FFE7FFE7FFE71198006850E8050F20F0BB
:1056D00001000790FFE707991198026842E805105A
:1056E0000028F0D1FFE7FFE7FFE7FFE71198006828
:1056F00050E8050F20F040000690FFE7069911984A
:10570000026842E805100028F0D1FFE7FFE7119991
:10571000202081F84200119900200863FFE7FFE78D
:105720001198006850E8030F20F010000590FFE783
:1057300005991198026842E803100028F0D1FFE7AC
:10574000FFE71198C06BFDF7F9FEFFE71199022002
:1057500048631198818DC28D891A89B2FFF7F0FCD8
:1057600017E0BDF826001199898D884210D1FFE716
:105770001198C06BC069B0F5807F08D1FFE711991F
:10578000022048631198818DFFF7DAFCFFE7FFE7FD
:10579000FFE779E01199888DC98D401AADF81200A4
:1057A0001198C08D00284ED0FFE7BDF812000028E8
:1057B00049D0FFE7FFE7FFE71198006850E8030FC3
:1057C00020F490700390FFE703991198026842E873
:1057D00003100028F0D1FFE7FFE7FFE7FFE711988C
:1057E000006850E8050F20F001000290FFE70299E1
:1057F0001198026842E805100028F0D1FFE7FFE7A2
:105800001199202081F84200119900200863FFE7D8
:10581000FFE71198006850E8030F20F01000019096
:10582000FFE701991198026842E803100028F0D1BF
:10583000FFE7FFE71199022048631198BDF81210A5
:10584000FFF77EFCFFE71FE09DF840000006002800
:105850000AD5FFE79DF83C000006002804D5FFE7C5
:10586000119801F0CFF90FE09DF8400040060028A4
:105870000AD5FFE79DF83C004006002804D5FFE765
:10588000119800F0A5FFFFE712B080BD80B582B08F
:105890000090009820B9FFE701208DF8070040E054
:1058A0000098806908B1FFE700E0FFE7009890F8F2
:1058B000410040B9FFE70099002081F840000098BE
:1058C00000F034F8FFE70099242081F841000098A7
:1058D0000168C86820F40050C860009801F05CF8C6
:1058E00000980168086920F49040086100980168F8
:1058F000486920F02A00486100980168C86840F4AF
:105900000050C860009900204864009A202182F865
:105910004110009A82F84210009948638DF8070000
:10592000FFE79DF8070002B080BD000080B59CB085
:105930001B9000201A9019901890179016901B98A1
:10594000006841F20001C4F20101884240F09180F8
:10595000FFE7FFE70020159043F64400C4F2020081
:10596000016841F010010160006800F0100015901E
:105970001598FFE7FFE70020149043F63000C4F2CB
:105980000200016841F002010160006800F00200BD
:1059900014901498FFE7FFE70020139043F63000BF
:1059A000C4F20200016841F001010160006800F0EA
:1059B000010013901398FFE78020169002200990B1
:1059C000179000200D90189003200A90199007203E
:1059D0000B901A9040F20040C4F2020016A90C91FC
:1059E000FEF716F9DDF824C00A9A0B980C990D9B66
:1059F0004FF4007ECDF858E0CDF85CC018931992B2
:105A00001A900020C4F20200FEF702F90D9941F24B
:105A1000E810C2F200000E9046F24042C4F20202C8
:105A200002604FF0006242608160C1604FF48062AA
:105A3000026141618161C16101624162FDF7ACFFB8
:105A400018B1FFE7FBF724F9FFE7FFE71B9841F2E6
:105A5000E811C2F20001C1631B988863FFE72520AB
:105A6000089005210022FEF78DFB0898FEF780FBC9
:105A70000EE11B98006844F60001C4F20001884260
:105A800068D1FFE7FFE70020129043F64000C4F220
:105A90000200016841F480210160006800F4802068
:105AA00012901298FFE7FFE70020119043F63000B4
:105AB000C4F20200016841F004010160006800F0D6
:105AC000040011901198FFE74FF4406016900220F7
:105AD00017900020069018900320199007201A9024
