:020000040800F2
:1000000090620020A5010008315F0008E55B000850
:100010002D5F0008710A0008D96A0008000000007E
:100020000000000000000000000000001160000857
:100030008D0C000800000000A15F0008556000085A
:10004000BF010008BF010008BF010008BF01000890
:10005000BF010008BF010008BF010008BF01000880
:10006000BF010008BF010008BF010008BF01000870
:10007000B50A0008BF010008BF010008BF01000861
:10008000BF010008BF010008BF010008BF01000850
:10009000750A0008850A0008BF010008BF010008B2
:1000A000BF010008BF010008BF010008BF01000830
:1000B000BF010008BF010008BF010008BF01000820
:1000C000BF010008BF010008BF010008BF01000810
:1000D000BF010008A96A0008BF010008B96A00084A
:1000E000BF010008BF010008BF010008BF010008F0
:1000F000BF010008BF010008BF010008BF010008E0
:10010000BF010008BF010008BF010008BF010008CF
:10011000BF010008BF01000845610008BF010008D9
:10012000BF010008C50A0008D50A0008BF01000881
:10013000BF010008BF010008BF010008BF0100089F
:10014000950A0008A50A0008BF010008BF010008C1
:10015000BF010008E50A0008BF010008C96A0008DD
:10016000BF010008BF010008BF010008BF0100086F
:10017000BF010008BF010008BF0100080000000027
:10018000BF010008BF010008DFF814D000F0C0FB79
:1001900000F07EF80048004721EC000800F0EAFB80
:1001A000906200200648804706480047FEE7FEE7C9
:1001B000FEE7FEE7FEE7FEE7FEE7FEE7FEE7FEE717
:1001C00031610008890100082DE9F05F0546002033
:1001D00092469B4688460646814640241BE02846B8
:1001E00041464746224600F0B4FA53465A46C01AE2
:1001F000914110D311461846224600F09BFA2D1A61
:1002000067EB01084F4622460120002100F092FAD8
:1002100017EB00094E41201EA4F10104DFDC484623
:1002200031462A464346BDE8F09F10B5431A934233
:1002300009D28318881803E010F8011D03F8011D86
:10024000521EF9D210BD40EA01039B0703D009E01A
:1002500008C9121F08C0042AFAD203E011F8013BB2
:1002600000F8013B521EF9D210BDD2B201E000F8F5
:10027000012B491EFBD270470022F6E710B513464A
:100280000A4604461946FFF7F0FF204610BD00005D
:100290007CB507480090074801900546009C04E0A3
:1002A0002046016808448047241DAC42F8D17CBD3B
:1002B000B8290108C42901080B460146184600F078
:1002C0007CBA2DE9FE4F804681EA0300C00F0C4640
:1002D000009021F0004123F00045B8EB0200A94155
:1002E00005D24046214690461C460B46024623F066
:1002F0000040104347D0270DC7F30A00C3F30A514B
:100300000290401A019040286BDAC3F3130040F4C6
:10031000801B0098924620B10023D2EB030A63EBC6
:100320000B0B01985946C0F14002504600F002FA0A
:1003300006460D4650465946019A00F01AFA10EB4F
:1003400008006141002487EA115284EAE7731A43E6
:1003500040D0009A62B3019A012A4FEA075215DC95
:10036000001B61EB02014FF0004202EA0752CDE9A7
:100370000042001C41F5801132462B4600F07AFA0B
:1003800003B0BDE8F08F40462146F9E7001B61EB62
:100390000201001C41F5801300185B412018A2F5F2
:1003A000001747EB030140EAD570B6196D4111E023
:1003B0006D084FEA360645EAC0754FEA0752001B42
:1003C00061EB0201001C41F5801149084FEA300041
:1003D0000019514132462B4603B0BDE8F04F00F002
:1003E0003ABA0098012240000023D0EB020263EBEE
:1003F000E073009821464FEAE074B8EB000061EB2F
:100400000401E9E783F000435BE781F0004158E72E
:100410002DE9FE4F81EA030404F0004421F000417D
:1004200000944FF0000B23F0004350EA01045ED02B
:1004300052EA03045BD0C3F30A54C1F30A552C44B7
:10044000A4F2F3340194A0FB0254C1F3130141F46C
:100450008011C3F3130343F4801301FB024400FB38
:10046000034E840A970A44EA815447EA8357A4FB5F
:10047000076802958D0A05FB07854FEA932C04FB5C
:100480000C542705029D4FEA065847EA1637B5EB8C
:1004900008056EEB070C870E920E47EA811742EAB9
:1004A0008312A7FB0201B6EB0B0164EB00042B0DDA
:1004B00043EA0C335E1844EB1C50DA465146E7FB26
:1004C0000201C5F313044FEA0B3343EA14534FEA16
:1004D0000432019C43EA0603A4F10C040294009C3C
:1004E000CDE900B400F0C6F903B0BDE8F08F0020FC
:1004F0000146F9E72DE9F04D81EA030404F0004BD1
:1005000021F0004514464FF0000A23F0004150EA64
:10051000050220D054EA01021DD0C5F30A57024655
:10052000C5F31303C1F31300C1F30A5640F4801559
:1005300043F48013A7EB0608101BD64608F2FD38DB
:1005400073EB050002D308F1010801E092185B414A
:10055000B8F1000F03DA00200146BDE8F08D00205D
:100560004FF48011064684460EE0171B73EB050717
:1005700005D3121B63EB050306434CEA010C490843
:100580004FEA300092185B4150EA0107EDD152EA80
:10059000030012D082EA040083EA0501084305D073
:1005A000101BAB4106D20122002306E000224FF0CF
:1005B000004302E06FF0010253101AEB06004CEB0F
:1005C000085110EB0A0041EB0B01BDE8F04D00F0C3
:1005D00042B930B5041E71F1000404DB4FF0004451
:1005E000404264EB0101141E73F1000405DB1C465C
:1005F0004FF00043524263EB0403801A994101D348
:10060000012030BD002030BD30B5041E71F1000462
:1006100004DB4FF00044404264EB0101141E73F10F
:10062000000405DB1C464FF00043524263EB040319
:10063000101A8B4101D3012030BD002030BD30B5F0
:10064000041E71F1000404DB4FF00044404264EBEF
:100650000101141E73F1000405DB1C464FF000433A
:10066000524263EB040342404B401A4301D0002046
:1006700030BD012030BD0EB5C10F80EAE0700844E6
:10068000CA07002140F233438DE80E000A460B46AC
:1006900000F0F0F803B000BD70B5C1F30A5201F0EC
:1006A00000450024C1F3130140F2FF3341F48011EF
:1006B0009A4201DA002070BD40F233439A42A2F21E
:1006C000334203DC524200F044F800E090402C43F7
:1006D000F1D0404270BD00F0004230F000400AD03E
:1006E000C10D01F56071C0F3160042EA0151C20864
:1006F00040071143704700200146704701F0004356
:1007000030B421F0004150EA010206D00A0DA2F5F2
:100710006072C1F31301002A02DC30BC0020704774
:10072000440F44EAC104C100E01830BC00EBC250E1
:1007300000F05AB8202A04DB203A00FA02F1002027
:1007400070479140C2F1200320FA03F3194390400F
:100750007047202A04DB203A21FA02F0002170477A
:1007600021FA02F3D040C2F1200291400843194619
:100770007047202A06DBCB17203A41FA02F043EA01
:10078000E07306E041FA02F3D040C2F1200291404A
:1007900008431946704710B50446481E014201D16E
:1007A000042901D2052010BD104611F0C1F810B186
:1007B0002060002010BD062010BD2DE9F041074645
:1007C00015460E46102011F0D3F904000AD06760D8
:1007D000C4E9026500F0CAF80168216004600020E5
:1007E000BDE8F0810120FBE70029A8BF7047401C4D
:1007F000490008BF20F00100704710B4B0FA80FC37
:1008000000FA0CF050EA010404BF10BC704749B173
:10081000CCF1200421FA04F411FA0CF118BF0121E3
:1008200021430843A3EB0C01CB1D4FEA00614FEAC3
:10083000102042BF002010BC704700EBC350104492
:100840000029A4BF10BC7047401C490008BF20F01D
:10085000010010BC704710B5141E73F1000408DAD3
:10086000401C41F1000192185B411A4301D120F074
:10087000010010BD2DE9F04D92469B4611B1B1FA31
:1008800081F202E0B0FA80F220329046FFF752FF88
:1008900004460F4640EA0A0041EA0B0153465A4615
:1008A000084313D0114653EA010019D0C8F14002A1
:1008B0005046FFF74EFF05460E4650465946424603
:1008C000FFF738FF084305D0012004E020463946F1
:1008D000BDE8F08D0020054346EAE0762C4337431F
:1008E0000A986305E40AA0EB08000022FD0A44EA26
:1008F00047540A3002D500200146E9E701051019E6
:100900006941DDE9084500196941BDE8F04DA2E7FC
:100910001CB509480090094801900546009C06E076
:10092000E06840F0010394E8070098471034AC42B7
:10093000F6D3FFF72DFC000098290108B82901081B
:1009400030B50B46014600202022012409E021FA9F
:1009500002F59D4205D303FA02F5491B04FA02F59C
:100960002844151EA2F10102F1DC30BD0048704799
:10097000100000202DE9F0410646FFF7F7FF804602
:10098000454613E016B1E068B0420ED120682860F9
:10099000D4E90101D8F800708847204611F018F812
:1009A000D8F80000B842EBD100E025462C68002CB6
:1009B000E8D1BDE8F081C1F30A52C1F3130140F25E
:1009C000FF3341F480119A4202DA00200146704759
:1009D00040F233439A42A2F2334202DC5242FFF722
:1009E000B8BEFFF7A7BE000030B5041E71F10004C9
:1009F00004DB4FF00044404264EB0101141E73F12C
:100A0000000405DB1C464FF00043524263EB040335
:100A1000994208BF904230BD704770B58C1810F8ED
:100A2000015B15F0070301D110F8013B2A1106D133
:100A300010F8012B03E010F8016B01F8016B5B1E4D
:100A4000F9D12B0705D40023521E0DD401F8013B28
:100A5000FAE710F8013BCB1A921C03E013F8015B94
:100A600001F8015B521EF9D5A142D8D3002070BD18
:100A7000FFE7FEE780B541F24C00C2F2000001F052
:100A80009DFE80BD80B541F24C00C2F2000001F035
:100A900095FE80BD80B541F27400C2F2000001F005
:100AA0008DFE80BD80B541F27400C2F2000001F0FD
:100AB00085FE80BD80B541F2FC00C2F2000002F06C
:100AC000E3FC80BD80B541F25C10C2F2000002F090
:100AD000DBFC80BD80B541F29C00C2F2000002F058
:100AE000D3FC80BD80B541F2BC10C2F2000002F020
:100AF000CBFC80BD82B001900198007810384AF696
:100B0000AB21CAF6AA21A0FB0110000900900099B0
:100B100042F20860C0F60100405C0199C865009887
:100B2000042807D3FFE701990868042262F309004B
:100B3000886506E00199086840F2FF3290438865B5
:100B4000FFE70198806D02B07047000086B0059005
:100B500000208DF813000598806A0390059880693D
:100B600010BBFFE70398029003281BD80299DFE827
:100B700001F0020D0218059890F82F00C00720B16F
:100B8000FFE701208DF81300FFE70CE00598C06A2D
:100B9000B0F1C07F04D1FFE701208DF81300FFE71B
:100BA00001E000E0FFE745E005988069B0F5005FEF
:100BB00025D1FFE70398019003281ED80199DFE8AB
:100BC00001F00206021101208DF8130016E00598CD
:100BD00090F82F00C00720B1FFE701208DF8130027
:100BE000FFE70BE00598C06AB0F1C07F04D1FFE7D2
:100BF00001208DF81300FFE700E0FFE719E00398FC
:100C00000090032804D3FFE70098032804D00EE0E7
:100C100001208DF813000BE0059890F82F00C00715
:100C200020B1FFE701208DF81300FFE700E0FFE7A8
:100C3000FFE7FFE79DF8130006B0704784B003900C
:100C400002910192009303980168086820F48020C3
:100C500008600098039909684860039880684028F4
:100C600009D1FFE701980399096888600298039900
:100C70000968C86008E002980399096888600198CB
:100C800003990968C860FFE704B070477047000027
:100C900072B6FFE7FEE7000080B5ACB00BF09EF93E
:100CA0000BF0C0FA2B900BF099F90BF0C5FA2A90D3
:100CB00040F26440C2F200000078BFF35F8FC007CB
:100CC00018BBFFE740F26440C2F200000FF083F966
:100CD000D8B1FFE72B9940F6F010C2F20000149053
:100CE000002209F081FB14994AF2BD40C0F60000D1
:100CF00040F20002C0F60002FFF7DEFA40F2644064
:100D0000C2F200000FF07DF9FFE740F26840C2F246
:100D100000000078BFF35F8FC00718BBFFE740F209
:100D20006840C2F200000FF056F9D8B1FFE72B99E6
:100D300040F6A020C2F200001390002209F0C8FB88
:100D400013994AF2A550C0F6000040F20002C0F626
:100D50000002FFF7B1FA40F26840C2F200000FF063
:100D600050F9FFE740F26C40C2F200000078BFF398
:100D70005F8FC00718BBFFE740F26C40C2F2000073
:100D80000FF029F9D8B1FFE72B9940F61830C2F2DD
:100D900000001290012209F0D7FF12994AF6DD50A7
:100DA000C0F6000040F20002C0F60002FFF784FA2D
:100DB00040F26C40C2F200000FF023F9FFE740F26E
:100DC0007040C2F200000078BFF35F8FC00770BBB5
:100DD000FFE740F27040C2F200000FF0FCF830B3C1
:100DE000FFE72B9901208DF8A60002208DF8A700BF
:100DF00068464FF40072026040F68830C2F200008C
:100E000011900DF1A6030AF097FA11994BF2D13027
:100E1000C0F6000040F20002C0F60002FFF74CFAF4
:100E200040F27040C2F200000FF0EBF8FFE740F62E
:100E3000D811C2F2000140F6F010C2F20000099091
:100E4000086040F6D411C2F2000140F6A020C2F2C0
:100E500000000A90086040F6E811C2F2000140F676
:100E60001830C2F200000B90086040F6EC11C2F29C
:100E7000000140F68830C2F200000F9008602B9805
:100E8000019025A802900DF089FC01980299026852
:100E9000D269904702980DF0B1FC2B98039020A8DE
:100EA00004900DF087FC039804990268D26990477A
:100EB00004980DF0A3FC2B9805901BA806900DF04C
:100EC00085FC059806990268D269904706980DF04E
:100ED00095FC2B98079016A808900DF083FC0798B6
:100EE00008990268D269904708980DF087FC40F293
:100EF0009840C2F2000008F0AFFA40F23850C2F257
:100F0000000008F0FBF80AF0B5FC0AF039FC40F6E6
:100F10001810C2F2000006F021FD06F061F906F09B
:100F20004DF84FF4FA7002F059FD099801210C9127
:100F300008F068FF0A20109002F050FD0998022185
:100F40000D9108F05FFF109802F048FD0A980C9987
:100F500008F030FC109802F041FD0B980C9909F054
:100F6000EFFB109802F03AFD0B980C9900220E92BC
:100F700009F09AFB109802F031FD0C990E9A0F9827
:100F800009F036FF0D990E9A0F9809F031FF0F986E
:100F900009F0B8FF109802F021FD2CB080BD0000D0
:100FA00080B5E6B040F61810C2F2000006F020FE50
:100FB00040F2F410C2F20000289000F1200140F24B
:100FC0009840C2F20000299005F0F4FD2899299874
:100FD0003430543105F0EEFD289929986830883175
:100FE00005F0E8FD299840F6D811C2F20001096821
:100FF00040F6D412C2F20002126808F06FFA40F212
:101000001C40C2F20000007800285ED1FFE702F029
:10101000E3FE6590659840F64841C2F20001096818
:10102000401AC82850D3FFE7659840F64841C2F2FD
:101030000001086040F6D810C2F20000006838B322
:10104000FFE740F6D810C2F20000006801210AF064
:101050005FFA48B9FFE740F6D810C2F20000006816
:10106000012108F0CFFEFFE740F6D810C2F20000E1
:10107000006802210AF04CFA48B9FFE740F6D810A0
:10108000C2F200000068022108F0BCFEFFE7FFE7A3
:1010900040F6D410C2F200000068A0B1FFE740F6AD
:1010A000D410C2F20000006801210AF09BF948B98F
:1010B000FFE740F6D410C2F200000068012108F0FA
:1010C00079FBFFE7FFE7FFE7FFE70AF0D3FB649058
:1010D00064980CF0D9F9639064980CF0DBF9629095
:1010E00064980AF009FC8DF887016398022806D1FC
:1010F000FFE7629901200229279004D0FFE79DF8BD
:1011000087012790FFE7279800F001008DF88601FE
:10111000639840F21C41C2F2000188706298C87066
:101120009DF8870100F001004870002048719DF88B
:101130008601C007002855D0FFE740F21C40C2F2EC
:101140000000007800284CD1FFE740F21C42C2F2B8
:1011500000020120107040F23001C2F2000191F84B
:101160003800907191F8A400D07191F810011072BC
:10117000002081F8380081F8A40081F8100140F6C1
:10118000D810C2F20000006878B1FFE740F6D8102E
:10119000C2F2000026900068012108F05DFE26984A
:1011A0000068022108F058FEFFE740F6D410C2F2B2
:1011B0000000006848B1FFE740F6D410C2F200001A
:1011C0000068012108F020FBFFE740F2B021C2F2E5
:1011D00000010320887540F21C41C2F200014871F1
:1011E000FFE7DCE040F21C40C2F20000007800287B
:1011F00045D0FFE740F21C41C2F200010020087018
:1012000040F6D810C2F20000006878B1FFE740F65F
:10121000D810C2F2000025900068012108F0F2FD0C
:1012200025980068022108F0EDFDFFE740F6D41094
:10123000C2F20000006848B1FFE740F6D410C2F2E5
:1012400000000068012108F0B5FAFFE740F21C41F8
:10125000C2F20001887940F23002C2F2000282F844
:101260003800C87982F8A400087A82F8100140F2A8
:10127000B022C2F200020420907548718EE063989B
:101280008DF885019DF8850140F21C41C2F20001F4
:101290000979884200F08180FFE740F23C40C2F2C9
:1012A0000000007805280CD1FFE740F2B021C2F21F
:1012B00000010420887540F21C41C2F2000148710F
:1012C0006AE09DF88501012805D0FFE79DF88501BA
:1012D000032858D1FFE70BF0F1FD0CF0ADF9609059
:1012E00060980138B0FA80F040098DF87F019DF8D0
:1012F0007F01C00710B3FFE740F23850C2F2000090
:1013000090F80801D0B9FFE740F23850C2F200006F
:10131000249090EDEA0A07F043FB249840F2300154
:10132000C2F2000101220A77D0F8A803086040F257
:10133000DC11C2F2000100200875FFE79DF885016D
:1013400001280CD1FFE740F2B021C2F200010120D8
:10135000887540F21C41C2F2000148710BE040F276
:10136000B021C2F200010220887540F21C41C2F295
:1013700000014871FFE79DF8850140F21C41C2F26F
:101380000001087107E09DF8850140F21C41C2F29E
:1013900000010871FFE7FFE7FFE7FFE7FFE740F223
:1013A0003C40C2F200006946086040F6F000C2F21C
:1013B000000040F29841C2F2000140F23002C2F255
:1013C000000240F2B023C2F200030AF089FB05F0EC
:1013D00007FF05F075FD00208DF87E0140F2C82062
:1013E000C2F20000807E002800F08080FFE740F21B
:1013F000C820C2F20000007C002877D0FFE740F64A
:101400004440C2F20000007800286FD1FFE740F6A8
:101410004441C2F20001012008708DF87E0140F2C3
:101420009840C2F2000034300BF064FEA0B1FFE738
:1014300040F23850C2F2000090F8AC0360B1FFE710
:1014400040F23850C2F20000D0F8B00340F2300150
:10145000C2F20001C86617E040F29840C2F20000F4
:1014600034300BF047FE70B1FFE740F29840C2F213
:10147000000034300BF00EFE40F23000C2F20000EB
:1014800080ED1B0AFFE7FFE740F29840C2F2000040
:101490000BF030FE48B3FFE740F2DC10C2F2000070
:1014A000007D012815D1FFE740F23850C2F200005C
:1014B00090EDEA0A07F074FA40F23001C2F200013E
:1014C0000120087740F2DC11C2F20001002008750B
:1014D000FFE740F23850C2F20000D0F8A80340F213
:1014E0003001C2F200010860FFE71EE040F2C820B0
:1014F000C2F20000807E38B1FFE740F2C820C2F29D
:101500000000007C80B9FFE740F64440C2F20000D2
:10151000007848B1FFE740F64441C2F200010020E4
:1015200008708DF87E01FFE7FFE740F21C40C2F231
:101530000000007848B9FFE740F23C40C2F20000EA
:1015400000780AF01DFD08B1FFE745E140F6444090
:10155000C2F200000078002800F08380FFE79DF8C9
:101560007E0100287CD1FFE740F29840C2F20000E3
:1015700034300BF0BFFD002872D0FFE740F2C820E6
:10158000C2F2000090ED000A9FEDD01A20EE010A91
:101590008DED5E0A40F23850C2F2000090F8AC03C4
:1015A00058B3FFE747F20720C3F613705D9046F289
:1015B000F360CBF6DF605C909DED5E0A9FEDC41A90
:1015C000B4EE410AF1EE10FA06DDFFE747F207201C
:1015D000C3F613705E90FFE79DED5E0A9FEDBD1AA6
:1015E000B4EE410AF1EE10FA06DAFFE746F2F360D4
:1015F000CBF6DF605E90FFE72BE040F29840C2F24E
:10160000000034300BF080FD5B905B98007CF8B9F3
:10161000FFE79DED5E0A5B9890ED021AB4EE410A79
:10162000F1EE10FA04DDFFE75B9880685E90FFE75B
:101630009DED5E0A5B9890ED011AB4EE410AF1EE61
:1016400010FA04DAFFE75B9840685E90FFE7FFE777
:10165000FFE75E9840F23001C2F20001C866FFE782
:10166000B9E00AF007F95A905A980BF031FF51ECA3
:10167000100BFFF743F859904CF6CD40C3F64C5091
:1016800058909DED590A9FED941AB4EE410AF1EE7F
:1016900010FA0DDDFFE79DED590A9FED901AB4EEAB
:1016A000410AF1EE10FA03DAFFE700205990FFE754
:1016B00043F23330C4F2330057909DED590A9FED49
:1016C000881A20EE010A8DED560A41F26F20C3F60A
:1016D0008320559040F29840C2F2000034300BF065
:1016E00009FD002876D0FFE740F23000C2F200008A
:1016F00090ED1B1A9DED560A9FED7A2A20EE020A04
:1017000030EE010A8DED540A40F23850C2F200006A
:1017100090F8AC0358B3FFE747F20720C3F6137005
:10172000539046F2F360CBF6DF6052909DED540A81
:101730009FED671AB4EE410AF1EE10FA06DDFFE7FD
:1017400047F20720C3F613705490FFE79DED540A4B
:101750009FED601AB4EE410AF1EE10FA06DAFFE7E7
:1017600046F2F360CBF6DF605490FFE72BE040F2E7
:101770009840C2F2000034300BF0C6FC51905198F2
:10178000007CF8B9FFE79DED540A519890ED021ADC
:10179000B4EE410AF1EE10FA04DDFFE751988068DB
:1017A0005490FFE79DED540A519890ED011AB4EE64
:1017B000410AF1EE10FA04DAFFE7519840685490BC
:1017C000FFE7FFE7FFE7549840F23001C2F2000163
:1017D000C866FFE7FFE7FFE740F21C40C2F20000E7
:1017E000007848B9FFE740F23C40C2F200000078C0
:1017F0000AF0C6FB08B1FFE781E140F64440C2F2BF
:101800000000007820B3FFE79DF87E01F8B9FFE7FC
:1018100040F29840C2F200000BF06CFCB8B1FFE758
:1018200040F2C820C2F2000090ED010A90ED081AC3
:1018300030EE410A9FED2C1A20EE010A8DED500A80
:10184000509840F23001C2F200010860FFE755E114
:101850000AF010F84F900BF031FB0BF0EDFE4E90BC
:101860004E980138B0FA80F040098DF83701002019
:101870004C9040F23850C2F2000090F8AC0398B19E
:10188000FFE740F61810C2F200000BF0AFFB9FED2F
:10189000171A20EE010A8DED4C0A4C9840F2DC112B
:1018A000C2F200014860FFE79DF8370100F0010037
:1018B00040F64641C2F200010978884253D0FFE762
:1018C0009DF83701C00750B314E000BF35FA8E3CD5
:1018D0000772133FF366DFBECDCC4CBDCDCC4C3D83
:1018E000333333406F12833A35FA8EBC03FA8EBC21
:1018F000000000009DED4C0A40F23850C2F200009A
:1019000007F068F840F2DC11C2F20001012008750E
:1019100040F23001C2F200010020087719E040F2E5
:101920003850C2F20000239090EDEA0A07F038F830
:10193000239840F2DC12C2F200020021117540F23D
:101940003001C2F2000101220A77D0F8A803086032
:10195000FFE79DF8370100F0010040F64641C2F272
:1019600000010870FFE74F980BF0AAFD51EC100B37
:10197000FEF7C4FE4B904CF6CD40C3F64C504A9057
:101980009DED4B0A1FED2C1AB4EE410AF1EE10FA50
:101990000DDDFFE79DED4B0A1FED301AB4EE410A55
:1019A000F1EE10FA03DAFFE700204B90FFE743F275
:1019B0003330C4F2330049909DED4B0A1FED381AC5
:1019C00020EE010A8DED480A40F29840C2F2000074
:1019D0000BF090FB002800F09080FFE79DF83701A6
:1019E000C007002872D0FFE7489840F2DC11C2F22D
:1019F000000108608868CA68189209691A91FEF7A0
:101A00006AFE0246189819920A46199942EC101B70
:101A10008DED1C0BFEF75FFE02461A981B920A46DC
:101A20001B9942EC101B8DED1E0BFEF754FE9DED35
:101A30001C0B9DED1E1B41EC120B42A80AF038FF57
:101A40009DED480ADDED4C0A42984399449A459B26
:101A5000DDF818C1DDF81CE1CDF8FCE0CDF8F8C0E8
:101A60003D933C923B913A909DED3A1B9DED3C2B72
:101A70009DED3E3B40F23850C2F2000006F00CFFF4
:101A80008DED410A40F6D810C2F2000000682290A5
:101A90009DED410A8DED210A40F29840C2F200000E
:101AA0000BF032FB9DED210A0146229891ED031ABD
:101AB00020EE012A01215FED721AB0EE610AF0EE0C
:101AC000610AB0EE611A08F011FB15E041F26F20D7
:101AD000C3F6832039909DED480A40F23000C2F2EF
:101AE000000090ED001A1FED812A20EE020A30EE70
:101AF000010A80ED000AFFE7FFE7FFE7FFE70BF0D1
:101B0000DDF90BF035F940F23C40C2F200000078FC
:101B10000AF036FA8DF8E30040F2DC10C2F2000061
:101B2000007D28B1FFE79DF8E300C00758B1FFE74B
:101B300040F23000C2F2000040F23851C2F200011F
:101B400005F0BAF8FFE740F23000C2F2000016904C
:101B50006C3040F23851C2F20001179101F59C71CE
:101B600005F0AAF816981799D83001F51C7105F000
:101B7000A3F840F61810C2F200000BF04BFA014631
:101B80001798002918BF012180F8AC1390F8AC0316
:101B9000F8B1FFE740F61810C2F2000013900BF006
:101BA00041FA13981FEDB71A8DED141A20EE410A71
:101BB00040F23851C2F20001159181EDEA0A0BF0B2
:101BC0001FFA9DED141A159820EE010A80EDEC0A1B
:101BD000FFE740F6D810C2F20000026840F6D410C9
:101BE000C2F20000036840F23850C2F200000D90CB
:101BF00040F29841C2F200010A9107F0E9FA0A980E
:101C000040F2F411C2F20001099104F08BFF09992E
:101C10000A9834300B90343104F084FF09990A9803
:101C200068300C90683104F07DFF0A9A0D9840F2FC
:101C30003001C2F200010E9104F0F8FF0B9A0D98EA
:101C40000E9900F59C706C310F9104F0EFFF0C9A27
:101C50000D980E9900F51C70D83104F0E7FF0D982F
:101C60000E990F9A04F04CFF09F004FE3790379854
:101C70000BF016FC51EC100BFEF740FD40F210315A
:101C8000C2F200011091086037980BF011FC51EC82
:101C9000100BFEF733FD1099486037980BF010FCDD
:101CA00051EC100BFEF72AFD1099886037980BF065
:101CB0000FFC51EC100BFEF721FD1099C86037980E
:101CC0000BF0E2FB1099087437980BF0E3FB1099C6
:101CD000487437980BF0C6FB8DED320B8DED341B3D
:101CE0009DED320B51EC100BFEF708FD1099486189
:101CF00037980BF0B7FB8DED2E0B8DED301B9DED66
:101D0000300B51EC100BFEF7F9FC109988613798F5
:101D10000BF0E6FB10998DF8B7009DF8B70000F0C6
:101D20000100087737980BF0DBFB10998DF8B600AF
:101D30009DF8B600C0F34000487737980BF062FB7F
:101D40001099ADF8B4009DF8B40000F00100887758
:101D50009DF8B400C0F34000C8779DF8B400C0F30C
:101D6000800081F820009DF8B400C0F3C00081F825
:101D700021009DF8B400C0F3001081F822009DF806
:101D8000B400C0F3401081F823009DF8B400C0F304
:101D9000801081F824009DF8B400C00981F8250066
:101DA0009DF8B50000F0010081F826009DF8B5000F
:101DB000C0F3400081F827009DF8B500C0F3800013
:101DC00081F828009DF8B500C0F3C00081F8290013
:101DD0009DF8B500C0F3001081F82A009DF8B50009
:101DE000C0F3401081F82B009DF8B500C0F38010BF
:101DF00081F82C009DF8B500C00981F82D003798B6
:101E00000BF07AFB51EC100BFEF778FC109908638D
:101E1000379809F071FD109980F0010081F83400C5
:101E200040F61810C2F2000011900BF099F81198CA
:101E300040F2BC31C2F20001129181ED000A0BF0B8
:101E4000DFF81198129981ED010A0BF0B1F81198A1
:101E5000129981ED020A0BF0B5F81198129981EDF3
:101E6000030A0BF0B9F81198129981ED040A0BF0EE
:101E7000BDF81198129981ED050A0BF07BF81198C5
:101E8000129981ED060A0BF07FF81198129981EDF5
:101E9000070A0BF083F81198129981ED080A0BF0EC
:101EA000C9F81198129981ED090A0BF0CDF8119833
:101EB000129981ED0A0A0BF0D1F81198129981ED6F
:101EC0000B0A0BF0D5F81198129981ED0C0A0BF062
:101ED000A9F81198129981ED0D0A0BF039F8129AB0
:101EE0000146119882F838100BF094F8129981F895
:101EF000390040F6E810C2F200000068002858D00F
:101F0000FFE740F6E810C2F20000079000680121E8
:101F100006910BF067F90798069940F2FC32C2F27D
:101F20000002089282ED000A00680BF09FF9079802
:101F30000699089A82ED010A00680BF0B9F9079832
:101F40000699089A82ED020A00680BF06DF907986D
:101F50000699089A82ED030A00680BF0F1F80699D9
:101F6000089B024607982C922C9AD2881A822C9AA7
:101F700092885A822C9A52889A822C9A12789A7550
:101F800000680BF0CFF80699089B024607982B9241
:101F90002B9A52881A832B9A12799A762B9A527915
:101FA00002F00102DA76006809F01CFA0899087755
:101FB000FFE740F6EC10C2F200000068002860D095
:101FC000FFE740F6EC10C2F2000000682A902A9861
:101FD000012103910BF08EF9039940F28430C2F293
:101FE0000000059080ED000A2A980BF0D3F80399C1
:101FF000059880ED010A2A980BF0C0F9039905981D
:1020000080ED020A2A980BF0DBF90399059880ED20
:10201000030A2A980BF090F90399059880ED040AB9
:102020002A9809F075FA059908752A9802210491F1
:102030000BF060F90499059880ED060A2A980BF0D8
:10204000A9F80499059880ED070A2A980BF096F9EB
:102050000499059880ED080A2A980BF0B1F90499C3
:10206000059880ED090A2A980BF066F904990598FD
:1020700080ED0A0A2A9809F04BFA059981F82C009C
:10208000FFE740F64540C2F20000017801310170DF
:10209000007805280BDBFFE740F64541C2F200015E
:1020A0000020087005F09CF804F096FFFFE740F26E
:1020B0007440C2F200000078BFF35F8FC007B0B970
:1020C000FFE740F27440C2F200000DF084FF70B1EF
:1020D000FFE70AF04BFD40F64041C2F20001086004
:1020E00040F27440C2F200000DF08BFFFFE740F6B3
:1020F0004040C2F20000029000680AF0AFFC029873
:1021000000680AF059FD66B080BD000084B00290FE
:102110000191029890F820008DF803009DF80300CB
:10212000012805D0FFE79DF8030002280AD1FFE748
:10213000019A0298016848691043486100208DF8AF
:102140000F0008E00299486A40F4802048620120AC
:102150008DF80F00FFE79DF80F0004B070470000F6
:1021600088B00690059104920393069890F8200099
:102170008DF80700069800688068009005988068D0
:1021800008B9FFE700E0FFE79DF80700012806D047
:10219000FFE79DF80700022840F08080FFE79DF8E8
:1021A0000300400700280CD4FFE79DF80300000758
:1021B000002806D4FFE79DF80300C006002864D578
:1021C000FFE70098C0F30160029002990120884067
:1021D000039908600598806868B9FFE70598016869
:1021E000C06840EA415006990968029A01EB021161
:1021F000C1F880010EE005994A688868C96840EA1C
:10220000C200084306990968029A01EB0211C1F85D
:102210008001FFE70598006906990968029A01EBB9
:102220000211C1F884010598007D01280CD1FFE757
:1022300006980068029900EB0111D1F8840140F47E
:102240008070C1F88401FFE7049840680699096826
:10225000029A01EB0211C1F88C01049800680699FA
:102260000968029A01EB0211C1F88801069800681A
:10227000029900EB0111D1F8800140F00100C1F892
:10228000800100208DF81F0011E00699486A40F493
:102290000010486201208DF81F0008E00699486A86
:1022A00040F48020486201208DF81F00FFE79DF870
:1022B0001F0008B07047000086B004900391049896
:1022C00090F820008DF803009DF80300012806D047
:1022D000FFE79DF80300022840F0B080FFE746F2D8
:1022E0000040C4F2000001900199D1F8000240F0D2
:1022F0000100C1F800020199D1F8000220F47C50DD
:10230000C1F800020398426A0199D1F8000240EA3C
:102310000220C1F800020398406900F01F0101206B
:1023200088400290029A0199D1F81C029043C1F8AA
:102330001C020398C069F0B9FFE7029A0199D1F82D
:102340000C029043C1F80C02039A9088D16852693C
:1023500040EA0140019901EBC201C1F84002039A31
:1023600010889168526940EA0140019901EBC2016D
:10237000C1F84402FFE70398C06901281ED1FFE7B6
:10238000029A0199D1F80C021043C1F80C02039A89
:1023900090881168526940EA0140019901EBC2013D
:1023A000C1F84002039A90899168526940EA01405D
:1023B000019901EBC201C1F84402FFE7039880696B
:1023C00040B9FFE7029A0199D1F804029043C1F89D
:1023D000040207E0029A0199D1F804021043C1F8FF
:1023E0000402FFE70398006940B9FFE7029A0199E8
:1023F000D1F814029043C1F8140207E0029A01993F
:10240000D1F814021043C1F81402FFE70398006AE0
:10241000012808D1FFE7029A0199D1F81C02104364
:10242000C1F81C02FFE70199D1F8000220F0010079
:10243000C1F8000200208DF8170008E00499486AEE
:1024400040F48020486201208DF81700FFE79DF8D6
:10245000170006B07047000080B582B00190019867
:10246000006846F20041C4F20001884201D0FFE753
:1024700030E0019800F030F8009040F6FC71C2F2B4
:102480000001086801300860009841F20001C2F2C2
:10249000000108609DF801008007002808D5FFE7CB
:1024A00041F20C01C2F20001086801300860FFE748
:1024B0009DF800004007002808D5FFE740F6F871B6
:1024C000C2F20001086801300860FFE701990020AE
:1024D0004862FFE702B080BD81B000900098406A7A
:1024E00001B0704784B003900291002001900398DE
:1024F00090F820008DF803009DF80300012805D016
:10250000FFE79DF80300022812D1FFE7029838B9CF
:10251000FFE703980068C06800F00300019006E040
:1025200003980068006900F003000190FFE7FFE7EF
:10253000019804B07047000086B0049003910292A5
:102540000193049890F820008DF803009DF8030093
:10255000012806D0FFE79DF80300022840F0E8803C
:10256000FFE7039880B9FFE704980068C068800718
:1025700048B9FFE70499486A40F400104862012016
:102580008DF81700DDE00FE004980068006980070F
:1025900048B9FFE70499486A40F4001048620120F6
:1025A0008DF81700CDE0FFE704980068039900EB71
:1025B0000110D0F8B00100F0040002998860029880
:1025C000806858B9FFE704980068039900EB011090
:1025D000D0F8B001400D029908600AE00498006844
:1025E000039900EB0110D0F8B001C00802994860CF
:1025F000FFE704980068039900EB0110D0F8B001E0
:1026000000F002000299C86004980068039900EB8A
:102610000110D0F8B40100F00F00082804D3FFE740
:102620000299082008610BE004980068039900EB08
:102630000110D0F8B40100F00F0002990861FFE723
:1026400004980068039900EB0110D0F8B40180B23F
:10265000000A0299886104980068039900EB011050
:10266000D0F8B401000C02994861049800680399FD
:1026700000EB0110D0F8B8010199087004980068C7
:10268000039900EB0110D0F8B801000A01994870D5
:1026900004980068039900EB0110D0F8B801000C11
:1026A0000199887004980068039900EB0110D0F834
:1026B000B801000E0199C87004980068039900EBF6
:1026C0000110D0F8BC0101990871049800680399C1
:1026D00000EB0110D0F8BC01000A01994871049880
:1026E0000068039900EB0110D0F8BC01000C0199BF
:1026F000887104980068039900EB0110D0F8BC01C0
:10270000000E0199C871039838B9FFE70498016871
:10271000C86840F02000C86006E0049801680869B5
:1027200040F020000861FFE700208DF8170008E066
:102730000499486A40F48020486201208DF817000F
:10274000FFE79DF8170006B07047000083B00290C5
:1027500000200190029890F820008DF803009DF869
:102760000300012805D0FFE79DF80300022822D1CD
:10277000FFE70298006880684001002804D5FFE761
:10278000019801300190FFE702980068806800011D
:10279000002804D5FFE7019801300190FFE7029877
:1027A00000688068C000002804D5FFE70198013068
:1027B0000190FFE7FFE7019803B0704780B58AB04A
:1027C00009900020089009980068406907900998CE
:1027D000006840680690099800688068059009982C
:1027E0000068C0680490099800680069039009981F
:1027F0000068806902909DF81C00C007002800F066
:102800009480FFE79DF81400C00758B3FFE70998CC
:102810000168012088609DF814008007002804D515
:10282000FFE7099800F07AFD1BE09DF814004007CF
:10283000002805D5FFE7089840F4006008900FE0F5
:102840009DF814000007002805D5FFE7089840F41C
:102850008050089003E0099800F05CFDFFE7FFE777
:10286000FFE7FFE79DF81500C00760B3FFE7099891
:1028700001684FF4807088609DF81500800700287B
:1028800004D5FFE7099800F051FD1BE09DF8150005
:102890004007002805D5FFE7089840F4005008904D
:1028A0000FE09DF815000007002805D5FFE7089800
:1028B00040F48040089003E0099800F033FDFFE702
:1028C000FFE7FFE7FFE79DF81600C00760B3FFE7EB
:1028D000099801684FF4803088609DF816008007E1
:1028E000002804D5FFE7099800F028FD1BE09DF8BB
:1028F00016004007002805D5FFE7089840F400407F
:1029000008900FE09DF816000007002805D5FFE7A6
:10291000089840F48030089003E0099800F00AFD20
:10292000FFE7FFE7FFE7FFE7FFE79DF81C00000771
:10293000002810D5FFE79DF81000C006002809D533
:10294000FFE7089840F4007008900998016810208B
:10295000C860FFE7FFE79DF81C00400700280FD57F
:10296000FFE79DF810000007002808D5FFE7099849
:1029700001680820C860099800F0E0FAFFE7FFE767
:102980009DF81C00800700280BD5FFE70998006818
:10299000C068800720B1FFE7099800F0E5FAFFE77B
:1029A000FFE79DF81C004006002810D5FFE79DF8C2
:1029B0000C00C006002809D5FFE7089840F48060A5
:1029C00008900998016810200861FFE7FFE79DF86B
:1029D0001C00800600280FD5FFE79DF80C000007BB
:1029E000002808D5FFE709980168082008610998C0
:1029F00000F098FBFFE7FFE79DF81C00C0060028E9
:102A00000BD5FFE7099800680069800720B1FFE750
:102A1000099800F08BFBFFE7FFE79DF81E00800799
:102A200000280FD5FFE79DF81800C006002808D53C
:102A3000FFE70998016810204860099800F020FC21
:102A4000FFE7FFE79DF81E00C00778B1FFE79DF89C
:102A500018000007002808D5FFE70998016808203A
:102A60004860099800F06EFCFFE7FFE79DF81D0045
:102A70000006002840F18D80FFE79DF81800400710
:102A8000002840F18180FFE79DF81D00C00750B18C
:102A9000FFE79DF80800C00728B1FFE7089840F05D
:102AA00001000890FFE79DF81D00800700280BD566
:102AB000FFE79DF808008007002805D5FFE7089884
:102AC00040F002000890FFE79DF81D004007002835
:102AD0000BD5FFE79DF808004007002805D5FFE764
:102AE000089840F004000890FFE79DF81D000007DB
:102AF000002848D5FFE79DF8080010F0700F42D07D
:102B0000FFE7029800F0700001460191102814D0F0
:102B1000FFE70198202815D0FFE70198302816D04C
:102B2000FFE70198402817D0FFE70198502818D0F8
:102B3000FFE70198602819D01DE0089840F00800D0
:102B4000089019E0089840F01000089014E00898E8
:102B500040F0200008900FE0089840F040000890F6
:102B60000AE0089840F08000089005E0089840F4DA
:102B70008070089000E0FFE709980168886920F0FC
:102B800070008861FFE7FFE709980168042048604A
:102B9000FFE7089848B1FFE7089A0999486A104387
:102BA00048620998FFF758FCFFE70AB080BD0000B3
:102BB00080B584B00290029820B9FFE701208DF81B
:102BC0000F00E0E0029890F8200020B9FFE702989B
:102BD00000F0DEF8FFE702980168086840F00100A5
:102BE000086001F0F9F80190FFE70298006840687A
:102BF000C007A8B9FFE701F0EFF80199401A0B28C8
:102C00000DD3FFE70299486A40F400304862029908
:102C1000052081F8200001208DF80F00B3E0E4E7E3
:102C200002980168086820F00200086001F0D4F8FA
:102C30000190FFE70298006840688007002815D5DA
:102C4000FFE701F0C9F80199401A0B280DD3FFE7FF
:102C50000299486A40F4003048620299052081F8E0
:102C6000200001208DF80F008DE0E3E70298007E40
:102C7000012807D1FFE702980168086840F080004A
:102C8000086006E002980168086820F0800008608B
:102C9000FFE70298407E012807D1FFE7029801680C
:102CA000086840F04000086006E002980168086883
:102CB00020F040000860FFE70298807E012807D1DD
:102CC000FFE702980168086840F02000086006E00D
:102CD00002980168086820F020000860FFE7029869
:102CE000C07E012807D1FFE702980168086820F03C
:102CF0001000086006E002980168086840F01000C3
:102D00000860FFE70298007F012807D1FFE70298DB
:102D10000168086840F00800086006E00298016851
:102D2000086820F008000860FFE70298407F01284B
:102D300007D1FFE702980168086840F004000860C6
:102D400006E002980168086820F004000860FFE7C8
:102D5000029B19685A689868D3F80CC040EA0C00C6
:102D6000D3F810C040EA0C005B691843013A1043E5
:102D7000C861029900204862029A012182F820105D
:102D80008DF80F00FFE79DF80F0004B080BD000034
:102D900080B594B0139000201290119010900F9075
:102DA0000E901398006846F20041C4F20001884278
:102DB00053D1FFE740F2B830C2F2000001680131A0
:102DC00001600068012812D1FFE7FFE700200D90A5
:102DD00043F64000C4F20200016841F00071016056
:102DE000006800F000700D900D98FFE7FFE7FFE727
:102DF00000200C9043F63000C4F20200016841F05C
:102E000008010160006800F008000C900C98FFE7D2
:102E100003200E9002210F91002107911091119033
:102E20000920129040F60040C4F202000EA900F002
:102E3000F7FD079A142005900521069101F0AAF8E4
:102E4000059801F09DF80699079A1520089001F061
:102E5000A1F8089801F094F86EE01398006846F61F
:102E60000001C4F20001884265D1FFE7FFE70020BE
:102E70000B9043F64000C4F20200016841F080610B
:102E80000160006800F080600B900B98FFE740F253
:102E9000B830C2F200000168013101600068012809
:102EA00012D1FFE7FFE700200A9043F64000C4F28A
:102EB0000200016841F000710160006800F00070DC
:102EC0000A900A98FFE7FFE7FFE70020099043F622
:102ED0003000C4F20200016841F0020101600068A4
:102EE00000F0020009900998FFE760200E90022090
:102EF0000F90002003901090032011900920129051
:102F000040F20040C4F202000EA900F089FD039ACD
:102F1000402001900521029101F03CF8019801F058
:102F20002FF80299039A4120049001F033F8049895
:102F300001F026F8FFE7FFE714B080BD81B00090F4
:102F40000098006846F20041C4F20001884208D1AE
:102F5000FFE741F20801C2F2000108680130086091
:102F6000FFE701B07047000080B588B00790079870
:102F7000006846F20041C4F20001884240F0C4807B
:102F8000FFE740F27840C2F200000078BFF35F8FA5
:102F9000C007C0B9FFE740F27840C2F200000DF070
:102FA0001AF880B1FFE709F019F809F03BF940F68B
:102FB0004C41C2F20001086040F27840C2F20000C9
:102FC0000DF01FF8FFE7FFE740F64C40C2F20000AB
:102FD000006801684A6901A99047002800F09380C1
:102FE000FFE741F23401C2F20001086801300860D5
:102FF000039841F23001C2F2000108609DF8180008
:10300000C007E8B9FFE79DF81900C007C0B9FFE79E
:103010009DF81000082813D1FFE703980F280FD858
:10302000FFE79DF804100320B0EB111F08D1FFE764
:1030300041F20401C2F20001086801300860FFE7B4
:1030400003980090F0B1FFE70098012822D0FFE735
:103050000098022826D0FFE7009803282AD0FFE72F
:10306000009840F2411188422CD0FFE7009840F2CE
:10307000012188422ED0FFE7009840F202218842C9
:1030800030D037E041F21001C2F20001086801308F
:10309000086037E041F21401C2F200010868013013
:1030A00008602FE041F21801C2F200010868013007
:1030B000086027E041F21C01C2F2000108680130FB
:1030C00008601FE041F22001C2F2000108680130EF
:1030D000086017E041F22401C2F2000108680130E3
:1030E00008600FE041F22801C2F2000108680130D7
:1030F000086007E041F22C01C2F2000108680130CB
:103100000860FFE760E70AE00798006846F60001FC
:10311000C4F20001884201D1FFE7FFE7FFE708B0F2
:1031200080BD000081B0009001B0704780B588B0CC
:1031300007900798006846F60001C4F20001884233
:1031400040F09C80FFE740F28040C2F2000000782F
:10315000BFF35F8FC007C0B9FFE740F28040C2F203
:1031600000000CF038FF80B1FFE708F037FF09F0EE
:1031700063F840F65441C2F20001086040F280401A
:10318000C2F200000CF03DFFFFE740F27C40C2F2CB
:1031900000000078BFF35F8FC007B0B9FFE740F2CF
:1031A0007C40C2F200000CF016FF70B1FFE709F09E
:1031B000DDFC40F65041C2F20001086040F27C4064
:1031C000C2F200000CF01DFFFFE7FFE740F654409D
:1031D000C2F20000006801684A6901A9904700280E
:1031E0004BD0FFE741F24401C2F200010868013010
:1031F0000860039840F20121884206D0FFE7039857
:1032000040F20221884217D1FFE7039840F20121E2
:10321000884208D1FFE741F23801C2F20001086894
:103220000130086007E041F23C01C2F20001086889
:1032300001300860FFE71FE0039840F20721884251
:1032400005D0FFE70398B0F5027F0CD1FFE740F609
:103250005040C2F20000006803999DF8103001AAA6
:1032600009F03EFB07E041F24001C2F200010868AC
:1032700001300860FFE7FFE7A8E7FFE708B080BD7F
:1032800081B0009001B0704780B584B00290029880
:1032900090F8200001282FD1FFE70299022081F841
:1032A000200002980168086820F00100086000F022
:1032B00093FD0190FFE7029800684068C007A8B13D
:1032C000FFE700F089FD0199401A0B280DD3FFE7B5
:1032D0000299486A40F4003048620299052081F85A
:1032E000200001208DF80F000FE0E4E70299002094
:1032F00048628DF80F0008E00299486A40F4002007
:10330000486201208DF80F00FFE79DF80F0004B020
:1033100080BD000081B0009001B0704781B0009086
:1033200001B0704781B0009001B0704781B000904B
:1033300001B0704781B0009001B0704781B000903B
:1033400001B0704781B0009001B0704780B584B083
:1033500002900298806D019000F03EFD009002986E
:1033600090F8350002280DD0FFE7029980204865CB
:10337000FFE70299002081F83400FFE701208DF873
:103380000F0055E002980168086820F016000860F8
:1033900002980168486920F0800048610298006C3A
:1033A00020B9FFE70298806C38B1FFE70298016806
:1033B000086820F008000860FFE7029801680868C4
:1033C00020F001000860FFE7029800680068C0076D
:1033D000C8B1FFE700F000FD0099401A062811D39C
:1033E000FFE70299202048650299032081F8350003
:1033F000FFE70299002081F83400FFE703208DF8F1
:103400000F0015E0E0E70298C16D3F208840019968
:1034100088600299012081F83500FFE702990020B9
:1034200081F83400FFE7FFE700208DF80F00FFE789
:103430009DF80F0004B080BD82B00090009890F815
:103440003500022807D0FFE7009980204865012059
:103450008DF807000EE00099052081F835000098EE
:103460000168086820F001000860FFE700208DF87F
:103470000700FFE79DF8070002B0704781B0009099
:103480000098406D01B0704780B586B0059000206F
:10349000039040F2AC20C2F20000006848F2B5117F
:1034A000C1F64E31A0FB0110800A02900598806D94
:1034B000019001980068049004980599C96DC8406E
:1034C000000700281AD5FFE7059800680068400744
:1034D000002812D5FFE705980168086820F004006D
:1034E00008600598C16D0820884001998860059999
:1034F000486D40F001004865FFE7FFE70498059933
:10350000C96DC840C007A0B1FFE7059800684069D1
:10351000000600280CD5FFE70598C16D0120884002
:10352000019988600599486D40F002004865FFE701
:10353000FFE704980599C96DC8404007002814D5D5
:10354000FFE7059800680068800700280CD5FFE7B2
:103550000598C16D04208840019988600599486DDF
:1035600040F004004865FFE7FFE704980599C96D3E
:10357000C840C006002847D5FFE7059800680068E6
:10358000000700283FD5FFE70598C16D102088404F
:1035900001998860059800680068400300281AD5E2
:1035A000FFE70598006800680003002809D4FFE7DA
:1035B0000598006C20B1FFE70598016C8847FFE78C
:1035C00008E00598806C20B1FFE70598816C88477A
:1035D000FFE7FFE716E0059800680068C0050028CF
:1035E00007D4FFE705980168086820F00800086024
:1035F000FFE70598006C20B1FFE70598016C88474C
:10360000FFE7FFE7FFE7FFE704980599C96DC840AA
:103610008006002840F18D80FFE70598006800686B
:10362000C006002840F18480FFE70598C16D202086
:10363000884001998860059890F83500052834D1B4
:10364000FFE705980168086820F0160008600598F3
:103650000168486920F0800048610598006C20B935
:10366000FFE70598806C38B1FFE7059801680868A6
:1036700020F008000860FFE70598C16D3F208840F2
:10368000019988600599012081F83500FFE70599C7
:10369000002081F83400FFE70598006D20B1FFE7B6
:1036A0000598016D8847FFE77BE005980068006892
:1036B000400300281AD5FFE705980068006800035A
:1036C000002809D4FFE70598406C20B1FFE7059872
:1036D000416C8847FFE708E00598C06B20B1FFE721
:1036E0000598C16B8847FFE7FFE720E00598006871
:1036F0000068C005002811D4FFE705980168086834
:1037000020F0100008600599012081F83500FFE7DE
:103710000599002081F83400FFE7FFE70598C06BAA
:1037200020B1FFE70598C16B8847FFE7FFE7FFE798
:10373000FFE70598406DA0B3FFE70598406DC0070F
:1037400030B3FFE70599052081F835000598016839
:10375000086820F001000860FFE70398013003903B
:103760000299884201D9FFE707E0FFE70598006862
:103770000068C0070028F0D1FFE70599012081F813
:103780003500FFE70599002081F83400FFE7FFE7E7
:103790000598C06C20B1FFE70598C16C8847FFE72A
:1037A000FFE706B080BD000080B586B00490002021
:1037B000039000F011FB0290049820B9FFE701206C
:1037C0008DF81700A3E00498406A08B1FFE7FFE70F
:1037D0000499022081F83500FFE70499002081F860
:1037E0003400FFE704980168086820F001000860D1
:1037F000FFE7049800680068C00790B1FFE700F099
:10380000EBFA0299401A06280AD3FFE70499202010
:1038100048650499032081F835008DF8170076E09B
:10382000E7E70498006800680390039848F23F01B6
:10383000CFF2100108400390049900914868D1F834
:1038400008C0CB680A6940EA0C00184310434A6973
:1038500010438A691043CA691043096A01430398F7
:10386000084303900498406A042808D1FFE70499AC
:10387000C86A096B0143039808430390FFE7039864
:1038800004990968086004980068406903900398E7
:1038900020F0070003900498416A039808430390BE
:1038A0000498406A04281AD1FFE70498816A0398B3
:1038B000084303900498C06A80B1FFE70498FDF7BD
:1038C00045F950B1FFE7049940204865049901206B
:1038D00081F835008DF8170019E0FFE7FFE703983E
:1038E0000499096848610498FDF704F90190049867
:1038F000C16D3F2088400199886004990020486587
:10390000049A012182F835108DF81700FFE79DF821
:10391000170006B080BD000080B588B00690059104
:103920000492039300208DF80B000698806D01909F
:10393000FFE7069890F83400012804D1FFE7022041
:103940008DF81F0045E00699012081F83400FFE75B
:10395000FFE7069890F8350001282BD1FFE706997C
:10396000022081F8350006990020486506980599DF
:10397000049A039BFDF762F90698C16D3F208840C9
:103980000199886006980168086840F01600086090
:103990000698006C38B1FFE706980168086840F0A7
:1039A00008000860FFE706980168086840F0010019
:1039B000086009E0FFE70699002081F83400FFE77E
:1039C00002208DF80B00FFE79DF80B008DF81F001B
:1039D000FFE79DF81F0008B080BD000080B584B0EF
:1039E000039000F0F9F902900398019001980130DA
:1039F00048B1FFE740F2EC20C2F2000001780198E4
:103A000008440190FFE7FFE700F0E6F90299401A49
:103A10000199884201D2FFE7F6E704B080BD0000BB
:103A20008EB00D900C9100200A90099008900B9098
:103A3000FFE70B980F2800F2CC81FFE70B990120DC
:103A400088400A900C9800680A99084009900998E3
:103A50000A99884240F0B881FFE70C98406800F06E
:103A60000300012807D0FFE70C98406800F003002E
:103A700002282FD1FFE70D98806808900B9841002D
:103A8000032000FA01F10898884308900C98C06858
:103A90000B99490000FA01F108980843089008982A
:103AA0000D9988600D98406808900B99012000FAE4
:103AB00001F10898884308900C984068C0F3001002
:103AC0000B9900FA01F108980843089008980D999D
:103AD0004860FFE70C98406800F00300032818D006
:103AE000FFE70D98C06808900B984100032000FA8A
:103AF00001F10898884308900C9880680B99490058
:103B000000FA01F108980843089008980D99C860D8
:103B1000FFE70C98406800F00300022826D1FFE779
:103B20000D980B996FF0030202EA51010844006AF4
:103B300008900B9800F0070081000F2000FA01F1B7
:103B40000898884308900C9800690B9901F00701C8
:103B5000890000FA01F108980843089008980D9927
:103B60000B9B02EA530211440862FFE70D980068BC
:103B700008900B984100032000FA01F1089888434F
:103B800008900C98406800F003000B99490000FA77
:103B900001F108980843089008980D9908600C985E
:103BA00080798007002800F00E81FFE7FFE7002002
:103BB000079043F64400C4F20200016841F48041DA
:103BC0000160006800F4804007900798FFE70B98B9
:103BD00020F0030043F60801C4F2010140580890A8
:103BE0000B9800F0030081000F2000FA01F1089803
:103BF000884308900D980021C4F20201884203D145
:103C0000FFE7002006905EE00D9840F20041C4F20C
:103C10000201884203D1FFE70120059050E00D9892
:103C200040F60001C4F20201884203D1FFE70220FE
:103C3000049042E00D9840F60041C4F2020188422F
:103C400003D1FFE70320039034E00D9841F2000117
:103C5000C4F20201884203D1FFE70420029026E06B
:103C60000D9841F20041C4F20201884203D1FFE7FE
:103C70000520019018E00D9841F60001C4F2020100
:103C8000884203D1FFE7062000900AE00D9941F633
:103C90000042C4F202020820914208BF07200090AF
:103CA000FFE700980190FFE701980290FFE7029874
:103CB0000390FFE703980490FFE704980590FFE75F
:103CC00005980690FFE70698C0B20B9901F0030132
:103CD000890000FA01F108980843089008980B99A8
:103CE00021F0030143F60802C4F20102885043F6B2
:103CF0000840C4F2010000680890099908988843B8
:103D000008900C988079C006002805D5FFE709992E
:103D1000089808430890FFE7089843F60841C4F262
:103D20000101086043F60C40C4F2010000680890ED
:103D300009990898884308900C9880798006002893
:103D400005D5FFE70999089808430890FFE7089808
:103D500043F60C41C4F20101086043F60440C4F28A
:103D600001000068089009990898884308900C9809
:103D700080798007002805D5FFE70999089808434E
:103D80000890FFE7089843F60441C4F20101086077
:103D900043F60040C4F201000068089009990898B1
:103DA000884308900C988079C00728B1FFE70999EB
:103DB000089808430890FFE7089843F60041C4F2CA
:103DC00001010860FFE7FFE7FFE70B9801300B9068
:103DD0002FE60EB07047000045F2B040C2F200007E
:103DE0000068704740F2EC20C2F20000027845F211
:103DF000B041C2F20001086810440860704700003A
:103E000080B543F60041C4F20201086840F4007036
:103E10000860086840F480600860086840F48070BA
:103E20000860032000F0D0F80F2000F005F800F043
:103E30007BF8002080BD000080B58CB00B90002086
:103E400004900390FFE70020009043F64000C4F286
:103E50000200016841F010010160006800F01000EC
:103E600000900098FFE706A802A900F0E7F909987A
:103E70000490049820B9FFE700F010FA059004E0E0
:103E800000F00CFA40000590FFE705984DF68361BD
:103E9000C4F21B31A0FB01014FF0FF3000EB914059
:103EA000039041F21C20C2F2000041F20001C4F272
:103EB0000001016040F2E731C160039941600021D7
:103EC00001618160816100F0E9FD8DF807009DF8D6
:103ED000070028BBFFE741F21C20C2F2000000F0FF
:103EE0002FFE8DF807009DF80700C0B9FFE73620C8
:103EF00000F046F80B980F280CD8FFE70B993620F6
:103F0000002200F047F80B9840F2F021C2F20001C5
:103F1000086003E001208DF80700FFE7FFE7FFE7F7
:103F20009DF807000CB080BD80B582B0FFE700208F
:103F3000019043F64400C4F20200016841F480415C
:103F40000160006800F4804001900198FFE7FFE7FE
:103F50000020009043F64000C4F20200016841F0E6
:103F600080510160006800F0805000900098FFE7E9
:103F70006FF001000F21002200F00CF802B080BDAC
:103F800080B582B08DF807009DF907000AF06CFD3E
:103F900002B080BD80B586B08DF817000491039201
:103FA000002002900AF078FD02909DF91700019020
:103FB00002980499039A01F0BDFF014601980AF0A6
:103FC00073FD06B080BD000080B582B001900198FD
:103FD0000AF0AEFD02B080BD80B584B002900191C0
:103FE000029820B9FFE701208DF80F0021E1019828
:103FF00043F60041C4F20201096801F0070188425A
:1040000012D9FFE7019943F60040C4F202000170A3
:10401000006800F007000199884204D0FFE7012002
:104020008DF80F0005E1FFE702980078800700286F
:104030002AD5FFE7029800784007002809D5FFE756
:1040400043F60801C4F20201086840F4E050086039
:10405000FFE7029800780007002809D5FFE743F63C
:104060000801C4F20201086840F460400860FFE7FC
:1040700043F60801C4F20201086820F0F000029A39
:10408000926810430860FFE702980078C007002894
:104090006ED0FFE702984068012811D1FFE743F690
:1040A0000000C4F20200006800F400310020B0EB10
:1040B000514F04D1FFE701208DF80F00B9E02CE04B
:1040C00002984068022805D0FFE70298406803285C
:1040D00011D1FFE743F60000C4F20200006800F0CF
:1040E00000710020B0EB516F04D1FFE701208DF883
:1040F0000F009EE010E043F60000C4F202000068EA
:1041000000F002010020B0EB510F04D1FFE70120C5
:104110008DF80F008DE0FFE7FFE743F60801C4F2DA
:104120000201086820F00300029A526810430860F8
:10413000FFF752FE0090FFE743F60800C4F20200CA
:10414000006800F00C0002994968B0EB810F0ED0B6
:10415000FFE7FFF741FE0099401A41F2893188429A
:1041600004D3FFE703208DF80F0062E0E4E7FFE7E8
:10417000019843F60041C4F20201096801F0070109
:10418000884212D2FFE7019943F60040C4F20200D0
:104190000170006800F007000199884204D0FFE731
:1041A00001208DF80F0044E0FFE7029800784007F7
:1041B00000280CD5FFE743F60801C4F202010868A5
:1041C00020F4E050029AD26810430860FFE702989A
:1041D0000078000700280DD5FFE743F60801C4F278
:1041E0000201086820F46040029A126940EAC200A5
:1041F0000860FFE700F076F843F60801C4F2020118
:104200000968C9B20A0942F2F051C0F60101895C9D
:10421000C84040F2AC21C2F20001086040F2F02038
:10422000C2F200000068FFF707FE00208DF80F00C3
:10423000FFE79DF80F0004B080BD000082B0019040
:10424000009101990F20086043F60800C4F20200B3
:10425000016801F00301019A5160016801F0F00169
:10426000019A9160016801F4E051019AD1600068FF
:1042700000F46040C0080199086143F60040C4F2B0
:104280000200006800F007000099086002B0704763
:1042900040F2AC20C2F200000068704780B5FFF722
:1042A000F7FF43F60801C4F202010968C1F3822254
:1042B00042F20061C0F60101895CC84080BD000087
:1042C00080B5FFF7E5FF43F60801C4F20201096873
:1042D00089B24A0B42F20061C0F60101895CC84014
:1042E00080BD000080B586B000200590049003904A
:1042F000029043F60800C4F20200006800F00C00CF
:104300000146019140B1FFE7019804280AD0FFE778
:10431000019808280CD04FE042F20040C0F2F400AF
:1043200002904FE041F60030C0F2B700029049E041
:1043300043F60400C4F20200016801F03F01059158
:1043400000684002002813D5FFE743F60400C4F2DA
:1043500002000068C0F3881041F60031C0F2B701D6
:10436000A0FB0101059A0023FBF72EFF049012E049
:1043700043F60400C4F202000068C0F3881042F261
:104380000041C0F2F401A0FB0101059A0023FBF7F4
:104390001BFF0490FFE743F60400C4F2020000682C
:1043A00000F44031022000EBD130039004980399CF
:1043B000B0FBF1F0029005E042F20040C0F2F400E0
:1043C0000290FFE7029806B080BD000080B586B07D
:1043D0000490049820B9FFE701208DF8170050E3FE
:1043E00004980078C007002800F0A580FFE743F696
:1043F0000800C4F20200006800F00C00042813D08A
:10440000FFE743F60800C4F20200006800F00C0069
:1044100008281ED1FFE743F60400C4F2020000683A
:104420004002002815D5FFE743F60000C4F2020061
:10443000006800F400310020B0EB514F08D0FFE7D6
:104440000498406820B9FFE701208DF8170018E3B1
:1044500070E0FFE704984068B0F5803F09D1FFE7BE
:1044600043F60001C4F20201086840F4803008609D
:1044700020E004984068B0F5A02F0DD1FFE743F687
:104480000001C4F20201086840F480200860086856
:1044900040F4803008600CE043F60001C4F20201F1
:1044A000086820F480300860086820F480200860E4
:1044B000FFE7FFE7FFE704984068E8B1FFE7FFF791
:1044C0008BFC0390FFE743F60000C4F20200006893
:1044D00000F400310020B0EB514F0CD1FFE7FFF7A3
:1044E0007BFC0399401A652804D3FFE703208DF86D
:1044F0001700C6E2E7E71CE0FFF76EFC0390FFE75A
:1045000043F60000C4F20200006800F4003100200D
:10451000B0EB514F0CD0FFE7FFF75EFC0399401A58
:10452000652804D3FFE703208DF81700A9E2E7E729
:10453000FFE7FFE7FFE7049800788007002840F1D5
:104540009680FFE743F60800C4F20200006810F00E
:104550000C0F13D0FFE743F60800C4F20200006816
:1045600000F00C0008282CD1FFE743F60400C4F249
:10457000020000684002002823D4FFE743F6000051
:10458000C4F20200006800F002010020B0EB510FFD
:1045900009D0FFE70498C068012804D0FFE7012094
:1045A0008DF817006DE243F60001C4F202010868BD
:1045B00020F0F800049A126940EAC2000860FFE7A0
:1045C00054E00498C06870B3FFE70021C4F24721AB
:1045D00001200860FFF700FC0390FFE743F60000AE
:1045E000C4F20200006800F002010020B0EB510F9D
:1045F0000CD1FFE7FFF7F0FB0399401A032804D31F
:10460000FFE703208DF817003BE2E7E743F60001E0
:10461000C4F20201086820F0F800049A126940EA26
:10462000C200086021E00021C4F247210020086098
:10463000FFF7D2FB0390FFE743F60000C4F202004D
:10464000006800F002010020B0EB510F0CD0FFE732
:10465000FFF7C2FB0399401A032804D3FFE70320A6
:104660008DF817000DE2E7E7FFE7FFE7FFE70498A3
:104670000078000700284BD5FFE70498406918B37D
:10468000FFE740F68061C4F2472101200860FFF790
:10469000A3FB0390FFE743F67400C4F20200006836
:1046A00000F002010020B0EB510F0CD1FFE7FFF743
:1046B00093FB0399401A032804D3FFE703208DF8E6
:1046C0001700DEE1E7E722E040F68061C4F247210F
:1046D00000200860FFF780FB0390FFE743F67400BB
:1046E000C4F20200006800F002010020B0EB510F9C
:1046F0000CD0FFE7FFF770FB0399401A032804D39F
:10470000FFE703208DF81700BBE1E7E7FFE7FFE7CE
:10471000049800784007002840F1CE80FFE7002091
:104720008DF8070043F64000C4F202000068C000A4
:10473000002815D4FFE7FFE70020009043F6400073
:10474000C4F20200016841F080510160006800F08D
:10475000805000900098FFE701208DF80700FFE7E8
:1047600047F20000C4F200000068C005002822D40F
:10477000FFE747F20001C4F20001086840F48070CE
:104780000860FFF729FB0390FFE747F20000C4F23F
:1047900000000068C00500280CD4FFE7FFF71CFBF1
:1047A0000399401A032804D3FFE703208DF817006C
:1047B00067E1EAE7FFE7FFE704988068012809D18D
:1047C000FFE743F67001C4F20201086840F00100FF
:1047D00008601FE00498806805280DD1FFE743F6C4
:1047E0007001C4F20201086840F004000860086823
:1047F00040F0010008600CE043F67001C4F20201D1
:10480000086820F001000860086820F004000860D3
:10481000FFE7FFE7FFE704988068F8B1FFE7FFF7DD
:10482000DBFA0390FFE743F67000C4F20200006871
:1048300000F002010020B0EB510F0ED1FFE7FFF7AF
:10484000CBFA0399401A41F28931884204D3FFE739
:1048500003208DF8170014E1E5E71EE0FFF7BCFA2E
:104860000390FFE743F67000C4F20200006800F016
:1048700002010020B0EB510F0ED0FFE7FFF7ACFABA
:104880000399401A41F28931884204D3FFE703209B
:104890008DF81700F5E0E5E7FFE79DF80700012830
:1048A00009D1FFE743F64001C4F20201086820F095
:1048B00080500860FFE7FFE704988069002800F057
:1048C000DC80FFE743F60800C4F20200006800F055
:1048D0000C00082800F08580FFE704988069022812
:1048E0005CD1FFE76021C4F2472100200860FFF798
:1048F00073FA0390FFE743F60000C4F20200006879
:1049000000F000710020B0EB516F0CD0FFE7FFF713
:1049100063FA0399401A032804D3FFE703208DF8B4
:104920001700AEE0E7E70499C869D1F820C04B6AE8
:104930008A6A40EA0C0040EA8310D2034FF6FF7304
:104940009A43A2F580321043C96A40EA016043F6F7
:104950000401C4F2020108606021C4F24721012071
:104960000860FFF739FA0390FFE743F60000C4F24E
:104970000200006800F000710020B0EB516F0CD114
:10498000FFE7FFF729FA0399401A032804D3FFE74A
:1049900003208DF8170074E0E7E721E06021C4F2FE
:1049A000472100200860FFF717FA0390FFE743F65E
:1049B0000000C4F20200006800F000710020B0EBBB
:1049C000516F0CD0FFE7FFF707FA0399401A03284D
:1049D00004D3FFE703208DF8170052E0E7E7FFE775
:1049E0004AE004988069012804D1FFE701208DF88E
:1049F000170046E043F60400C4F20200006802908B
:104A000004988069012831D0FFE7029800F4800003
:104A10000499C969884229D1FFE7029800F03F0054
:104A20000499096A884221D1FFE7029847F6C071CC
:104A300008400499496AB0EB811F17D1FFE702983B
:104A400000F440300499896AC9034FF6FF7291431C
:104A5000A1F58031884209D1FFE7029800F070602B
:104A60000499C96AB0EB016F04D0FFE701208DF80B
:104A7000170006E0FFE7FFE7FFE700208DF81700CB
:104A8000FFE79DF8170006B080BD000081B00090E0
:104A900001B0704781B0009001B0704780B582B01E
:104AA0000090009820B9FFE701208DF807003FE053
:104AB000009890F83D0040B9FFE70099002081F888
:104AC0003C00009800F038F8FFE70099022081F8D8
:104AD0003D00009951F8040B01F03CFB00990120C6
:104AE00081F84600FFE70099012081F83E00009917
:104AF00081F83F00009981F84000009981F8410059
:104B0000FFE7FFE70099012081F84200009981F852
:104B10004300009981F84400009981F84500FFE7BF
:104B20000099012081F83D0000208DF80700FFE783
:104B30009DF8070002B080BD81B0009001B07047C1
:104B400083B00190019890F83D00012804D0FFE760
:104B500001208DF80B006AE00199022081F83D00E8
:104B600001980168C86840F00100C86001980068B9
:104B70000021C4F2010188423CD0FFE7019800689F
:104B8000B0F1804F36D0FFE70198006840F2004155
:104B9000C4F2000188422DD0FFE70198006840F67A
:104BA0000001C4F20001884224D0FFE701980068A8
:104BB00040F60041C4F2000188421BD0FFE7019893
:104BC000006840F20041C4F20101884212D0FFE7C0
:104BD0000198006844F20001C4F20101884209D042
:104BE000FFE70198006841F60001C4F20001884225
:104BF00012D1FFE701980068806800F0070000907C
:104C00000098062807D0FFE701980168086840F07F
:104C100001000860FFE706E001980168086840F0BD
:104C200001000860FFE700208DF80B00FFE79DF80A
:104C30000B0003B07047000081B0009001B07047D6
:104C400080B584B0039003980068C0680290039810
:104C50000068006901909DF804008007002824D5B1
:104C6000FFE79DF80800800700281DD5FFE703989F
:104C700001686FF00200086103990120087703982A
:104C800000688069800720B1FFE70398FFF7D4FF31
:104C900006E0039800F0E2F8039800F0E3F8FFE77D
:104CA000039900200877FFE7FFE79DF8040040071D
:104CB000002825D5FFE79DF80800400700281ED5ED
:104CC000FFE7039801686FF0040008610399022070
:104CD000087703980068806910F4407F04D0FFE7EC
:104CE0000398FFF7A9FF06E0039800F0B7F80398D0
:104CF00000F0B8F8FFE7039900200877FFE7FFE727
:104D00009DF804000007002824D5FFE79DF808005F
:104D1000000700281DD5FFE7039801686FF0080021
:104D2000086103990420087703980068C069800728
:104D300020B1FFE70398FFF77FFF06E0039800F03C
:104D40008DF8039800F08EF8FFE7039900200877AC
:104D5000FFE7FFE79DF80400C006002825D5FFE720
:104D60009DF80800C00600281ED5FFE703980168DB
:104D70006FF0100008610399082008770398006815
:104D8000C06910F4407F04D0FFE70398FFF754FF99
:104D900006E0039800F062F8039800F063F8FFE77C
:104DA000039900200877FFE7FFE79DF80400C0079C
:104DB00078B1FFE79DF80800C00748B1FFE7039806
:104DC00001686FF001000861039800F04FF8FFE7F9
:104DD000FFE79DF804000006002810D5FFE79DF8C6
:104DE00008000006002809D5FFE7039801686FF066
:104DF000800008610398FFF749FEFFE7FFE79DF891
:104E000004004006002810D5FFE79DF80800400682
:104E1000002809D5FFE7039801686FF0400008619A
:104E2000039800F035F8FFE7FFE79DF804008006DF
:104E3000002810D5FFE79DF808008006002809D556
:104E4000FFE7039801686FF0200008610398FFF7FF
:104E500021FEFFE7FFE704B080BD000081B00090B5
:104E600001B0704781B0009001B0704780B582B04A
:104E700001900198006841F20001C4F200018842EB
:104E800003D1FFE7FEF7AEFFFFE702B080BD0000F1
:104E900081B0009001B0704780B586B00490039156
:104EA000ADF80A20049890F84200202848D1FFE786
:104EB000039820B1FFE7BDF80A0020B9FFE7012001
:104EC0008DF8170040E00499012008630499002040
:104ED000486304980399BDF80A2001F003FD8DF89A
:104EE00009000498006B012821D1FFE7FFE70020AB
:104EF0000190049800680068019004980068406878
:104F000001900198FFE7FFE7FFE70498006850E889
:104F1000030F40F010000090FFE70099049802682A
:104F200042E803100028F0D1FFE7FFE703E001208B
:104F30008DF80900FFE79DF809008DF8170003E0E0
:104F400002208DF81700FFE79DF8170006B080BD1E
:104F500080B582B00190ADF802100198006844F667
:104F60000001C4F20001884208D1FFE706F082FC8C
:104F70000199BDF8022006F01DFC25E001980068AB
:104F800041F20001C4F2010188420AD1FFE7019910
:104F9000BDF8022040F61810C2F2000002F020FD19
:104FA00011E00198006841F20041C4F20101884219
:104FB00008D1FFE702F014F90199BDF8022002F0D0
:104FC0006DF8FFE7FFE7FFE702B080BD80B586B070
:104FD0000490FFE7FFE70498006850E8030F20F40F
:104FE00090700390FFE703990498026842E8031069
:104FF0000028F0D1FFE7FFE7FFE7FFE7049800682C
:1050000050E8050F20F001000290FFE70299049894
:10501000026842E805100028F0D1FFE7FFE7049896
:10502000006B012814D1FFE7FFE7FFE70498006851
:1050300050E8030F20F010000190FFE70199049859
:10504000026842E803100028F0D1FFE7FFE7FFE71E
:105050000498006840694006002832D5FFE7FFE762
:10506000FFE70498006850E8050F20F0400000902A
:10507000FFE700990498026842E805100028F0D183
:10508000FFE7FFE70498C06BD0B1FFE70498C16B5E
:10509000002008650498C06BFEF758F978B1FFE767
:1050A0000498C06BFEF7EAF9202807D1FFE70499BE
:1050B0001020486403208DF817000EE0FFE7FFE79B
:1050C000FFE704990020C885049A202182F8421045
:1050D000049908638DF81700FFE79DF8170006B0E4
:1050E00080BD000080B584B00290FFE7FFE7029822
:1050F000006850E8030F20F0C0000190FFE701991D
:105100000298026842E803100028F0D1FFE7FFE7A9
:105110000298006840690006002832D5FFE7FFE7E3
:10512000FFE70298006850E8050F20F0800000902B
:10513000FFE700990298026842E805100028F0D1C4
:10514000FFE7FFE70298806BD0B1FFE70298816B21
:10515000002008650298806BFEF7F8F878B1FFE749
:105160000298806BFEF78AF9202807D1FFE70299A1
:105170001020486403208DF80F000CE0FFE7FFE7E4
:10518000FFE702990020C884029A202182F841108A
:105190008DF80F00FFE79DF80F0004B080BD000000
:1051A00080B586B005900598006841F20041C4F2D0
:1051B0000101884242D1FFE7FFE7002004900598F3
:1051C000006800680490059800684068049004989E
:1051D000FFE7FFE700200390059800680068039050
:1051E00005980068406803900398FFE7FFE70020F8
:1051F0000290059800680068029005980068406871
:1052000002900298FFE7FFE70020019005980068F0
:105210000068019005980068406801900198FFE7D8
:1052200001F05CFC01F0DCFF01F042FE0598FFF7A5
:1052300059FF01F0D5FF01F0C1FEFFE706B080BDC8
:1052400080B592B011901198006800681090119884
:105250000068C0680F901198006840690E900020A7
:105260000D900C90109800F00F000D900D9888B9DB
:10527000FFE79DF84000800600280AD5FFE79DF86B
:105280003C008006002804D5FFE7119801F0D8F90A
:1052900002E2FFE70D98002800F0C280FFE79DF8CA
:1052A0003800C00738B9FFE7BDF83C0010F4907F24
:1052B00000F0B680FFE79DF84000C00758B1FFE757
:1052C0009DF83D00C00730B1FFE71199486C40F0F0
:1052D00001004864FFE79DF84000400700280BD517
:1052E000FFE79DF83800C00730B1FFE71199486C1F
:1052F00040F002004864FFE79DF840008007002866
:105300000BD5FFE79DF83800C00730B1FFE71199D2
:10531000486C40F004004864FFE79DF84000000737
:10532000002811D5FFE79DF83C008006002805D431
:10533000FFE79DF83800C00730B1FFE71199486CCE
:1053400040F008004864FFE71198406C002866D0E0
:10535000FFE79DF84000800600280AD5FFE79DF88A
:105360003C008006002804D5FFE7119801F068F999
:10537000FFE7119800684069C0F380100C90119805
:10538000406C0007002804D4FFE70C9800283ED0AA
:10539000FFE7119801F0DAF81198006840694006BB
:1053A00000282FD5FFE7FFE7FFE71198006850E8D6
:1053B000050F20F040000B90FFE70B991198026851
:1053C00042E805100028F0D1FFE7FFE71198C06B15
:1053D00098B1FFE71198C16B46F2F920C0F60000C2
:1053E00008651198C06BFEF727F828B1FFE7119800
:1053F000C06B016D8847FFE703E01198FFF7D0FE0F
:10540000FFE703E01198FFF7CBFEFFE706E01198F6
:10541000FFF7C6FE119900204864FFE7FFE73BE174
:105420001198006B012840F01781FFE79DF84000BC
:10543000C006002840F11081FFE79DF83C00C0063F
:10544000002840F10981FFE7FFE700200A9011984A
:10545000006800680A901198006840680A900A98ED
:10546000FFE71198006840694006002840F19A80E3
:10547000FFE71198C06B00684068ADF82600BDF8E2
:105480002600002875D0FFE7BDF826001199898D08
:1054900088426EDAFFE7BDF826001199C885119899
:1054A000C06BC069B0F5807F58D0FFE7FFE7FFE72A
:1054B0001198006850E8030F20F480700890FFE70F
:1054C00008991198026842E803100028F0D1FFE71C
:1054D000FFE7FFE7FFE71198006850E8050F20F0AD
:1054E00001000790FFE707991198026842E805104C
:1054F0000028F0D1FFE7FFE7FFE7FFE7119800681A
:1055000050E8050F20F040000690FFE7069911983B
:10551000026842E805100028F0D1FFE7FFE7119983
:10552000202081F84200119900200863FFE7FFE77F
:105530001198006850E8030F20F010000590FFE775
:1055400005991198026842E803100028F0D1FFE79E
:10555000FFE71198C06BFDF7F9FEFFE711990220F4
:1055600048631198818DC28D891A89B2FFF7F0FCCA
:1055700017E0BDF826001199898D884210D1FFE708
:105580001198C06BC069B0F5807F08D1FFE7119911
:10559000022048631198818DFFF7DAFCFFE7FFE7EF
:1055A000FFE779E01199888DC98D401AADF8120096
:1055B0001198C08D00284ED0FFE7BDF812000028DA
:1055C00049D0FFE7FFE7FFE71198006850E8030FB5
:1055D00020F490700390FFE703991198026842E865
:1055E00003100028F0D1FFE7FFE7FFE7FFE711987E
:1055F000006850E8050F20F001000290FFE70299D3
:105600001198026842E805100028F0D1FFE7FFE793
:105610001199202081F84200119900200863FFE7CA
:10562000FFE71198006850E8030F20F01000019088
:10563000FFE701991198026842E803100028F0D1B1
:10564000FFE7FFE71199022048631198BDF8121097
:10565000FFF77EFCFFE71FE09DF8400000060028F2
:105660000AD5FFE79DF83C000006002804D5FFE7B7
:10567000119801F0CFF90FE09DF840004006002896
:105680000AD5FFE79DF83C004006002804D5FFE757
:10569000119800F0A5FFFFE712B080BD80B582B081
:1056A0000090009820B9FFE701208DF8070040E046
:1056B0000098806908B1FFE700E0FFE7009890F8E4
:1056C000410040B9FFE70099002081F840000098B0
:1056D00000F034F8FFE70099242081F84100009899
:1056E0000168C86820F40050C860009801F05CF8B8
:1056F00000980168086920F49040086100980168EA
:10570000486920F02A00486100980168C86840F4A0
:105710000050C860009900204864009A202182F857
:105720004110009A82F84210009948638DF80700F2
:10573000FFE79DF8070002B080BD000080B59CB077
:105740001B9000201A9019901890179016901B9893
:10575000006841F20001C4F20101884240F09180EA
:10576000FFE7FFE70020159043F64400C4F2020073
:10577000016841F010010160006800F01000159010
:105780001598FFE7FFE70020149043F63000C4F2BD
:105790000200016841F002010160006800F00200AF
:1057A00014901498FFE7FFE70020139043F63000B1
:1057B000C4F20200016841F001010160006800F0DC
:1057C000010013901398FFE78020169002200990A3
:1057D000179000200D90189003200A901990072030
:1057E0000B901A9040F20040C4F2020016A90C91EE
:1057F000FEF716F9DDF824C00A9A0B980C990D9B58
:105800004FF4007ECDF858E0CDF85CC018931992A3
:105810001A900020C4F20200FEF702F90D9941F23D
:105820009C00C2F200000E9046F24042C4F2020216
:1058300002604FF0006242608160C1604FF480629C
:10584000026141618161C16101624162FDF7ACFFAA
:1058500018B1FFE7FBF71CFAFFE7FFE71B9841F2DF
:105860009C01C2F20001C1631B988863FFE72520F9
:10587000089005210022FEF78DFB0898FEF780FBBB
:105880000EE11B98006844F60001C4F20001884252
:1058900068D1FFE7FFE70020129043F64000C4F212
:1058A0000200016841F480210160006800F480205A
:1058B00012901298FFE7FFE70020119043F63000A6
:1058C000C4F20200016841F004010160006800F0C8
:1058D000040011901198FFE74FF4406016900220E9
:1058E00017900020069018900320199007201A9016
:1058F00040F60000C4F2020016A9FEF791F80699DE
:1059000041F2FC00C2F20000079046F22802C4F205
:10591000020202604FF0006242608160C1604FF499
:105920008062026141618161C16101624162FDF792
:105930003BFF18B1FFE7FBF7ABF9FFE7FFE71B9869
:1059400041F2FC01C2F20001C1631B988863FFE7CA
:105950002720059005210022FEF71CFB0598FEF785
:105960000FFB9CE01B98006841F20041C4F201016A
:10597000884240F09380FFE7FFE70020109043F655
:105980004400C4F20200016841F020010160006897
:1059900000F0200010901098FFE7FFE700200F9024
:1059A00043F63000C4F20200016841F0400101609A
:1059B000006800F040000F900F98FFE74FF484401C
:1059C0001690022017900020039018900320199041
:1059D00008201A9041F60000C4F2020016A9FEF752
:1059E0001FF8039941F25C10C2F20000049046F2E5
:1059F0002842C4F2020202604FF0206242608160DD
:105A0000C1604FF48062026141618161C1610162E4
:105A10004162FDF7C9FE18B1FFE7FBF739F9FFE76F
:105A2000FFE71B9841F25C11C2F20001C1631B98B1
:105A30008863FFE741F2BC10C2F20000029046F218
:105A4000A041C4F2020101604FF020614160402199
:105A500081600021C1604FF4806202614161816117
:105A6000C16101624162FDF79FFE18B1FFE7FBF7DC
:105A70000FF9FFE7FFE71B9841F2BC11C2F20001EA
:105A800081631B988863FFE747200190052100226E
:105A9000FEF780FA0198FEF773FAFFE7FFE7FFE7EA
:105AA0001CB080BD81B0009001B0704781B0009003
:105AB00001B0704780B586B004900391ADF80A201C
:105AC000049890F8410020286AD1FFE7039820B19C
:105AD000FFE7BDF80A0020B9FFE701208DF81700A5
