:020000040800F2
:1000000028810020A5010008CD7800088D74000823
:10001000C9780008CD0A000885C10008000000006A
:10002000000000000000000000000000517D0008FA
:100030002D0E000800000000E17C0008CD7D0008C6
:10004000BF010008BF010008BF010008BF01000890
:10005000BF010008BF010008BF010008BF01000880
:10006000BF010008BF010008BF010008BF01000870
:10007000550C0008BF010008BF010008BF010008BF
:10008000BF010008BF010008BF010008BF01000850
:10009000D10A0008E10A0008BF010008BF010008FA
:1000A000BF010008BF010008BF010008BF01000830
:1000B000BF010008BF010008BF010008BF01000820
:1000C000BF010008BF010008BF010008BF01000810
:1000D000BF01000821880008BF010008318800081E
:1000E000BF010008BF010008BF010008BF010008F0
:1000F000BF010008BF010008BF010008BF010008E0
:10010000BF010008BF010008BF010008BF010008CF
:10011000BF010008BF010008BD7E0008BF01000844
:10012000BF010008650C0008750C0008BF0100083D
:10013000BF010008BF010008BF010008BF0100089F
:10014000F10A0008010B0008BF0100083D79000812
:10015000BF010008850C0008BF01000841880008A5
:10016000BF010008BF010008BF010008BF0100086F
:10017000BF010008BF010008BF0100080000000027
:10018000BF010008BF010008DFF814D000F0EAFB4F
:1001900000F07EF8004800476950010800F014FCA8
:1001A000288100200648804706480047FEE7FEE712
:1001B000FEE7FEE7FEE7FEE7FEE7FEE7FEE7FEE717
:1001C000A97E0008890100082DE9F05F054600209E
:1001D00092469B4688460646814640241BE02846B8
:1001E00041464746224600F0B4FA53465A46C01AE2
:1001F000914110D311461846224600F09BFA2D1A61
:1002000067EB01084F4622460120002100F092FAD8
:1002100017EB00094E41201EA4F10104DFDC484623
:1002200031462A464346BDE8F09F10B5431A934233
:1002300009D28318881803E010F8011D03F8011D86
:10024000521EF9D210BD40EA01039B0703D009E01A
:1002500008C9121F08C0042AFAD203E011F8013BB2
:1002600000F8013B521EF9D210BDD2B201E000F8F5
:10027000012B491EFBD270470022F6E710B513464A
:100280000A4604461946FFF7F0FF204610BD00005D
:100290007CB507480090074801900546009C04E0A3
:1002A0002046016808448047241DAC42F8D17CBD3B
:1002B000F88E0108048F01080B460146184600F02D
:1002C0007CBA2DE9FE4F804681EA0300C00F0C4640
:1002D000009021F0004123F00045B8EB0200A94155
:1002E00005D24046214690461C460B46024623F066
:1002F0000040104347D0270DC7F30A00C3F30A514B
:100300000290401A019040286BDAC3F3130040F4C6
:10031000801B0098924620B10023D2EB030A63EBC6
:100320000B0B01985946C0F14002504600F002FA0A
:1003300006460D4650465946019A00F01AFA10EB4F
:1003400008006141002487EA115284EAE7731A43E6
:1003500040D0009A62B3019A012A4FEA075215DC95
:10036000001B61EB02014FF0004202EA0752CDE9A7
:100370000042001C41F5801132462B4600F0A3FAE2
:1003800003B0BDE8F08F40462146F9E7001B61EB62
:100390000201001C41F5801300185B412018A2F5F2
:1003A000001747EB030140EAD570B6196D4111E023
:1003B0006D084FEA360645EAC0754FEA0752001B42
:1003C00061EB0201001C41F5801149084FEA300041
:1003D0000019514132462B4603B0BDE8F04F00F002
:1003E00063BA0098012240000023D0EB020263EBC5
:1003F000E073009821464FEAE074B8EB000061EB2F
:100400000401E9E783F000435BE781F0004158E72E
:100410002DE9FE4F81EA030404F0004421F000417D
:1004200000944FF0000B23F0004350EA01045ED02B
:1004300052EA03045BD0C3F30A54C1F30A552C44B7
:10044000A4F2F3340194A0FB0254C1F3130141F46C
:100450008011C3F3130343F4801301FB024400FB38
:10046000034E840A970A44EA815447EA8357A4FB5F
:10047000076802958D0A05FB07854FEA932C04FB5C
:100480000C542705029D4FEA065847EA1637B5EB8C
:1004900008056EEB070C870E920E47EA811742EAB9
:1004A0008312A7FB0201B6EB0B0164EB00042B0DDA
:1004B00043EA0C335E1844EB1C50DA465146E7FB26
:1004C0000201C5F313044FEA0B3343EA14534FEA16
:1004D0000432019C43EA0603A4F10C040294009C3C
:1004E000CDE900B400F0EFF903B0BDE8F08F0020D3
:1004F0000146F9E72DE9F04D81EA030404F0004BD1
:1005000021F0004514464FF0000A23F0004150EA64
:10051000050220D054EA01021DD0C5F30A57024655
:10052000C5F31303C1F31300C1F30A5640F4801559
:1005300043F48013A7EB0608101BD64608F2FD38DB
:1005400073EB050002D308F1010801E092185B414A
:10055000B8F1000F03DA00200146BDE8F08D00205D
:100560004FF48011064684460EE0171B73EB050717
:1005700005D3121B63EB050306434CEA010C490843
:100580004FEA300092185B4150EA0107EDD152EA80
:10059000030012D082EA040083EA0501084305D073
:1005A000101BAB4106D20122002306E000224FF0CF
:1005B000004302E06FF0010253101AEB06004CEB0F
:1005C000085110EB0A0041EB0B01BDE8F04D00F0C3
:1005D0006BB930B5041E71F1000404DB4FF0004428
:1005E000404264EB0101141E73F1000405DB1C465C
:1005F0004FF00043524263EB0403801A994101D348
:10060000012030BD002030BD30B5041E71F1000462
:1006100004DB4FF00044404264EB0101141E73F10F
:10062000000405DB1C464FF00043524263EB040319
:10063000101A8B4101D3012030BD002030BD30B5F0
:10064000041E71F1000404DB4FF00044404264EBEF
:100650000101141E73F1000405DB1C464FF000433A
:10066000524263EB040342404B401A4301D0002046
:1006700030BD012030BD0EB5C10F80EAE0700844E6
:10068000CA07002140F233438DE80E000A460B46AC
:1006900000F019F903B000BD70B5C1F30A5201F0C2
:1006A00000450024C1F3130140F2FF3341F48011EF
:1006B0009A4201DA002070BD40F233439A42A2F21E
:1006C000334203DC524200F044F800E090402C43F7
:1006D000F1D0404270BD00F0004230F000400AD03E
:1006E000C10D01F56071C0F3160042EA0151C20864
:1006F00040071143704700200146704701F0004356
:1007000030B421F0004150EA010206D00A0DA2F5F2
:100710006072C1F31301002A02DC30BC0020704774
:10072000440F44EAC104C100E01830BC00EBC250E1
:1007300000F05AB8202A04DB203A00FA02F1002027
:1007400070479140C2F1200320FA03F3194390400F
:100750007047202A04DB203A21FA02F0002170477A
:1007600021FA02F3D040C2F1200291400843194619
:100770007047202A06DBCB17203A41FA02F043EA01
:10078000E07306E041FA02F3D040C2F1200291404A
:1007900008431946704710B50446481E014201D16E
:1007A000042901D2052010BD104617F0E7FA10B158
:1007B0002060002010BD062010BD2DE9F041074645
:1007C00015460E46102017F051FC04000AD0676051
:1007D000C4E9026500F0F4F80168216004600020BB
:1007E000BDE8F0810120FBE70029A8BF7047401C4D
:1007F000490008BF20F00100704710B4B0FA80FC37
:1008000000FA0CF050EA010404BF10BC704749B173
:10081000CCF1200421FA04F411FA0CF118BF0121E3
:1008200021430843A3EB0C01CB1D4FEA00614FEAC3
:10083000102042BF002010BC704700EBC350104492
:100840000029A4BF10BC7047401C490008BF20F01D
:10085000010010BC7047F0B400F0004221F00041EC
:1008600020F00040CE0DC30DC1F3160141F400018C
:10087000C0F316004C42154640F40000761E09E015
:1008800010EB440002D582F0004240428842F7D883
:1008900040005B1EB342F9DA18B1F0BC0021FFF74B
:1008A000ACBF2846F0BC704710B5141E73F10004AD
:1008B00008DA401C41F1000192185B411A4301D152
:1008C00020F0010010BD2DE9F04D92469B4611B17C
:1008D000B1FA81F202E0B0FA80F220329046FFF7DE
:1008E00029FF04460F4640EA0A0041EA0B0153463D
:1008F0005A46084313D0114653EA010019D0C8F1F3
:1009000040025046FFF725FF05460E465046594621
:100910004246FFF70FFF084305D0012004E02046C0
:100920003946BDE8F08D0020054346EAE0762C43C9
:1009300037430A986305E40AA0EB08000022FD0A89
:1009400044EA47540A3002D500200146E9E7010590
:1009500010196941DDE9084500196941BDE8F04D0C
:10096000A2E700001CB5094800900948019005461F
:10097000009C06E0E06840F0010394E80700984717
:100980001034AC42F6D3FFF703FC0000D88E010808
:10099000F88E010830B50B460146002020220124C4
:1009A00009E021FA02F59D4205D303FA02F5491B3D
:1009B00004FA02F52844151EA2F10102F1DC30BD53
:1009C00000487047100000202DE9F0410646FFF76F
:1009D000F7FF8046454613E016B1E068B0420ED1FD
:1009E00020682860D4E90101D8F8007088472046C3
:1009F00017F014FAD8F80000B842EBD100E0254611
:100A00002C68002CE8D1BDE8F081C1F30A52C1F393
:100A1000130140F2FF3341F480119A4202DA0020C0
:100A20000146704740F233439A42A2F2334202DC5D
:100A30005242FFF78EBEFFF77DBE000030B5041EA8
:100A400071F1000404DB4FF00044404264EB01010B
:100A5000141E73F1000405DB1C464FF000435242A4
:100A600063EB0403994208BF904230BD704770B5F4
:100A70008D1810F8014B14F0030201D110F8012B6E
:100A8000231106D110F8013B03E010F8016B01F8C7
:100A9000016B521EF9D1ABB110F8012B04F00C041C
:100AA0008A1A0C2C03D0A2EB84129B1C08E010F8CD
:100AB000014BA2EB0422F8E712F8014B01F8014BBD
:100AC0005B1EF9D5A942D4D3002070BDFFE7FEE735
:100AD00080B542F60420C2F2000002F07DF980BD2C
:100AE00080B542F60420C2F2000002F075F980BD24
:100AF00080B542F62C20C2F2000002F06DF980BDF4
:100B000080B542F62C20C2F2000002F065F980BDEB
:100B100084B08DF80F000291ADF806209DF80F000B
:100B20000146009123281DD80099DFE801F0121337
:100B30001415161B1B1B1B1B1B1B1B1B1B1B1B1B17
:100B40001B1B1B1B1B1B1B1B1B1B1B1B1B1B1718FC
:100B5000191A08E007E006E005E004E003E002E01F
:100B600001E000E0FFE7002004B07047002070477C
:100B700080B582B042F22870C2F20000009041F2CB
:100B80000031C2F200010022019208F0FBF9009846
:100B900040F60031C2F2000108F0D6F9019802B027
:100BA00080BD000080B584B0039002910398029943
:100BB00009680BF0E9FA039942F22870C2F20000CA
:100BC000019008F0C1F9019808F064F9002004B020
:100BD00080BD000080B584B0039002918DF807209D
:100BE00000208DF806000BF0DBFA9DF9060004B03A
:100BF00080BD000080B586B00490ADF80E100020D6
:100C00008DF80D0042F22870C2F20000D0F8BC024C
:100C100002900298D0F8140220B1FFE701208DF86D
:100C2000170013E00499BDF80E2042F22870C2F2BA
:100C30000000019008F0A6F9019808F0ADFA8DF8CF
:100C40000D009DF80D008DF81700FFE79DF81700C7
:100C500006B080BD80B542F6B420C2F2000002F0BA
:100C600011FF80BD80B542F61430C2F2000002F0E0
:100C700009FF80BD80B542F65420C2F2000002F0A8
:100C800001FF80BD80B542F67430C2F2000002F070
:100C9000F9FE80BD82B001900198007810384AF6C4
:100CA000AB21CAF6AA21A0FB01100009009000990F
:100CB00048F60430C0F60100405C0199C865009810
:100CC000042807D3FFE701990868042262F30900AA
:100CD000886506E00199086840F2FF329043886514
:100CE000FFE70198806D02B07047000086B0059064
:100CF00000208DF813000598806A0390059880699C
:100D000010BBFFE70398029003281BD80299DFE885
:100D100001F0020D0218059890F82F00C00720B1CD
:100D2000FFE701208DF81300FFE70CE00598C06A8B
:100D3000B0F1C07F04D1FFE701208DF81300FFE779
:100D400001E000E0FFE745E005988069B0F5005F4D
:100D500025D1FFE70398019003281ED80199DFE809
:100D600001F00206021101208DF8130016E005982B
:100D700090F82F00C00720B1FFE701208DF8130085
:100D8000FFE70BE00598C06AB0F1C07F04D1FFE730
:100D900001208DF81300FFE700E0FFE719E003985A
:100DA0000090032804D3FFE70098032804D00EE046
:100DB00001208DF813000BE0059890F82F00C00774
:100DC00020B1FFE701208DF81300FFE700E0FFE707
:100DD000FFE7FFE79DF8130006B0704784B003906B
:100DE00002910192009303980168086820F4802022
:100DF0000860009803990968486003988068402853
:100E000009D1FFE70198039909688860029803995E
:100E10000968C86008E00298039909688860019829
:100E200003990968C860FFE704B070477047000085
:100E300072B6FFE7FEE7000080B584B047F61020E9
:100E4000C1F6FF700068039047F61420C1F6FF70EA
:100E50000068029047F61820C1F6FF700068019004
:100E60000199039808440390039888B1FFE7039819
:100E700040F2D031C2F2000100910231082206F0A6
:100E800007FB009902981231042206F001FBFFE7EC
:100E900004B080BD80B5ACB011F020F811F042F97B
:100EA0002B9011F01BF811F047F92A9041F604300D
:100EB000C2F200000078BFF35F8FC00718BBFFE7E6
:100EC00041F60430C2F2000015F0ABFAD8B1FFE7EA
:100ED0002B9942F29000C2F20000149000220FF011
:100EE000FBF9149940F2B130C0F6010040F2000263
:100EF000C0F60002FFF7E0F941F60430C2F200004C
:100F000015F0A5FAFFE741F60830C2F200000078BC
:100F1000BFF35F8FC00718BBFFE741F60830C2F28E
:100F2000000015F07EFAD8B1FFE72B9942F250107D
:100F3000C2F20000139000220FF044FA139940F21D
:100F40009940C0F6010040F20002C0F60002FFF72F
:100F5000B3F941F60830C2F2000015F078FAFFE765
:100F600041F60C30C2F200000078BFF35F8FC0077B
:100F700018BBFFE741F60C30C2F2000015F051FA41
:100F8000D8B1FFE72B9942F2D010C2F200001290C4
:100F900001220FF053FE129940F6D140C0F6010035
:100FA00040F20002C0F60002FFF786F941F60C306D
:100FB000C2F2000015F04BFAFFE741F61030C2F222
:100FC00000000078BFF35F8FC00770BBFFE741F6FA
:100FD0001030C2F2000015F024FA30B3FFE72B996D
:100FE00001208DF8A60002208DF8A70068464FF476
:100FF0000072026042F24820C2F2000011900DF12E
:10100000A60310F015F9119941F2C920C0F60100AC
:1010100040F20002C0F60002FFF74EF941F6103030
:10102000C2F2000015F013FAFFE742F27801C2F2B3
:10103000000142F29000C2F200000990086042F202
:101040007401C2F2000142F25010C2F200000A9094
:10105000086042F28801C2F2000142F2D010C2F2EE
:1010600000000B90086042F28C01C2F2000142F2D3
:101070004820C2F200000F9008602B98019025A82C
:10108000029013F0AFFD019802990268D26990476F
:10109000029813F0D7FD2B98039020A8049013F02A
:1010A000ADFD039804990268D2699047049813F043
:1010B000C9FD2B9805901BA8069013F0ABFD059871
:1010C00006990268D2699047069813F0BBFD2B98E9
:1010D000079016A8089013F0A9FD079808990268D0
:1010E000D2699047089813F0ADFD41F63430C2F252
:1010F00000000EF029F841F6D030C2F200000DF0E9
:101100003DFE10F037FB10F0BBFA41F6B870C2F2AA
:1011100000000CF063F90BF04DFD0BF07BFC4FF47D
:10112000FA7002F059FF099801210C910EF060FD50
:101130000A20109002F050FF099802210D910EF044
:1011400057FD109802F048FF0A980C990EF0AAF982
:10115000109802F041FF0B980C990FF06BFA109861
:1011600002F03AFF0B980C9900220E920FF016FA3B
:10117000109802F031FF0C990E9A0F980FF0B2FD03
:101180000D990E9A0F980FF0ADFD0F980FF034FEE9
:10119000109802F021FF2CB080BD000010B5ADF515
:1011A000327D3EA8359041F6B870C2F2000038900A
:1011B0000CF05EFA40F24820C2F20000369000F1D6
:1011C000200141F63430C2F2000037900BF0C6F82F
:1011D00036993798343054310BF0C0F83699379837
:1011E000683088310BF0BAF8379842F27801C2F2D1
:1011F0000001096842F27402C2F2000212680DF0A6
:10120000E5FF389812F0D8F80146002918BF0121EF
:1012100041F6D030C2F2000080F8B11390F8B1036B
:10122000A0B3FFE741F6B870C2F20000329012F0AE
:10123000CBF832989FEDD91A8DED331A20EE410A82
:1012400041F6D031C2F20001349181EDEA0A12F088
:101250009FF832989DED331A349920EE410A81EDC2
:10126000EB0A12F09FF89DED331A349820EE010A34
:1012700080EDED0AD0F8A82340F23401C2F200015B
:101280004A64D0F8B403C1F8B00015E041F6343038
:10129000C2F20000309012F0F7F8309840F23401BA
:1012A000C2F20001319181ED110A343012F0C4F81C
:1012B000319880ED2C0AFFE740F29860C2F20000FE
:1012C000007800285ED1FFE703F084F8B190B19870
:1012D00042F21831C2F200010968401AC82850D3FE
:1012E000FFE7B19842F21831C2F20001086042F201
:1012F0007800C2F20000006838B3FFE742F27800DD
:10130000C2F200000068012110F080F848B9FFE740
:1013100042F27800C2F20000006801210EF068FC81
:10132000FFE742F27800C2F200000068022110F0EC
:101330006DF848B9FFE742F27800C2F20000006899
:1013400002210EF055FCFFE7FFE742F27400C2F203
:1013500000000068A0B1FFE742F27400C2F2000092
:10136000006801210FF0BAFF48B9FFE742F27400AC
:10137000C2F20000006801210EF094F8FFE7FFE7D9
:10138000FFE7FFE710F0F6F9B090B09812F080FA9E
:10139000AF90B09812F082FAAE90B09810F02CFA9C
:1013A0008DF8B702AF98022806D1FFE7AE99012069
:1013B00002292F9004D0FFE79DF8B7022F90FFE796
:1013C0002F9800F001008DF8B602AF9840F29861B6
:1013D000C2F200018870AE98C8709DF8B70200F0A4
:1013E00001004870002048719DF8B602C00700282F
:1013F00055D0FFE740F29860C2F200000078002864
:101400004CD1FFE740F29862C2F200020120107056
:1014100040F23401C2F2000191F83800907191F865
:10142000A400D07191F810011072002081F83800EA
:1014300081F8A40081F8100142F27800C2F20000A5
:10144000006878B1FFE742F27800C2F200002E9007
:10145000006801210EF0F6FB2E98006802210EF0C4
:10146000F1FBFFE742F27400C2F20000006848B1ED
:10147000FFE742F27400C2F20000006801210EF0A2
:101480003BF8FFE740F20431C2F200010320887507
:1014900040F29861C2F200014871FFE7F3E040F2C8
:1014A0009860C2F200000078002845D0FFE740F2C3
:1014B0009861C2F200010020087042F27800C2F286
:1014C0000000006878B1FFE742F27800C2F2000045
:1014D0002D90006801210EF08BFB2D9800680221F1
:1014E0000EF086FBFFE742F27400C2F200000068D3
:1014F00048B1FFE742F27400C2F200000068012127
:101500000DF0D0FFFFE740F29861C2F20001887948
:1015100040F23402C2F2000282F83800C87982F840
:10152000A400087A82F8100140F20432C2F20002EC
:10153000042090754871A5E0AF988DF8B5029DF82C
:10154000B50240F29861C2F200010979884200F0C8
:101550009880FFE740F2B860C2F2000000780528EA
:101560000CD1FFE740F20431C2F20001042088757B
:1015700040F29861C2F20001487181E09DF8B50225
:1015800001280DD0FFE79DF8B502032808D0FFE73A
:101590009DF8B50202286AD102E000BF35FA8E3C00
:1015A00011F068FC12F06CFAAC90AC980138B0FA0B
:1015B00080F040098DF8AF029DF8AF02C007B8B9BE
:1015C000FFE741F6D030C2F2000090F8080178B190
:1015D000FFE740F23400C2F20000007F40B1FFE7B5
:1015E00040F2FC10C2F20000007D01281AD1FFE792
:1015F00041F6D030C2F200002C9090EDEA0A0DF0D6
:101600000FF82C9840F23401C2F2000101220A774F
:10161000D0F8A803086040F2FC11C2F200010020DB
:101620000875FFE79DF8B50202280CD1FFE740F2EC
:101630000431C2F200010220887540F29861C2F2C2
:10164000000148710BE040F20431C2F200010120B8
:10165000887540F29861C2F200014871FFE79DF879
:10166000B50240F29861C2F20001087107E09DF8EE
:10167000B50240F29861C2F200010871FFE7FFE78E
:10168000FFE7FFE7FFE740F2B860C2F200006946FB
:10169000086041F69070C2F2000041F63431C2F2A7
:1016A000000140F23402C2F2000240F20433C2F2FE
:1016B000000310F095F90BF07DFA0BF027F910F00C
:1016C00059F8AA90AA9812F0E3F8A990AA9812F0F3
:1016D000E5F8A890A999012003292B9007D0FFE7EE
:1016E000A9980138B0FA80F040092B90FFE72B98B9
:1016F00000F001008DF89F02A999002001292A908D
:1017000007D1FFE7A8980138B0FA80F040092A9085
:10171000FFE72A9800F001008DF89E029DF89E12C6
:101720000020C907299099B1FFE740F2EC30C2F2DE
:101730000000817E0020299051B1FFE740F2EC309B
:10174000C2F20000007C002818BF01202990FFE7AA
:10175000299800F001008DF89D0200208DF89C0270
:101760009DF89D02C007002877D0FFE742F21530B0
:10177000C2F20000007800286FD1FFE742F2153175
:10178000C2F20001012008708DF89C0241F634304D
:10179000C2F20000343011F07FFEA0B1FFE741F645
:1017A000D030C2F2000090F8B10360B1FFE741F61B
:1017B000D030C2F20000D0F8B40340F23401C2F2DB
:1017C0000001C86617E041F63430C2F20000343040
:1017D00011F062FE70B1FFE741F63430C2F2000052
:1017E000343011F029FE40F23400C2F2000080EDE6
:1017F0001B0AFFE7FFE741F63430C2F2000011F0A8
:101800004BFE48B3FFE740F2FC10C2F20000007D3F
:10181000012815D1FFE741F6D030C2F2000090ED6B
:10182000EA0A0CF0FDFE40F23401C2F20001012090
:10183000087740F2FC11C2F2000100200875FFE7B2
:1018400041F6D030C2F20000D0F8A80340F23401D3
:10185000C2F200010860FFE715E09DF89D02C00795
:1018600080B9FFE742F21530C2F20000007848B1BB
:10187000FFE742F21531C2F20001002008708DF836
:101880009C02FFE7FFE740F29860C2F20000007898
:1018900048B9FFE740F2B860C2F20000007810F0EB
:1018A000EFFA08B1FFE763E19DF89F02C007002847
:1018B00000F09280FFE742F21530C2F2000000789B
:1018C000002800F08980FFE79DF89C02002840F086
:1018D0008280FFE741F63430C2F20000343011F06C
:1018E000DBFD002877D0FFE7359840F2EC31C2F2FB
:1018F000000191ED000A9FEDCF1A20EE010A80ED64
:10190000680A41F6D030C2F2000090F8B10368B323
:10191000FFE7359847F20721C3F61371A59146F208
:10192000F361CBF6DF61A49190ED680A9FEDC21AD6
:10193000B4EE410AF1EE10FA06DDFFE747F20720A8
:10194000C3F61370A690FFE7359890ED680A9FEDF7
:10195000BB1AB4EE410AF1EE10FA06DAFFE746F2DE
:10196000F360CBF6DF60A690FFE72DE041F6343060
:10197000C2F20000343011F099FDA390A398007CCE
:1019800008BBFFE7359890ED680AA39890ED021A1E
:10199000B4EE410AF1EE10FA04DDFFE7A398806887
:1019A000A690FFE7359890ED680AA39890ED011A8C
:1019B000B4EE410AF1EE10FA04DAFFE7A3984068AA
:1019C000A690FFE7FFE7FFE7A69840F23401C2F2D6
:1019D0000001C866FFE7CAE09DF89F02C007002823
:1019E00000F0C480FFE70FF0C5FEA290A29811F0AE
:1019F00073FF51EC100BFEF781FE01463598A19163
:101A00004CF6CD41C3F64C51A09190ED630A9FED89
:101A10008C1AB4EE410AF1EE10FA0EDDFFE73598AC
:101A200090ED630A9FED871AB4EE410AF1EE10FAC9
:101A300003DAFFE70020A190FFE7359843F2333146
:101A4000C4F233019F9190ED630A9FED7F1A20EE5F
:101A5000010A80ED600A41F26F20C3F683209D9059
:101A600041F63430C2F20000343011F015FD002888
:101A70007BD0FFE7359840F23401C2F2000191EDCE
:101A80001B1A90ED600A9FED712A20EE020A30EEDB
:101A9000010A80ED5E0A41F6D030C2F2000090F8F3
:101AA000B10368B3FFE7359847F20721C3F6137116
:101AB0009B914FF63521CBF68E619A9190ED5E0A9F
:101AC0009FED5D1AB4EE410AF1EE10FA06DDFFE774
:101AD00047F20720C3F613709C90FFE7359890ED0E
:101AE0005E0A9FED5B1AB4EE410AF1EE10FA06DAD7
:101AF000FFE74FF63520CBF68E609C90FFE72DE098
:101B000041F63430C2F20000343011F0CFFC99902D
:101B10009998007C08BBFFE7359890ED5E0A99988C
:101B200090ED021AB4EE410AF1EE10FA04DDFFE77F
:101B3000999880689C90FFE7359890ED5E0A999897
:101B400090ED011AB4EE410AF1EE10FA04DAFFE763
:101B5000999840689C90FFE7FFE7FFE79C9840F268
:101B60003401C2F20001C866FFE7FFE7FFE7FFE7C5
:101B700040F29860C2F20000007848B9FFE740F2F6
:101B8000B860C2F20000007810F07AF908B1FFE7FF
:101B900005E29DF89F02C00760B3FFE742F21530EF
:101BA000C2F20000007828B3FFE79DF89C0200BB5A
:101BB000FFE741F63430C2F2000011F06DFCC0B115
:101BC000FFE7359840F2EC31C2F2000191ED010AD5
:101BD00091ED0B1A30EE410A9FED1E1A20EE010A1C
:101BE00080ED5A0A989840F23401C2F20001086070
:101BF000FFE7D3E19DF89F02C007002800F0CD81E8
:101C0000FFE70FF0B7FD979011F034F911F038FFAE
:101C1000969096980138B0FA80F040098DF85702F6
:101C20000020949041F6D030C2F2000090F8B10349
:101C300078B313E035FA8E3C0772133FF366DFBECC
:101C4000CDCC4CBDCDCC4C3D333333406F12833AB9
:101C500035FA8EBE35FA8EBC0000000041F6B87031
:101C6000C2F2000011F094FB35981FED061A20EE29
:101C7000010A80ED560A949841F6D031C2F2000173
:101C8000C1F8AC03949840F2FC11C2F20001486024
:101C9000FFE79DF8570200F001008DF84F029DF814
:101CA0004F120020289051B3FFE742F21730C2F2E2
:101CB0000000017801202790F1B1FFE740F2FC100D
:101CC000C2F20000017D01200129279014D1FFE715
:101CD00041F6D030C2F2000090F8081101202790A0
:101CE00051B9FFE740F23400C2F20000007F002843
:101CF00018BF01202790FFE727982890FFE7289832
:101D000000F001008DF84E029DF84F120020269041
:101D100051BBFFE742F21730C2F200000178012008
:101D20002590F1B9FFE740F2FC10C2F20000017DFE
:101D300001202590A9B9FFE741F6D030C2F200009A
:101D400090F808110120012925900AD1FFE740F2FF
:101D50003400C2F20000007F013818BF0120259036
:101D6000FFE725982690FFE7269800F001008DF800
:101D70004D029DF84E02C007B0B1FFE7359890EDD7
:101D8000560A41F6D030C2F200000CF063FC40F27B
:101D9000FC11C2F200010120087540F23401C2F2C8
:101DA0000001002008771FE09DF84D02C007D0B168
:101DB000FFE741F6D030C2F20000249090EDEA0A2D
:101DC0000CF02EFC249840F2FC12C2F2000200211A
:101DD000117540F23401C2F2000101220A77D0F8F5
:101DE000A8030860FFE7FFE79DF84F0242F21731B2
:101DF000C2F200010870979811F066FD51EC100BCB
:101E0000FEF77CFC0146359892914CF6CD41C3F625
:101E10004C51919190ED540A1FED771AB4EE410A9E
:101E2000F1EE10FA0EDDFFE7359890ED540A1FED44
:101E30007B1AB4EE410AF1EE10FA03DAFFE7002054
:101E40009290FFE7359843F23331C4F23301909119
:101E500090ED540A1FED841A20EE010A80ED510A1C
:101E600041F63430C2F2000011F016FB002800F0F9
:101E70009380FFE79DF85702C007002874D0FFE762
:101E80008F9840F2FC11C2F2000108608868CA68AD
:101E90001A9209691C91FEF71EFC02461A981B92C1
:101EA0000A461B9942EC101B8DED1E0BFEF713FC2E
:101EB00002461C981D920A461D9942EC101B8DED9E
:101EC000200BFEF708FC9DED1E0B9DED201B41EC49
:101ED000120B88A810F06CFC359890ED510AD0EDEB
:101EE000560A8899899A8A9BDDF82CC2DDF830E27F
:101EF0008D9C8594CDF810E2CDF80CC2829381922E
:101F0000809190ED421B90ED442B90ED463B41F6C5
:101F1000D030C2F200000CF0FFFA359880ED490A8B
:101F200042F27801C2F200010968239190ED490A5A
:101F30008DED220A41F63430C2F2000011F0B6FAFB
:101F40009DED220A0146239891ED031A20EE012A05
:101F500001215FEDBF1AB0EE610AF0EE610AB0EE4A
:101F6000611A0EF037F816E0359841F26F21C3F68A
:101F700083217F9190ED510A40F23400C2F20000BB
:101F800090ED001A1FEDCF2A20EE020A30EE010A72
:101F900080ED000AFFE7FFE7FFE7FFE7FFE710F04C
:101FA00069FF10F0C1FE40F2B860C2F20000007894
:101FB0000FF066FF8DF8FB019DF89E02C00730B15F
:101FC000FFE740F21C40C2F20000199005E040F229
:101FD0003400C2F200001990FFE7199963A86C223F
:101FE000FEF723F940F23400C2F200000168639169
:101FF00090F838008DF8C4019DF89E02C00738B1F2
:10200000FFE740F21C40C2F200006C30189006E07E
:1020100040F23400C2F200006C301890FFE71899CB
:1020200048A86C22FEF701F940F23400C2F2000029
:10203000C16E489190F8A4008DF858019DF89E0259
:1020400000F0010041F6D031C2F2000181F8B00386
:1020500040F2FC10C2F20000007D28B1FFE79DF8BD
:10206000FB01C00740B1FFE741F6D031C2F20001E9
:1020700063A80AF065FAFFE741F6D030C2F200002B
:10208000179000F59C7148A80AF05AFA179940F287
:102090003400C2F20000D83001F51C710AF050FA89
:1020A00041F6B870C2F2000011F086F901461798A7
:1020B000002918BF012180F8B11390F8B10348B38B
:1020C000FFE741F6B870C2F20000149011F07CF9FD
:1020D00014989FED4B1A8DED151A20EE410A41F62A
:1020E000D031C2F20001169181EDEA0A11F050F9E7
:1020F00014989DED151A169920EE410A81EDEB0A10
:1021000011F050F99DED151A169820EE010A80ED98
:10211000ED0AFFE742F27800C2F20000026842F2E4
:102120007400C2F20000036841F6D030C2F2000031
:10213000119041F63431C2F200010F910CF08CFE87
:102140000F9840F24821C2F200010E910AF0BEF849
:102150000E990F983430109034310AF0B7F80E9978
:102160000F986830139068310AF0B0F80F9A119800
:1021700040F23401C2F2000112910AF09BF9109A68
:102180001198129900F59C706C310AF093F911982E
:102190001299139A00F51C70D8310AF08BF99DF84A
:1021A0009E02C007D8B1FFE741F6D030C2F200006E
:1021B0000B9040F21C41C2F200010C9141F6343206
:1021C000C2F200020D920AF075F90B980C990D9A63
:1021D00000F59C706C3134320AF06CF9FFE740F284
:1021E0003401C2F2000101F16C0241F6D030C2F2BA
:1021F00000000AF059F89DF89E02C00778B101E08E
:1022000035FA8E3C40F21C41C2F2000101F16C0231
:1022100041F6D030C2F200000AF046F8FFE70FF0B6
:10222000A9FA4790479811F03FFB51EC100BFEF7CD
:1022300065FA40F28851C2F200010891086047989F
:1022400011F03AFB51EC100BFEF758FA0899486070
:10225000479811F039FB51EC100BFEF74FFA089933
:102260008860479811F038FB51EC100BFEF746FAE6
:102270000899C860479811F00BFB089908744798B3
:1022800011F00CFB08994874479811F0EFFA359853
:1022900080ED040B80ED061B90ED040B51EC100B50
:1022A000FEF72CFA08994861479811F0DFFA359843
:1022B00080ED000B80ED021B90ED020B51EC100B3A
:1022C000FEF71CFA08998861479811F00DFB0899F0
:1022D0008DF8F7009DF8F70000F0010008774798A7
:1022E00011F002FB08998DF8F6009DF8F600C0F396
:1022F00040004877479811F09BFA0899ADF8F40030
:102300009DF8F40000F0010088779DF8F400C0F318
:102310004000C8779DF8F400C0F3800081F82000E9
:102320009DF8F400C0F3C00081F821009DF8F4008E
:10233000C0F3001081F822009DF8F400C0F34010B3
:1023400081F823009DF8F400C0F3801081F8240088
:102350009DF8F400C00981F825009DF8F50000F013
:10236000010081F826009DF8F500C0F3400081F8D7
:1023700027009DF8F500C0F3800081F828009DF843
:10238000F500C0F3C00081F829009DF8F500C0F306
:10239000001081F82A009DF8F500C0F3401081F884
:1023A0002B009DF8F500C0F3801081F82C009DF8FB
:1023B000F500C00981F82D00479811F0A1FA51EC01
:1023C000100BFEF79BF90899086347980FF014FA71
:1023D000089980F0010081F8340041F6B870C2F22B
:1023E0000000099010F08EFF099840F23861C2F2A7
:1023F00000010A9181ED000A10F0D4FF09980A99B2
:1024000081ED010A10F0A6FF09980A9981ED020AF0
:1024100010F0AAFF09980A9981ED030A10F0AEFFA7
:1024200009980A9981ED040A10F0B2FF09980A99F7
:1024300081ED050A10F070FF09980A9981ED060AEE
:1024400010F074FF09980A9981ED070A10F078FFDF
:1024500009980A9981ED080A10F0BEFF09980A99B7
:1024600081ED090A10F0C2FF09980A9981ED0A0A64
:1024700010F0C6FF09980A9981ED0B0A10F0CAFF07
:1024800009980A9981ED0C0A10F09EFF09980A99A3
:1024900081ED0D0A10F02EFF0A9A0146099882F884
:1024A000381010F089FF0A9981F8390042F288004B
:1024B000C2F200000068002858D0FFE742F288000E
:1024C000C2F20000069000680121059111F05CF84D
:1024D0000698059940F27862C2F20002079282EDF6
:1024E000000A006811F0B6F806980599079A82ED7F
:1024F000010A006811F0D0F806980599079A82ED54
:10250000020A006811F084F806980599079A82ED8E
:10251000030A006810F0E6FF0599079B024606983B
:102520003C923C9AD2881A823C9A92885A823C9A6F
:1025300052889A823C9A12789A75006810F0C4FF0B
:102540000599079B024606983B923B9A52881A834C
:102550003B9A12799A763B9A527902F00102DA7626
:1025600000680EF0BBFE07990877FFE742F28C0087
:10257000C2F200000068002860D0FFE742F28C0041
:10258000C2F2000000683A903A980121029111F0DD
:10259000A5F8029940F20060C2F20000049080EDBC
:1025A000000A3A9810F0C8FF0299049880ED010AD9
:1025B0003A9811F0F9F80299049880ED020A3A98D5
:1025C00011F014F90299049880ED030A3A9811F079
:1025D000C9F80299049880ED040A3A980EF016FFA3
:1025E000049908753A980221039111F077F803993C
:1025F000049880ED060A3A9810F09EFF039904981B
:1026000080ED070A3A9811F0CFF80399049880ED0D
:10261000080A3A9811F0EAF80399049880ED090A3B
:102620003A9811F09FF80399049880ED0A0A3A98B5
:102630000EF0ECFE049981F82C00FFE70AF0BAFADC
:102640000AF064F98DF8E70040F2EC30C2F20000C5
:1026500090F82800002818BF01208DF8E6009DF8AA
:10266000E700C00728B9FFE79DF8E600C007B8B14A
:10267000FFE742F21630C2F200000178013101702A
:10268000007805280BDBFFE742F21631C2F20001A9
:10269000002008700AF08EFA0AF0E0F9FFE7FFE781
:1026A00042F21430C2F2000001780131017000786A
:1026B000022809DBFFE742F21431C2F200010020D8
:1026C000087009F073FDFFE741F61430C2F2000014
:1026D0000078BFF35F8FC007B0B9FFE741F6143051
:1026E000C2F2000013F09DFE70B1FFE710F006FA91
:1026F00042F21031C2F20001086041F61430C2F219
:10270000000013F0A4FEFFE742F21030C2F2000016
:102710000190006810F022F90198006810F014FA96
:102720000DF5327D10BD000084B002900191029839
:1027300090F820008DF803009DF80300012805D0D3
:10274000FFE79DF8030002280AD1FFE7019A0298EB
:10275000016848691043486100208DF80F0008E0C7
:102760000299486A40F48020486201208DF80F00E9
:10277000FFE79DF80F0004B07047000088B0069096
:10278000059104920393069890F820008DF80700B5
:1027900006980068806800900598806808B9FFE78F
:1027A00000E0FFE79DF80700012806D0FFE79DF84D
:1027B0000700022840F08080FFE79DF803004007F3
:1027C00000280CD4FFE79DF803000007002806D47A
:1027D000FFE79DF80300C006002864D5FFE70098D6
:1027E000C0F30160029002990120884003990860BB
:1027F0000598806868B9FFE705980168C06840EAF5
:10280000415006990968029A01EB0211C1F8800152
:102810000EE005994A688868C96840EAC200084322
:1028200006990968029A01EB0211C1F88001FFE7DD
:102830000598006906990968029A01EB0211C1F82E
:1028400084010598007D01280CD1FFE706980068F7
:10285000029900EB0111D1F8840140F48070C1F8B5
:102860008401FFE70498406806990968029A01EB21
:102870000211C1F88C010498006806990968029A4F
:1028800001EB0211C1F8880106980068029900EB7B
:102890000111D1F8800140F00100C1F88001002051
:1028A0008DF81F0011E00699486A40F40010486254
:1028B00001208DF81F0008E00699486A40F4802046
:1028C000486201208DF81F00FFE79DF81F0008B047
:1028D0007047000086B004900391049890F820009F
:1028E0008DF803009DF80300012806D0FFE79DF84E
:1028F0000300022840F0B080FFE746F20040C4F237
:10290000000001900199D1F8000240F00100C1F8E7
:1029100000020199D1F8000220F47C50C1F80002B5
:102920000398426A0199D1F8000240EA0220C1F8F6
:1029300000020398406900F01F01012088400290C6
:10294000029A0199D1F81C029043C1F81C02039825
:10295000C069F0B9FFE7029A0199D1F80C029043DF
:10296000C1F80C02039A9088D168526940EA01408C
:10297000019901EBC201C1F84002039A10889168E5
:10298000526940EA0140019901EBC201C1F84402D9
:10299000FFE70398C06901281ED1FFE7029A019959
:1029A000D1F80C021043C1F80C02039A9088116808
:1029B000526940EA0140019901EBC201C1F84002AD
:1029C000039A90899168526940EA0140019901EBAC
:1029D000C201C1F84402FFE70398806940B9FFE7EC
:1029E000029A0199D1F804029043C1F8040207E069
:1029F000029A0199D1F804021043C1F80402FFE7DA
:102A00000398006940B9FFE7029A0199D1F81402CE
:102A10009043C1F8140207E0029A0199D1F8140218
:102A20001043C1F81402FFE70398006A012808D197
:102A3000FFE7029A0199D1F81C021043C1F81C0269
:102A4000FFE70199D1F8000220F00100C1F800026F
:102A500000208DF8170008E00499486A40F48020AF
:102A6000486201208DF81700FFE79DF8170006B0B7
:102A70007047000080B582B001900198006846F26E
:102A80000041C4F20001884201D0FFE730E0019824
:102A900000F030F8009042F2D461C2F20001086800
:102AA00001300860009842F2D861C2F2000108606B
:102AB0009DF801008007002808D5FFE742F2E46195
:102AC000C2F20001086801300860FFE79DF80000CD
:102AD0004007002808D5FFE742F2D061C2F20001AA
:102AE000086801300860FFE7019900204862FFE7AD
:102AF00002B080BD81B000900098406A01B070477C
:102B000084B00390029100200190039890F8200077
:102B10008DF803009DF80300012805D0FFE79DF81C
:102B20000300022812D1FFE7029838B9FFE70398A3
:102B30000068C06800F00300019006E00398006898
:102B4000006900F003000190FFE7FFE7019804B07F
:102B50007047000086B0049003910292019304989C
:102B600090F820008DF803009DF80300012806D09E
:102B7000FFE79DF80300022840F0E880FFE7039894
:102B800080B9FFE704980068C068800748B9FFE78C
:102B90000499486A40F40010486201208DF817003B
:102BA000DDE00FE0049800680069800748B9FFE79E
:102BB0000499486A40F40010486201208DF817001B
:102BC000CDE0FFE704980068039900EB0110D0F80E
:102BD000B00100F00400029988600298806858B93A
:102BE000FFE704980068039900EB0110D0F8B001EA
:102BF000400D029908600AE004980068039900EB10
:102C00000110D0F8B001C00802994860FFE70498AD
:102C10000068039900EB0110D0F8B00100F0020049
:102C20000299C86004980068039900EB0110D0F87D
:102C3000B40100F00F00082804D3FFE70299082030
:102C400008610BE004980068039900EB0110D0F8CC
:102C5000B40100F00F0002990861FFE704980068D2
:102C6000039900EB0110D0F8B40180B2000A029978
:102C7000886104980068039900EB0110D0F8B40152
:102C8000000C0299486104980068039900EB011058
:102C9000D0F8B8010199087004980068039900EB16
:102CA0000110D0F8B801000A019948700498006832
:102CB000039900EB0110D0F8B801000C019988705D
:102CC00004980068039900EB0110D0F8B801000ED9
:102CD0000199C87004980068039900EB0110D0F8BE
:102CE000BC010199087104980068039900EB011078
:102CF000D0F8BC01000A0199487104980068039952
:102D000000EB0110D0F8BC01000C01998871049807
:102D10000068039900EB0110D0F8BC01000E019986
:102D2000C871039838B9FFE704980168C86840F093
:102D30002000C86006E004980168086940F020009F
:102D40000861FFE700208DF8170008E00499486A41
:102D500040F48020486201208DF81700FFE79DF8BD
:102D6000170006B07047000083B002900020019069
:102D7000029890F820008DF803009DF803000128C8
:102D800005D0FFE79DF80300022822D1FFE7029853
:102D9000006880684001002804D5FFE701980130F1
:102DA0000190FFE70298006880680001002804D5C0
:102DB000FFE7019801300190FFE702980068806802
:102DC000C000002804D5FFE7019801300190FFE71B
:102DD000FFE7019803B0704780B58AB009900020E2
:102DE0000890099800684069079009980068406851
:102DF0000690099800688068059009980068C06886
:102E00000490099800680069039009980068806937
:102E100002909DF81C00C007002800F09480FFE796
:102E20009DF81400C00758B3FFE709980168012016
:102E300088609DF814008007002804D5FFE70998F2
:102E400000F06AFD1BE09DF814004007002805D53E
:102E5000FFE7089840F4006008900FE09DF8140028
:102E60000007002805D5FFE7089840F48050089037
:102E700003E0099800F04CFDFFE7FFE7FFE7FFE7FD
:102E80009DF81500C00760B3FFE7099801684FF48B
:102E9000807088609DF815008007002804D5FFE742
:102EA000099800F041FD1BE09DF81500400700283F
:102EB00005D5FFE7089840F4005008900FE09DF812
:102EC00015000007002805D5FFE7089840F480406A
:102ED000089003E0099800F023FDFFE7FFE7FFE714
:102EE000FFE79DF81600C00760B3FFE70998016887
:102EF0004FF4803088609DF816008007002804D5C4
:102F0000FFE7099800F018FD1BE09DF81600400748
:102F1000002805D5FFE7089840F4004008900FE02E
:102F20009DF816000007002805D5FFE7089840F433
:102F30008030089003E0099800F0FAFCFFE7FFE713
:102F4000FFE7FFE7FFE79DF81C000007002810D50A
:102F5000FFE79DF81000C006002809D5FFE7089894
:102F600040F400700890099801681020C860FFE7DD
:102F7000FFE79DF81C00400700280FD5FFE79DF8EC
:102F800010000007002808D5FFE70998016808200D
:102F9000C860099800F0E0FAFFE7FFE79DF81C0021
:102FA000800700280BD5FFE709980068C0688007F4
:102FB00020B1FFE7099800F0E5FAFFE7FFE79DF889
:102FC0001C004006002810D5FFE79DF80C00C00645
:102FD000002809D5FFE7089840F480600890099818
:102FE000016810200861FFE7FFE79DF81C008006DC
:102FF00000280FD5FFE79DF80C000007002808D532
:10300000FFE70998016808200861099800F088FB2B
:10301000FFE7FFE79DF81C00C00600280BD5FFE77F
:10302000099800680069800720B1FFE7099800F05F
:103030007BFBFFE7FFE79DF81E00800700280FD508
:10304000FFE79DF81800C006002808D5FFE709989B
:10305000016810204860099800F010FCFFE7FFE7C6
:103060009DF81E00C00778B1FFE79DF81800000723
:10307000002808D5FFE709980168082048600998EA
:1030800000F05EFCFFE7FFE79DF81D00000600284A
:1030900040F18D80FFE79DF818004007002840F1BF
:1030A0008180FFE79DF81D00C00750B1FFE79DF844
:1030B0000800C00728B1FFE7089840F00100089019
:1030C000FFE79DF81D00800700280BD5FFE79DF85E
:1030D00008008007002805D5FFE7089840F00200A7
:1030E0000890FFE79DF81D00400700280BD5FFE77B
:1030F0009DF808004007002805D5FFE7089840F034
:1031000004000890FFE79DF81D000007002848D53F
:10311000FFE79DF8080010F0700F42D0FFE702981B
:1031200000F0700001460191102814D0FFE70198CB
:10313000202815D0FFE70198302816D0FFE7019826
:10314000402817D0FFE70198502818D0FFE70198D2
:10315000602819D01DE0089840F00800089019E098
:10316000089840F01000089014E0089840F0200003
:1031700008900FE0089840F0400008900AE0089896
:1031800040F08000089005E0089840F480700890B6
:1031900000E0FFE709980168886920F07000886105
:1031A000FFE7FFE70998016804204860FFE70898F7
:1031B00048B1FFE7089A0999486A1043486209989C
:1031C000FFF758FCFFE70AB080BD000080B584B06F
:1031D0000290029820B9FFE701208DF80F00E0E08F
:1031E000029890F8200020B9FFE7029800F0DEF87E
:1031F000FFE702980168086840F00100086001F0EC
:10320000E9F80190FFE7029800684068C007A8B994
:10321000FFE701F0DFF80199401A0B280DD3FFE713
:103220000299486A40F4003048620299052081F80A
:10323000200001208DF80F00B3E0E4E70298016858
:10324000086820F00200086001F0C4F80190FFE770
:103250000298006840688007002815D5FFE701F054
:10326000B9F80199401A0B280DD3FFE70299486A73
:1032700040F4003048620299052081F820000120C6
:103280008DF80F008DE0E3E70298007E012807D15A
:10329000FFE702980168086840F08000086006E0D7
:1032A00002980168086820F080000860FFE7029833
:1032B000407E012807D1FFE702980168086840F0C6
:1032C0004000086006E002980168086820F04000AD
:1032D0000860FFE70298807E012807D1FFE7029887
:1032E0000168086840F02000086006E00298016864
:1032F000086820F020000860FFE70298C07E0128DF
:1033000007D1FFE702980168086820F01000086004
:1033100006E002980168086840F010000860FFE7C6
:103320000298007F012807D1FFE70298016808682A
:1033300040F00800086006E002980168086820F084
:1033400008000860FFE70298407F012807D1FFE7E7
:1033500002980168086840F00400086006E00298DE
:103360000168086820F004000860FFE7029B196804
:103370005A689868D3F80CC040EA0C00D3F810C023
:1033800040EA0C005B691843013A1043C861029996
:1033900000204862029A012182F820108DF80F0067
:1033A000FFE79DF80F0004B080BD000080B594B029
:1033B000139000201290119010900F900E9013987F
:1033C000006846F20041C4F20001884253D1FFE791
:1033D00040F23460C2F2000001680131016000680F
:1033E000012812D1FFE7FFE700200D9043F64000CF
:1033F000C4F20200016841F000710160006800F051
:1034000000700D900D98FFE7FFE7FFE700200C909C
:1034100043F63000C4F20200016841F00801016087
:10342000006800F008000C900C98FFE703200E9055
:1034300002210F9100210791109111900920129003
:1034400040F60040C4F202000EA900F0E7FD079A22
:10345000142005900521069101F09AF8059801F0D5
:103460008DF80699079A1520089001F091F80898B0
:1034700001F084F86EE01398006846F60001C4F28B
:103480000001884265D1FFE7FFE700200B9043F67B
:103490004000C4F20200016841F0806101600068F0
:1034A00000F080600B900B98FFE740F23460C2F2AE
:1034B00000000168013101600068012812D1FFE7B6
:1034C000FFE700200A9043F64000C4F202000168C2
:1034D00041F000710160006800F000700A900A98E5
:1034E000FFE7FFE7FFE70020099043F63000C4F252
:1034F0000200016841F002010160006800F0020072
:1035000009900998FFE760200E9002200F9000209C
:1035100003901090032011900920129040F2004077
:10352000C4F202000EA900F079FD039A4020019038
:103530000521029101F02CF8019801F01FF8029981
:10354000039A4120049001F023F8049801F016F842
:10355000FFE7FFE714B080BD81B0009000980068DD
:1035600046F20041C4F20001884208D1FFE742F26E
:10357000E061C2F20001086801300860FFE701B0B5
:103580007047000080B588B007900798006846F241
:103590000041C4F20001884240F0B480FFE70020FF
:1035A000069005900490039002900190FFE7079821
:1035B000002101AA08F02CFE002800F0A280FFE7FD
:1035C00042F21071C2F200010868013008600398ED
:1035D00042F20C71C2F2000108609DF81800C007A9
:1035E000E8B9FFE79DF81900C007C0B9FFE79DF8EB
:1035F0001000082813D1FFE703980F280FD8FFE722
:103600009DF804100320B0EB111F08D1FFE742F230
:10361000DC61C2F20001086801300860FFE703982E
:10362000009010B3FFE70098012826D0FFE700982C
:1036300002282AD0FFE7009803282ED0FFE7009841
:10364000042832D0FFE7009840F24111884234D07C
:10365000FFE7009840F20121884236D0FFE700984A
:1036600040F20221884238D03FE042F2E861C2F2E3
:1036700000010868013008603FE042F2EC61C2F2EC
:10368000000108680130086037E042F2F061C2F2E0
:1036900000010868013008602FE042F2F461C2F2D4
:1036A000000108680130086027E042F2F861C2F2C8
:1036B00000010868013008601FE042F2FC61C2F2BC
:1036C000000108680130086017E042F20071C2F2A0
:1036D00000010868013008600FE042F20471C2F294
:1036E000000108680130086007E042F20871C2F288
:1036F0000001086801300860FFE701A808F06AFED1
:1037000055E70AE00798006846F60001C4F2000198
:10371000884201D1FFE7FFE7FFE708B080BD000066
:1037200081B0009001B0704780B588B007900798CD
:10373000006846F60001C4F20001884240F09C8017
:10374000FFE741F61C30C2F200000078BFF35F8F44
:10375000C007C0B9FFE741F61C30C2F2000012F00A
:1037600060FE80B1FFE70EF0B9FB0EF0E5FC42F21F
:103770002031C2F20001086041F61C30C2F20000A4
:1037800012F065FEFFE741F61830C2F20000007843
:10379000BFF35F8FC007B0B9FFE741F61830C2F240
:1037A000000012F03EFE70B1FFE70FF0A7F942F201
:1037B0001C31C2F20001086041F61830C2F200006C
:1037C00012F045FEFFE7FFE742F22030C2F20000B0
:1037D000006801684A6901A9904700284BD0FFE7BB
:1037E00042F22071C2F200010868013008600398BB
:1037F00040F20121884206D0FFE7039840F20221FF
:10380000884217D1FFE7039840F20121884208D18E
:10381000FFE742F21471C2F200010868013008604B
:1038200007E042F21871C2F2000108680130086036
:10383000FFE71FE0039840F20721884205D0FFE729
:103840000398B0F5027F0CD1FFE742F21C30C2F2C0
:103850000000006803999DF8103001AA0EF0C0FF27
:1038600007E042F21C71C2F20001086801300860F2
:10387000FFE7FFE7A8E7FFE708B080BD81B0009051
:1038800001B0704780B584B00290029890F8200093
:1038900001282FD1FFE70299022081F82000029829
:1038A0000168086820F00100086000F093FD0190B5
:1038B000FFE7029800684068C007A8B1FFE700F082
:1038C00089FD0199401A0B280DD3FFE70299486A38
:1038D00040F4003048620299052081F82000012060
:1038E0008DF80F000FE0E4E70299002048628DF8A0
:1038F0000F0008E00299486A40F400204862012065
:103900008DF80F00FFE79DF80F0004B080BD0000A8
:1039100081B0009001B0704781B0009001B0704755
:1039200081B0009001B0704781B0009001B0704745
:1039300081B0009001B0704781B0009001B0704735
:1039400081B0009001B0704780B584B002900298B9
:10395000806D019000F03EFD0090029890F83500D7
:1039600002280DD0FFE7029980204865FFE7029901
:10397000002081F83400FFE701208DF80F0055E0AA
:1039800002980168086820F0160008600298016833
:10399000486920F0800048610298006C20B9FFE778
:1039A0000298806C38B1FFE702980168086820F03F
:1039B00008000860FFE702980168086820F001002D
:1039C0000860FFE7029800680068C007C8B1FFE719
:1039D00000F000FD0099401A062811D3FFE7029974
:1039E000202048650299032081F83500FFE70299FD
:1039F000002081F83400FFE703208DF80F0015E068
:103A0000E0E70298C16D3F208840019988600299E3
:103A1000012081F83500FFE70299002081F8340089
:103A2000FFE7FFE700208DF80F00FFE79DF80F008C
:103A300004B080BD82B00090009890F83500022854
:103A400007D0FFE700998020486501208DF8070026
:103A50000EE00099052081F835000098016808689B
:103A600020F001000860FFE700208DF80700FFE765
:103A70009DF8070002B0704781B000900098406D3B
:103A800001B0704780B586B005900020039040F2E9
:103A90000030C2F20000006848F2B511C1F64E31A4
:103AA000A0FB0110800A02900598806D019001989A
:103AB0000068049004980599C96DC8400007002863
:103AC0001AD5FFE70598006800684007002812D55E
:103AD000FFE705980168086820F004000860059871
:103AE000C16D08208840019988600599486D40F0B3
:103AF00001004865FFE7FFE704980599C96DC840D4
:103B0000C007A0B1FFE705980068406900060028DB
:103B10000CD5FFE70598C16D0120884001998860A8
:103B20000599486D40F002004865FFE7FFE70498FB
:103B30000599C96DC8404007002814D5FFE70598CE
:103B400000680068800700280CD5FFE70598C16D64
:103B500004208840019988600599486D40F0040070
:103B60004865FFE7FFE704980599C96DC840C0069E
:103B7000002847D5FFE7059800680068000700287F
:103B80003FD5FFE70598C16D1020884001998860F6
:103B9000059800680068400300281AD5FFE70598DB
:103BA000006800680003002809D4FFE70598006C4E
:103BB00020B1FFE70598016C8847FFE708E005980A
:103BC000806C20B1FFE70598816C8847FFE7FFE72D
:103BD00016E0059800680068C005002807D4FFE7D4
:103BE00005980168086820F008000860FFE705985C
:103BF000006C20B1FFE70598016C8847FFE7FFE7FD
:103C0000FFE7FFE704980599C96DC84080060028C2
:103C100040F18D80FFE7059800680068C006002825
:103C200040F18480FFE70598C16D2020884001990C
:103C30008860059890F83500052834D1FFE705988D
:103C40000168086820F01600086005980168486956
:103C500020F0800048610598006C20B9FFE70598C6
:103C6000806C38B1FFE705980168086820F008000B
:103C70000860FFE70598C16D3F2088400199886082
:103C80000599012081F83500FFE70599002081F8AA
:103C90003400FFE70598006D20B1FFE70598016D3E
:103CA0008847FFE77BE0059800680068400300282C
:103CB0001AD5FFE70598006800680003002809D4BA
:103CC000FFE70598406C20B1FFE70598416C8847F5
:103CD000FFE708E00598C06B20B1FFE70598C16BCE
:103CE0008847FFE7FFE720E0059800680068C00507
:103CF000002811D4FFE705980168086820F010003B
:103D000008600599012081F83500FFE7059900203A
:103D100081F83400FFE7FFE70598C06B20B1FFE7AB
:103D20000598C16B8847FFE7FFE7FFE7FFE70598C6
:103D3000406DA0B3FFE70598406DC00730B3FFE7C3
:103D40000599052081F8350005980168086820F07C
:103D500001000860FFE70398013003900299884250
:103D600001D9FFE707E0FFE7059800680068C00792
:103D70000028F0D1FFE70599012081F83500FFE721
:103D80000599002081F83400FFE7FFE70598C06C33
:103D900020B1FFE70598C16C8847FFE7FFE706B051
:103DA00080BD000080B586B004900020039000F034
:103DB00011FB0290049820B9FFE701208DF817004D
:103DC000A3E00498406A08B1FFE7FFE704990220E6
:103DD00081F83500FFE70499002081F83400FFE7FF
:103DE00004980168086820F001000860FFE7049863
:103DF00000680068C00790B1FFE700F0EBFA029995
:103E0000401A06280AD3FFE7049920204865049940
:103E1000032081F835008DF8170076E0E7E7049875
:103E2000006800680390039848F23F01CFF2100148
:103E300008400390049900914868D1F808C0CB6805
:103E40000A6940EA0C00184310434A6910438A6922
:103E50001043CA691043096A014303980843039059
:103E60000498406A042808D1FFE70499C86A096BDE
:103E70000143039808430390FFE7039804990968F6
:103E800008600498006840690390039820F00700D8
:103E900003900498416A0398084303900498406A89
:103EA00004281AD1FFE70498816A03980843039015
:103EB0000498C06A80B1FFE70498FCF717FF50B17F
:103EC000FFE70499402048650499012081F83500F6
:103ED0008DF8170019E0FFE7FFE7039804990968D8
:103EE00048610498FCF7D6FE01900498C16D3F200C
:103EF000884001998860049900204865049A01214E
:103F000082F835108DF81700FFE79DF8170006B00E
:103F100080BD000080B588B006900591049203939F
:103F200000208DF80B000698806D0190FFE7069841
:103F300090F83400012804D1FFE702208DF81F001B
:103F400045E00699012081F83400FFE7FFE7069875
:103F500090F8350001282BD1FFE70699022081F85F
:103F6000350006990020486506980599049A039B38
:103F7000FCF734FF0698C16D3F20884001998860A6
:103F800006980168086840F0160008600698006C02
:103F900038B1FFE706980168086840F0080008603B
:103FA000FFE706980168086840F00100086009E032
:103FB000FFE70699002081F83400FFE702208DF822
:103FC0000B00FFE79DF80B008DF81F00FFE79DF841
:103FD0001F0008B080BD000080B584B0039000F0E1
:103FE000F9F90290039801900198013048B1FFE778
:103FF00040F26050C2F2000001780198084401903C
:10400000FFE7FFE700F0E6F90299401A01998842BC
:1040100001D2FFE7F6E704B080BD00008EB00D903E
:104020000C9100200A90099008900B90FFE70B98E4
:104030000F2800F2CC81FFE70B99012088400A90FD
:104040000C9800680A990840099009980A998842D2
:1040500040F0B881FFE70C98406800F003000128A9
:1040600007D0FFE70C98406800F0030002282FD12A
:10407000FFE70D98806808900B984100032000FA34
:1040800001F10898884308900C98C0680B99490082
:1040900000FA01F108980843089008980D99886083
:1040A0000D98406808900B99012000FA01F10898DA
:1040B000884308900C984068C0F300100B9900FAF0
:1040C00001F108980843089008980D994860FFE7A7
:1040D0000C98406800F00300032818D0FFE70D9803
:1040E000C06808900B984100032000FA01F108987D
:1040F000884308900C9880680B99490000FA01F1F8
:1041000008980843089008980D99C860FFE70C9834
:10411000406800F00300022826D1FFE70D980B99B4
:104120006FF0030202EA51010844006A08900B98FC
:1041300000F0070081000F2000FA01F10898884381
:1041400008900C9800690B9901F00701890000FAAA
:1041500001F108980843089008980D990B9B02EA12
:10416000530211440862FFE70D98006808900B980D
:104170004100032000FA01F10898884308900C9848
:10418000406800F003000B99490000FA01F108981B
:104190000843089008980D9908600C98807980076A
:1041A000002800F00E81FFE7FFE70020079043F6AC
:1041B0004400C4F20200016841F4804101600068DB
:1041C00000F4804007900798FFE70B9820F0030069
:1041D00043F60801C4F20101405808900B9800F022
:1041E000030081000F2000FA01F10898884308902D
:1041F0000D980021C4F20201884203D1FFE700209C
:1042000006905EE00D9840F20041C4F2020188423F
:1042100003D1FFE70120059050E00D9840F6000122
:10422000C4F20201884203D1FFE70220049042E079
:104230000D9840F60041C4F20201884203D1FFE725
:104240000320039034E00D9841F20001C4F2020112
:10425000884203D1FFE70420029026E00D9841F246
:104260000041C4F20201884203D1FFE7052001901A
:1042700018E00D9841F60001C4F20201884203D112
:10428000FFE7062000900AE00D9941F60042C4F2D3
:1042900002020820914208BF07200090FFE7009823
:1042A0000190FFE701980290FFE702980390FFE773
:1042B00003980490FFE704980590FFE7059806909F
:1042C000FFE70698C0B20B9901F00301890000FADC
:1042D00001F108980843089008980B9921F0030110
:1042E00043F60802C4F20102885043F60840C4F2C3
:1042F00001000068089009990898884308900C9874
:104300008079C006002805D5FFE709990898084379
:104310000890FFE7089843F60841C4F201010860DD
:1043200043F60C40C4F2010000680890099908980F
:10433000884308900C9880798006002805D5FFE70F
:104340000999089808430890FFE7089843F60C413C
:10435000C4F20101086043F60440C4F201000068A1
:10436000089009990898884308900C9880798007EC
:10437000002805D5FFE70999089808430890FFE74A
:10438000089843F60441C4F20101086043F6004076
:10439000C4F20100006808900999089888430890C1
:1043A0000C988079C00728B1FFE70999089808435D
:1043B0000890FFE7089843F60041C4F20101086045
:1043C000FFE7FFE7FFE70B9801300B902FE60EB0F9
:1043D0007047000047F24C30C2F20000006870479E
:1043E00040F26050C2F20000027847F24C31C2F253
:1043F00000010868104408607047000080B543F66B
:104400000041C4F20201086840F4007008600868C6
:1044100040F480600860086840F480700860032001
:1044200000F0D0F80F2000F005F800F07BF8002035
:1044300080BD000080B58CB00B90002004900390EC
:10444000FFE70020009043F64000C4F2020001683C
:1044500041F010010160006800F010000090009829
:10446000FFE706A802A901F05BFB099804900498F5
:1044700020B9FFE701F084FB059004E001F080FB28
:1044800040000590FFE705984DF68361C4F21B31AB
:10449000A0FB01014FF0FF3000EB9140039043F28D
:1044A000B800C2F2000041F20001C4F20001016054
:1044B00040F2E731C16003994160002101618160F0
:1044C000816101F05DFF8DF807009DF8070028BBB2
:1044D000FFE743F2B800C2F2000001F0A3FF8DF83D
:1044E00007009DF80700C0B9FFE7362000F046F846
:1044F0000B980F280CD8FFE70B993620002200F00C
:1045000047F80B9840F26451C2F20001086003E0E2
:1045100001208DF80700FFE7FFE7FFE79DF80700A0
:104520000CB080BD80B582B0FFE70020019043F65B
:104530004400C4F20200016841F480410160006857
:1045400000F4804001900198FFE7FFE70020009011
:1045500043F64000C4F20200016841F0805101605E
:10456000006800F0805000900098FFE76FF00100B5
:104570000F21002200F00CF802B080BD80B582B09F
:104580008DF807009DF9070010F092FC02B080BD85
:1045900080B586B08DF81700049103920020029038
:1045A00010F09EFC02909DF917000190029804996A
:1045B000039A03F08DF90146019810F099FC06B0BA
:1045C00080BD000080B582B00190019810F0D4FC4D
:1045D00002B080BD82B001908DF8031002B0704728
:1045E00082B00190ADF80210BDF80200019909688F
:1045F0004862002002B0704784B003908DF80B1021
:10460000ADF8082003980068406A00909DF80B0000
:1046100048B9FFE7BDF80810009840EA0140039947
:104620000968886233E003980068816A009800EBAB
:104630001140009000208DF80700FFE79DF807006B
:104640009DF80B100139884213D2FFE703980068E8
:104650009DF8071000EB8100D0F80411009800EBE2
:1046600011400090FFE79DF8070001308DF807002A
:10467000E4E7BDF80810009840EA01400399096892
:104680009DF80B2001EB8201C1F80001FFE700203B
:1046900004B0704780B582B001900198D0F8E00472
:1046A00005F01EFC02B080BD80B582B001908DF88F
:1046B0000310019AD2F8E0049DF8031001EBC10346
:1046C00002EB8302126A05F069FA02B080BD0000B5
:1046D00080B582B001908DF80310019AD2F8E00401
:1046E0009DF8031001EBC10302EB8302D2F86022B4
:1046F00005F01CFB02B080BD80B582B0019001982E
:10470000D0F8E00405F0F2FB02B080BD80B584B0C3
:1047100003908DF80B109DF80B00000600280CD5B7
:10472000FFE703989DF80B1001F00F0101EBC101A9
:1047300000EB8100143001900CE003989DF80B1001
:1047400001F00F0101EBC10100EB810000F51570D4
:104750000190FFE703980068019907F04BF98DF885
:104760000A009DF80A0004B080BD000080B584B046
:1047700002908DF807109DF80700000600280FD55D
:10478000FFE702989DF8071001F00F0101EBC1014E
:1047900000EB8100143000900099012048700FE078
:1047A00002989DF8071001F00F0101EBC10100EB29
:1047B000810000F515700090009900204870FFE717
:1047C0009DF8070000F00F0000990870FFE70298BD
:1047D00090F89404012804D1FFE702208DF80F001F
:1047E00014E00299012081F89404FFE7FFE70298A2
:1047F0000068009906F0EEFBFFE70299002081F8BF
:104800009404FFE700208DF80F00FFE79DF80F00EC
:1048100004B080BD80B584B002908DF807109DF87B
:10482000070000F00F0002990979884204D9FFE7D8
:1048300001208DF80F004DE09DF8070000060028CC
:104840000FD5FFE702989DF8071001F00F0101EB6B
:10485000C10100EB810014300090009901204870E4
:104860000FE002989DF8071001F00F0101EBC10164
:1048700000EB810000F51570009000990020487051
:10488000FFE70099002088709DF8070000F00F00F6
:1048900000990870FFE7029890F89404012804D169
:1048A000FFE702208DF80F0014E00299012081F843
:1048B0009404FFE7FFE702980068009906F0FAFD0C
:1048C000FFE70299002081F89404FFE700208DF8AB
:1048D0000F00FFE79DF80F0004B080BD82B001908B
:1048E0008DF8031001989DF8031001F00F0101EB02
:1048F000C10100EB8100D0F8680202B070470000EF
:1049000080B586B004908DF80F10ADF80C208DF8AE
:104910000B3000208DF80A009DF80F0000060028DB
:104920000FD5FFE704989DF80F1001F00F0101EB80
:10493000C10100EB81001430019001990120487001
:104940000FE004989DF80F1001F00F0101EBC10179
:1049500000EB810000F5157001900199002048706E
:10496000FFE79DF80F0000F00F0001990870BDF8F7
:104970000C006FF3DF20019988609DF80B0001990E
:1049800008710198407820B1FFE7019908784883C1
:10499000FFE79DF80B00022804D1FFE701990020F2
:1049A0004871FFE7FFE7049890F89404012804D1C8
:1049B000FFE702208DF8170015E00499012081F827
:1049C0009404FFE7FFE704980068019906F0CCF92A
:1049D000FFE70499002081F89404FFE79DF80A009E
:1049E0008DF81700FFE79DF8170006B080BD0000A6
:1049F00080B586B005908DF8131003920293059848
:104A00009DF8131001F00F0101EBC10100EB8100D3
:104A100000F51570019003980199C86002980199FA
:104A20000861019900204861019948709DF81300C0
:104A300000F00F000199087005988079012804D1D1
:104A4000FFE703980199C861FFE7059A106801998B
:104A5000927906F0D3FD002006B080BD80B584B009
:104A600002908DF807109DF8070000F00F000299E2
:104A70000979884204D9FFE701208DF80F0058E03A
:104A80009DF80700000600280FD5FFE702989DF863
:104A9000071001F00F0101EBC10100EB81001430A0
:104AA00000900099012048700DE002989DF80710D1
:104AB00001EBC10100EB810000F515700090009939
:104AC00000204870FFE70099012088709DF80700DA
:104AD00000F00F0000990870FFE7029890F8940426
:104AE000012804D1FFE702208DF80F0021E0029990
:104AF000012081F89404FFE7FFE70298006800991D
:104B000006F028FD9DF80700000740B9FFE7029A6C
:104B10001068917902F29C4206F07CFCFFE7FFE707
:104B20000299002081F89404FFE700208DF80F001F
:104B3000FFE79DF80F0004B080BD000080B586B08F
:104B400005908DF813100392029305989DF81310A9
:104B500001F00F0101EBC10100EB81001430019065
:104B600003980199C8600298019908610199002091
:104B700048610199012048709DF8130000F00F0072
:104B80000199087005988079012804D1FFE70398FE
:104B90000199C861FFE7059A10680199927906F0BA
:104BA0002DFD002006B080BD80B58CB00B900B9819
:104BB00000680A900A9809900B98006807F050F86E
:104BC000002840F00C84FFE70B98006807F0B4F869
:104BD00010B9FFE700F003BC0998D0F80808C0F34B
:104BE0000D200B99C1F8D4040B98006807F0A4F8C5
:104BF0008007002807D5FFE70B980168486900F097
:104C000002004861FFE70B98006807F095F8C006BE
:104C1000002862D5FFE70B980168886920F0100032
:104C200088610A98006A02900B98029901F00F01BE
:104C300001EBC10100EB810000F5157008900298AE
:104C400000F4F0110220B0EB514F23D1FFE7BDF883
:104C5000080047F6F07108421BD0FFE70A98089950
:104C6000C968029AC2F30A1207F074F8029847F66C
:104C7000F07100EA0103089AD06800EB1310D060CD
:104C8000029800EA01020899486900EB1210486195
:104C9000FFE71BE0029800F4F0110620B0EB514F43
:104CA00012D1FFE70A980B9901F29C41082207F004
:104CB00051F8029847F6F07100EA01020899486934
:104CC00000EB1210486100E0FFE7FFE70B98016876
:104CD000886940F010008861FFE70B98006807F0D2
:104CE0002BF80003002840F1A680FFE70020049085
:104CF0000B98006806F0CEFF0690FFE706980028A4
:104D000000F09880FFE79DF81800C007002800F029
:104D10008A80FFE70B9800689DF8101006F0F4FFFA
:104D200005909DF81400C00760B1FFE70998049949
:104D300000EB41110120C1F8080B0B98049902F017
:104D40004BFEFFE79DF81400000700280CD5FFE795
:104D50000998049900EB41110820C1F8080B0B9841
:104D6000049902F0F3FDFFE79DF81400C006002847
:104D700008D5FFE70998049900EB41111020C1F80C
:104D8000080BFFE79DF81400800700282DD5FFE7EA
:104D90000A9840690006002808D5FFE70999D1F86C
:104DA000040840F48060C1F80408FFE70B980499F8
:104DB00001EBC10100EB810000F515700890089827
:104DC000C078012809D1FFE708990020C8700B9826
:104DD0009DF8101000F014FBFFE70998049900EB10
:104DE00041110220C1F8080BFFE79DF8140080066E
:104DF000002808D5FFE70998049900EB411120200D
:104E0000C1F8080BFFE79DF815008006002809D5BA
:104E1000FFE70998049900EB41114FF40050C1F8E5
:104E2000080BFFE7FFE7049801300490069840085C
:104E3000069063E7FFE70B98006806F07DFF4003EC
:104E4000002840F1C680FFE70B98006806F010FFCD
:104E5000069000200490FFE70698002800F0B88034
:104E6000FFE79DF81800C007002800F0AA80FFE7C0
:104E70000B9800689DF8101006F01EFF05909DF835
:104E80001400C00700283ED0FFE7049800F00F018F
:104E9000012000FA01F10391039B099AD2F834181A
:104EA0009943C2F834180999049A01EB4211C1F8E8
:104EB00008090B98807901281FD1FFE70B98049906
:104EC00001EBC10100EB8101CA69086A1044086264
:104ED000049888B9FFE70B98049901EBC10100EB36
:104EE0008100406A40B9FFE70B99086801F29C42D3
:104EF000012106F08FFAFFE7FFE70B989DF81010ED
:104F0000FFF7D2FBFFE79DF814000007002808D543
:104F1000FFE70998049900EB41110820C1F808093E
:104F2000FFE79DF81400C006002808D5FFE70998A0
:104F3000049900EB41111020C1F80809FFE79DF822
:104F400014004006002808D5FFE70998049900EBF3
:104F500041114020C1F80809FFE79DF814008007BF
:104F6000002822D5FFE70A98049906F015FE0B9851
:104F7000049901EBC10100EB8100143008900898FE
:104F8000C078012809D1FFE708990020C8700B9864
:104F90009DF8101000F026FAFFE70998049900EB3D
:104FA00041110220C1F80809FFE79DF8140000062E
:104FB000002805D5FFE70B98049902F0F1FDFFE703
:104FC000FFE704980130049006984008069043E7F4
:104FD000FFE70B98006806F0AFFEC00F00B3FFE7D5
:104FE0000999D1F8040820F00100C1F804080B98D1
:104FF00090F8CC04012808D1FFE70B98002180F835
:10500000CC140B98FFF7E6FA03E00B9800F0AAFB2C
:10501000FFE70B980168486900F000404861FFE72E
:105020000B98006806F088FE0005002811D5FFE700
:105030000998D0F80808C00720B1FFE70B9800F0E6
:105040001DFCFFE70B980168486900F400604861A7
:10505000FFE70B98006806F06FFEC004002840F1DF
:105060008680FFE70999D1F8040820F00100C1F813
:1050700004080B980068102106F08EFD00200790B0
:10508000FFE707980B990979884231D2FFE7099821
:10509000079900EB41114FF67F30C1F808090999D3
:1050A000079A01EB4212D2F8001921F40011C2F85C
:1050B00000190999079A01EB4211C1F8080B0998E8
:1050C000079900EB4111D1F8000B20F40010C1F852
:1050D000000B0998079900EB4111D1F8000B40F043
:1050E0000060C1F8000BFFE7079801300790C8E7A0
:1050F0000999D1F81C0840F00110C1F81C080B9860
:10510000C07B78B1FFE70999D1F8840840F00B0023
:10511000C1F884080999D1F8440840F00B00C1F89F
:1051200044080FE00999D1F8140842F22B02104309
:10513000C1F814080999D1F8100840F00B00C1F823
:105140001008FFE70999D1F8000820F4FE60C1F8C3
:1051500000080B9A1068917902F29C4206F05AF905
:105160000B980168486900F480504861FFE70B988C
:10517000006806F0E1FD800400281FD5FFE70B98CA
:10518000006805F061FE0B98006806F043FD0B997E
:10519000C8710B980068019000F0ECFC0146019882
:1051A0000B9AD27906F0CEFE0B9800F0B1FA0B986C
:1051B0000168486900F400504861FFE70B980068F7
:1051C00006F0BAFD000700280AD5FFE70B9800F0AB
:1051D000D3FA0B980168486900F008004861FFE7BE
:1051E0000B98006806F0A8FD0006002825D5FFE70B
:1051F0000A99886920F08000886101200490FFE707
:1052000004980B990979884216D2FFE70B98049904
:1052100001EBC10100EB810090F85702012806D193
:10522000FFE70B989DF81010FFF770FAFFE7FFE714
:10523000049801300490E3E7FFE70B98006806F05C
:105240007BFDC00200283CD5FFE701200490FFE76A
:1052500004980B99097988422CD2FFE709980499A0
:1052600000EB4110D0F8000902900B98049901EB73
:10527000C10100EB8100007E012816D1FFE79DF8F7
:105280000B000006002810D5FFE70B98049901EBEE
:10529000C10100EB81010120C8750B989DF8101029
:1052A00041F08001FFF732FAFFE7FFE70498013091
:1052B0000490CDE70B980168486900F480104861BC
:1052C000FFE70B98006806F037FD8002002856D5EE
:1052D000FFE701200490FFE704980B9909798842C1
:1052E00046D2FFE70998049900EB4110D0F8000B73
:1052F00002900B98049901EBC10100EB810090F83A
:10530000580201282FD1FFE79DF80B000006002866
:1053100029D5FFE7029800F480310B98D0F8D40427
:1053200000F00100B0EB114F1DD1FFE70B9804997D
:1053300001EBC10100EB8101012081F857020A99BC
:10534000886940F0800088610A984069000600285A
:1053500008D4FFE70999D1F8040840F40070C1F8B7
:10536000040805E0FFE7FFE7049801300490B3E785
:105370000B980168486900F400104861FFE70B983A
:10538000006806F0D9FC400000280AD5FFE70B981A
:10539000FFF780F90B980168486900F08040486188
:1053A000FFE70B98006806F0C7FC4007002815D5FA
:1053B000FFE70B980068406802909DF808004007DE
:1053C000002804D5FFE70B98FFF796F9FFE7029A4C
:1053D0000B980168486810434860FFE7FFE70CB08E
:1053E00080BD000080B582B001908DF80310019857
:1053F000D0F8E0049DF8031004F014FE02B080BD64
:1054000080B582B001908DF803100198D0F8E004C7
:105410009DF8031004F03EFE02B080BD80B58EB052
:105420000C900C9820B9FFE701208DF8370012E1AD
:105430000C9800680B900C9890F8950440B9FFE721
:105440000C99002081F894040C9800F009F9FFE70A
:105450000C99032081F895040B98B0F1A04F04D16A
:10546000FFE70C9900208871FFE70C98006805F0B1
:10547000C7FF0C9B1868197C8DF8241059689A682E
:10548000DB680893079206910699079A089BDDF856
:1054900024C0EE46CEF800C005F0ECFC40B1FFE7BA
:1054A0000C99022081F8950401208DF83700D2E094
:1054B0000C980068002106F0A7FC40B1FFE70C99AA
:1054C000022081F8950401208DF83700C3E0002008
:1054D0008DF82B00FFE79DF82B000C990979884285
:1054E00041DAFFE70C989DF82B1001EBC10100EBAE
:1054F0008101012048759DF82B000C9900EBC0023A
:1055000001EB820108759DF82B000C9900EBC0029D
:1055100001EB8201C8850C989DF82B1001EBC101AD
:1055200000EB8101002008760C999DF82B2002EBFE
:10553000C20201EB8201C8610C999DF82B2002EB9D
:10554000C20201EB820108620C999DF82B2002EB4C
:10555000C20201EB82014862FFE79DF82B00013097
:105560008DF82B00B7E700208DF82B00FFE79DF8A2
:105570002B000C99097988423EDAFFE70C989DF8D8
:105580002B1001EBC10100EB8101002081F85502D5
:105590009DF82B100C9A01EBC10302EB830282F8F9
:1055A00054120C999DF82B2002EBC20201EB8201F0
:1055B00081F858020C999DF82B2002EBC20201EBF6
:1055C0008201C1F85C020C999DF82B2002EBC2020B
:1055D00001EB8201C1F860020C999DF82B2002EBCF
:1055E000C20201EB8201C1F86402FFE79DF82B00C3
:1055F00001308DF82B00BAE70C9B1868197C8DF8E8
:10560000141059689A68DB68049303920291029916
:10561000039A049BDDF814C0EE46CEF800C005F0F6
:10562000A1FD40B1FFE70C99022081F8950401200B
:105630008DF837000FE00C990020019048740C9908
:10564000012081F895040C98006805F075FD01981B
:105650008DF83700FFE79DF837000EB080BD0000E1
:1056600080B58AB0099000200890079006900590B8
:10567000049009980068B0F1A04F47D1FFE7FFE719
:105680000020039043F63000C4F20200016841F0AC
:1056900001010160006800F0010003900398FFE73A
:1056A0004FF4C05004900220059000200690032083
:1056B00007900A2008900020C4F2020004A9FEF717
:1056C000ADFCFFE743F63401C4F20201086840F084
:1056D00080000860FFE70020029043F64400C4F217
:1056E0000200016841F480410160006800F48040DC
:1056F00002900298FFE7FFE7432001900521002276
:10570000FEF746FF0198FEF739FFFFE70AB080BDBC
:1057100080B582B0019001208DF803000198C07916
:1057200020B9FFE700208DF803000CE00198C07954
:10573000022804D1FFE701208DF8030002E0FBF707
:1057400077FBFFE7FFE70198D0F8E0049DF803102E
:1057500004F0A0FD0198D0F8E00404F01BFD02B0B5
:1057600080BD000080B582B001900198D0F8E004BF
:1057700004F05EFD02B080BD80B582B0019001985A
:10578000D0F8E00404F066FD02B080BD80B584B0BE
:1057900002908DF80710FFE7029890F89404012812
:1057A00004D1FFE702208DF80F0019E002990120D3
:1057B00081F89404FFE7FFE79DF807000299487419
:1057C000029800689DF8071006F08EFBFFE702992B
:1057D000002081F89404FFE700208DF80F00FFE718
:1057E0009DF80F0004B080BD80B582B00190019992
:1057F000D1F8E00401F29C4104F076FD02B080BDD6
:1058000080B584B00290029800680190FFE702988A
:1058100090F89404012804D1FFE702208DF80F00CE
:1058200028E00299012081F89404FFE7FFE701983E
:10583000C068400600280BD5FFE70298407B01288E
:1058400006D1FFE70199886B40F480308863FFE759
:105850000298006806F05CF90298006805F056FCB2
:10586000FFE70299002081F89404FFE700208DF8FB
:105870000F00FFE79DF80F0004B080BD80B582B037
:1058800001900198D0F8E00404F0B0FD019801689F
:10589000D1F8000E40F00100C1F8000E0198C07A66
:1058A00048B1FFE74EF61051CEF20001086840F013
:1058B00006000860FFE702B080BD000080B584B03C
:1058C00002900191029820B9FFE701208DF80F00A6
:1058D00021E1019843F60041C4F20201096801F098
:1058E0000701884212D9FFE7019943F60040C4F24C
:1058F00002000170006800F007000199884204D09E
:10590000FFE701208DF80F0005E1FFE7029800781E
:10591000800700282AD5FFE7029800784007002872
:1059200009D5FFE743F60801C4F20201086840F414
:10593000E0500860FFE7029800780007002809D5CA
:10594000FFE743F60801C4F20201086840F4604032
:105950000860FFE743F60801C4F20201086820F07E
:10596000F000029A926810430860FFE702980078FE
:10597000C00700286ED0FFE702984068012811D1C7
:10598000FFE743F60000C4F20200006800F40031B3
:105990000020B0EB514F04D1FFE701208DF80F003C
:1059A000B9E02CE002984068022805D0FFE7029891
:1059B0004068032811D1FFE743F60000C4F202005B
:1059C000006800F000710020B0EB516F04D1FFE7D8
:1059D00001208DF80F009EE010E043F60000C4F2B5
:1059E0000200006800F002010020B0EB510F04D16A
:1059F000FFE701208DF80F008DE0FFE7FFE743F69A
:105A00000801C4F20201086820F00300029A5268FB
:105A100010430860FEF7DEFC0090FFE743F6080045
:105A2000C4F20200006800F00C0002994968B0EB73
:105A3000810F0ED0FFE7FEF7CDFC0099401A41F22E
:105A40008931884204D3FFE703208DF80F0062E01C
:105A5000E4E7FFE7019843F60041C4F20201096858
:105A600001F00701884212D2FFE7019943F6004096
:105A7000C4F202000170006800F00700019988423A
:105A800004D0FFE701208DF80F0044E0FFE7029803
:105A90000078400700280CD5FFE743F60801C4F260
:105AA0000201086820F4E050029AD26810430860AE
:105AB000FFE702980078000700280DD5FFE743F6BE
:105AC0000801C4F20201086820F46040029A1269D9
:105AD00040EAC2000860FFE700F076F843F60801EC
