:020000040800F2
:10000000E0610020A5010008F95A0008AD5700087A
:10001000F55A0008550A0008A9660008000000000B
:10002000000000000000000000000000E15B00088C
:10003000710C000800000000715B0008255C0008DE
:10004000BF010008BF010008BF010008BF01000890
:10005000BF010008BF010008BF010008BF01000880
:10006000BF010008BF010008BF010008BF01000870
:10007000990A0008BF010008BF010008BF0100087D
:10008000BF010008BF010008BF010008BF01000850
:10009000590A0008690A0008BF010008BF010008EA
:1000A000BF010008BF010008BF010008BF01000830
:1000B000BF010008BF010008BF010008BF01000820
:1000C000BF010008BF010008BF010008BF01000810
:1000D000BF01000879660008BF01000889660008B2
:1000E000BF010008BF010008BF010008BF010008F0
:1000F000BF010008BF010008BF010008BF010008E0
:10010000BF010008BF010008BF010008BF010008CF
:10011000BF010008BF010008155D0008BF0100080D
:10012000BF010008A90A0008B90A0008BF010008B9
:10013000BF010008BF010008BF010008BF0100089F
:10014000790A0008890A0008BF010008BF010008F9
:10015000BF010008C90A0008BF010008996600082D
:10016000BF010008BF010008BF010008BF0100086F
:10017000BF010008BF010008BF0100080000000027
:10018000BF010008BF010008DFF814D000F0B2FB87
:1001900000F070F800480047D1E3000800F0DCFBF5
:1001A000E06100200648804706480047FEE7FEE77A
:1001B000FEE7FEE7FEE7FEE7FEE7FEE7FEE7FEE717
:1001C000015D0008890100082DE9F05F0546002067
:1001D00092469B4688460646814640241BE02846B8
:1001E00041464746224600F0A6FA53465A46C01AF0
:1001F000914110D311461846224600F08DFA2D1A6F
:1002000067EB01084F4622460120002100F084FAE6
:1002100017EB00094E41201EA4F10104DFDC484623
:1002200031462A464346BDE8F09F40EA01039B075A
:1002300003D009E008C9121F08C0042AFAD203E05B
:1002400011F8013B00F8013B521EF9D27047D2B2BF
:1002500001E000F8012B491EFBD270470022F6E7AF
:1002600010B513460A4604461946FFF7F0FF20462C
:1002700010BD00007CB50748009007480190054676
:10028000009C04E02046016808448047241DAC42DD
:10029000F8D17CBD68210108742101080B46014694
:1002A000184600F07CBA2DE9FE4F804681EA030033
:1002B000C00F0C46009021F0004123F00045B8EB40
:1002C0000200A94105D24046214690461C460B46F5
:1002D000024623F00040104347D0270DC7F30A0021
:1002E000C3F30A510290401A019040286BDAC3F31D
:1002F000130040F4801B0098924620B10023D2EBFB
:10030000030A63EB0B0B01985946C0F140025046BB
:1003100000F002FA06460D4650465946019A00F092
:100320001AFA10EB08006141002487EA115284EAAE
:10033000E7731A4340D0009A62B3019A012A4FEA48
:10034000075215DC001B61EB02014FF0004202EA8C
:100350000752CDE90042001C41F5801132462B4680
:1003600000F07AFA03B0BDE8F08F40462146F9E785
:10037000001B61EB0201001C41F5801300185B417A
:100380002018A2F5001747EB030140EAD570B61913
:100390006D4111E06D084FEA360645EAC0754FEA37
:1003A0000752001B61EB0201001C41F58011490856
:1003B0004FEA30000019514132462B4603B0BDE8E8
:1003C000F04F00F03ABA0098012240000023D0EB31
:1003D000020263EBE073009821464FEAE074B8EB49
:1003E000000061EB0401E9E783F000435BE781F083
:1003F000004158E72DE9FE4F81EA030404F0004470
:1004000021F0004100944FF0000B23F0004350EA2C
:1004100001045ED052EA03045BD0C3F30A54C1F373
:100420000A552C44A4F2F3340194A0FB0254C1F306
:10043000130141F48011C3F3130343F4801301FB50
:10044000024400FB034E840A970A44EA815447EAB7
:100450008357A4FB076802958D0A05FB07854FEAC1
:10046000932C04FB0C542705029D4FEA065847EADB
:100470001637B5EB08056EEB070C870E920E47EAB0
:10048000811742EA8312A7FB0201B6EB0B0164EB72
:1004900000042B0D43EA0C335E1844EB1C50DA4683
:1004A0005146E7FB0201C5F313044FEA0B3343EA5D
:1004B00014534FEA0432019C43EA0603A4F10C04EE
:1004C0000294009CCDE900B400F0C6F903B0BDE889
:1004D000F08F00200146F9E72DE9F04D81EA030491
:1004E00004F0004B21F0004514464FF0000A23F0C1
:1004F000004150EA050220D054EA01021DD0C5F3A4
:100500000A570246C5F31303C1F31300C1F30A5699
:1005100040F4801543F48013A7EB0608101BD64661
:1005200008F2FD3873EB050002D308F1010801E081
:1005300092185B41B8F1000F03DA00200146BDE8D4
:10054000F08D00204FF48011064684460EE0171B04
:1005500073EB050705D3121B63EB050306434CEA57
:10056000010C49084FEA300092185B4150EA01073C
:10057000EDD152EA030012D082EA040083EA0501B9
:10058000084305D0101BAB4106D20122002306E030
:1005900000224FF0004302E06FF0010253101AEB0B
:1005A00006004CEB085110EB0A0041EB0B01BDE8D3
:1005B000F04D00F042B930B5041E71F1000404DBC7
:1005C0004FF00044404264EB0101141E73F100043B
:1005D00005DB1C464FF00043524263EB0403801AD4
:1005E000994101D3012030BD002030BD30B5041E3B
:1005F00071F1000404DB4FF00044404264EB010160
:10060000141E73F1000405DB1C464FF000435242F8
:1006100063EB0403101A8B4101D3012030BD00208D
:1006200030BD30B5041E71F1000404DB4FF000440E
:10063000404264EB0101141E73F1000405DB1C460B
:100640004FF00043524263EB040342404B401A43D5
:1006500001D0002030BD012030BD0EB5C10F80EAB1
:10066000E0700844CA07002140F233438DE80E00D1
:100670000A460B4600F0F0F803B000BD70B5C1F3B8
:100680000A5201F000450024C1F3130140F2FF3388
:1006900041F480119A4201DA002070BD40F23343E8
:1006A0009A42A2F2334203DC524200F044F800E0E6
:1006B00090402C43F1D0404270BD00F0004230F039
:1006C00000400AD0C10D01F56071C0F3160042EA86
:1006D0000151C2084007114370470020014670478E
:1006E00001F0004330B421F0004150EA010206D08D
:1006F0000A0DA2F56072C1F31301002A02DC30BCBE
:1007000000207047440F44EAC104C100E01830BC27
:1007100000EBC25000F05AB8202A04DB203A00FA5D
:1007200002F1002070479140C2F1200320FA03F348
:10073000194390407047202A04DB203A21FA02F046
:100740000021704721FA02F3D040C2F1200291400B
:10075000084319467047202A06DBCB17203A41FA96
:1007600002F043EAE07306E041FA02F3D040C2F13E
:100770002002914008431946704710B50446481EB0
:10078000014201D1042901D2052010BD104610F00C
:10079000A7FC10B12060002010BD062010BD2DE97F
:1007A000F041074615460E46102010F0B9FD040032
:1007B0000AD06760C4E9026500F0CAF801682160E8
:1007C00004600020BDE8F0810120FBE70029A8BFFC
:1007D0007047401C490008BF20F00100704710B46A
:1007E000B0FA80FC00FA0CF050EA010404BF10BC1F
:1007F000704749B1CCF1200421FA04F411FA0CF14C
:1008000018BF012121430843A3EB0C01CB1D4FEA84
:1008100000614FEA102042BF002010BC704700EB7F
:10082000C35010440029A4BF10BC7047401C4900AD
:1008300008BF20F0010010BC704710B5141E73F102
:10084000000408DA401C41F1000192185B411A4390
:1008500001D120F0010010BD2DE9F04D92469B46DC
:1008600011B1B1FA81F202E0B0FA80F22032904682
:10087000FFF752FF04460F4640EA0A0041EA0B0127
:1008800053465A46084313D0114653EA010019D083
:10089000C8F140025046FFF74EFF05460E4650464F
:1008A00059464246FFF738FF084305D0012004E0CF
:1008B00020463946BDE8F08D0020054346EAE07643
:1008C0002C4337430A986305E40AA0EB0800002292
:1008D000FD0A44EA47540A3002D500200146E9E700
:1008E000010510196941DDE9084500196941BDE8B4
:1008F000F04DA2E71CB50948009009480190054653
:10090000009C06E0E06840F0010394E80700984787
:100910001034AC42F6D3FFF73BFC0000482101083D
:100920006821010830B50B46014600202022012431
:1009300009E021FA02F59D4205D303FA02F5491BAD
:1009400004FA02F52844151EA2F10102F1DC30BDC3
:1009500000487047100000202DE9F0410646FFF7DF
:10096000F7FF8046454613E016B1E068B0420ED16D
:1009700020682860D4E90101D8F800708847204633
:1009800010F0FEFBD8F80000B842EBD100E025469D
:100990002C68002CE8D1BDE8F081C1F30A52C1F304
:1009A000130140F2FF3341F480119A4202DA002031
:1009B0000146704740F233439A42A2F2334202DCCE
:1009C0005242FFF7B8BEFFF7A7BE000030B5041EC5
:1009D00071F1000404DB4FF00044404264EB01017C
:1009E000141E73F1000405DB1C464FF00043524215
:1009F00063EB0403994208BF904230BD704770B565
:100A00008C1810F8015B15F0070301D110F8013BB9
:100A10002A1106D110F8012B03E010F8016B01F840
:100A2000016B5B1EF9D12B0705D40023521E0DD498
:100A300001F8013BFAE710F8013BCB1A921C03E0E6
:100A400013F8015B01F8015B521EF9D5A142D8D31E
:100A5000002070BDFFE7FEE780B540F6A070C2F24F
:100A6000000001F0EDFC80BD80B540F6A070C2F240
:100A7000000001F0E5FC80BD80B540F6C870C2F210
:100A8000000001F0DDFC80BD80B540F6C870C2F208
:100A9000000001F0D5FC80BD80B541F25000C2F2EB
:100AA000000002F0F3FA80BD80B541F2B000C2F25E
:100AB000000002F0EBFA80BD80B540F6F070C2F2A3
:100AC000000002F0E3FA80BD80B541F21010C2F2DE
:100AD000000002F0DBFA80BD82B00190019800783E
:100AE00010384AF6AB21CAF6AA21A0FB0110000972
:100AF0000090009941F6B850C0F60100405C0199A1
:100B0000C8650098042807D3FFE701990868042204
:100B100062F30900886506E00199086840F2FF3237
:100B200090438865FFE70198806D02B07047000030
:100B300086B0059000208DF813000598806A039018
:100B40000598806910BBFFE70398029003281BD823
:100B50000299DFE801F0020D0218059890F82F00C5
:100B6000C00720B1FFE701208DF81300FFE70CE07C
:100B70000598C06AB0F1C07F04D1FFE701208DF86D
:100B80001300FFE701E000E0FFE745E0059880691A
:100B9000B0F5005F25D1FFE70398019003281ED828
:100BA0000199DFE801F00206021101208DF813001F
:100BB00016E0059890F82F00C00720B1FFE701204C
:100BC0008DF81300FFE70BE00598C06AB0F1C07F15
:100BD00004D1FFE701208DF81300FFE700E0FFE7F5
:100BE00019E003980090032804D3FFE70098032836
:100BF00004D00EE001208DF813000BE0059890F86A
:100C00002F00C00720B1FFE701208DF81300FFE798
:100C100000E0FFE7FFE7FFE79DF8130006B070472D
:100C200084B00390029101920093039801680868D0
:100C300020F48020086000980399096848600398B0
:100C40008068402809D1FFE7019803990968886006
:100C5000029803990968C86008E002980399096836
:100C60008860019803990968C860FFE704B070477D
:100C70007047000072B6FFE7FEE7000080B5ACB039
:100C80000AF08CFD0AF0AEFE2B900AF087FD0AF008
:100C9000B3FE2A9040F24440C2F200000078BFF355
:100CA0005F8FC00718BBFFE740F24440C2F200006C
:100CB0000EF069FDD8B1FFE72B9940F6C010C2F2E3
:100CC00000001490002208F06FFF149949F67D404F
:100CD000C0F6000040F20002C0F60002FFF7DEFAA4
:100CE00040F24440C2F200000EF063FDFFE740F224
:100CF0004840C2F200000078BFF35F8FC00718BB06
:100D0000FFE740F24840C2F200000EF03CFDD8B1CF
:100D1000FFE72B9940F67020C2F2000013900022EA
:100D200008F0B6FF139949F66550C0F6000040F28E
:100D30000002C0F60002FFF7B1FA40F24840C2F2EA
:100D400000000EF036FDFFE740F24C40C2F200001A
:100D50000078BFF35F8FC00718BBFFE740F24C403D
:100D6000C2F200000EF00FFDD8B1FFE72B9940F65C
:100D7000E820C2F200001290012209F0C5FB12998E
:100D80004AF29D50C0F6000040F20002C0F6000298
:100D9000FFF784FA40F24C40C2F200000EF009FD69
:100DA000FFE740F25040C2F200000078BFF35F8FCF
:100DB000C00770BBFFE740F25040C2F200000EF0E7
:100DC000E2FC30B3FFE72B9901208DF8A60002204A
:100DD0008DF8A70068464FF40072026040F6583064
:100DE000C2F2000011900DF1A60309F085FE1199E1
:100DF0004AF69130C0F6000040F20002C0F6000250
:100E0000FFF74CFA40F25040C2F200000EF0D1FC65
:100E1000FFE740F6B011C2F2000140F6C010C2F286
:100E200000000990086040F6AC11C2F2000140F6E3
:100E30007020C2F200000A90086040F6B411C2F2BD
:100E4000000140F6E820C2F200000B90086040F676
:100E5000B811C2F2000140F65830C2F200000F9003
:100E600008602B98019025A802900DF06FF801986A
:100E700002990268D269904702980DF097F82B9872
:100E8000039020A804900DF06DF80398049902686F
:100E9000D269904704980DF089F82B9805901BA80B
:100EA00006900DF06BF8059806990268D269904794
:100EB00006980DF07BF82B98079016A808900DF077
:100EC00069F8079808990268D269904708980DF068
:100ED0006DF840F27440C2F2000007F0D1FE40F21B
:100EE0001050C2F2000007F01DFD0AF0A3F80AF04E
:100EF00027F840F6F000C2F2000006F043F94FF484
:100F0000FA7002F06DFB099801210C9108F058FB72
:100F10000A20109002F064FB099802210D9108F05C
:100F20004FFB109802F05CFB0A980C9908F056F8F9
:100F3000109802F055FB0B980C9908F0E1FF1098FF
:100F400002F04EFB0B980C9900220E9208F08CFFD9
:100F5000109802F045FB0C990E9A0F9809F028FBA7
:100F60000D990E9A0F9809F023FB0F9809F0AAFB30
:100F7000109802F035FB2CB080BD000080B5E2B0C7
:100F800040F6F000C2F2000006F046FA40F2F4101B
:100F9000C2F20000289000F1200140F27440C2F239
:100FA0000000299005F00EFC28992998343054311E
:100FB00005F008FC289929986830883105F002FC72
:100FC000299840F6B011C2F20001096840F6AC124F
:100FD000C2F20002126807F095FE40F2FC30C2F245
:100FE0000000007800285ED1FFE702F0F7FC619076
:100FF000619840F61841C2F200010968401AC828F9
:1010000050D3FFE7619840F61841C2F20001086032
:1010100040F6B010C2F20000006838B3FFE740F6B7
:10102000B010C2F200000068012109F051FE48B979
:10103000FFE740F6B010C2F200000068012108F09E
:10104000BFFAFFE740F6B010C2F2000000680221CC
:1010500009F03EFE48B9FFE740F6B010C2F20000CA
:101060000068022108F0ACFAFFE7FFE740F6AC1099
:10107000C2F200000068A0B1FFE740F6AC10C2F277
:1010800000000068012109F08DFD48B9FFE740F636
:10109000AC10C2F200000068012107F09FFFFFE7DB
:1010A000FFE7FFE7FFE709F0C5FF609060980BF0EE
:1010B000CBFD5F9060980BF0CDFD5E90609809F0DD
:1010C000FBFF8DF877015F98022806D1FFE75E9954
:1010D00001200229279004D0FFE79DF8770127908F
:1010E000FFE7279800F001008DF876015F9840F245
:1010F000FC31C2F2000188705E98C8709DF87701DB
:1011000000F001004870002048719DF87601C0078A
:10111000002855D0FFE740F2FC30C2F20000007812
:1011200000284CD1FFE740F2FC32C2F2000201205D
:10113000107040F23001C2F2000191F83800907155
:1011400091F8A400D07191F810011072002081F87C
:10115000380081F8A40081F8100140F6B010C2F206
:101160000000006878B1FFE740F6B010C2F200005E
:1011700026900068012108F04DFA269800680221A7
:1011800008F048FAFFE740F6AC10C2F20000006831
:1011900048B1FFE740F6AC10C2F200000068012140
:1011A00007F046FFFFE740F2B021C2F20001032042
:1011B000887540F2FC31C2F200014871FFE7DCE0C3
:1011C00040F2FC30C2F200000078002845D0FFE772
:1011D00040F2FC31C2F200010020087040F6B0106D
:1011E000C2F20000006878B1FFE740F6B010C2F22A
:1011F000000025900068012108F0E2F925980068B8
:10120000022108F0DDF9FFE740F6AC10C2F2000061
:10121000006848B1FFE740F6AC10C2F20000006879
:10122000012107F0DBFEFFE740F2FC31C2F20001D2
:10123000887940F23002C2F2000282F83800C879A0
:1012400082F8A400087A82F8100140F2B022C2F2BB
:1012500000020420907548718EE05F988DF875014A
:101260009DF8750140F2FC31C2F200010979884213
:1012700000F08180FFE740F21C40C2F200000078DD
:1012800005280CD1FFE740F2B021C2F20001042092
:10129000887540F2FC31C2F2000148716AE09DF8A5
:1012A0007501012805D0FFE79DF87501032858D185
:1012B000FFE70BF0E3F90BF097FD5C905C980138C9
:1012C000B0FA80F040098DF86F019DF86F01C007FA
:1012D00010B3FFE740F21050C2F2000090F808018E
:1012E000D0B9FFE740F21050C2F20000249090ED18
:1012F000EA0A06F069FF249840F23001C2F20001C8
:1013000001220A77D0F8A803086040F2DC11C2F28B
:10131000000100200875FFE79DF8750101280CD138
:10132000FFE740F2B021C2F200010120887540F2CF
:10133000FC31C2F2000148710BE040F2B021C2F270
:1013400000010220887540F2FC31C2F200014871B0
:10135000FFE79DF8750140F2FC31C2F2000108710F
:1013600007E09DF8750140F2FC31C2F200010871FE
:10137000FFE7FFE7FFE7FFE7FFE740F21C40C2F2AD
:1013800000006946086040F6C800C2F2000040F262
:101390007441C2F2000140F23002C2F2000240F297
:1013A000B023C2F2000309F07BFF40F2FC30C2F22E
:1013B0000000007848B9FFE740F21C40C2F200008C
:1013C00000780AF0BDF908B1FFE7B9E009F032FE94
:1013D0005A905A980BF05CFC51EC100BFFF780F917
:1013E00059904CF6CD40C3F64C5058909DED590A9B
:1013F0009FEDB81AB4EE410AF1EE10FA0DDDFFE7E9
:101400009DED590A9FEDB41AB4EE410AF1EE10FABF
:1014100003DAFFE700205990FFE743F23330C4F2CC
:10142000330057909DED590A9FEDAC1A20EE010A4A
:101430008DED560A41F26F20C3F68320559040F29D
:101440007440C2F2000034300BF034FA002876D039
:10145000FFE740F23000C2F2000090ED1B1A9DED54
:10146000560A9FED9F2A20EE020A30EE010A8DED0A
:10147000540A40F21050C2F2000090F8AC0358B386
:10148000FFE747F20720C3F61370539046F2F3606C
:10149000CBF6DF6052909DED540A9FED921AB4EEA8
:1014A000410AF1EE10FA06DDFFE747F20720C3F626
:1014B00013705490FFE79DED540A9FED8B1AB4EE24
:1014C000410AF1EE10FA06DAFFE746F2F360CBF6D6
:1014D000DF605490FFE72BE040F27440C2F200005E
:1014E00034300BF0F1F951905198007CF8B9FFE7D6
:1014F0009DED540A519890ED021AB4EE410AF1EEB6
:1015000010FA04DDFFE7519880685490FFE79DEDE5
:10151000540A519890ED011AB4EE410AF1EE10FA16
:1015200004DAFFE7519840685490FFE7FFE7FFE7D0
:10153000549840F23001C2F20001C866FFE7FFE7AD
:1015400040F2FC30C2F20000007848B9FFE740F2F8
:101550001C40C2F2000000780AF0F2F808B1FFE780
:1015600054E109F067FD50900BF088F80BF03CFC5B
:101570004F904F980138B0FA80F040098DF83B0148
:1015800000204D9040F21050C2F2000090F8AC03E1
:1015900098B1FFE740F6F000C2F200000BF006F948
:1015A0009FED521A20EE010A8DED4D0A4D9840F242
:1015B000DC11C2F200014860FFE79DF83B0100F03A
:1015C000010040F61541C2F20001097888423ED080
:1015D000FFE79DF83B01C007A8B1FFE79DED4D0A6D
:1015E00040F21050C2F2000006F008FE40F2DC119A
:1015F000C2F200010120087540F23001C2F2000180
:101600000020087719E040F21050C2F20000239049
:1016100090EDEA0A06F0D8FD239840F2DC12C2F2FF
:1016200000020021117540F23001C2F200010122D6
:101630000A77D0F8A8030860FFE79DF83B0100F0A7
:10164000010040F61541C2F200010870FFE7509812
:101650000BF016FB51EC100BFFF742F84C904CF6D8
:10166000CD40C3F64C504B909DED4C0A9FED191A9E
:10167000B4EE410AF1EE10FA0DDDFFE79DED4C0AE4
:101680009FED151AB4EE410AF1EE10FA03DAFFE706
:1016900000204C90FFE743F23330C4F233004A900D
:1016A0009DED4C0A9FED0D1A20EE010A8DED490AC1
:1016B00040F27440C2F200000BF0FCF8002800F089
:1016C000A480FFE79DF83B01C007002800F086805A
:1016D00012E000BFCDCC4CBDCDCC4C3D33333340BC
:1016E0006F12833A0772133FF366DFBE03FA8EBCB4
:1016F0000000000035FA8E3C499840F2DC11C2F23D
:10170000000108608868CA68189209691A91FEF792
:10171000D4FF0246189819920A46199942EC101BF8
:101720008DED1C0BFEF7C9FF02461A981B920A4664
:101730001B9942EC101B8DED1E0BFEF7BEFF9DEDBD
:101740001C0B9DED1E1B41EC120B42A80AF090FCF5
:101750009DED490ADDED4D0A42984399449A459B17
:10176000DDF818C1DDF81CE1CDF8FCE0CDF8F8C0DB
:101770003D933C923B913A909DED3A1B9DED3C2B65
:101780009DED3E3B40F21050C2F2000006F098FC86
:101790008DED410A40F6B010C2F2000000682290C0
:1017A0009DED410A8DED210A40F27440C2F2000025
:1017B0000BF08AF89DED210A0146229891ED031A5B
:1017C00020EE012A01215FED361AB0EE610AF0EE3B
:1017D000610AB0EE611A08F067F815E041F26F2077
:1017E000C3F6832039909DED490A40F23000C2F2E1
:1017F000000090ED001A1FED462A20EE020A30EE9E
:10180000010A80ED000AFFE7FFE7FFE70AF036FF75
:101810000AF08EFE40F21C40C2F20000007809F08F
:101820008FFF8DF8E30040F2DC10C2F20000007D73
:1018300028B1FFE79DF8E300C00758B1FFE740F289
:101840003000C2F2000040F21051C2F2000105F077
:101850003BF8FFE740F23000C2F2000016906C3017
:1018600040F21051C2F20001179101F59C7105F090
:101870002BF816981799D83001F51C7105F024F84B
:1018800040F6F000C2F200000AF0A4FF01461798EB
:10189000002918BF012180F8AC1390F8AC03F8B10F
:1018A000FFE740F6F000C2F2000013900AF09AFF42
:1018B00013981FED701A8DED141A20EE410A40F2B4
:1018C0001051C2F20001159181EDEA0A0AF078FF89
:1018D0009DED141A159820EE010A80EDEC0AFFE741
:1018E00040F6B010C2F20000026840F6AC10C2F23E
:1018F0000000036840F21050C2F200000D9040F268
:101900007441C2F200010A9107F076F80A9840F299
:10191000F411C2F20001099104F00CFF09990A9830
:1019200034300B90343104F005FF09990A9868307F
:101930000C90683104F0FEFE0A9A0D9840F23001D6
:10194000C2F200010E9104F079FF0B9A0D980E99E6
:1019500000F59C706C310F9104F070FF0C9A0D989B
:101960000E9900F51C70D83104F068FF0D980E999F
:101970000F9A04F0CDFE09F05DFB379037980BF01D
:101980006FF951EC100BFEF7ABFE40F2F021C2F202
:1019900000011091086037980BF06AF951EC100BB8
:1019A000FEF79EFE1099486037980BF069F951ECEC
:1019B000100BFEF795FE1099886037980BF068F9C8
:1019C00051EC100BFEF78CFE1099C86037980BF0A5
:1019D0003BF91099087437980BF03CF9109948744A
:1019E00037980BF01FF98DED320B8DED341B9DED0B
:1019F000320B51EC100BFEF773FE109948613798CB
:101A00000BF010F98DED2E0B8DED301B9DED300B95
:101A100051EC100BFEF764FE1099886137980BF0BB
:101A20003FF910998DF8B7009DF8B70000F001005C
:101A3000087737980BF034F910998DF8B6009DF8B7
:101A4000B600C0F34000487737980BF0BBF8109908
:101A5000ADF8B4009DF8B40000F0010088779DF85F
:101A6000B400C0F34000C8779DF8B400C0F3800014
:101A700081F820009DF8B400C0F3C00081F8210077
:101A80009DF8B400C0F3001081F822009DF8B40066
:101A9000C0F3401081F823009DF8B400C0F380101B
:101AA00081F824009DF8B400C00981F825009DF854
:101AB000B50000F0010081F826009DF8B500C0F3E4
:101AC000400081F827009DF8B500C0F3800081F840
:101AD00028009DF8B500C0F3C00081F829009DF8EA
:101AE000B500C0F3001081F82A009DF8B500C0F3DE
:101AF000401081F82B009DF8B500C0F3801081F8EC
:101B00002C009DF8B500C00981F82D0037980BF026
:101B1000D3F851EC100BFEF7E3FD109908633798EA
:101B200009F0CAFA109980F0010081F8340040F6FB
:101B3000F000C2F2000011900AF0F2FD119840F29C
:101B40009C31C2F20001129181ED000A0AF038FEC8
:101B50001198129981ED010A0AF00AFE1198129962
:101B600081ED020A0AF00EFE1198129981ED030A26
:101B70000AF012FE1198129981ED040A0AF016FE7D
:101B80001198129981ED050A0AF0D4FD1198129965
:101B900081ED060A0AF0D8FD1198129981ED070A25
:101BA0000AF0DCFD1198129981ED080A0AF022FE74
:101BB0001198129981ED090A0AF026FE11981299DE
:101BC00081ED0A0A0AF02AFE1198129981ED0B0A9A
:101BD0000AF02EFE1198129981ED0C0A0AF002FE0D
:101BE0001198129981ED0D0A0AF092FD129A0146A0
:101BF000119882F838100AF0EDFD129981F8390039
:101C000040F6B410C2F200000068002858D0FFE788
:101C100040F6B410C2F2000007900068012106915E
:101C20000AF0C0FE0798069940F2DC32C2F20002C8
:101C3000089282ED000A00680AF0F8FE07980699FB
:101C4000089A82ED010A00680AF012FF07980699C7
:101C5000089A82ED020A00680AF0C6FE0798069903
:101C6000089A82ED030A00680AF04AFE0699089B6A
:101C7000024607982C922C9AD2881A822C9A928823
:101C80005A822C9A52889A822C9A12789A750068F5
:101C90000AF028FE0699089B024607982B922B9A79
:101CA00052881A832B9A12799A762B9A527902F0DB
:101CB0000102DA76006808F075FF08990877FFE7F7
:101CC00040F6B810C2F200000068002860D0FFE7BC
:101CD00040F6B810C2F2000000682A902A9801214C
:101CE00003910AF0E7FE039940F26430C2F200006B
:101CF000059080ED000A2A980AF02CFE03990598B9
:101D000080ED010A2A980AF019FF0399059880EDE1
:101D1000020A2A980AF034FF0399059880ED030A15
:101D20002A980AF0E9FE0399059880ED040A2A989A
:101D300008F0CEFF059908752A98022104910AF04F
:101D4000B9FE0499059880ED060A2A980AF002FE69
:101D50000499059880ED070A2A980AF0EFFE049985
:101D6000059880ED080A2A980AF00AFF0499059858
:101D700080ED090A2A980AF0BFFE0499059880EDC3
:101D80000A0A2A9808F0A4FF059981F82C00FFE7B9
:101D900040F61440C2F20000017801310170007871
:101DA000022809DBFFE740F61441C2F200010020DF
:101DB000087004F07BFCFFE740F25440C2F20000E0
:101DC0000078BFF35F8FC007B0B9FFE740F254401F
:101DD000C2F200000DF0D7FC70B1FFE70AF0A6FADE
:101DE00040F61041C2F20001086040F25440C2F2D5
:101DF00000000DF0DEFCFFE740F61040C2F20000EC
:101E0000029000680AF00AFA029800680AF0B4FA30
:101E100062B080BD84B002900191029890F82000D9
:101E20008DF803009DF80300012805D0FFE79DF819
:101E3000030002280AD1FFE7019A02980168486965
:101E40001043486100208DF80F0008E00299486AAD
:101E500040F48020486201208DF80F00FFE79DF8D4
:101E60000F0004B07047000088B0069005910492FE
:101E70000393069890F820008DF8070006980068F4
:101E8000806800900598806808B9FFE700E0FFE7E8
:101E90009DF80700012806D0FFE79DF807000228FB
:101EA00040F08080FFE79DF80300400700280CD435
:101EB000FFE79DF803000007002806D4FFE79DF820
:101EC0000300C006002864D5FFE70098C0F3016056
:101ED0000290029901208840039908600598806863
:101EE00068B9FFE705980168C06840EA4150069963
:101EF0000968029A01EB0211C1F880010EE0059910
:101F00004A688868C96840EAC200084306990968B7
:101F1000029A01EB0211C1F88001FFE70598006900
:101F200006990968029A01EB0211C1F8840105982B
:101F3000007D01280CD1FFE706980068029900EBAC
:101F40000111D1F8840140F48070C1F88401FFE7E9
:101F50000498406806990968029A01EB0211C1F8D9
:101F60008C010498006806990968029A01EB021135
:101F7000C1F8880106980068029900EB0111D1F8B8
:101F8000800140F00100C1F8800100208DF81F00A1
:101F900011E00699486A40F40010486201208DF86B
:101FA0001F0008E00699486A40F48020486201203A
:101FB0008DF81F00FFE79DF81F0008B07047000074
:101FC00086B004900391049890F820008DF80300E7
:101FD0009DF80300012806D0FFE79DF803000228C2
:101FE00040F0B080FFE746F20040C4F200000190EC
:101FF0000199D1F8000240F00100C1F800020199F6
:10200000D1F8000220F47C50C1F800020398426A23
:102010000199D1F8000240EA0220C1F800020398B9
:10202000406900F01F01012088400290029A019946
:10203000D1F81C029043C1F81C020398C069F0B9A2
:10204000FFE7029A0199D1F80C029043C1F80C0203
:10205000039A9088D168526940EA0140019901EBE6
:10206000C201C1F84002039A10889168526940EA9F
:102070000140019901EBC201C1F84402FFE7039856
:10208000C06901281ED1FFE7029A0199D1F80C021C
:102090001043C1F80C02039A90881168526940EA13
:1020A0000140019901EBC201C1F84002039A9089F5
:1020B0009168526940EA0140019901EBC201C1F8FF
:1020C0004402FFE70398806940B9FFE7029A01994B
:1020D000D1F804029043C1F8040207E0029A019982
:1020E000D1F804021043C1F80402FFE70398006925
:1020F00040B9FFE7029A0199D1F814029043C1F860
:10210000140207E0029A0199D1F814021043C1F8B1
:102110001402FFE70398006A012808D1FFE7029A3A
:102120000199D1F81C021043C1F81C02FFE7019984
:10213000D1F8000220F00100C1F8000200208DF863
:10214000170008E00499486A40F4802048620120A2
:102150008DF81700FFE79DF8170006B070470000E4
:1021600081B0009001B0704784B0039002910020CC
:102170000190039890F820008DF803009DF803006B
:10218000012805D0FFE79DF80300022812D1FFE7E0
:10219000029838B9FFE703980068C06800F00300B0
:1021A000019006E003980068006900F003000190C8
:1021B000FFE7FFE7019804B07047000086B0049085
:1021C000039102920193049890F820008DF8030087
:1021D0009DF80300012806D0FFE79DF803000228C0
:1021E00040F0E880FFE7039880B9FFE704980068B3
:1021F000C068800748B9FFE70499486A40F40010B6
:10220000486201208DF81700DDE00FE004980068B7
:102210000069800748B9FFE70499486A40F4001054
:10222000486201208DF81700CDE0FFE704980068B0
:10223000039900EB0110D0F8B00100F004000299FE
:1022400088600298806858B9FFE70498006803998D
:1022500000EB0110D0F8B001400D029908600AE0CF
:1022600004980068039900EB0110D0F8B001C00891
:1022700002994860FFE704980068039900EB011099
:10228000D0F8B00100F002000299C860049800681C
:10229000039900EB0110D0F8B40100F00F000828FA
:1022A00004D3FFE70299082008610BE00498006856
:1022B000039900EB0110D0F8B40100F00F0002996F
:1022C0000861FFE704980068039900EB0110D0F85B
:1022D000B40180B2000A02998861049800680399E9
:1022E00000EB0110D0F8B401000C02994861049889
:1022F0000068039900EB0110D0F8B801019908704B
:1023000004980068039900EB0110D0F8B801000AA6
:102310000199487004980068039900EB0110D0F807
:10232000B801000C0199887004980068039900EBCB
:102330000110D0F8B801000E0199C8700498006827
:10234000039900EB0110D0F8BC01019908710498C1
:102350000068039900EB0110D0F8BC01000A019954
:10236000487104980068039900EB0110D0F8BC0193
:10237000000C0199887104980068039900EB011022
:10238000D0F8BC01000E0199C871039838B9FFE775
:1023900004980168C86840F02000C86006E004980E
:1023A0000168086940F020000861FFE700208DF80F
:1023B000170008E00499486A40F480204862012030
:1023C0008DF81700FFE79DF8170006B07047000072
:1023D00083B0029000200190029890F820008DF8C0
:1023E00003009DF80300012805D0FFE79DF80300D6
:1023F000022822D1FFE70298006880684001002887
:1024000004D5FFE7019801300190FFE702980068CA
:1024100080680001002804D5FFE701980130019091
:10242000FFE7029800688068C000002804D5FFE735
:10243000019801300190FFE7FFE7019803B0704772
:1024400080B58AB00990002008900998006840691A
:1024500007900998006840680690099800688068AD
:10246000059009980068C0680490099800680069A0
:10247000039009980068806902909DF81C00C007CD
:10248000002800F09480FFE79DF81400C00758B3BF
:10249000FFE709980168012088609DF81400800713
:1024A000002804D5FFE7099800F03AFD1BE09DF8ED
:1024B00014004007002805D5FFE7089840F40060A5
:1024C00008900FE09DF814000007002805D5FFE7ED
:1024D000089840F48050089003E0099800F01CFD33
:1024E000FFE7FFE7FFE7FFE79DF81500C00760B3D0
:1024F000FFE7099801684FF4807088609DF8150027
:102500008007002804D5FFE7099800F011FD1BE0C3
:102510009DF815004007002805D5FFE7089840F40E
:10252000005008900FE09DF815000007002805D521
:10253000FFE7089840F48040089003E0099800F015
:10254000F3FCFFE7FFE7FFE7FFE79DF81600C00792
:1025500060B3FFE7099801684FF4803088609DF808
:1025600016008007002804D5FFE7099800F0E8FC72
:102570001BE09DF816004007002805D5FFE70898E6
:1025800040F4004008900FE09DF816000007002876
:1025900005D5FFE7089840F48030089003E00998DB
:1025A00000F0CAFCFFE7FFE7FFE7FFE7FFE79DF862
:1025B0001C000007002810D5FFE79DF81000C0069A
:1025C000002809D5FFE7089840F4007008900998A2
:1025D00001681020C860FFE7FFE79DF81C00400776
:1025E00000280FD5FFE79DF810000007002808D548
:1025F000FFE7099801680820C860099800F0E0FA30
:10260000FFE7FFE79DF81C00800700280BD5FFE7D8
:1026100009980068C068800720B1FFE7099800F0BA
:10262000D3FAFFE7FFE79DF81C004006002810D50D
:10263000FFE79DF80C00C006002809D5FFE70898C1
:1026400040F4806008900998016810200861FFE755
:10265000FFE79DF81C00800600280FD5FFE79DF8D6
:102660000C000007002808D5FFE70998016808203A
:102670000861099800F058FBFFE7FFE79DF81C0090
:10268000C00600280BD5FFE709980068006980079D
:1026900020B1FFE7099800F04BFBFFE7FFE79DF84B
:1026A0001E00800700280FD5FFE79DF81800C00620
:1026B000002808D5FFE709980168102048600998AC
:1026C00000F0E0FBFFE7FFE79DF81E00C00778B1D0
:1026D000FFE79DF818000007002808D5FFE70998D4
:1026E000016808204860099800F02EFCFFE7FFE72A
:1026F0009DF81D000006002840F18D80FFE79DF841
:1027000018004007002840F18180FFE79DF81D0078
:10271000C00750B1FFE79DF80800C00728B1FFE7E8
:10272000089840F001000890FFE79DF81D00800721
:1027300000280BD5FFE79DF808008007002805D585
:10274000FFE7089840F002000890FFE79DF81D00A1
:10275000400700280BD5FFE79DF808004007002838
:1027600005D5FFE7089840F004000890FFE79DF8C2
:102770001D000007002848D5FFE79DF8080010F06D
:10278000700F42D0FFE7029800F0700001460191FF
:10279000102814D0FFE70198202815D0FFE70198F2
:1027A000302816D0FFE70198402817D0FFE701989E
:1027B000502818D0FFE70198602819D01DE008982C
:1027C00040F00800089019E0089840F010000890C8
:1027D00014E0089840F0200008900FE0089840F0BE
:1027E000400008900AE0089840F08000089005E05A
:1027F000089840F48070089000E0FFE709980168AD
:10280000886920F070008861FFE7FFE70998016898
:1028100004204860FFE7089848B1FFE7089A099943
:10282000486A104348620998FFF79AFCFFE70AB02C
:1028300080BD000080B584B00290029820B9FFE707
:1028400001208DF80F00E0E0029890F8200020B9F8
:10285000FFE7029800F0DEF8FFE7029801680868D9
:1028600040F00100086001F0B9F80190FFE702981C
:1028700000684068C007A8B9FFE701F0AFF8019908
:10288000401A0B280DD3FFE70299486A40F4003044
:1028900048620299052081F8200001208DF80F0080
:1028A000B3E0E4E702980168086820F002000860DD
:1028B00001F094F80190FFE70298006840688007F3
:1028C000002815D5FFE701F089F80199401A0B2877
:1028D0000DD3FFE70299486A40F40030486202993C
:1028E000052081F8200001208DF80F008DE0E3E73E
:1028F0000298007E012807D1FFE702980168086866
:1029000040F08000086006E002980168086820F046
:1029100080000860FFE70298407E012807D1FFE7AA
:1029200002980168086840F04000086006E00298DC
:102930000168086820F040000860FFE70298807E88
:10294000012807D1FFE702980168086840F02000DD
:10295000086006E002980168086820F0200008601E
:10296000FFE70298C07E012807D1FFE702980168BF
:10297000086820F01000086006E002980168086806
:1029800040F010000860FFE70298007F012807D19F
:10299000FFE702980168086840F00800086006E058
:1029A00002980168086820F008000860FFE70298B4
:1029B000407F012807D1FFE702980168086840F0CE
:1029C0000400086006E002980168086820F004002E
:1029D0000860FFE7029B19685A689868D3F80CC032
:1029E00040EA0C00D3F810C040EA0C005B691843C1
:1029F000013A1043C861029900204862029A0121FD
:102A000082F820108DF80F00FFE79DF80F0004B04A
:102A100080BD000080B594B01390002012901190FA
:102A200010900F900E901398006846F20041C4F287
:102A30000001884253D1FFE740F29830C2F2000013
:102A40000168013101600068012812D1FFE7FFE74A
:102A500000200D9043F64000C4F20200016841F0EE
:102A600000710160006800F000700D900D98FFE7A4
:102A7000FFE7FFE700200C9043F63000C4F20200AD
:102A8000016841F008010160006800F008000C9046
:102A90000C98FFE703200E9002210F91002107916F
:102AA000109111900920129040F60040C4F20200EB
:102AB0000EA900F0B7FD079A142005900521069194
:102AC00001F06AF8059801F05DF80699079A15205B
:102AD000089001F061F8089801F054F86EE013983E
:102AE000006846F60001C4F20001884265D1FFE7A4
:102AF000FFE700200B9043F64000C4F2020001689B
:102B000041F080610160006800F080600B900B98DC
:102B1000FFE740F29830C2F2000001680131016025
:102B20000068012812D1FFE7FFE700200A9043F672
:102B30004000C4F20200016841F0007101600068C9
:102B400000F000700A900A98FFE7FFE7FFE7002017
:102B5000099043F63000C4F20200016841F002011E
:102B60000160006800F0020009900998FFE760200A
:102B70000E9002200F9000200390109003201190DF
:102B80000920129040F20040C4F202000EA900F0A9
:102B900049FD039A402001900521029100F0FCFFBD
:102BA000019800F0EFFF0299039A4120049000F091
:102BB000F3FF049800F0E6FFFFE7FFE714B080BDE5
:102BC00081B0009001B0704780B588B00790079839
:102BD000006846F20041C4F20001884240F096804D
:102BE000FFE740F25840C2F200000078BFF35F8F69
:102BF000C007C0B9FFE740F25840C2F200000CF035
:102C0000C2FD80B1FFE708F0C9FD08F0EBFE40F619
:102C10001C41C2F20001086040F25840C2F20000BC
:102C20000CF0C7FDFFE7FFE740F61C40C2F20000D2
:102C3000006801684A6901A99047002865D0FFE74C
:102C400040F68871C2F200010868013008600398FC
:102C500040F68471C2F200010860039800900128D8
:102C60001AD0FFE7009802281ED0FFE7009803283B
:102C700022D0FFE7009840F24111884224D0FFE7BC
:102C8000009840F20121884226D0FFE7009840F2E8
:102C90000221884228D02FE040F66871C2F200017C
:102CA0000868013008602FE040F66C71C2F2000144
:102CB00008680130086027E040F67071C2F2000138
:102CC0000868013008601FE040F67471C2F200012C
:102CD00008680130086017E040F67871C2F2000120
:102CE0000868013008600FE040F67C71C2F2000114
:102CF00008680130086007E040F68071C2F2000108
:102D0000086801300860FFE78EE70AE0079800686E
:102D100046F60001C4F20001884201D1FFE7FFE757
:102D2000FFE708B080BD000081B0009001B070479F
:102D300080B588B007900798006846F60001C4F295
:102D40000001884240F09C80FFE740F26040C2F200
:102D500000000078BFF35F8FC007C0B9FFE740F203
:102D60006040C2F200000CF00EFD80B1FFE708F0F9
:102D700015FD08F041FE40F62441C2F20001086052
:102D800040F26040C2F200000CF013FDFFE740F299
:102D90005C40C2F200000078BFF35F8FC007B0B99B
:102DA000FFE740F25C40C2F200000CF0ECFC70B1B6
:102DB000FFE709F0BBFA40F62041C2F200010860CB
:102DC00040F25C40C2F200000CF0F3FCFFE7FFE7CA
:102DD00040F62440C2F20000006801684A6901A977
:102DE000904700284BD0FFE740F69871C2F20001EF
:102DF000086801300860039840F20121884206D03B
:102E0000FFE7039840F20221884217D1FFE70398B9
:102E100040F20121884208D1FFE740F68C71C2F2EE
:102E2000000108680130086007E040F69071C2F2C6
:102E30000001086801300860FFE71FE0039840F2D6
:102E40000721884205D0FFE70398B0F5027F0CD137
:102E5000FFE740F62040C2F20000006803999DF8A9
:102E6000103001AA09F01CF907E040F69471C2F293
:102E70000001086801300860FFE7FFE7A8E7FFE707
:102E800008B080BD81B0009001B0704780B584B0BB
:102E90000290029890F8200001282FD1FFE70299B4
:102EA000022081F8200002980168086820F00100E3
:102EB000086000F093FD0190FFE702980068406809
:102EC000C007A8B1FFE700F089FD0199401A0B285F
:102ED0000DD3FFE70299486A40F400304862029936
:102EE000052081F8200001208DF80F000FE0E4E7B5
:102EF0000299002048628DF80F0008E00299486AA4
:102F000040F40020486201208DF80F00FFE79DF893
:102F10000F0004B080BD000081B0009001B0704788
:102F200081B0009001B0704781B0009001B070474F
:102F300081B0009001B0704781B0009001B070473F
:102F400081B0009001B0704781B0009001B070472F
:102F500080B584B002900298806D019000F03EFD33
:102F60000090029890F8350002280DD0FFE70299F2
:102F700080204865FFE70299002081F83400FFE7D0
:102F800001208DF80F0055E002980168086820F0D4
:102F90001600086002980168486920F080004861C6
:102FA0000298006C20B9FFE70298806C38B1FFE707
:102FB00002980168086820F008000860FFE702989E
:102FC0000168086820F001000860FFE702980068C7
:102FD0000068C007C8B1FFE700F000FD0099401A83
:102FE000062811D3FFE702992020486502990320A3
:102FF00081F83500FFE70299002081F83400FFE7EF
:1030000003208DF80F0015E0E0E70298C16D3F2026
:103010008840019988600299012081F83500FFE716
:103020000299002081F83400FFE7FFE700208DF8C7
:103030000F00FFE79DF80F0004B080BD82B0009044
:10304000009890F83500022807D0FFE7009980200B
:10305000486501208DF807000EE00099052081F8F1
:10306000350000980168086820F001000860FFE75B
:1030700000208DF80700FFE79DF8070002B07047B9
:1030800081B000900098406D01B0704780B586B067
:1030900005900020039040F2AC20C2F200000068CE
:1030A00048F2B511C1F64E31A0FB0110800A029022
:1030B0000598806D01900198006804900498059926
:1030C000C96DC840000700281AD5FFE705980068B9
:1030D00000684007002812D5FFE7059801680868D6
:1030E00020F0040008600598C16D0820884001990F
:1030F00088600599486D40F001004865FFE7FFE7EB
:1031000004980599C96DC840C007A0B1FFE70598AC
:1031100000684069000600280CD5FFE70598C16DDE
:1031200001208840019988600599486D40F00200AF
:103130004865FFE7FFE704980599C96DC840400757
:10314000002814D5FFE7059800680068800700286C
:103150000CD5FFE70598C16D04208840019988606F
:103160000599486D40F004004865FFE7FFE70498C3
:103170000599C96DC840C006002847D5FFE70598E6
:1031800000680068000700283FD5FFE70598C16D7B
:103190001020884001998860059800680068400305
:1031A00000281AD5FFE7059800680068000300288A
:1031B00009D4FFE70598006C20B1FFE70598016C82
:1031C0008847FFE708E00598806C20B1FFE7059885
:1031D000816C8847FFE7FFE716E005980068006804
:1031E000C005002807D4FFE705980168086820F0AB
:1031F00008000860FFE70598006C20B1FFE705981C
:10320000016C8847FFE7FFE7FFE7FFE704980599B0
:10321000C96DC8408006002840F18D80FFE7059801
:1032200000680068C006002840F18480FFE7059828
:10323000C16D2020884001998860059890F835007C
:10324000052834D1FFE705980168086820F01600CA
:10325000086005980168486920F080004861059879
:10326000006C20B9FFE70598806C38B1FFE705983E
:103270000168086820F008000860FFE70598C16D44
:103280003F208840019988600599012081F8350028
:10329000FFE70599002081F83400FFE70598006DED
:1032A00020B1FFE70598016D8847FFE77BE00598AF
:1032B00000680068400300281AD5FFE705980068F9
:1032C00000680003002809D4FFE70598406C20B18E
:1032D000FFE70598416C8847FFE708E00598C06B59
:1032E00020B1FFE70598C16B8847FFE7FFE720E0C3
:1032F000059800680068C005002811D4FFE705980C
:103300000168086820F0100008600599012081F824
:103310003500FFE70599002081F83400FFE7FFE75B
:103320000598C06B20B1FFE70598C16B8847FFE7A0
:10333000FFE7FFE7FFE70598406DA0B3FFE70598BB
:10334000406DC00730B3FFE70599052081F83500CF
:1033500005980168086820F001000860FFE70398FD
:10336000013003900299884201D9FFE707E0FFE7A7
:10337000059800680068C0070028F0D1FFE70599AC
:10338000012081F83500FFE70599002081F834001D
:10339000FFE7FFE70598C06C20B1FFE70598C16C17
:1033A0008847FFE7FFE706B080BD000080B586B024
:1033B00004900020039000F011FB0290049820B9C3
:1033C000FFE701208DF81700A3E00498406A08B1D8
:1033D000FFE7FFE70499022081F83500FFE7049931
:1033E000002081F83400FFE704980168086820F0A5
:1033F00001000860FFE7049800680068C00790B10A
:10340000FFE700F0EBFA0299401A06280AD3FFE71B
:103410000499202048650499032081F835008DF82F
:10342000170076E0E7E704980068006803900398C7
:1034300048F23F01CFF21001084003900499009137
:103440004868D1F808C0CB680A6940EA0C00184304
:1034500010434A6910438A691043CA691043096AD4
:1034600001430398084303900498406A042808D154
:10347000FFE70499C86A096B014303980843039066
:10348000FFE7039804990968086004980068406998
:103490000390039820F0070003900498416A039872
:1034A000084303900498406A04281AD1FFE704985F
:1034B000816A0398084303900498C06A80B1FFE7CB
:1034C0000498FDF735FB50B1FFE7049940204865AB
:1034D0000499012081F835008DF8170019E0FFE705
:1034E000FFE703980499096848610498FDF7F4FA26
:1034F00001900498C16D3F2088400199886004992B
:1035000000204865049A012182F835108DF81700D3
:10351000FFE79DF8170006B080BD000080B588B0B9
:10352000069005910492039300208DF80B000698F5
:10353000806D0190FFE7069890F83400012804D1CF
:10354000FFE702208DF81F0045E00699012081F871
:103550003400FFE7FFE7069890F8350001282BD1EB
:10356000FFE70699022081F835000699002048659A
:1035700006980599049A039BFDF752FB0698C16DC6
:103580003F2088400199886006980168086840F0EB
:10359000160008600698006C38B1FFE706980168CD
:1035A000086840F008000860FFE7069801680868AE
:1035B00040F00100086009E0FFE70699002081F86B
:1035C0003400FFE702208DF80B00FFE79DF80B00A9
:1035D0008DF81F00FFE79DF81F0008B080BD0000B8
:1035E00080B584B0039000F0F9F90290039801903F
:1035F0000198013048B1FFE740F2C820C2F2000054
:103600000178019808440190FFE7FFE700F0E6F930
:103610000299401A0199884201D2FFE7F6E704B007
:1036200080BD00008EB00D900C9100200A90099092
:1036300008900B90FFE70B980F2800F2CC81FFE772
:103640000B99012088400A900C9800680A9908405C
:10365000099009980A99884240F0B881FFE70C98D0
:10366000406800F00300012807D0FFE70C9840688D
:1036700000F0030002282FD1FFE70D988068089022
:103680000B984100032000FA01F108988843089044
:103690000C98C0680B99490000FA01F1089808439A
:1036A000089008980D9988600D98406808900B99CB
:1036B000012000FA01F10898884308900C984068AE
:1036C000C0F300100B9900FA01F108980843089024
:1036D00008980D994860FFE70C98406800F00300D7
:1036E000032818D0FFE70D98C06808900B98410098
:1036F000032000FA01F10898884308900C9880682C
:103700000B99490000FA01F10898084308900898BD
:103710000D99C860FFE70C98406800F0030002288C
:1037200026D1FFE70D980B996FF0030202EA5101D1
:103730000844006A08900B9800F0070081000F20F1
:1037400000FA01F10898884308900C9800690B99D9
:1037500001F00701890000FA01F108980843089078
:1037600008980D990B9B02EA530211440862FFE787
:103770000D98006808900B984100032000FA01F1B1
:103780000898884308900C98406800F003000B9953
:10379000490000FA01F108980843089008980D992B
:1037A00008600C9880798007002800F00E81FFE700
:1037B000FFE70020079043F64400C4F202000168CE
:1037C00041F480410160006800F480400790079850
:1037D000FFE70B9820F0030043F60801C4F2010153
:1037E000405808900B9800F0030081000F2000FA69
:1037F00001F10898884308900D980021C4F2020155
:10380000884203D1FFE7002006905EE00D9840F269
:103810000041C4F20201884203D1FFE70120059074
:1038200050E00D9840F60001C4F20201884203D135
:10383000FFE70220049042E00D9840F60041C4F2F8
:103840000201884203D1FFE70320039034E00D9882
:1038500041F20001C4F20201884203D1FFE70420D3
:10386000029026E00D9841F20041C4F20201884224
:1038700003D1FFE70520019018E00D9841F6000103
:10388000C4F20201884203D1FFE7062000900AE05B
:103890000D9941F60042C4F202020820914208BF8D
:1038A00007200090FFE700980190FFE70198029041
:1038B000FFE702980390FFE703980490FFE704985E
:1038C0000590FFE705980690FFE70698C0B20B99B0
:1038D00001F00301890000FA01F1089808430890FB
:1038E00008980B9921F0030143F60802C4F2010283
:1038F000885043F60840C4F2010000680890099916
:103900000898884308900C988079C006002805D54F
:10391000FFE70999089808430890FFE7089843F6DD
:103920000841C4F20101086043F60C40C4F20100F2
:103930000068089009990898884308900C98807945
:103940008006002805D5FFE70999089808430890E4
:10395000FFE7089843F60C41C4F20101086043F602
:103960000440C4F20100006808900999089888434F
:1039700008900C9880798007002805D5FFE7099901
:10398000089808430890FFE7089843F60441C4F2FA
:103990000101086043F60040C4F20100006808908D
:1039A00009990898884308900C988079C00728B135
:1039B000FFE70999089808430890FFE7089843F63D
:1039C0000041C4F201010860FFE7FFE7FFE70B9841
:1039D00001300B902FE60EB07047000045F2044016
:1039E000C2F200000068704740F2C820C2F2000036
:1039F000027845F20441C2F20001086810440860F0
:103A00007047000080B543F60041C4F20201086827
:103A100040F400700860086840F48060086008683E
:103A200040F480700860032000F0D0F80F2000F010
:103A300005F800F07BF8002080BD000080B58CB058
:103A40000B90002004900390FFE70020009043F6C5
:103A50004000C4F20200016841F0100101600068FA
:103A600000F0100000900098FFE706A802A900F0FF
:103A7000E7F909980490049820B9FFE700F010FADC
:103A8000059004E000F00CFA40000590FFE705986F
:103A90004DF68361C4F21B31A0FB01014FF0FF30F2
:103AA00000EB9140039041F27010C2F2000041F22D
:103AB0000001C4F20001016040F2E731C1600399E6
:103AC0004160002101618160816100F0E9FD8DF8B4
:103AD00007009DF8070028BBFFE741F27010C2F213
:103AE000000000F02FFE8DF807009DF80700C0B918
:103AF000FFE7362000F046F80B980F280CD8FFE7B8
:103B00000B993620002200F047F80B9840F2CC21A8
:103B1000C2F20001086003E001208DF80700FFE712
:103B2000FFE7FFE79DF807000CB080BD80B582B0CD
:103B3000FFE70020019043F64400C4F20200016850
:103B400041F480410160006800F4804001900198D8
:103B5000FFE7FFE70020009043F64000C4F20200B8
:103B6000016841F080510160006800F080500090D1
:103B70000098FFE76FF001000F21002200F00CF821
:103B800002B080BD80B582B08DF807009DF90700B6
:103B90000AF042FB02B080BD80B586B08DF81700F8
:103BA00004910392002002900AF04EFB02909DF9CE
:103BB0001700019002980499039A01F09FFF0146B3
:103BC00001980AF049FB06B080BD000080B582B0C4
:103BD000019001980AF084FB02B080BD80B584B0EA
:103BE00002900191029820B9FFE701208DF80F00A3
:103BF00021E1019843F60041C4F20201096801F095
:103C00000701884212D9FFE7019943F60040C4F248
:103C100002000170006800F007000199884204D09A
:103C2000FFE701208DF80F0005E1FFE7029800781B
:103C3000800700282AD5FFE702980078400700286F
:103C400009D5FFE743F60801C4F20201086840F411
:103C5000E0500860FFE7029800780007002809D5C7
:103C6000FFE743F60801C4F20201086840F460402F
:103C70000860FFE743F60801C4F20201086820F07B
:103C8000F000029A926810430860FFE702980078FB
:103C9000C00700286ED0FFE702984068012811D1C4
:103CA000FFE743F60000C4F20200006800F40031B0
:103CB0000020B0EB514F04D1FFE701208DF80F0039
:103CC000B9E02CE002984068022805D0FFE702988E
:103CD0004068032811D1FFE743F60000C4F2020058
:103CE000006800F000710020B0EB516F04D1FFE7D5
:103CF00001208DF80F009EE010E043F60000C4F2B2
:103D00000200006800F002010020B0EB510F04D166
:103D1000FFE701208DF80F008DE0FFE7FFE743F696
:103D20000801C4F20201086820F00300029A5268F8
:103D300010430860FFF752FE0090FFE743F60800CB
:103D4000C4F20200006800F00C0002994968B0EB70
:103D5000810F0ED0FFE7FFF741FE0099401A41F2B4
:103D60008931884204D3FFE703208DF80F0062E019
:103D7000E4E7FFE7019843F60041C4F20201096855
:103D800001F00701884212D2FFE7019943F6004093
:103D9000C4F202000170006800F007000199884237
:103DA00004D0FFE701208DF80F0044E0FFE7029800
:103DB0000078400700280CD5FFE743F60801C4F25D
:103DC0000201086820F4E050029AD26810430860AB
:103DD000FFE702980078000700280DD5FFE743F6BB
:103DE0000801C4F20201086820F46040029A1269D6
:103DF00040EAC2000860FFE700F076F843F60801E9
:103E0000C4F202010968C9B20A0941F6A051C0F61C
:103E10000101895CC84040F2AC21C2F20001086097
:103E200040F2CC20C2F200000068FFF707FE00203D
:103E30008DF80F00FFE79DF80F0004B080BD000073
:103E400082B00190009101990F20086043F60800AC
:103E5000C4F20200016801F00301019A5160016897
:103E600001F0F001019A9160016801F4E051019ABA
:103E7000D160006800F46040C0080199086143F611
:103E80000040C4F20200006800F0070000990860DA
:103E900002B0704740F2AC20C2F2000000687047E8
:103EA00080B5FFF7F7FF43F60801C4F20201096885
:103EB000C1F3822241F6B051C0F60101895CC840CD
:103EC00080BD000080B5FFF7E5FF43F60801C4F2AE
:103ED0000201096889B24A0B41F6B051C0F60101EE
:103EE000895CC84080BD000080B586B00020059088
:103EF00004900390029043F60800C4F202000068A8
:103F000000F00C000146019140B1FFE70198042840
:103F10000AD0FFE7019808280CD04FE042F2004099
:103F2000C0F2F40002904FE041F60030C0F2B7005A
:103F3000029049E043F60400C4F20200016801F077
:103F40003F01059100684002002813D5FFE743F6C2
:103F50000400C4F202000068C0F3881041F600318A
:103F6000C0F2B701A0FB0101059A0023FCF72CF970
:103F7000049012E043F60400C4F202000068C0F3AB
:103F8000881042F20041C0F2F401A0FB0101059A41
:103F90000023FCF719F90490FFE743F60400C4F28C
:103FA0000200006800F44031022000EBD1300390A1
:103FB00004980399B0FBF1F0029005E042F2004052
:103FC000C0F2F4000290FFE7029806B080BD000046
:103FD00080B586B00490049820B9FFE701208DF8E1
:103FE000170050E304980078C007002800F0A5806F
:103FF000FFE743F60800C4F20200006800F00C007E
:10400000042813D0FFE743F60800C4F2020000685A
:1040100000F00C0008281ED1FFE743F60400C4F2AC
:10402000020000684002002815D5FFE743F60000B3
:10403000C4F20200006800F400310020B0EB514FE0
:1040400008D0FFE70498406820B9FFE701208DF809
:10405000170018E370E0FFE704984068B0F5803F70
:1040600009D1FFE743F60001C4F20201086840F4F9
:104070008030086020E004984068B0F5A02F0DD192
:10408000FFE743F60001C4F20201086840F4802013
:104090000860086840F4803008600CE043F60001D6
:1040A000C4F20201086820F480300860086820F437
:1040B00080200860FFE7FFE7FFE704984068E8B169
:1040C000FFE7FFF78BFC0390FFE743F60000C4F225
:1040D0000200006800F400310020B0EB514F0CD119
:1040E000FFE7FFF77BFC0399401A652804D3FFE73D
:1040F00003208DF81700C6E2E7E71CE0FFF76EFC2F
:104100000390FFE743F60000C4F20200006800F4E9
:1041100000310020B0EB514F0CD0FFE7FFF75EFC01
:104120000399401A652804D3FFE703208DF8170090
:10413000A9E2E7E7FFE7FFE7FFE7049800788007D9
:10414000002840F19680FFE743F60800C4F2020021
:10415000006810F00C0F13D0FFE743F60800C4F21C
:104160000200006800F00C0008282CD1FFE743F69D
:104170000400C4F2020000684002002823D4FFE7D4
:1041800043F60000C4F20200006800F002010020C3
:10419000B0EB510F09D0FFE70498C068012804D0A4
:1041A000FFE701208DF817006DE243F60001C4F22D
:1041B0000201086820F0F800049A126940EAC2007F
:1041C0000860FFE754E00498C06870B3FFE700217F
:1041D000C4F2472101200860FFF700FC0390FFE7CD
:1041E00043F60000C4F20200006800F00201002063
:1041F000B0EB510F0CD1FFE7FFF7F0FB0399401A2A
:10420000032804D3FFE703208DF817003BE2E7E71C
:1042100043F60001C4F20201086820F0F800049A95
:10422000126940EAC200086021E00021C4F247217F
:1042300000200860FFF7D2FB0390FFE743F6000081
:10424000C4F20200006800F002010020B0EB510F40
:104250000CD0FFE7FFF7C2FB0399401A032804D3F1
:10426000FFE703208DF817000DE2E7E7FFE7FFE720
:10427000FFE704980078000700284BD5FFE7049873
:10428000406918B3FFE740F68061C4F2472101207E
:104290000860FFF7A3FB0390FFE743F67400C4F246
:1042A0000200006800F002010020B0EB510F0CD1B9
:1042B000FFE7FFF793FB0399401A032804D3FFE7B6
:1042C00003208DF81700DEE1E7E722E040F6806189
:1042D000C4F2472100200860FFF780FB0390FFE74E
:1042E00043F67400C4F20200006800F002010020EE
:1042F000B0EB510F0CD0FFE7FFF770FB0399401AAA
:10430000032804D3FFE703208DF81700BBE1E7E79C
:10431000FFE7FFE7049800784007002840F1CE80CF
:10432000FFE700208DF8070043F64000C4F20200CA
:104330000068C000002815D4FFE7FFE700200090C8
:1043400043F64000C4F20200016841F08051016070
:10435000006800F0805000900098FFE701208DF881
:104360000700FFE747F20000C4F200000068C00544
:10437000002822D4FFE747F20001C4F200010868D8
:1043800040F480700860FFF729FB0390FFE747F2D5
:104390000000C4F200000068C00500280CD4FFE74C
:1043A000FFF71CFB0399401A032804D3FFE70320FF
:1043B0008DF8170067E1EAE7FFE7FFE704988068F8
:1043C000012809D1FFE743F67001C4F20201086831
:1043D00040F0010008601FE00498806805280DD1B6
:1043E000FFE743F67001C4F20201086840F00400E0
:1043F0000860086840F0010008600CE043F67001B6
:10440000C4F20201086820F001000860086820F08A
:1044100004000860FFE7FFE7FFE704988068F8B151
:10442000FFE7FFF7DBFA0390FFE743F67000C4F203
:104430000200006800F002010020B0EB510F0ED125
:10444000FFE7FFF7CBFA0399401A41F2893188421E
:1044500004D3FFE703208DF8170014E1E5E71EE021
:10446000FFF7BCFA0390FFE743F67000C4F20200C6
:10447000006800F002010020B0EB510F0ED0FFE702
:10448000FFF7ACFA0399401A41F28931884204D30C
:10449000FFE703208DF81700F5E0E5E7FFE79DF85B
:1044A0000700012809D1FFE743F64001C4F20201E9
:1044B000086820F080500860FFE7FFE704988069F3
:1044C000002800F0DC80FFE743F60800C4F2020099
:1044D000006800F00C00082800F08580FFE70498D1
:1044E000806902285CD1FFE76021C4F247210020E7
:1044F0000860FFF773FA0390FFE743F60000C4F289
:104500000200006800F000710020B0EB516F0CD089
:10451000FFE7FFF763FA0399401A032804D3FFE784
:1045200003208DF81700AEE0E7E70499C869D1F8D9
:1045300020C04B6A8A6A40EA0C0040EA8310D2032A
:104540004FF6FF739A43A2F580321043C96A40EADE
:10455000016043F60401C4F2020108606021C4F264
:10456000472101200860FFF739FA0390FFE743F67F
:104570000000C4F20200006800F000710020B0EBFF
:10458000516F0CD1FFE7FFF729FA0399401A03286E
:1045900004D3FFE703208DF8170074E0E7E721E07C
:1045A0006021C4F2472100200860FFF717FA03904A
:1045B000FFE743F60000C4F20200006800F000715B
:1045C0000020B0EB516F0CD0FFE7FFF707FA03991B
:1045D000401A032804D3FFE703208DF8170052E0A8
:1045E000E7E7FFE74AE004988069012804D1FFE784
:1045F00001208DF8170046E043F60400C4F20200E3
:104600000068029004988069012831D0FFE7029881
:1046100000F480000499C969884229D1FFE7029813
:1046200000F03F000499096A884221D1FFE702980F
:1046300047F6C07108400499496AB0EB811F17D151
:10464000FFE7029800F440300499896AC9034FF6E5
:10465000FF729143A1F58031884209D1FFE70298AA
:1046600000F070600499C96AB0EB016F04D0FFE7F5
:1046700001208DF8170006E0FFE7FFE7FFE70020C5
:104680008DF81700FFE79DF8170006B080BD000009
:1046900081B0009001B0704781B0009001B07047C8
:1046A00080B582B00090009820B9FFE701208DF816
:1046B00007003FE0009890F83D0040B9FFE70099FF
:1046C000002081F83C00009800F038F8FFE70099DE
:1046D000022081F83D00009951F8040B01F022FB03
:1046E0000099012081F84600FFE70099012081F838
:1046F0003E00009981F83F00009981F84000009940
:1047000081F84100FFE7FFE70099012081F84200AE
:10471000009981F84300009981F84400009981F8DC
:104720004500FFE70099012081F83D0000208DF849
:104730000700FFE79DF8070002B080BD81B0009040
:1047400001B0704783B00190019890F83D000128B6
:1047500004D0FFE701208DF80B006AE001990220E8
:1047600081F83D0001980168C86840F00100C86008
:10477000019800680021C4F2010188423CD0FFE7A3
:1047800001980068B0F1804F36D0FFE701980068CB
:1047900040F20041C4F2000188422DD0FFE70198A9
:1047A000006840F60001C4F20001884224D0FFE70F
:1047B0000198006840F60041C4F2000188421BD015
:1047C000FFE70198006840F20041C4F2010188420D
:1047D00012D0FFE70198006844F20001C4F2010121
:1047E000884209D0FFE70198006841F60001C4F251
:1047F0000001884212D1FFE701980068806800F04C
:10480000070000900098062807D0FFE7019801688C
:10481000086840F001000860FFE706E001980168C1
:10482000086840F001000860FFE700208DF80B00E9
:10483000FFE79DF80B0003B07047000081B00090C7
:1048400001B0704780B584B0039003980068C068D9
:10485000029003980068006901909DF804008007A9
:10486000002824D5FFE79DF80800800700281DD503
:10487000FFE7039801686FF00200086103990120C7
:104880000877039800688069800720B1FFE70398E4
:10489000FFF7D4FF06E0039800F0E2F8039800F079
:1048A000E3F8FFE7039900200877FFE7FFE79DF8AB
:1048B00004004007002825D5FFE79DF808004007C1
:1048C00000281ED5FFE7039801686FF00400086117
:1048D00003990220087703980068806910F4407FEC
:1048E00004D0FFE70398FFF7A9FF06E0039800F064
:1048F000B7F8039800F0B8F8FFE7039900200877AD
:10490000FFE7FFE79DF804000007002824D5FFE734
:104910009DF80800000700281DD5FFE703980168EF
:104920006FF0080008610399042008770398006875
:10493000C069800720B1FFE70398FFF77FFF06E01B
:10494000039800F08DF8039800F08EF8FFE70399C4
:1049500000200877FFE7FFE79DF80400C006002865
:1049600025D5FFE79DF80800C00600281ED5FFE703
:10497000039801686FF01000086103990820087718
:1049800003980068C06910F4407F04D0FFE70398E3
:10499000FFF754FF06E0039800F062F8039800F078
:1049A00063F8FFE7039900200877FFE7FFE79DF82A
:1049B0000400C00778B1FFE79DF80800C00748B1C0
:1049C000FFE7039801686FF001000861039800F0A9
:1049D0004FF8FFE7FFE79DF804000006002810D518
:1049E000FFE79DF808000006002809D5FFE70398B7
:1049F00001686FF0800008610398FFF749FEFFE748
:104A0000FFE79DF804004006002810D5FFE79DF859
:104A100008004006002809D5FFE7039801686FF0F9
:104A200040000861039800F035F8FFE7FFE79DF8C4
:104A300004008006002810D5FFE79DF808008006D6
:104A4000002809D5FFE7039801686FF0200008618E
:104A50000398FFF721FEFFE7FFE704B080BD0000E9
:104A600081B0009001B0704781B0009001B07047F4
:104A700080B582B001900198006841F20001C4F253
:104A80000001884203D1FFE7FEF7AEFFFFE702B067
:104A900080BD000081B0009001B0704780B586B045
:104AA00004900391ADF80A20049890F84200202861
:104AB00048D1FFE7039820B1FFE7BDF80A0020B90D
:104AC000FFE701208DF8170040E0049901200863FA
:104AD00004990020486304980399BDF80A2001F066
:104AE000E9FC8DF809000498006B012821D1FFE74B
:104AF000FFE7002001900498006800680190049886
:104B00000068406801900198FFE7FFE7FFE704981D
:104B1000006850E8030F40F010000090FFE7009994
:104B20000498026842E803100028F0D1FFE7FFE78D
:104B300003E001208DF80900FFE79DF809008DF8DA
:104B4000170003E002208DF81700FFE79DF817001B
:104B500006B080BD80B582B00190ADF8021001981A
:104B6000006844F60001C4F20001884208D1FFE762
:104B700006F060FA0199BDF8022006F0FBF913E097
:104B80000198006841F20001C4F2010188420AD193
:104B9000FFE70199BDF8022040F6F000C2F20000E4
:104BA00002F032FBFFE7FFE702B080BD80B586B0C0
:104BB0000490FFE7FFE70498006850E8030F20F433
:104BC00090700390FFE703990498026842E803108D
:104BD0000028F0D1FFE7FFE7FFE7FFE70498006850
:104BE00050E8050F20F001000290FFE702990498B9
:104BF000026842E805100028F0D1FFE7FFE70498BB
:104C0000006B012814D1FFE7FFE7FFE70498006875
:104C100050E8030F20F010000190FFE7019904987D
:104C2000026842E803100028F0D1FFE7FFE7FFE742
:104C30000498006840694006002832D5FFE7FFE786
:104C4000FFE70498006850E8050F20F0400000904E
:104C5000FFE700990498026842E805100028F0D1A7
:104C6000FFE7FFE70498C06BD0B1FFE70498C16B82
:104C7000002008650498C06BFEF76AF978B1FFE779
:104C80000498C06BFEF7FCF9202807D1FFE70499D0
:104C90001020486403208DF817000EE0FFE7FFE7BF
:104CA000FFE704990020C885049A202182F8421069
:104CB000049908638DF81700FFE79DF8170006B008
:104CC00080BD000080B584B00290FFE7FFE7029846
:104CD000006850E8030F20F0C0000190FFE7019941
:104CE0000298026842E803100028F0D1FFE7FFE7CE
:104CF0000298006840690006002832D5FFE7FFE708
:104D0000FFE70298006850E8050F20F0800000904F
:104D1000FFE700990298026842E805100028F0D1E8
:104D2000FFE7FFE70298806BD0B1FFE70298816B45
:104D3000002008650298806BFEF70AF978B1FFE75A
:104D40000298806BFEF79CF9202807D1FFE70299B3
:104D50001020486403208DF80F000CE0FFE7FFE708
:104D6000FFE702990020C884029A202182F84110AE
:104D70008DF80F00FFE79DF80F0004B080BD000024
:104D800080B586B005900598006841F20041C4F2F4
:104D9000010188423AD1FFE7FFE70020049005981F
:104DA00000680068049005980068406804900498C2
:104DB000FFE7FFE700200390059800680068039074
:104DC00005980068406803900398FFE7FFE700201C
:104DD0000290059800680068029005980068406895
:104DE00002900298FFE7FFE7002001900598006815
:104DF0000068019005980068406801900198FFE7FD
:104E000001F074FC0598FFF75DFFFFE706B080BD79
:104E100080B592B0119011980068006810901198B8
:104E20000068C0680F901198006840690E900020DB
:104E30000D900C90109800F00F000D900D9888B90F
:104E4000FFE79DF84000800600280AD5FFE79DF89F
:104E50003C008006002804D5FFE7119801F0D8F93E
:104E600002E2FFE70D98002800F0C280FFE79DF8FE
:104E70003800C00738B9FFE7BDF83C0010F4907F58
:104E800000F0B680FFE79DF84000C00758B1FFE78B
:104E90009DF83D00C00730B1FFE71199486C40F024
:104EA00001004864FFE79DF84000400700280BD54B
:104EB000FFE79DF83800C00730B1FFE71199486C53
:104EC00040F002004864FFE79DF84000800700289A
:104ED0000BD5FFE79DF83800C00730B1FFE7119907
:104EE000486C40F004004864FFE79DF8400000076C
:104EF000002811D5FFE79DF83C008006002805D466
:104F0000FFE79DF83800C00730B1FFE71199486C02
:104F100040F008004864FFE71198406C002866D014
:104F2000FFE79DF84000800600280AD5FFE79DF8BE
:104F30003C008006002804D5FFE7119801F068F9CD
:104F4000FFE7119800684069C0F380100C90119839
:104F5000406C0007002804D4FFE70C9800283ED0DE
:104F6000FFE7119801F0DAF81198006840694006EF
:104F700000282FD5FFE7FFE7FFE71198006850E80A
:104F8000050F20F040000B90FFE70B991198026885
:104F900042E805100028F0D1FFE7FFE71198C06B49
:104FA00098B1FFE71198C16B45F6C960C0F60000E3
:104FB00008651198C06BFEF741F828B1FFE711981A
:104FC000C06B016D8847FFE703E01198FFF7D8FE3B
:104FD000FFE703E01198FFF7D3FEFFE706E0119823
:104FE000FFF7CEFE119900204864FFE7FFE73BE1A1
:104FF0001198006B012840F01781FFE79DF84000F1
:10500000C006002840F11081FFE79DF83C00C00673
:10501000002840F10981FFE7FFE700200A9011987E
:10502000006800680A901198006840680A900A9821
:10503000FFE71198006840694006002840F19A8017
:10504000FFE71198C06B00684068ADF82600BDF816
:105050002600002875D0FFE7BDF826001199898D3C
:1050600088426EDAFFE7BDF826001199C8851198CD
:10507000C06BC069B0F5807F58D0FFE7FFE7FFE75E
:105080001198006850E8030F20F480700890FFE743
:1050900008991198026842E803100028F0D1FFE750
:1050A000FFE7FFE7FFE71198006850E8050F20F0E1
:1050B00001000790FFE707991198026842E8051080
:1050C0000028F0D1FFE7FFE7FFE7FFE7119800684E
:1050D00050E8050F20F040000690FFE70699119870
:1050E000026842E805100028F0D1FFE7FFE71199B8
:1050F000202081F84200119900200863FFE7FFE7B4
:105100001198006850E8030F20F010000590FFE7A9
:1051100005991198026842E803100028F0D1FFE7D2
:10512000FFE71198C06BFDF713FFFFE7119902200D
:1051300048631198818DC28D891A89B2FFF70AFDE3
:1051400017E0BDF826001199898D884210D1FFE73C
:105150001198C06BC069B0F5807F08D1FFE7119945
:10516000022048631198818DFFF7F4FCFFE7FFE709
:10517000FFE779E01199888DC98D401AADF81200CA
:105180001198C08D00284ED0FFE7BDF8120000280E
:1051900049D0FFE7FFE7FFE71198006850E8030FE9
:1051A00020F490700390FFE703991198026842E899
:1051B00003100028F0D1FFE7FFE7FFE7FFE71198B2
:1051C000006850E8050F20F001000290FFE7029907
:1051D0001198026842E805100028F0D1FFE7FFE7C8
:1051E0001199202081F84200119900200863FFE7FF
:1051F000FFE71198006850E8030F20F010000190BD
:10520000FFE701991198026842E803100028F0D1E5
:10521000FFE7FFE71199022048631198BDF81210CB
:10522000FFF798FCFFE71FE09DF84000000600280C
:105230000AD5FFE79DF83C000006002804D5FFE7EB
:10524000119801F0CFF90FE09DF8400040060028CA
:105250000AD5FFE79DF83C004006002804D5FFE78B
:10526000119800F0A5FFFFE712B080BD80B582B0B5
:105270000090009820B9FFE701208DF8070040E07A
:105280000098806908B1FFE700E0FFE7009890F818
:10529000410040B9FFE70099002081F840000098E4
:1052A00000F034F8FFE70099242081F841000098CD
:1052B0000168C86820F40050C860009801F05CF8EC
:1052C00000980168086920F490400861009801681E
:1052D000486920F02A00486100980168C86840F4D5
:1052E0000050C860009900204864009A202182F88C
:1052F0004110009A82F84210009948638DF8070027
:10530000FFE79DF8070002B080BD000080B59CB0AB
:105310001B9000201A9019901890179016901B98C7
:10532000006841F20001C4F20101884240F091801E
:10533000FFE7FFE70020159043F64400C4F20200A7
:10534000016841F010010160006800F01000159044
:105350001598FFE7FFE70020149043F63000C4F2F1
:105360000200016841F002010160006800F00200E3
:1053700014901498FFE7FFE70020139043F63000E5
:10538000C4F20200016841F001010160006800F010
:10539000010013901398FFE78020169002200990D7
:1053A000179000200D90189003200A901990072064
:1053B0000B901A9040F20040C4F2020016A90C9122
:1053C000FEF730F9DDF824C00A9A0B980C990D9B72
:1053D0004FF4007ECDF858E0CDF85CC018931992D8
:1053E0001A900020C4F20200FEF71CF90D9940F655
:1053F000F070C2F200000E9046F24042C4F2020287
:1054000002604FF0006242608160C1604FF48062D0
:10541000026141618161C16101624162FDF7C6FFC4
:1054200018B1FFE7FBF726FCFFE7FFE71B9840F604
:10543000F071C2F20001C1631B988863FFE7252069
:10544000089005210022FEF7A7FB0898FEF79AFBBB
:105450000EE11B98006844F60001C4F20001884286
:1054600068D1FFE7FFE70020129043F64000C4F246
:105470000200016841F480210160006800F480208E
:1054800012901298FFE7FFE70020119043F63000DA
:10549000C4F20200016841F004010160006800F0FC
:1054A000040011901198FFE74FF44060169002201D
:1054B00017900020069018900320199007201A904A
:1054C00040F60000C4F2020016A9FEF7ABF80699F8
:1054D00041F25000C2F20000079046F22802C4F2E6
:1054E000020202604FF0006242608160C1604FF4CE
:1054F0008062026141618161C16101624162FDF7C7
:1055000055FF18B1FFE7FBF7B5FBFFE7FFE71B9877
:1055100041F25001C2F20001C1631B988863FFE7AA
:105520002720059005210022FEF736FB0598FEF79F
:1055300029FB9CE01B98006841F20041C4F2010184
:10554000884240F09380FFE7FFE70020109043F689
:105550004400C4F20200016841F0200101600068CB
:1055600000F0200010901098FFE7FFE700200F9058
:1055700043F63000C4F20200016841F040010160CE
:10558000006800F040000F900F98FFE74FF4844050
:105590001690022017900020039018900320199075
:1055A00008201A9041F60000C4F2020016A9FEF786
:1055B00039F8039941F2B000C2F20000049046F2BB
:1055C0002842C4F2020202604FF020624260816011
:1055D000C1604FF48062026141618161C161016219
:1055E0004162FDF7E3FE18B1FFE7FBF743FBFFE77E
:1055F000FFE71B9841F2B001C2F20001C1631B98A2
:105600008863FFE741F21010C2F20000029046F2F8
:10561000A041C4F2020101604FF0206141604021CD
:1056200081600021C1604FF480620261416181614B
:10563000C16101624162FDF7B9FE18B1FFE7FBF7F6
:1056400019FBFFE7FFE71B9841F21011C2F20001BE
:1056500081631B988863FFE74720019005210022A2
:10566000FEF79AFA0198FEF78DFAFFE7FFE7FFE7EA
:105670001CB080BD81B0009001B0704781B0009037
:1056800001B0704780B586B004900391ADF80A2050
:10569000049890F8410020286AD1FFE7039820B1D0
:1056A000FFE7BDF80A0020B9FFE701208DF81700D9
:1056B00062E0039804990862BDF80A00049988849E
:1056C000BDF80A000499C884049900204864049A2B
:1056D000212182F8411004998A6B46F28901C0F6B3
:1056E0000001D16304998A6B46F20511C0F60001EE
:1056F000116404998A6B45F6E561C0F60001D16436
:105700000499896B086503A8019004980268806B6E
:10571000019909680432BDF80A30FDF7FFFE58B15F
:10572000FFE70499102048640499202081F8410083
:1057300001208DF817001FE0049801686FF0400009
:105740000860FFE7FFE70498006850E8050F40F0A5
:1057500080000090FFE700990498026842E8051075
:105760000028F0D1FFE7FFE700208DF8170003E0E5
:1057700002208DF81700FFE79DF8170006B080BDE6
:1057800080B582B001900198006841F20041C4F2F6
:105790000101884203D1FFE700F0A8FFFFE702B054
:1057A00080BD000081B0009001B07047FFE7FEE7C8
:1057B00080B582B040F6A070C2F20000019046F2BF
:1057C0000041C4F2000101600621416000218160B6
:1057D000C1604FF4403202614FF4801242610176A1
:1057E000012242768276C27601774177FDF722F870
:1057F00018B1FFE7FBF73EFAFFE702B080BD0000FB
:1058000080B582B040F6C870C2F20000019046F642
:105810000001C4F2000101600621416000218160A5
:10582000C1604FF4403202614FF480124261017650
:10583000012242768276C27601774177FCF7FAFF41
:1058400018B1FFE7FBF716FAFFE702B080BD0000D2
:1058500080B588B0FFE70020079043F63000C4F21F
:105860000200016841F480010160006800F48000DA
:1058700007900798FFE7FFE70020069043F6300007
:10588000C4F20200016841F400110160006800F4F4
:10589000001006900698FFE70C2000900521039168
:1058A00000220492FEF778F90098FEF76BF903994D
:1058B000049A39200190FEF76FF90198FEF762F91A
:1058C0000399049A3A200290FEF766F90298FEF7CF
:1058D00059F90399049A45200590FEF75DF905985A
:1058E000FEF750F908B080BD80B582B045F615408E
:1058F000C0F6000041F6A872C0F601020021019135
:1059000008F0EEFD019940F69C72C2F200021060B0
:105910004EF2BD30C0F6000041F6C052C0F60102A2
:1059200008F0DEFD019940F29432C2F200021060EC
:105930004FF22D70C0F6000041F6E452C0F60102AD
:1059400008F0CEFD40F20841C2F20001086002B04A
:1059500080BD000086B0FFE70020059043F63000D0
:10596000C4F20200016841F002010160006800F029
:10597000020005900598FFE7FFE70020049043F63A
:105980003000C4F20200016841F04001016000688B
:1059900000F0400004900498FFE7FFE70020039028
:1059A00043F63000C4F20200016841F001010160D9
:1059B000006800F0010003900398FFE7FFE7002074
:1059C000029043F63000C4F20200016841F0080181
:1059D0000160006800F0080002900298FFE7FFE70E
:1059E0000020019043F63000C4F20200016841F04B
:1059F00004010160006800F0040001900198FFE7D5
:105A0000FFE70020009043F63000C4F20200016876
:105A100041F080010160006800F080000090009873
:105A2000FFE706B07047000080B582B041F2B810C1
:105A3000C2F20000019041F20001C4F201010160D4
:105A40004FF47A31416000218160C16001610C2214
:105A500042618161C161FFF709FC18B1FFE7FBF703
:105A600009F9FFE702B080BD80B582B041F20020A5
:105A7000C2F20000019044F60001C4F2000101608E
:105A800048F2A061C0F2010141604FF48051816091
:105A90000021C1604FF4806202610C224261816189
:105AA000C161FFF7E3FB18B1FFE7FBF7E3F8FFE79E
:105AB00002B080BD80B582B041F24820C2F2000041
:105AC000019041F20041C4F2010101604FF4E13163
:105AD000416000218160C16001610C2242618161ED
