:020000040800F2
:1000000050810020A50100083D790008FD7400081A
:1000100039790008CD0A0008F5C100080000000089
:10002000000000000000000000000000C17D00088A
:100030002D0E000800000000517D00083D7E0008E4
:10004000BF010008BF010008BF010008BF01000890
:10005000BF010008BF010008BF010008BF01000880
:10006000BF010008BF010008BF010008BF01000870
:10007000550C0008BF010008BF010008BF010008BF
:10008000BF010008BF010008BF010008BF01000850
:10009000D10A0008E10A0008BF010008BF010008FA
:1000A000BF010008BF010008BF010008BF01000830
:1000B000BF010008BF010008BF010008BF01000820
:1000C000BF010008BF010008BF010008BF01000810
:1000D000BF01000891880008BF010008A18800083E
:1000E000BF010008BF010008BF010008BF010008F0
:1000F000BF010008BF010008BF010008BF010008E0
:10010000BF010008BF010008BF010008BF010008CF
:10011000BF010008BF0100082D7F0008BF010008D3
:10012000BF010008650C0008750C0008BF0100083D
:10013000BF010008BF010008BF010008BF0100089F
:10014000F10A0008010B0008BF010008AD790008A2
:10015000BF010008850C0008BF010008B188000835
:10016000BF010008BF010008BF010008BF0100086F
:10017000BF010008BF010008BF0100080000000027
:10018000BF010008BF010008DFF814D000F0EAFB4F
:1001900000F07EF8004800477151010800F014FC9F
:1001A000508100200648804706480047FEE7FEE7EA
:1001B000FEE7FEE7FEE7FEE7FEE7FEE7FEE7FEE717
:1001C000197F0008890100082DE9F05F054600202D
:1001D00092469B4688460646814640241BE02846B8
:1001E00041464746224600F0B4FA53465A46C01AE2
:1001F000914110D311461846224600F09BFA2D1A61
:1002000067EB01084F4622460120002100F092FAD8
:1002100017EB00094E41201EA4F10104DFDC484623
:1002200031462A464346BDE8F09F10B5431A934233
:1002300009D28318881803E010F8011D03F8011D86
:10024000521EF9D210BD40EA01039B0703D009E01A
:1002500008C9121F08C0042AFAD203E011F8013BB2
:1002600000F8013B521EF9D210BDD2B201E000F8F5
:10027000012B491EFBD270470022F6E710B513464A
:100280000A4604461946FFF7F0FF204610BD00005D
:100290007CB507480090074801900546009C04E0A3
:1002A0002046016808448047241DAC42F8D17CBD3B
:1002B000009001080C9001080B460146184600F01A
:1002C0007CBA2DE9FE4F804681EA0300C00F0C4640
:1002D000009021F0004123F00045B8EB0200A94155
:1002E00005D24046214690461C460B46024623F066
:1002F0000040104347D0270DC7F30A00C3F30A514B
:100300000290401A019040286BDAC3F3130040F4C6
:10031000801B0098924620B10023D2EB030A63EBC6
:100320000B0B01985946C0F14002504600F002FA0A
:1003300006460D4650465946019A00F01AFA10EB4F
:1003400008006141002487EA115284EAE7731A43E6
:1003500040D0009A62B3019A012A4FEA075215DC95
:10036000001B61EB02014FF0004202EA0752CDE9A7
:100370000042001C41F5801132462B4600F0A3FAE2
:1003800003B0BDE8F08F40462146F9E7001B61EB62
:100390000201001C41F5801300185B412018A2F5F2
:1003A000001747EB030140EAD570B6196D4111E023
:1003B0006D084FEA360645EAC0754FEA0752001B42
:1003C00061EB0201001C41F5801149084FEA300041
:1003D0000019514132462B4603B0BDE8F04F00F002
:1003E00063BA0098012240000023D0EB020263EBC5
:1003F000E073009821464FEAE074B8EB000061EB2F
:100400000401E9E783F000435BE781F0004158E72E
:100410002DE9FE4F81EA030404F0004421F000417D
:1004200000944FF0000B23F0004350EA01045ED02B
:1004300052EA03045BD0C3F30A54C1F30A552C44B7
:10044000A4F2F3340194A0FB0254C1F3130141F46C
:100450008011C3F3130343F4801301FB024400FB38
:10046000034E840A970A44EA815447EA8357A4FB5F
:10047000076802958D0A05FB07854FEA932C04FB5C
:100480000C542705029D4FEA065847EA1637B5EB8C
:1004900008056EEB070C870E920E47EA811742EAB9
:1004A0008312A7FB0201B6EB0B0164EB00042B0DDA
:1004B00043EA0C335E1844EB1C50DA465146E7FB26
:1004C0000201C5F313044FEA0B3343EA14534FEA16
:1004D0000432019C43EA0603A4F10C040294009C3C
:1004E000CDE900B400F0EFF903B0BDE8F08F0020D3
:1004F0000146F9E72DE9F04D81EA030404F0004BD1
:1005000021F0004514464FF0000A23F0004150EA64
:10051000050220D054EA01021DD0C5F30A57024655
:10052000C5F31303C1F31300C1F30A5640F4801559
:1005300043F48013A7EB0608101BD64608F2FD38DB
:1005400073EB050002D308F1010801E092185B414A
:10055000B8F1000F03DA00200146BDE8F08D00205D
:100560004FF48011064684460EE0171B73EB050717
:1005700005D3121B63EB050306434CEA010C490843
:100580004FEA300092185B4150EA0107EDD152EA80
:10059000030012D082EA040083EA0501084305D073
:1005A000101BAB4106D20122002306E000224FF0CF
:1005B000004302E06FF0010253101AEB06004CEB0F
:1005C000085110EB0A0041EB0B01BDE8F04D00F0C3
:1005D0006BB930B5041E71F1000404DB4FF0004428
:1005E000404264EB0101141E73F1000405DB1C465C
:1005F0004FF00043524263EB0403801A994101D348
:10060000012030BD002030BD30B5041E71F1000462
:1006100004DB4FF00044404264EB0101141E73F10F
:10062000000405DB1C464FF00043524263EB040319
:10063000101A8B4101D3012030BD002030BD30B5F0
:10064000041E71F1000404DB4FF00044404264EBEF
:100650000101141E73F1000405DB1C464FF000433A
:10066000524263EB040342404B401A4301D0002046
:1006700030BD012030BD0EB5C10F80EAE0700844E6
:10068000CA07002140F233438DE80E000A460B46AC
:1006900000F019F903B000BD70B5C1F30A5201F0C2
:1006A00000450024C1F3130140F2FF3341F48011EF
:1006B0009A4201DA002070BD40F233439A42A2F21E
:1006C000334203DC524200F044F800E090402C43F7
:1006D000F1D0404270BD00F0004230F000400AD03E
:1006E000C10D01F56071C0F3160042EA0151C20864
:1006F00040071143704700200146704701F0004356
:1007000030B421F0004150EA010206D00A0DA2F5F2
:100710006072C1F31301002A02DC30BC0020704774
:10072000440F44EAC104C100E01830BC00EBC250E1
:1007300000F05AB8202A04DB203A00FA02F1002027
:1007400070479140C2F1200320FA03F3194390400F
:100750007047202A04DB203A21FA02F0002170477A
:1007600021FA02F3D040C2F1200291400843194619
:100770007047202A06DBCB17203A41FA02F043EA01
:10078000E07306E041FA02F3D040C2F1200291404A
:1007900008431946704710B50446481E014201D16E
:1007A000042901D2052010BD104617F06BFB10B1D3
:1007B0002060002010BD062010BD2DE9F041074645
:1007C00015460E46102017F0D5FC04000AD06760CD
:1007D000C4E9026500F0F4F80168216004600020BB
:1007E000BDE8F0810120FBE70029A8BF7047401C4D
:1007F000490008BF20F00100704710B4B0FA80FC37
:1008000000FA0CF050EA010404BF10BC704749B173
:10081000CCF1200421FA04F411FA0CF118BF0121E3
:1008200021430843A3EB0C01CB1D4FEA00614FEAC3
:10083000102042BF002010BC704700EBC350104492
:100840000029A4BF10BC7047401C490008BF20F01D
:10085000010010BC7047F0B400F0004221F00041EC
:1008600020F00040CE0DC30DC1F3160141F400018C
:10087000C0F316004C42154640F40000761E09E015
:1008800010EB440002D582F0004240428842F7D883
:1008900040005B1EB342F9DA18B1F0BC0021FFF74B
:1008A000ACBF2846F0BC704710B5141E73F10004AD
:1008B00008DA401C41F1000192185B411A4301D152
:1008C00020F0010010BD2DE9F04D92469B4611B17C
:1008D000B1FA81F202E0B0FA80F220329046FFF7DE
:1008E00029FF04460F4640EA0A0041EA0B0153463D
:1008F0005A46084313D0114653EA010019D0C8F1F3
:1009000040025046FFF725FF05460E465046594621
:100910004246FFF70FFF084305D0012004E02046C0
:100920003946BDE8F08D0020054346EAE0762C43C9
:1009300037430A986305E40AA0EB08000022FD0A89
:1009400044EA47540A3002D500200146E9E7010590
:1009500010196941DDE9084500196941BDE8F04D0C
:10096000A2E700001CB5094800900948019005461F
:10097000009C06E0E06840F0010394E80700984717
:100980001034AC42F6D3FFF703FC0000E08F0108FF
:100990000090010830B50B460146002020220124BA
:1009A00009E021FA02F59D4205D303FA02F5491B3D
:1009B00004FA02F52844151EA2F10102F1DC30BD53
:1009C00000487047100000202DE9F0410646FFF76F
:1009D000F7FF8046454613E016B1E068B0420ED1FD
:1009E00020682860D4E90101D8F8007088472046C3
:1009F00017F098FAD8F80000B842EBD100E025468D
:100A00002C68002CE8D1BDE8F081C1F30A52C1F393
:100A1000130140F2FF3341F480119A4202DA0020C0
:100A20000146704740F233439A42A2F2334202DC5D
:100A30005242FFF78EBEFFF77DBE000030B5041EA8
:100A400071F1000404DB4FF00044404264EB01010B
:100A5000141E73F1000405DB1C464FF000435242A4
:100A600063EB0403994208BF904230BD704770B5F4
:100A70008D1810F8014B14F0030201D110F8012B6E
:100A8000231106D110F8013B03E010F8016B01F8C7
:100A9000016B521EF9D1ABB110F8012B04F00C041C
:100AA0008A1A0C2C03D0A2EB84129B1C08E010F8CD
:100AB000014BA2EB0422F8E712F8014B01F8014BBD
:100AC0005B1EF9D5A942D4D3002070BDFFE7FEE735
:100AD00080B542F62C20C2F2000002F0B5F980BDCC
:100AE00080B542F62C20C2F2000002F0ADF980BDC4
:100AF00080B542F65420C2F2000002F0A5F980BD94
:100B000080B542F65420C2F2000002F09DF980BD8B
:100B100084B08DF80F000291ADF806209DF80F000B
:100B20000146009123281DD80099DFE801F0121337
:100B30001415161B1B1B1B1B1B1B1B1B1B1B1B1B17
:100B40001B1B1B1B1B1B1B1B1B1B1B1B1B1B1718FC
:100B5000191A08E007E006E005E004E003E002E01F
:100B600001E000E0FFE7002004B07047002070477C
:100B700080B582B042F25070C2F20000009041F2A3
:100B80001831C2F200010022019208F033FA0098F5
:100B900040F61831C2F2000108F00EFA019802B0D6
:100BA00080BD000080B584B0039002910398029943
:100BB00009680BF021FB039942F25070C2F2000069
:100BC000019008F0F9F9019808F09CF9002004B0B0
:100BD00080BD000080B584B0039002918DF807209D
:100BE00000208DF806000BF013FB9DF9060004B001
:100BF00080BD000080B586B00490ADF80E100020D6
:100C00008DF80D0042F25070C2F20000D0F8BC0224
:100C100002900298D0F8140220B1FFE701208DF86D
:100C2000170013E00499BDF80E2042F25070C2F292
:100C30000000019008F0DEF9019808F0E5FA8DF85F
:100C40000D009DF80D008DF81700FFE79DF81700C7
:100C500006B080BD80B542F6DC20C2F2000002F092
:100C600049FF80BD80B542F63C30C2F2000002F080
:100C700041FF80BD80B542F67C20C2F2000002F048
:100C800039FF80BD80B542F69C30C2F2000002F010
:100C900031FF80BD82B001900198007810384AF68B
:100CA000AB21CAF6AA21A0FB01100009009000990F
:100CB00048F60C40C0F60100405C0199C8650098F8
:100CC000042807D3FFE701990868042262F30900AA
:100CD000886506E00199086840F2FF329043886514
:100CE000FFE70198806D02B07047000086B0059064
:100CF00000208DF813000598806A0390059880699C
:100D000010BBFFE70398029003281BD80299DFE885
:100D100001F0020D0218059890F82F00C00720B1CD
:100D2000FFE701208DF81300FFE70CE00598C06A8B
:100D3000B0F1C07F04D1FFE701208DF81300FFE779
:100D400001E000E0FFE745E005988069B0F5005F4D
:100D500025D1FFE70398019003281ED80199DFE809
:100D600001F00206021101208DF8130016E005982B
:100D700090F82F00C00720B1FFE701208DF8130085
:100D8000FFE70BE00598C06AB0F1C07F04D1FFE730
:100D900001208DF81300FFE700E0FFE719E003985A
:100DA0000090032804D3FFE70098032804D00EE046
:100DB00001208DF813000BE0059890F82F00C00774
:100DC00020B1FFE701208DF81300FFE700E0FFE707
:100DD000FFE7FFE79DF8130006B0704784B003906B
:100DE00002910192009303980168086820F4802022
:100DF0000860009803990968486003988068402853
:100E000009D1FFE70198039909688860029803995E
:100E10000968C86008E00298039909688860019829
:100E200003990968C860FFE704B070477047000085
:100E300072B6FFE7FEE7000080B584B047F61020E9
:100E4000C1F6FF700068039047F61420C1F6FF70EA
:100E50000068029047F61820C1F6FF700068019004
:100E60000199039808440390039888B1FFE7039819
:100E700040F2D031C2F2000100910231082206F0A6
:100E80003FFB009902981231042206F039FBFFE77C
:100E900004B080BD80B5ACB011F07CF811F09EF9C3
:100EA0002B9011F077F811F0A3F92A9041F61C303D
:100EB000C2F200000078BFF35F8FC00718BBFFE7E6
:100EC00041F61C30C2F2000015F02FFBD8B1FFE74D
:100ED0002B9942F2A800C2F20000149000220FF0F9
:100EE00033FA149940F22140C0F6010040F20002AA
:100EF000C0F60002FFF7E0F941F61C30C2F2000034
:100F000015F029FBFFE741F62030C2F2000000781F
:100F1000BFF35F8FC00718BBFFE741F62030C2F276
:100F2000000015F002FBD8B1FFE72B9942F26810E0
:100F3000C2F20000139000220FF07CFA139940F2E5
:100F40000950C0F6010040F20002C0F60002FFF7AF
:100F5000B3F941F62030C2F2000015F0FCFAFFE7C9
:100F600041F62430C2F200000078BFF35F8FC00763
:100F700018BBFFE741F62430C2F2000015F0D5FAA5
:100F8000D8B1FFE72B9942F2E810C2F200001290AC
:100F900001220FF08BFE129940F64150C0F601007D
:100FA00040F20002C0F60002FFF786F941F6243055
:100FB000C2F2000015F0CFFAFFE741F62830C2F286
:100FC00000000078BFF35F8FC00770BBFFE741F6FA
:100FD0002830C2F2000015F0A8FA30B3FFE72B99D1
:100FE00001208DF8A60002208DF8A70068464FF476
:100FF0000072026042F26020C2F2000011900DF116
:10100000A60310F04DF9119941F23930C0F60100F4
:1010100040F20002C0F60002FFF74EF941F6283018
:10102000C2F2000015F097FAFFE742F29001C2F217
:10103000000142F2A800C2F200000990086042F2EA
:101040008C01C2F2000142F26810C2F200000A9064
:10105000086042F2A001C2F2000142F2E810C2F2BE
:1010600000000B90086042F2A401C2F2000142F2BB
:101070006020C2F200000F9008602B98019025A814
:10108000029013F033FE019802990268D2699047EA
:10109000029813F05BFE2B98039020A8049013F0A5
:1010A00031FE039804990268D2699047049813F0BE
:1010B0004DFE2B9805901BA8069013F02FFE059867
:1010C00006990268D2699047069813F03FFE2B9864
:1010D000079016A8089013F02DFE0798089902684B
:1010E000D2699047089813F031FE41F64C30C2F2B5
:1010F00000000EF061F841F6E830C2F200000DF099
:1011000075FE10F089FB10F0F3FA41F6D070C2F2D0
:1011100000000CF09BF90BF085FD0BF0B3FC4FF4D5
:10112000FA7002F091FF099801210C910EF098FDE0
:101130000A20109002F088FF099802210D910EF00C
:101140008FFD109802F080FF0A980C990EF0E2F9DA
:10115000109802F079FF0B980C990FF0A3FA1098F1
:1011600002F072FF0B980C9900220E920FF04EFACB
:10117000109802F069FF0C990E9A0F980FF0EAFD93
:101180000D990E9A0F980FF0E5FD0F980FF06CFE79
:10119000109802F059FF2CB080BD000010B5ADF5DD
:1011A000347D40A8379041F6D070C2F200003A90EA
:1011B0000CF096FA40F24820C2F20000389000F19C
:1011C000200141F64C30C2F2000039900BF0FEF8DD
:1011D00038993998343054310BF0F8F838993998F7
:1011E000683088310BF0F2F8399842F29001C2F27F
:1011F0000001096842F28C02C2F2000212680EF08D
:101200001DF83A9812F034F90146002918BF01215F
:1012100041F6E830C2F2000080F8B11390F8B10353
:10122000A0B3FFE741F6D070C2F20000349012F094
:1012300027F934989FEDD91A8DED351A20EE410A21
:1012400041F6E831C2F20001369181EDEA0A12F06E
:10125000FBF834989DED351A369920EE410A81ED60
:10126000EB0A12F0FBF89DED351A369820EE010AD4
:1012700080EDED0AD0F8A82340F23401C2F200015B
:101280004A64D0F8B403C1F8B00015E041F64C3020
:10129000C2F20000329012F053F9329840F2340159
:1012A000C2F20001339181ED110A343012F020F9BD
:1012B000339880ED2C0AFFE740F2B060C2F20000E4
:1012C000007800285ED1FFE703F0BCF8B390B39834
:1012D00042F23031C2F200010968401AC82850D3E6
:1012E000FFE7B39842F23031C2F20001086042F2E7
:1012F0009000C2F20000006838B3FFE742F29000AD
:10130000C2F200000068012110F0B8F848B9FFE708
:1013100042F29000C2F20000006801210EF0A0FC31
:10132000FFE742F29000C2F200000068022110F0D4
:10133000A5F848B9FFE742F29000C2F20000006849
:1013400002210EF08DFCFFE7FFE742F28C00C2F2B3
:1013500000000068A0B1FFE742F28C00C2F200007A
:10136000006801210FF0F2FF48B9FFE742F28C005C
:10137000C2F20000006801210EF0CCF8FFE7FFE7A1
:10138000FFE7FFE710F048FAB290B29812F004FBC2
:10139000B190B29812F006FBB090B29810F07EFABD
:1013A0008DF8BF02B198022806D1FFE7B09901205D
:1013B0000229319004D0FFE79DF8BF023190FFE78A
:1013C000319800F001008DF8BE02B19840F2B06192
:1013D000C2F200018870B098C8709DF8BF0200F09A
:1013E00001004870002048719DF8BE02C007002827
:1013F00055D0FFE740F2B060C2F20000007800284C
:101400004CD1FFE740F2B062C2F20002012010703E
:1014100040F23401C2F2000191F83800907191F865
:10142000A400D07191F810011072002081F83800EA
:1014300081F8A40081F8100142F29000C2F200008D
:10144000006878B1FFE742F29000C2F200003090ED
:10145000006801210EF02EFC3098006802210EF089
:1014600029FCFFE742F28C00C2F20000006848B19C
:10147000FFE742F28C00C2F20000006801210EF08A
:1014800073F8FFE740F20431C2F2000103208875CF
:1014900040F2B061C2F200014871FFE7F3E040F2B0
:1014A000B060C2F200000078002845D0FFE740F2AB
:1014B000B061C2F200010020087042F29000C2F256
:1014C0000000006878B1FFE742F29000C2F200002D
:1014D0002F90006801210EF0C3FB2F9800680221B5
:1014E0000EF0BEFBFFE742F28C00C2F20000006883
:1014F00048B1FFE742F28C00C2F20000006801210F
:101500000EF008F8FFE740F2B061C2F200018879FE
:1015100040F23402C2F2000282F83800C87982F840
:10152000A400087A82F8100140F20432C2F20002EC
:10153000042090754871A5E0B1988DF8BD029DF822
:10154000BD0240F2B061C2F200010979884200F0A8
:101550009880FFE740F2D060C2F2000000780528D2
:101560000CD1FFE740F20431C2F20001042088757B
:1015700040F2B061C2F20001487181E09DF8BD0205
:1015800001280DD0FFE79DF8BD02032808D0FFE732
:101590009DF8BD0202286AD102E000BF35FA8E3CF8
:1015A00011F0C4FC12F0F0FAAE90AE980138B0FA27
:1015B00080F040098DF8B7029DF8B702C007B8B9AE
:1015C000FFE741F6E830C2F2000090F8080178B178
:1015D000FFE740F23400C2F20000007F40B1FFE7B5
:1015E00040F2FC10C2F20000007D01281AD1FFE792
:1015F00041F6E830C2F200002E9090EDEA0A0DF0BC
:1016000047F82E9840F23401C2F2000101220A7715
:10161000D0F8A803086040F2FC11C2F200010020DB
:101620000875FFE79DF8BD0202280CD1FFE740F2E4
:101630000431C2F200010220887540F2B061C2F2AA
:10164000000148710BE040F20431C2F200010120B8
:10165000887540F2B061C2F200014871FFE79DF861
:10166000BD0240F2B061C2F20001087107E09DF8CE
:10167000BD0240F2B061C2F200010871FFE7FFE76E
:10168000FFE7FFE7FFE740F2D060C2F200006946E3
:10169000086041F6A870C2F2000041F64C31C2F277
:1016A000000140F23402C2F2000240F20433C2F2FE
:1016B000000310F0F1F90BF0B5FA0BF05FF910F040
:1016C000ABF8AC90AC9812F067F9AB90AC9812F014
:1016D00069F9AA90AB99012003292D9007D0FFE763
:1016E000AB980138B0FA80F040092D90FFE72D98B3
:1016F00000F001008DF8A702AB99002001292C9081
:1017000007D1FFE7AA980138B0FA80F040092C9081
:10171000FFE72C9800F001008DF8A6029DF8A612B4
:101720000020C9072B9099B1FFE740F2EC30C2F2DC
:101730000000817E00202B9051B1FFE740F2EC3099
:10174000C2F20000007C002818BF01202B90FFE7A8
:101750002B9800F001008DF8A50200208DF8A4025E
:101760009DF8A502C007002877D0FFE742F22D3090
:10177000C2F20000007800286FD1FFE742F22D315D
:10178000C2F20001012008708DF8A40241F64C302D
:10179000C2F20000343011F0DBFEA0B1FFE741F6E9
:1017A000E830C2F2000090F8B10360B1FFE741F603
:1017B000E830C2F20000D0F8B40340F23401C2F2C3
:1017C0000001C86617E041F64C30C2F20000343028
:1017D00011F0BEFE70B1FFE741F64C30C2F20000DE
:1017E000343011F085FE40F23400C2F2000080ED8A
:1017F0001B0AFFE7FFE741F64C30C2F2000011F090
:10180000A7FE48B3FFE740F2FC10C2F20000007DE3
:10181000012815D1FFE741F6E830C2F2000090ED53
:10182000EA0A0CF035FF40F23401C2F20001012057
:10183000087740F2FC11C2F2000100200875FFE7B2
:1018400041F6E830C2F20000D0F8A80340F23401BB
:10185000C2F200010860FFE715E09DF8A502C0078D
:1018600080B9FFE742F22D30C2F20000007848B1A3
:10187000FFE742F22D31C2F20001002008708DF81E
:10188000A402FFE7FFE740F2B060C2F20000007878
:1018900048B9FFE740F2D060C2F20000007810F0D3
:1018A0004BFB08B1FFE763E19DF8A702C0070028E2
:1018B00000F09280FFE742F22D30C2F20000007883
:1018C000002800F08980FFE79DF8A402002840F07E
:1018D0008280FFE741F64C30C2F20000343011F054
:1018E00037FE002877D0FFE7379840F2EC31C2F29C
:1018F000000191ED000A9FEDCF1A20EE010A80ED64
:10190000680A41F6E830C2F2000090F8B10368B30B
:10191000FFE7379847F20721C3F61371A79146F204
:10192000F361CBF6DF61A69190ED680A9FEDC21AD4
:10193000B4EE410AF1EE10FA06DDFFE747F20720A8
:10194000C3F61370A890FFE7379890ED680A9FEDF3
:10195000BB1AB4EE410AF1EE10FA06DAFFE746F2DE
:10196000F360CBF6DF60A890FFE72DE041F64C3046
:10197000C2F20000343011F0F5FDA590A598007C6E
:1019800008BBFFE7379890ED680AA59890ED021A1A
:10199000B4EE410AF1EE10FA04DDFFE7A598806885
:1019A000A890FFE7379890ED680AA59890ED011A86
:1019B000B4EE410AF1EE10FA04DAFFE7A5984068A8
:1019C000A890FFE7FFE7FFE7A89840F23401C2F2D2
:1019D0000001C866FFE7CAE09DF8A702C00700281B
:1019E00000F0C480FFE70FF017FFA490A49811F057
:1019F000E7FF51EC100BFEF781FE01463798A391EB
:101A00004CF6CD41C3F64C51A29190ED630A9FED87
:101A10008C1AB4EE410AF1EE10FA0EDDFFE73798AA
:101A200090ED630A9FED871AB4EE410AF1EE10FAC9
:101A300003DAFFE70020A390FFE7379843F2333142
:101A4000C4F23301A19190ED630A9FED7F1A20EE5D
:101A5000010A80ED600A41F26F20C3F683209F9057
:101A600041F64C30C2F20000343011F071FD002814
:101A70007BD0FFE7379840F23401C2F2000191EDCC
:101A80001B1A90ED600A9FED712A20EE020A30EEDB
:101A9000010A80ED5E0A41F6E830C2F2000090F8DB
:101AA000B10368B3FFE7379847F20721C3F6137114
:101AB0009D914FF63521CBF68E619C9190ED5E0A9B
:101AC0009FED5D1AB4EE410AF1EE10FA06DDFFE774
:101AD00047F20720C3F613709E90FFE7379890ED0A
:101AE0005E0A9FED5B1AB4EE410AF1EE10FA06DAD7
:101AF000FFE74FF63520CBF68E609E90FFE72DE096
:101B000041F64C30C2F20000343011F02BFD9B90B6
:101B10009B98007C08BBFFE7379890ED5E0A9B9886
:101B200090ED021AB4EE410AF1EE10FA04DDFFE77F
:101B30009B9880689E90FFE7379890ED5E0A9B988F
:101B400090ED011AB4EE410AF1EE10FA04DAFFE763
:101B50009B9840689E90FFE7FFE7FFE79E9840F262
:101B60003401C2F20001C866FFE7FFE7FFE7FFE7C5
:101B700040F2B060C2F20000007848B9FFE740F2DE
:101B8000D060C2F20000007810F0D6F908B1FFE78B
:101B900005E29DF8A702C00760B3FFE742F22D30CF
:101BA000C2F20000007828B3FFE79DF8A40200BB52
:101BB000FFE741F64C30C2F2000011F0C9FCC0B1A1
:101BC000FFE7379840F2EC31C2F2000191ED010AD3
:101BD00091ED0B1A30EE410A9FED1E1A20EE010A1C
:101BE00080ED5A0A9A9840F23401C2F2000108606E
:101BF000FFE7D3E19DF8A702C007002800F0CD81E0
:101C0000FFE70FF009FE999011F090F911F0BCFF79
:101C1000989098980138B0FA80F040098DF85F02EA
:101C20000020969041F6E830C2F2000090F8B1032F
:101C300078B313E035FA8E3C0772133FF366DFBECC
:101C4000CDCC4CBDCDCC4C3D333333406F12833AB9
:101C500035FA8EBE35FA8EBC0000000041F6D07019
:101C6000C2F2000011F0F0FB37981FED061A20EECB
:101C7000010A80ED560A969841F6E831C2F2000159
:101C8000C1F8AC03969840F2FC11C2F20001486022
:101C9000FFE79DF85F0200F001008DF857029DF804
:101CA000571200202A9051B3FFE742F22F30C2F2C0
:101CB0000000017801202990F1B1FFE740F2FC100B
:101CC000C2F20000017D01200129299014D1FFE713
:101CD00041F6E830C2F2000090F808110120299086
:101CE00051B9FFE740F23400C2F20000007F002843
:101CF00018BF01202990FFE729982A90FFE72A982A
:101D000000F001008DF856029DF85712002028902F
:101D100051BBFFE742F22F30C2F2000001780120F0
:101D20002790F1B9FFE740F2FC10C2F20000017DFC
:101D300001202790A9B9FFE741F6E830C2F2000080
:101D400090F808110120012927900AD1FFE740F2FD
:101D50003400C2F20000007F013818BF0120279034
:101D6000FFE727982890FFE7289800F001008DF8FA
:101D700055029DF85602C007B0B1FFE7379890EDC5
:101D8000560A41F6E830C2F200000CF09BFC40F22B
:101D9000FC11C2F200010120087540F23401C2F2C8
:101DA0000001002008771FE09DF85502C007D0B160
:101DB000FFE741F6E830C2F20000269090EDEA0A13
:101DC0000CF066FC269840F2FC12C2F200020021E0
:101DD000117540F23401C2F2000101220A77D0F8F5
:101DE000A8030860FFE7FFE79DF8570242F22F3192
:101DF000C2F200010870999811F0DAFD51EC100B55
:101E0000FEF77CFC0146379894914CF6CD41C3F621
:101E10004C51939190ED540A1FED771AB4EE410A9C
:101E2000F1EE10FA0EDDFFE7379890ED540A1FED42
:101E30007B1AB4EE410AF1EE10FA03DAFFE7002054
:101E40009490FFE7379843F23331C4F23301929113
:101E500090ED540A1FED841A20EE010A80ED510A1C
:101E600041F64C30C2F2000011F072FB002800F085
:101E70009380FFE79DF85F02C007002874D0FFE75A
:101E8000919840F2FC11C2F2000108608868CA68AB
:101E90001C9209691E91FEF71EFC02461C981D92B9
:101EA0000A461D9942EC101B8DED200BFEF713FC2A
:101EB00002461E981F920A461F9942EC101B8DED98
:101EC000220BFEF708FC9DED200B9DED221B41EC43
:101ED000120B8AA810F0C8FC379890ED510AD0ED8B
:101EE000560A8A998B9A8C9BDDF834C2DDF838E269
:101EF0008F9C8794CDF818E2CDF814C28493839216
:101F0000829190ED421B90ED442B90ED463B41F6C3
:101F1000E830C2F200000CF037FB379880ED490A38
:101F200042F29001C2F200010968259190ED490A40
:101F30008DED240A41F64C30C2F2000011F012FB84
:101F40009DED240A0146259891ED031A20EE012A01
:101F500001215FEDBF1AB0EE610AF0EE610AB0EE4A
:101F6000611A0EF06FF816E0379841F26F21C3F650
:101F70008321819190ED510A40F23400C2F20000B9
:101F800090ED001A1FEDCF2A20EE020A30EE010A72
:101F900080ED000AFFE7FFE7FFE7FFE7FFE710F04C
:101FA000C5FF10F01DFF40F2D060C2F200000078C3
:101FB0000FF0C2FF8DF803029DF8A602C00730B1F2
:101FC000FFE740F21C40C2F200001B9005E040F227
:101FD0003400C2F200001B90FFE71B9965A86C2239
:101FE000FEF723F940F23400C2F200000168659167
:101FF00090F838008DF8CC019DF8A602C00738B1E2
:10200000FFE740F21C40C2F200006C301A9006E07C
:1020100040F23400C2F200006C301A90FFE71A99C7
:102020004AA86C22FEF701F940F23400C2F2000027
:10203000C16E4A9190F8A4008DF860019DF8A60247
:1020400000F0010041F6E831C2F2000181F8B0036E
:1020500040F2FC10C2F20000007D28B1FFE79DF8BD
:102060000302C00740B1FFE741F6E831C2F20001C8
:1020700065A80AF09DFAFFE741F6E830C2F20000D9
:10208000199000F59C714AA80AF092FA199940F249
:102090003400C2F20000D83001F51C710AF088FA51
:1020A00041F6D070C2F2000011F0E2F90146199831
:1020B000002918BF012180F8B11390F8B10348B38B
:1020C000FFE741F6D070C2F20000169011F0D8F987
:1020D00016989FEDD41A8DED171A20EE410A41F69D
:1020E000E831C2F20001189181EDEA0A11F0ACF971
:1020F00016989DED171A189920EE410A81EDEB0A0A
:1021000011F0ACF99DED171A189820EE010A80ED38
:10211000ED0AFFE742F29000C2F20000026842F2CC
:102120008C00C2F20000036841F6E830C2F2000001
:10213000139041F64C31C2F2000111910CF0C4FE33
:10214000119840F24821C2F2000110910AF0F6F80D
:10215000109911983430129034310AF0EFF8109938
:1021600011986830159068310AF0E8F8119A1398C0
:1021700040F23401C2F2000114910AF0D3F9129A2C
:102180001398149900F59C706C310AF0CBF91398F0
:102190001499159A00F51C70D8310AF0C3F99DF80E
:1021A000A602C007D8B1FFE741F6E830C2F200004E
:1021B0000D9040F21C41C2F200010E9141F64C32EA
:1021C000C2F200020F920AF0ADF90D980E990F9A23
:1021D00000F59C706C3134320AF0A4F9FFE740F24C
:1021E0003401C2F2000101F16C0241F6E830C2F2A2
:1021F00000000AF091F89DF8A602C00768B1FFE759
:1022000040F21C41C2F2000101F16C0241F6E830DB
:10221000C2F200000AF080F8FFE70FF0FDFA4990E3
:10222000499811F0C5FB51EC100BFEF767FA40F22C
:102230008851C2F200010A910860499811F0C0FB70
:1022400051EC100BFEF75AFA0A994860499811F0C0
:10225000BFFB51EC100BFEF751FA0A9988604998C0
:1022600011F0BEFB51EC100BFEF748FA0A99C8605A
:10227000499811F091FB0A990874499811F092FB62
:102280000A994874499811F065FB379880ED040B62
:1022900080ED061B90ED040B51EC100BFEF72EFAAF
:1022A0000A994861499811F055FB379880ED000B69
:1022B00080ED021B90ED020B51EC100BFEF71EFAA5
:1022C0000A998861499811F093FB0A998DF8FF00EB
:1022D0009DF8FF0000F001000877499811F088FB95
:1022E0000A998DF8FE009DF8FE00C0F34000487783
:1022F000499811F0F9FA0A99ADF8FC009DF8FC0034
:1023000000F0010088779DF8FC00C0F34000C8771A
:102310009DF8FC00C0F3800081F820009DF8FC00CF
:10232000C0F3C00081F821009DF8FC00C0F300104C
:1023300081F822009DF8FC00C0F3401081F82300D2
:102340009DF8FC00C0F3801081F824009DF8FC008B
:10235000C00981F825009DF8FD0000F0010081F81A
:1023600026009DF8FD00C0F3400081F827009DF88D
:10237000FD00C0F3800081F828009DF8FD00C0F347
:10238000C00081F829009DF8FD00C0F3001081F81D
:102390002A009DF8FD00C0F3401081F82B009DF845
:1023A000FD00C0F3801081F82C009DF8FD00C009ED
:1023B00081F82D00499811F027FB51EC100BFEF726
:1023C0009DF90A99086349980FF068FA0A9980F014
:1023D000010081F83400499811F0B4FA40F2C0517C
:1023E000C2F200010B910860499811F0C5FA0B99EF
:1023F0004860499811F0C8FA0B998860499811F023
:102400007FFA0B998881499811F082FA0B9908613B
:10241000499811F0C1FA0146002003290C900CD113
:1024200002E000BF35FA8E3C499811F0BBFA033840
:10243000B0FA80F040090C90FFE70C9800F0010022
:1024400040F2C051C2F20001087541F6D070C2F2EC
:102450000000089010F0B2FF089840F25061C2F2FC
:102460000001099181ED000A10F0F8FF0898099920
:1024700081ED010A10F0CAFF0898099981ED020A5E
:1024800010F0CEFF0898099981ED030A10F0D2FFF1
:102490000898099981ED040A10F0D6FF0898099967
:1024A00081ED050A10F094FF0898099981ED060A5C
:1024B00010F098FF0898099981ED070A10F09CFF29
:1024C0000898099981ED080A10F0E2FF0898099927
:1024D00081ED090A10F0E6FF0898099981ED0A0AD2
:1024E00010F0EAFF0898099981ED0B0A10F0EEFF51
:1024F0000898099981ED0C0A10F0C2FF0898099913
:1025000081ED0D0A10F052FF099A0146089882F8F1
:10251000381010F0ADFF099981F8390042F2A0009F
:10252000C2F200000068002858D0FFE742F2A00085
:10253000C2F20000069000680121059111F080F8B8
:102540000698059940F29062C2F20002079282ED6D
:10255000000A006811F0DAF806980599079A82EDEA
:10256000010A006811F0F4F806980599079A82EDBF
:10257000020A006811F0A8F806980599079A82EDFA
:10258000030A006811F00AF80599079B02460698AD
:102590003E923E9AD2881A823E9A92885A823E9AF7
:1025A00052889A823E9A12789A75006810F0E8FF75
:1025B0000599079B024606983D923D9A52881A83D8
:1025C0003D9A12799A763D9A527902F00102DA76B2
:1025D00000680EF0BBFE07990877FFE742F2A400FF
:1025E000C2F200000068002860D0FFE742F2A400B9
:1025F000C2F2000000683C903C980121029111F069
:10260000C9F8029940F21860C2F20000049080ED0F
:10261000000A3C9810F0ECFF0299049880ED010A42
:102620003C9811F01DF90299049880ED020A3C983B
:1026300011F038F90299049880ED030A3C9811F0E2
:10264000EDF80299049880ED040A3C980EF016FF0C
:10265000049908753C980221039111F09BF80399A5
:10266000049880ED060A3C9810F0C2FF0399049884
:1026700080ED070A3C9811F0F3F80399049880ED77
:10268000080A3C9811F00EF90399049880ED090AA4
:102690003C9811F0C3F80399049880ED0A0A3C981D
:1026A0000EF0ECFE049981F82C00FFE70AF0BAFA6C
:1026B0000AF064F98DF8EF0040F2EC30C2F200004D
:1026C00090F82800002818BF01208DF8EE009DF832
:1026D000EF00C00728B9FFE79DF8EE00C007B8B1CA
:1026E000FFE742F22E30C2F20000017801310170A2
:1026F000007805280BDBFFE742F22E31C2F2000121
:10270000002008700AF08EFA0AF0E0F9FFE7FFE710
:1027100042F22C30C2F200000178013101700078E1
:10272000022809DBFFE742F22C31C2F2000100204F
:10273000087009F073FDFFE741F62C30C2F200008B
:102740000078BFF35F8FC007B0B9FFE741F62C30C8
:10275000C2F2000013F0E9FE70B1FFE710F02AFAB0
:1027600042F22831C2F20001086041F62C30C2F278
:10277000000013F0F0FEFFE742F22830C2F2000042
:102780000190006810F046F90198006810F038FADE
:102790000DF5347D10BD000084B0029001910298C7
:1027A00090F820008DF803009DF80300012805D063
:1027B000FFE79DF8030002280AD1FFE7019A02987B
:1027C000016848691043486100208DF80F0008E057
:1027D0000299486A40F48020486201208DF80F0079
:1027E000FFE79DF80F0004B07047000088B0069026
:1027F000059104920393069890F820008DF8070045
:1028000006980068806800900598806808B9FFE71E
:1028100000E0FFE79DF80700012806D0FFE79DF8DC
:102820000700022840F08080FFE79DF80300400782
:1028300000280CD4FFE79DF803000007002806D409
:10284000FFE79DF80300C006002864D5FFE7009865
:10285000C0F301600290029901208840039908604A
:102860000598806868B9FFE705980168C06840EA84
:10287000415006990968029A01EB0211C1F88001E2
:102880000EE005994A688868C96840EAC2000843B2
:1028900006990968029A01EB0211C1F88001FFE76D
:1028A0000598006906990968029A01EB0211C1F8BE
:1028B00084010598007D01280CD1FFE70698006887
:1028C000029900EB0111D1F8840140F48070C1F845
:1028D0008401FFE70498406806990968029A01EBB1
:1028E0000211C1F88C010498006806990968029ADF
:1028F00001EB0211C1F8880106980068029900EB0B
:102900000111D1F8800140F00100C1F880010020E0
:102910008DF81F0011E00699486A40F400104862E3
:1029200001208DF81F0008E00699486A40F48020D5
:10293000486201208DF81F00FFE79DF81F0008B0D6
:102940007047000086B004900391049890F820002E
:102950008DF803009DF80300012806D0FFE79DF8DD
:102960000300022840F0B080FFE746F20040C4F2C6
:10297000000001900199D1F8000240F00100C1F877
:1029800000020199D1F8000220F47C50C1F8000245
:102990000398426A0199D1F8000240EA0220C1F886
:1029A00000020398406900F01F0101208840029056
:1029B000029A0199D1F81C029043C1F81C020398B5
:1029C000C069F0B9FFE7029A0199D1F80C0290436F
:1029D000C1F80C02039A9088D168526940EA01401C
:1029E000019901EBC201C1F84002039A1088916875
:1029F000526940EA0140019901EBC201C1F8440269
:102A0000FFE70398C06901281ED1FFE7029A0199E8
:102A1000D1F80C021043C1F80C02039A9088116897
:102A2000526940EA0140019901EBC201C1F840023C
:102A3000039A90899168526940EA0140019901EB3B
:102A4000C201C1F84402FFE70398806940B9FFE77B
:102A5000029A0199D1F804029043C1F8040207E0F8
:102A6000029A0199D1F804021043C1F80402FFE769
:102A70000398006940B9FFE7029A0199D1F814025E
:102A80009043C1F8140207E0029A0199D1F81402A8
:102A90001043C1F81402FFE70398006A012808D127
:102AA000FFE7029A0199D1F81C021043C1F81C02F9
:102AB000FFE70199D1F8000220F00100C1F80002FF
:102AC00000208DF8170008E00499486A40F480203F
:102AD000486201208DF81700FFE79DF8170006B047
:102AE0007047000080B582B001900198006846F2FE
:102AF0000041C4F20001884201D0FFE730E00198B4
:102B000000F030F8009042F2FC61C2F20001086867
:102B100001300860009842F20071C2F200010860C2
:102B20009DF801008007002808D5FFE742F20C71EC
:102B3000C2F20001086801300860FFE79DF800005C
:102B40004007002808D5FFE742F2F861C2F2000111
:102B5000086801300860FFE7019900204862FFE73C
:102B600002B080BD81B000900098406A01B070470B
:102B700084B00390029100200190039890F8200007
:102B80008DF803009DF80300012805D0FFE79DF8AC
:102B90000300022812D1FFE7029838B9FFE7039833
:102BA0000068C06800F00300019006E00398006828
:102BB000006900F003000190FFE7FFE7019804B00F
:102BC0007047000086B0049003910292019304982C
:102BD00090F820008DF803009DF80300012806D02E
:102BE000FFE79DF80300022840F0E880FFE7039824
:102BF00080B9FFE704980068C068800748B9FFE71C
:102C00000499486A40F40010486201208DF81700CA
:102C1000DDE00FE0049800680069800748B9FFE72D
:102C20000499486A40F40010486201208DF81700AA
:102C3000CDE0FFE704980068039900EB0110D0F89D
:102C4000B00100F00400029988600298806858B9C9
:102C5000FFE704980068039900EB0110D0F8B00179
:102C6000400D029908600AE004980068039900EB9F
:102C70000110D0F8B001C00802994860FFE704983D
:102C80000068039900EB0110D0F8B00100F00200D9
:102C90000299C86004980068039900EB0110D0F80D
:102CA000B40100F00F00082804D3FFE702990820C0
:102CB00008610BE004980068039900EB0110D0F85C
:102CC000B40100F00F0002990861FFE70498006862
:102CD000039900EB0110D0F8B40180B2000A029908
:102CE000886104980068039900EB0110D0F8B401E2
:102CF000000C0299486104980068039900EB0110E8
:102D0000D0F8B8010199087004980068039900EBA5
:102D10000110D0F8B801000A0199487004980068C1
:102D2000039900EB0110D0F8B801000C01998870EC
:102D300004980068039900EB0110D0F8B801000E68
:102D40000199C87004980068039900EB0110D0F84D
:102D5000BC010199087104980068039900EB011007
:102D6000D0F8BC01000A01994871049800680399E1
:102D700000EB0110D0F8BC01000C01998871049897
:102D80000068039900EB0110D0F8BC01000E019916
:102D9000C871039838B9FFE704980168C86840F023
:102DA0002000C86006E004980168086940F020002F
:102DB0000861FFE700208DF8170008E00499486AD1
:102DC00040F48020486201208DF81700FFE79DF84D
:102DD000170006B07047000083B0029000200190F9
:102DE000029890F820008DF803009DF80300012858
:102DF00005D0FFE79DF80300022822D1FFE70298E3
:102E0000006880684001002804D5FFE70198013080
:102E10000190FFE70298006880680001002804D54F
:102E2000FFE7019801300190FFE702980068806891
:102E3000C000002804D5FFE7019801300190FFE7AA
:102E4000FFE7019803B0704780B58AB00990002071
:102E500008900998006840690790099800684068E0
:102E60000690099800688068059009980068C06815
:102E700004900998006800690390099800688069C7
:102E800002909DF81C00C007002800F09480FFE726
:102E90009DF81400C00758B3FFE7099801680120A6
:102EA00088609DF814008007002804D5FFE7099882
:102EB00000F06AFD1BE09DF814004007002805D5CE
:102EC000FFE7089840F4006008900FE09DF81400B8
:102ED0000007002805D5FFE7089840F480500890C7
:102EE00003E0099800F04CFDFFE7FFE7FFE7FFE78D
:102EF0009DF81500C00760B3FFE7099801684FF41B
:102F0000807088609DF815008007002804D5FFE7D1
:102F1000099800F041FD1BE09DF8150040070028CE
:102F200005D5FFE7089840F4005008900FE09DF8A1
:102F300015000007002805D5FFE7089840F48040F9
:102F4000089003E0099800F023FDFFE7FFE7FFE7A3
:102F5000FFE79DF81600C00760B3FFE70998016816
:102F60004FF4803088609DF816008007002804D553
:102F7000FFE7099800F018FD1BE09DF816004007D8
:102F8000002805D5FFE7089840F4004008900FE0BE
:102F90009DF816000007002805D5FFE7089840F4C3
:102FA0008030089003E0099800F0FAFCFFE7FFE7A3
:102FB000FFE7FFE7FFE79DF81C000007002810D59A
:102FC000FFE79DF81000C006002809D5FFE7089824
:102FD00040F400700890099801681020C860FFE76D
:102FE000FFE79DF81C00400700280FD5FFE79DF87C
:102FF00010000007002808D5FFE70998016808209D
:10300000C860099800F0E0FAFFE7FFE79DF81C00B0
:10301000800700280BD5FFE709980068C068800783
:1030200020B1FFE7099800F0E5FAFFE7FFE79DF818
:103030001C004006002810D5FFE79DF80C00C006D4
:10304000002809D5FFE7089840F4806008900998A7
:10305000016810200861FFE7FFE79DF81C0080066B
:1030600000280FD5FFE79DF80C000007002808D5C1
:10307000FFE70998016808200861099800F088FBBB
:10308000FFE7FFE79DF81C00C00600280BD5FFE70F
:10309000099800680069800720B1FFE7099800F0EF
:1030A0007BFBFFE7FFE79DF81E00800700280FD598
:1030B000FFE79DF81800C006002808D5FFE709982B
:1030C000016810204860099800F010FCFFE7FFE756
:1030D0009DF81E00C00778B1FFE79DF818000007B3
:1030E000002808D5FFE7099801680820486009987A
:1030F00000F05EFCFFE7FFE79DF81D0000060028DA
:1031000040F18D80FFE79DF818004007002840F14E
:103110008180FFE79DF81D00C00750B1FFE79DF8D3
:103120000800C00728B1FFE7089840F001000890A8
:10313000FFE79DF81D00800700280BD5FFE79DF8ED
:1031400008008007002805D5FFE7089840F0020036
:103150000890FFE79DF81D00400700280BD5FFE70A
:103160009DF808004007002805D5FFE7089840F0C3
:1031700004000890FFE79DF81D000007002848D5CF
:10318000FFE79DF8080010F0700F42D0FFE70298AB
:1031900000F0700001460191102814D0FFE701985B
:1031A000202815D0FFE70198302816D0FFE70198B6
:1031B000402817D0FFE70198502818D0FFE7019862
:1031C000602819D01DE0089840F00800089019E028
:1031D000089840F01000089014E0089840F0200093
:1031E00008900FE0089840F0400008900AE0089826
:1031F00040F08000089005E0089840F48070089046
:1032000000E0FFE709980168886920F07000886194
:10321000FFE7FFE70998016804204860FFE7089886
:1032200048B1FFE7089A0999486A1043486209982B
:10323000FFF758FCFFE70AB080BD000080B584B0FE
:103240000290029820B9FFE701208DF80F00E0E01E
:10325000029890F8200020B9FFE7029800F0DEF80D
:10326000FFE702980168086840F00100086001F07B
:10327000E9F80190FFE7029800684068C007A8B924
:10328000FFE701F0DFF80199401A0B280DD3FFE7A3
:103290000299486A40F4003048620299052081F89A
:1032A000200001208DF80F00B3E0E4E702980168E8
:1032B000086820F00200086001F0C4F80190FFE700
:1032C0000298006840688007002815D5FFE701F0E4
:1032D000B9F80199401A0B280DD3FFE70299486A03
:1032E00040F4003048620299052081F82000012056
:1032F0008DF80F008DE0E3E70298007E012807D1EA
:10330000FFE702980168086840F08000086006E066
:1033100002980168086820F080000860FFE70298C2
:10332000407E012807D1FFE702980168086840F055
:103330004000086006E002980168086820F040003C
:103340000860FFE70298807E012807D1FFE7029816
:103350000168086840F02000086006E002980168F3
:10336000086820F020000860FFE70298C07E01286E
:1033700007D1FFE702980168086820F01000086094
:1033800006E002980168086840F010000860FFE756
:103390000298007F012807D1FFE7029801680868BA
:1033A00040F00800086006E002980168086820F014
:1033B00008000860FFE70298407F012807D1FFE777
:1033C00002980168086840F00400086006E002986E
:1033D0000168086820F004000860FFE7029B196894
:1033E0005A689868D3F80CC040EA0C00D3F810C0B3
:1033F00040EA0C005B691843013A1043C861029926
:1034000000204862029A012182F820108DF80F00F6
:10341000FFE79DF80F0004B080BD000080B594B0B8
:10342000139000201290119010900F900E9013980E
:10343000006846F20041C4F20001884253D1FFE720
:1034400040F24C60C2F20000016801310160006886
:10345000012812D1FFE7FFE700200D9043F640005E
:10346000C4F20200016841F000710160006800F0E0
:1034700000700D900D98FFE7FFE7FFE700200C902C
:1034800043F63000C4F20200016841F00801016017
:10349000006800F008000C900C98FFE703200E90E5
:1034A00002210F9100210791109111900920129093
:1034B00040F60040C4F202000EA900F0E7FD079AB2
:1034C000142005900521069101F09AF8059801F065
:1034D0008DF80699079A1520089001F091F8089840
:1034E00001F084F86EE01398006846F60001C4F21B
:1034F0000001884265D1FFE7FFE700200B9043F60B
:103500004000C4F20200016841F08061016000687F
:1035100000F080600B900B98FFE740F24C60C2F225
:1035200000000168013101600068012812D1FFE745
:10353000FFE700200A9043F64000C4F20200016851
:1035400041F000710160006800F000700A900A9874
:10355000FFE7FFE7FFE70020099043F63000C4F2E1
:103560000200016841F002010160006800F0020001
:1035700009900998FFE760200E9002200F9000202C
:1035800003901090032011900920129040F2004007
:10359000C4F202000EA900F079FD039A40200190C8
:1035A0000521029101F02CF8019801F01FF8029911
:1035B000039A4120049001F023F8049801F016F8D2
:1035C000FFE7FFE714B080BD81B00090009800686D
:1035D00046F20041C4F20001884208D1FFE742F2FE
:1035E0000871C2F20001086801300860FFE701B00D
:1035F0007047000080B588B007900798006846F2D1
:103600000041C4F20001884240F0B480FFE700208E
:10361000069005900490039002900190FFE70798B0
:10362000002101AA08F02CFE002800F0A280FFE78C
:1036300042F23871C2F20001086801300860039854
:1036400042F23471C2F2000108609DF81800C00710
:10365000E8B9FFE79DF81900C007C0B9FFE79DF87A
:103660001000082813D1FFE703980F280FD8FFE7B1
:103670009DF804100320B0EB111F08D1FFE742F2C0
:103680000471C2F20001086801300860FFE7039886
:10369000009010B3FFE70098012826D0FFE70098BC
:1036A00002282AD0FFE7009803282ED0FFE70098D1
:1036B000042832D0FFE7009840F24111884234D00C
:1036C000FFE7009840F20121884236D0FFE70098DA
:1036D00040F20221884238D03FE042F21071C2F23B
:1036E00000010868013008603FE042F21471C2F244
:1036F000000108680130086037E042F21871C2F238
:1037000000010868013008602FE042F21C71C2F22B
:10371000000108680130086027E042F22071C2F21F
:1037200000010868013008601FE042F22471C2F213
:10373000000108680130086017E042F22871C2F207
:1037400000010868013008600FE042F22C71C2F2FB
:10375000000108680130086007E042F23071C2F2EF
:103760000001086801300860FFE701A808F06AFE60
:1037700055E70AE00798006846F60001C4F2000128
:10378000884201D1FFE7FFE7FFE708B080BD0000F6
:1037900081B0009001B0704780B588B0079007985D
:1037A000006846F60001C4F20001884240F09C80A7
:1037B000FFE741F63430C2F200000078BFF35F8FBC
:1037C000C007C0B9FFE741F63430C2F2000012F082
:1037D000ACFE80B1FFE70EF0DDFB0EF009FD42F21A
:1037E0003831C2F20001086041F63430C2F2000004
:1037F00012F0B1FEFFE741F63030C2F2000000786F
:10380000BFF35F8FC007B0B9FFE741F63030C2F2B7
:10381000000012F08AFE70B1FFE70FF0CBF942F220
:103820003431C2F20001086041F63030C2F20000CB
:1038300012F091FEFFE7FFE742F23830C2F20000DB
:10384000006801684A6901A9904700284BD0FFE74A
:1038500042F24871C2F20001086801300860039822
:1038600040F20121884206D0FFE7039840F202218E
:10387000884217D1FFE7039840F20121884208D11E
:10388000FFE742F23C71C2F20001086801300860B3
:1038900007E042F24071C2F200010868013008609E
:1038A000FFE71FE0039840F20721884205D0FFE7B9
:1038B0000398B0F5027F0CD1FFE742F23430C2F238
:1038C0000000006803999DF8103001AA0EF0E4FF93
:1038D00007E042F24471C2F200010868013008605A
:1038E000FFE7FFE7A8E7FFE708B080BD81B00090E1
:1038F00001B0704780B584B00290029890F8200023
:1039000001282FD1FFE70299022081F820000298B8
:103910000168086820F00100086000F093FD019044
:10392000FFE7029800684068C007A8B1FFE700F011
:1039300089FD0199401A0B280DD3FFE70299486AC7
:1039400040F4003048620299052081F820000120EF
:103950008DF80F000FE0E4E70299002048628DF82F
:103960000F0008E00299486A40F4002048620120F4
:103970008DF80F00FFE79DF80F0004B080BD000038
:1039800081B0009001B0704781B0009001B07047E5
:1039900081B0009001B0704781B0009001B07047D5
:1039A00081B0009001B0704781B0009001B07047C5
:1039B00081B0009001B0704780B584B00290029849
:1039C000806D019000F03EFD0090029890F8350067
:1039D00002280DD0FFE7029980204865FFE7029991
:1039E000002081F83400FFE701208DF80F0055E03A
:1039F00002980168086820F01600086002980168C3
:103A0000486920F0800048610298006C20B9FFE707
:103A10000298806C38B1FFE702980168086820F0CE
:103A200008000860FFE702980168086820F00100BC
:103A30000860FFE7029800680068C007C8B1FFE7A8
:103A400000F000FD0099401A062811D3FFE7029903
:103A5000202048650299032081F83500FFE702998C
:103A6000002081F83400FFE703208DF80F0015E0F7
:103A7000E0E70298C16D3F20884001998860029973
:103A8000012081F83500FFE70299002081F8340019
:103A9000FFE7FFE700208DF80F00FFE79DF80F001C
:103AA00004B080BD82B00090009890F835000228E4
:103AB00007D0FFE700998020486501208DF80700B6
:103AC0000EE00099052081F835000098016808682B
:103AD00020F001000860FFE700208DF80700FFE7F5
:103AE0009DF8070002B0704781B000900098406DCB
:103AF00001B0704780B586B005900020039040F279
:103B00000030C2F20000006848F2B511C1F64E3133
:103B1000A0FB0110800A02900598806D0190019829
:103B20000068049004980599C96DC84000070028F2
:103B30001AD5FFE70598006800684007002812D5ED
:103B4000FFE705980168086820F004000860059800
:103B5000C16D08208840019988600599486D40F042
:103B600001004865FFE7FFE704980599C96DC84063
:103B7000C007A0B1FFE7059800684069000600286B
:103B80000CD5FFE70598C16D012088400199886038
:103B90000599486D40F002004865FFE7FFE704988B
:103BA0000599C96DC8404007002814D5FFE705985E
:103BB00000680068800700280CD5FFE70598C16DF4
:103BC00004208840019988600599486D40F0040000
:103BD0004865FFE7FFE704980599C96DC840C0062E
:103BE000002847D5FFE7059800680068000700280F
:103BF0003FD5FFE70598C16D102088400199886086
:103C0000059800680068400300281AD5FFE705986A
:103C1000006800680003002809D4FFE70598006CDD
:103C200020B1FFE70598016C8847FFE708E0059899
:103C3000806C20B1FFE70598816C8847FFE7FFE7BC
:103C400016E0059800680068C005002807D4FFE763
:103C500005980168086820F008000860FFE70598EB
:103C6000006C20B1FFE70598016C8847FFE7FFE78C
:103C7000FFE7FFE704980599C96DC8408006002852
:103C800040F18D80FFE7059800680068C0060028B5
:103C900040F18480FFE70598C16D2020884001999C
:103CA0008860059890F83500052834D1FFE705981D
:103CB0000168086820F016000860059801684869E6
:103CC00020F0800048610598006C20B9FFE7059856
:103CD000806C38B1FFE705980168086820F008009B
:103CE0000860FFE70598C16D3F2088400199886012
:103CF0000599012081F83500FFE70599002081F83A
:103D00003400FFE70598006D20B1FFE70598016DCD
:103D10008847FFE77BE005980068006840030028BB
:103D20001AD5FFE70598006800680003002809D449
:103D3000FFE70598406C20B1FFE70598416C884784
:103D4000FFE708E00598C06B20B1FFE70598C16B5D
:103D50008847FFE7FFE720E0059800680068C00596
:103D6000002811D4FFE705980168086820F01000CA
:103D700008600599012081F83500FFE705990020CA
:103D800081F83400FFE7FFE70598C06B20B1FFE73B
:103D90000598C16B8847FFE7FFE7FFE7FFE7059856
:103DA000406DA0B3FFE70598406DC00730B3FFE753
:103DB0000599052081F8350005980168086820F00C
:103DC00001000860FFE703980130039002998842E0
:103DD00001D9FFE707E0FFE7059800680068C00722
:103DE0000028F0D1FFE70599012081F83500FFE7B1
:103DF0000599002081F83400FFE7FFE70598C06CC3
:103E000020B1FFE70598C16C8847FFE7FFE706B0E0
:103E100080BD000080B586B004900020039000F0C3
:103E200011FB0290049820B9FFE701208DF81700DC
:103E3000A3E00498406A08B1FFE7FFE70499022075
:103E400081F83500FFE70499002081F83400FFE78E
:103E500004980168086820F001000860FFE70498F2
:103E600000680068C00790B1FFE700F0EBFA029924
:103E7000401A06280AD3FFE70499202048650499D0
:103E8000032081F835008DF8170076E0E7E7049805
:103E9000006800680390039848F23F01CFF21001D8
:103EA00008400390049900914868D1F808C0CB6895
:103EB0000A6940EA0C00184310434A6910438A69B2
:103EC0001043CA691043096A0143039808430390E9
:103ED0000498406A042808D1FFE70499C86A096B6E
:103EE0000143039808430390FFE703980499096886
:103EF00008600498006840690390039820F0070068
:103F000003900498416A0398084303900498406A18
:103F100004281AD1FFE70498816A039808430390A4
:103F20000498C06A80B1FFE70498FCF7DFFE50B147
:103F3000FFE70499402048650499012081F8350085
:103F40008DF8170019E0FFE7FFE703980499096867
:103F500048610498FCF79EFE01900498C16D3F20D3
:103F6000884001998860049900204865049A0121DD
:103F700082F835108DF81700FFE79DF8170006B09E
:103F800080BD000080B588B006900591049203932F
:103F900000208DF80B000698806D0190FFE70698D1
:103FA00090F83400012804D1FFE702208DF81F00AB
:103FB00045E00699012081F83400FFE7FFE7069805
:103FC00090F8350001282BD1FFE70699022081F8EF
:103FD000350006990020486506980599049A039BC8
:103FE000FCF7FCFE0698C16D3F208840019988606F
:103FF00006980168086840F0160008600698006C92
:1040000038B1FFE706980168086840F008000860CA
:10401000FFE706980168086840F00100086009E0C1
:10402000FFE70699002081F83400FFE702208DF8B1
:104030000B00FFE79DF80B008DF81F00FFE79DF8D0
:104040001F0008B080BD000080B584B0039000F070
:10405000F9F90290039801900198013048B1FFE707
:1040600040F26050C2F200000178019808440190CB
:10407000FFE7FFE700F0E6F90299401A019988424C
:1040800001D2FFE7F6E704B080BD00008EB00D90CE
:104090000C9100200A90099008900B90FFE70B9874
:1040A0000F2800F2CC81FFE70B99012088400A908D
:1040B0000C9800680A990840099009980A99884262
:1040C00040F0B881FFE70C98406800F00300012839
:1040D00007D0FFE70C98406800F0030002282FD1BA
:1040E000FFE70D98806808900B984100032000FAC4
:1040F00001F10898884308900C98C0680B99490012
:1041000000FA01F108980843089008980D99886012
:104110000D98406808900B99012000FA01F1089869
:10412000884308900C984068C0F300100B9900FA7F
:1041300001F108980843089008980D994860FFE736
:104140000C98406800F00300032818D0FFE70D9892
:10415000C06808900B984100032000FA01F108980C
:10416000884308900C9880680B99490000FA01F187
:1041700008980843089008980D99C860FFE70C98C4
:10418000406800F00300022826D1FFE70D980B9944
:104190006FF0030202EA51010844006A08900B988C
:1041A00000F0070081000F2000FA01F10898884311
:1041B00008900C9800690B9901F00701890000FA3A
:1041C00001F108980843089008980D990B9B02EAA2
:1041D000530211440862FFE70D98006808900B989D
:1041E0004100032000FA01F10898884308900C98D8
:1041F000406800F003000B99490000FA01F10898AB
:104200000843089008980D9908600C9880798007F9
:10421000002800F00E81FFE7FFE70020079043F63B
:104220004400C4F20200016841F48041016000686A
:1042300000F4804007900798FFE70B9820F00300F8
:1042400043F60801C4F20101405808900B9800F0B1
:10425000030081000F2000FA01F1089888430890BC
:104260000D980021C4F20201884203D1FFE700202B
:1042700006905EE00D9840F20041C4F202018842CF
:1042800003D1FFE70120059050E00D9840F60001B2
:10429000C4F20201884203D1FFE70220049042E009
:1042A0000D9840F60041C4F20201884203D1FFE7B5
:1042B0000320039034E00D9841F20001C4F20201A2
:1042C000884203D1FFE70420029026E00D9841F2D6
:1042D0000041C4F20201884203D1FFE705200190AA
:1042E00018E00D9841F60001C4F20201884203D1A2
:1042F000FFE7062000900AE00D9941F60042C4F263
:1043000002020820914208BF07200090FFE70098B2
:104310000190FFE701980290FFE702980390FFE702
:1043200003980490FFE704980590FFE7059806902E
:10433000FFE70698C0B20B9901F00301890000FA6B
:1043400001F108980843089008980B9921F003019F
:1043500043F60802C4F20102885043F60840C4F252
:1043600001000068089009990898884308900C9803
:104370008079C006002805D5FFE709990898084309
:104380000890FFE7089843F60841C4F2010108606D
:1043900043F60C40C4F2010000680890099908989F
:1043A000884308900C9880798006002805D5FFE79F
:1043B0000999089808430890FFE7089843F60C41CC
:1043C000C4F20101086043F60440C4F20100006831
:1043D000089009990898884308900C98807980077C
:1043E000002805D5FFE70999089808430890FFE7DA
:1043F000089843F60441C4F20101086043F6004006
:10440000C4F2010000680890099908988843089050
:104410000C988079C00728B1FFE7099908980843EC
:104420000890FFE7089843F60041C4F201010860D4
:10443000FFE7FFE7FFE70B9801300B902FE60EB088
:104440007047000047F27430C2F200000068704705
:1044500040F26050C2F20000027847F27431C2F2BA
:1044600000010868104408607047000080B543F6FA
:104470000041C4F20201086840F400700860086856
:1044800040F480600860086840F480700860032091
:1044900000F0D0F80F2000F005F800F07BF80020C5
:1044A00080BD000080B58CB00B900020049003907C
:1044B000FFE70020009043F64000C4F202000168CC
:1044C00041F010010160006800F0100000900098B9
:1044D000FFE706A802A901F05BFB09980490049885
:1044E00020B9FFE701F084FB059004E001F080FBB8
:1044F00040000590FFE705984DF68361C4F21B313B
:10450000A0FB01014FF0FF3000EB9140039043F21C
:10451000E000C2F2000041F20001C4F200010160BB
:1045200040F2E731C160039941600021016181607F
:10453000816101F05DFF8DF807009DF8070028BB41
:10454000FFE743F2E000C2F2000001F0A3FF8DF8A4
:1045500007009DF80700C0B9FFE7362000F046F8D5
:104560000B980F280CD8FFE70B993620002200F09B
:1045700047F80B9840F26451C2F20001086003E072
:1045800001208DF80700FFE7FFE7FFE79DF8070030
:104590000CB080BD80B582B0FFE70020019043F6EB
:1045A0004400C4F20200016841F4804101600068E7
:1045B00000F4804001900198FFE7FFE700200090A1
:1045C00043F64000C4F20200016841F080510160EE
:1045D000006800F0805000900098FFE76FF0010045
:1045E0000F21002200F00CF802B080BD80B582B02F
:1045F0008DF807009DF9070010F0DEFC02B080BDC9
:1046000080B586B08DF817000491039200200290C7
:1046100010F0EAFC02909DF91700019002980499AD
:10462000039A03F08DF90146019810F0E5FC06B0FD
:1046300080BD000080B582B00190019810F020FD8F
:1046400002B080BD82B001908DF8031002B07047B7
:1046500082B00190ADF80210BDF80200019909681E
:104660004862002002B0704784B003908DF80B10B0
:10467000ADF8082003980068406A00909DF80B0090
:1046800048B9FFE7BDF80810009840EA01400399D7
:104690000968886233E003980068816A009800EB3B
:1046A0001140009000208DF80700FFE79DF80700FB
:1046B0009DF80B100139884213D2FFE70398006878
:1046C0009DF8071000EB8100D0F80411009800EB72
:1046D00011400090FFE79DF8070001308DF80700BA
:1046E000E4E7BDF80810009840EA01400399096822
:1046F0009DF80B2001EB8201C1F80001FFE70020CB
:1047000004B0704780B582B001900198D0F8E00401
:1047100005F01EFC02B080BD80B582B001908DF81E
:104720000310019AD2F8E0049DF8031001EBC103D5
:1047300002EB8302126A05F069FA02B080BD000044
:1047400080B582B001908DF80310019AD2F8E00490
:104750009DF8031001EBC10302EB8302D2F8602243
:1047600005F01CFB02B080BD80B582B001900198BD
:10477000D0F8E00405F0F2FB02B080BD80B584B053
:1047800003908DF80B109DF80B00000600280CD547
:10479000FFE703989DF80B1001F00F0101EBC10139
:1047A00000EB8100143001900CE003989DF80B1091
:1047B00001F00F0101EBC10100EB810000F5157064
:1047C0000190FFE703980068019907F04BF98DF815
:1047D0000A009DF80A0004B080BD000080B584B0D6
:1047E00002908DF807109DF80700000600280FD5ED
:1047F000FFE702989DF8071001F00F0101EBC101DE
:1048000000EB8100143000900099012048700FE007
:1048100002989DF8071001F00F0101EBC10100EBB8
:10482000810000F515700090009900204870FFE7A6
:104830009DF8070000F00F0000990870FFE702984C
:1048400090F89404012804D1FFE702208DF80F00AE
:1048500014E00299012081F89404FFE7FFE7029831
:104860000068009906F0EEFBFFE70299002081F84E
:104870009404FFE700208DF80F00FFE79DF80F007C
:1048800004B080BD80B584B002908DF807109DF80B
:10489000070000F00F0002990979884204D9FFE768
:1048A00001208DF80F004DE09DF80700000600285C
:1048B0000FD5FFE702989DF8071001F00F0101EBFB
:1048C000C10100EB81001430009000990120487074
:1048D0000FE002989DF8071001F00F0101EBC101F4
:1048E00000EB810000F515700090009900204870E1
:1048F000FFE70099002088709DF8070000F00F0086
:1049000000990870FFE7029890F89404012804D1F8
:10491000FFE702208DF80F0014E00299012081F8D2
:104920009404FFE7FFE702980068009906F0FAFD9B
:10493000FFE70299002081F89404FFE700208DF83A
:104940000F00FFE79DF80F0004B080BD82B001901A
:104950008DF8031001989DF8031001F00F0101EB91
:10496000C10100EB8100D0F8680202B0704700007E
:1049700080B586B004908DF80F10ADF80C208DF83E
:104980000B3000208DF80A009DF80F00000600286B
:104990000FD5FFE704989DF80F1001F00F0101EB10
:1049A000C10100EB81001430019001990120487091
:1049B0000FE004989DF80F1001F00F0101EBC10109
:1049C00000EB810000F515700190019900204870FE
:1049D000FFE79DF80F0000F00F0001990870BDF887
:1049E0000C006FF3DF20019988609DF80B0001999E
:1049F00008710198407820B1FFE701990878488351
:104A0000FFE79DF80B00022804D1FFE70199002081
:104A10004871FFE7FFE7049890F89404012804D157
:104A2000FFE702208DF8170015E00499012081F8B6
:104A30009404FFE7FFE704980068019906F0CCF9B9
:104A4000FFE70499002081F89404FFE79DF80A002D
:104A50008DF81700FFE79DF8170006B080BD000035
:104A600080B586B005908DF81310039202930598D7
:104A70009DF8131001F00F0101EBC10100EB810063
:104A800000F51570019003980199C860029801998A
:104A90000861019900204861019948709DF8130050
:104AA00000F00F000199087005988079012804D161
:104AB000FFE703980199C861FFE7059A106801991B
:104AC000927906F0D3FD002006B080BD80B584B099
:104AD00002908DF807109DF8070000F00F00029972
:104AE0000979884204D9FFE701208DF80F0058E0CA
:104AF0009DF80700000600280FD5FFE702989DF8F3
:104B0000071001F00F0101EBC10100EB810014302F
:104B100000900099012048700DE002989DF8071060
:104B200001EBC10100EB810000F5157000900099C8
:104B300000204870FFE70099012088709DF8070069
:104B400000F00F0000990870FFE7029890F89404B5
:104B5000012804D1FFE702208DF80F0021E002991F
:104B6000012081F89404FFE7FFE7029800680099AC
:104B700006F028FD9DF80700000740B9FFE7029AFC
:104B80001068917902F29C4206F07CFCFFE7FFE797
:104B90000299002081F89404FFE700208DF80F00AF
:104BA000FFE79DF80F0004B080BD000080B586B01F
:104BB00005908DF813100392029305989DF8131039
:104BC00001F00F0101EBC10100EB810014300190F5
:104BD00003980199C8600298019908610199002021
:104BE00048610199012048709DF8130000F00F0002
:104BF0000199087005988079012804D1FFE703988E
:104C00000199C861FFE7059A10680199927906F049
:104C10002DFD002006B080BD80B58CB00B900B98A8
:104C200000680A900A9809900B98006807F050F8FD
:104C3000002840F00C84FFE70B98006807F0B4F8F8
:104C400010B9FFE700F003BC0998D0F80808C0F3DA
:104C50000D200B99C1F8D4040B98006807F0A4F854
:104C60008007002807D5FFE70B980168486900F026
:104C700002004861FFE70B98006807F095F8C0064E
:104C8000002862D5FFE70B980168886920F01000C2
:104C900088610A98006A02900B98029901F00F014E
:104CA00001EBC10100EB810000F51570089002983E
:104CB00000F4F0110220B0EB514F23D1FFE7BDF813
:104CC000080047F6F07108421BD0FFE70A980899E0
:104CD000C968029AC2F30A1207F074F8029847F6FC
:104CE000F07100EA0103089AD06800EB1310D0605D
:104CF000029800EA01020899486900EB1210486125
:104D0000FFE71BE0029800F4F0110620B0EB514FD2
:104D100012D1FFE70A980B9901F29C41082207F093
:104D200051F8029847F6F07100EA010208994869C3
:104D300000EB1210486100E0FFE7FFE70B98016805
:104D4000886940F010008861FFE70B98006807F061
:104D50002BF80003002840F1A680FFE70020049014
:104D60000B98006806F0CEFF0690FFE70698002833
:104D700000F09880FFE79DF81800C007002800F0B9
:104D80008A80FFE70B9800689DF8101006F0F4FF8A
:104D900005909DF81400C00760B1FFE709980499D9
:104DA00000EB41110120C1F8080B0B98049902F0A7
:104DB0004BFEFFE79DF81400000700280CD5FFE725
:104DC0000998049900EB41110820C1F8080B0B98D1
:104DD000049902F0F3FDFFE79DF81400C0060028D7
:104DE00008D5FFE70998049900EB41111020C1F89C
:104DF000080BFFE79DF81400800700282DD5FFE77A
:104E00000A9840690006002808D5FFE70999D1F8FB
:104E1000040840F48060C1F80408FFE70B98049987
:104E200001EBC10100EB810000F5157008900898B6
:104E3000C078012809D1FFE708990020C8700B98B5
:104E40009DF8101000F014FBFFE70998049900EB9F
:104E500041110220C1F8080BFFE79DF814008006FD
:104E6000002808D5FFE70998049900EB411120209C
:104E7000C1F8080BFFE79DF815008006002809D54A
:104E8000FFE70998049900EB41114FF40050C1F875
:104E9000080BFFE7FFE704980130049006984008EC
:104EA000069063E7FFE70B98006806F07DFF40037C
:104EB000002840F1C680FFE70B98006806F010FF5D
:104EC000069000200490FFE70698002800F0B880C4
:104ED000FFE79DF81800C007002800F0AA80FFE750
:104EE0000B9800689DF8101006F01EFF05909DF8C5
:104EF0001400C00700283ED0FFE7049800F00F011F
:104F0000012000FA01F10391039B099AD2F83418A9
:104F10009943C2F834180999049A01EB4211C1F877
:104F200008090B98807901281FD1FFE70B98049995
:104F300001EBC10100EB8101CA69086A10440862F3
:104F4000049888B9FFE70B98049901EBC10100EBC5
:104F50008100406A40B9FFE70B99086801F29C4262
:104F6000012106F08FFAFFE7FFE70B989DF810107C
:104F7000FFF7D2FBFFE79DF814000007002808D5D3
:104F8000FFE70998049900EB41110820C1F80809CE
:104F9000FFE79DF81400C006002808D5FFE7099830
:104FA000049900EB41111020C1F80809FFE79DF8B2
:104FB00014004006002808D5FFE70998049900EB83
:104FC00041114020C1F80809FFE79DF8140080074F
:104FD000002822D5FFE70A98049906F015FE0B98E1
:104FE000049901EBC10100EB81001430089008988E
:104FF000C078012809D1FFE708990020C8700B98F4
:105000009DF8101000F026FAFFE70998049900EBCC
:1050100041110220C1F80809FFE79DF814000006BD
:10502000002805D5FFE70B98049902F0F1FDFFE792
:10503000FFE704980130049006984008069043E783
:10504000FFE70B98006806F0AFFEC00F00B3FFE764
:105050000999D1F8040820F00100C1F804080B9860
:1050600090F8CC04012808D1FFE70B98002180F8C4
:10507000CC140B98FFF7E6FA03E00B9800F0AAFBBC
:10508000FFE70B980168486900F000404861FFE7BE
:105090000B98006806F088FE0005002811D5FFE790
:1050A0000998D0F80808C00720B1FFE70B9800F076
:1050B0001DFCFFE70B980168486900F40060486137
:1050C000FFE70B98006806F06FFEC004002840F16F
:1050D0008680FFE70999D1F8040820F00100C1F8A3
:1050E00004080B980068102106F08EFD0020079040
:1050F000FFE707980B990979884231D2FFE70998B1
:10510000079900EB41114FF67F30C1F80809099962
:10511000079A01EB4212D2F8001921F40011C2F8EB
:1051200000190999079A01EB4211C1F8080B099877
:10513000079900EB4111D1F8000B20F40010C1F8E1
:10514000000B0998079900EB4111D1F8000B40F0D2
:105150000060C1F8000BFFE7079801300790C8E72F
:105160000999D1F81C0840F00110C1F81C080B98EF
:10517000C07B78B1FFE70999D1F8840840F00B00B3
:10518000C1F884080999D1F8440840F00B00C1F82F
:1051900044080FE00999D1F8140842F22B02104399
:1051A000C1F814080999D1F8100840F00B00C1F8B3
:1051B0001008FFE70999D1F8000820F4FE60C1F853
:1051C00000080B9A1068917902F29C4206F05AF995
:1051D0000B980168486900F480504861FFE70B981C
:1051E000006806F0E1FD800400281FD5FFE70B985A
:1051F000006805F061FE0B98006806F043FD0B990E
:10520000C8710B980068019000F0ECFC0146019811
:105210000B9AD27906F0CEFE0B9800F0B1FA0B98FB
:105220000168486900F400504861FFE70B98006886
:1052300006F0BAFD000700280AD5FFE70B9800F03A
:10524000D3FA0B980168486900F008004861FFE74D
:105250000B98006806F0A8FD0006002825D5FFE79A
:105260000A99886920F08000886101200490FFE796
:1052700004980B990979884216D2FFE70B98049994
:1052800001EBC10100EB810090F85702012806D123
:10529000FFE70B989DF81010FFF770FAFFE7FFE7A4
:1052A000049801300490E3E7FFE70B98006806F0EC
:1052B0007BFDC00200283CD5FFE701200490FFE7FA
:1052C00004980B99097988422CD2FFE70998049930
:1052D00000EB4110D0F8000902900B98049901EB03
:1052E000C10100EB8100007E012816D1FFE79DF887
:1052F0000B000006002810D5FFE70B98049901EB7E
:10530000C10100EB81010120C8750B989DF81010B8
:1053100041F08001FFF732FAFFE7FFE70498013020
:105320000490CDE70B980168486900F4801048614B
:10533000FFE70B98006806F037FD8002002856D57D
:10534000FFE701200490FFE704980B990979884250
:1053500046D2FFE70998049900EB4110D0F8000B02
:1053600002900B98049901EBC10100EB810090F8C9
:10537000580201282FD1FFE79DF80B0000060028F6
:1053800029D5FFE7029800F480310B98D0F8D404B7
:1053900000F00100B0EB114F1DD1FFE70B9804990D
:1053A00001EBC10100EB8101012081F857020A994C
:1053B000886940F0800088610A98406900060028EA
:1053C00008D4FFE70999D1F8040840F40070C1F847
:1053D000040805E0FFE7FFE7049801300490B3E715
:1053E0000B980168486900F400104861FFE70B98CA
:1053F000006806F0D9FC400000280AD5FFE70B98AA
:10540000FFF780F90B980168486900F08040486117
:10541000FFE70B98006806F0C7FC4007002815D589
:10542000FFE70B980068406802909DF8080040076D
:10543000002804D5FFE70B98FFF796F9FFE7029ADB
:105440000B980168486810434860FFE7FFE70CB01D
:1054500080BD000080B582B001908DF803100198E6
:10546000D0F8E0049DF8031004F014FE02B080BDF3
:1054700080B582B001908DF803100198D0F8E00457
:105480009DF8031004F03EFE02B080BD80B58EB0E2
:105490000C900C9820B9FFE701208DF8370012E13D
:1054A0000C9800680B900C9890F8950440B9FFE7B1
:1054B0000C99002081F894040C9800F009F9FFE79A
:1054C0000C99032081F895040B98B0F1A04F04D1FA
:1054D000FFE70C9900208871FFE70C98006805F041
:1054E000C7FF0C9B1868197C8DF8241059689A68BE
:1054F000DB680893079206910699079A089BDDF8E6
:1055000024C0EE46CEF800C005F0ECFC40B1FFE749
:105510000C99022081F8950401208DF83700D2E023
:105520000C980068002106F0A7FC40B1FFE70C9939
:10553000022081F8950401208DF83700C3E0002097
:105540008DF82B00FFE79DF82B000C990979884214
:1055500041DAFFE70C989DF82B1001EBC10100EB3D
:105560008101012048759DF82B000C9900EBC002C9
:1055700001EB820108759DF82B000C9900EBC0022D
:1055800001EB8201C8850C989DF82B1001EBC1013D
:1055900000EB8101002008760C999DF82B2002EB8E
:1055A000C20201EB8201C8610C999DF82B2002EB2D
:1055B000C20201EB820108620C999DF82B2002EBDC
:1055C000C20201EB82014862FFE79DF82B00013027
:1055D0008DF82B00B7E700208DF82B00FFE79DF832
:1055E0002B000C99097988423EDAFFE70C989DF868
:1055F0002B1001EBC10100EB8101002081F8550265
:105600009DF82B100C9A01EBC10302EB830282F888
:1056100054120C999DF82B2002EBC20201EB82017F
:1056200081F858020C999DF82B2002EBC20201EB85
:105630008201C1F85C020C999DF82B2002EBC2029A
:1056400001EB8201C1F860020C999DF82B2002EB5E
:10565000C20201EB8201C1F86402FFE79DF82B0052
:1056600001308DF82B00BAE70C9B1868197C8DF877
:10567000141059689A68DB680493039202910299A6
:10568000039A049BDDF814C0EE46CEF800C005F086
:10569000A1FD40B1FFE70C99022081F8950401209B
:1056A0008DF837000FE00C990020019048740C9998
:1056B000012081F895040C98006805F075FD0198AB
:1056C0008DF83700FFE79DF837000EB080BD000071
:1056D00080B58AB009900020089007900690059048
:1056E000049009980068B0F1A04F47D1FFE7FFE7A9
:1056F0000020039043F63000C4F20200016841F03C
:1057000001010160006800F0010003900398FFE7C9
:105710004FF4C05004900220059000200690032012
:1057200007900A2008900020C4F2020004A9FEF7A6
:10573000ADFCFFE743F63401C4F20201086840F013
:1057400080000860FFE70020029043F64400C4F2A6
:105750000200016841F480410160006800F480406B
:1057600002900298FFE7FFE7432001900521002205
:10577000FEF746FF0198FEF739FFFFE70AB080BD4C
:1057800080B582B0019001208DF803000198C079A6
:1057900020B9FFE700208DF803000CE00198C079E4
:1057A000022804D1FFE701208DF8030002E0FBF797
:1057B0003FFBFFE7FFE70198D0F8E0049DF80310F6
:1057C00004F0A0FD0198D0F8E00404F01BFD02B045
:1057D00080BD000080B582B001900198D0F8E0044F
:1057E00004F05EFD02B080BD80B582B001900198EA
:1057F000D0F8E00404F066FD02B080BD80B584B04E
:1058000002908DF80710FFE7029890F894040128A1
:1058100004D1FFE702208DF80F0019E00299012062
:1058200081F89404FFE7FFE79DF8070002994874A8
:10583000029800689DF8071006F08EFBFFE70299BA
:10584000002081F89404FFE700208DF80F00FFE7A7
:105850009DF80F0004B080BD80B582B00190019921
:10586000D1F8E00401F29C4104F076FD02B080BD65
:1058700080B584B00290029800680190FFE702981A
:1058800090F89404012804D1FFE702208DF80F005E
:1058900028E00299012081F89404FFE7FFE70198CE
:1058A000C068400600280BD5FFE70298407B01281E
:1058B00006D1FFE70199886B40F480308863FFE7E9
:1058C0000298006806F05CF90298006805F056FC42
:1058D000FFE70299002081F89404FFE700208DF88B
:1058E0000F00FFE79DF80F0004B080BD80B582B0C7
:1058F00001900198D0F8E00404F0B0FD019801682F
:10590000D1F8000E40F00100C1F8000E0198C07AF5
:1059100048B1FFE74EF61051CEF20001086840F0A2
:1059200006000860FFE702B080BD000080B584B0CB
:1059300002900191029820B9FFE701208DF80F0035
:1059400021E1019843F60041C4F20201096801F027
:105950000701884212D9FFE7019943F60040C4F2DB
:1059600002000170006800F007000199884204D02D
:10597000FFE701208DF80F0005E1FFE702980078AE
:10598000800700282AD5FFE7029800784007002802
:1059900009D5FFE743F60801C4F20201086840F4A4
:1059A000E0500860FFE7029800780007002809D55A
:1059B000FFE743F60801C4F20201086840F46040C2
:1059C0000860FFE743F60801C4F20201086820F00E
:1059D000F000029A926810430860FFE7029800788E
:1059E000C00700286ED0FFE702984068012811D157
:1059F000FFE743F60000C4F20200006800F4003143
:105A00000020B0EB514F04D1FFE701208DF80F00CB
:105A1000B9E02CE002984068022805D0FFE7029820
:105A20004068032811D1FFE743F60000C4F20200EA
:105A3000006800F000710020B0EB516F04D1FFE767
:105A400001208DF80F009EE010E043F60000C4F244
:105A50000200006800F002010020B0EB510F04D1F9
:105A6000FFE701208DF80F008DE0FFE7FFE743F629
:105A70000801C4F20201086820F00300029A52688B
:105A800010430860FEF7DEFC0090FFE743F60800D5
:105A9000C4F20200006800F00C0002994968B0EB03
:105AA000810F0ED0FFE7FEF7CDFC0099401A41F2BE
:105AB0008931884204D3FFE703208DF80F0062E0AC
:105AC000E4E7FFE7019843F60041C4F202010968E8
:105AD00001F00701884212D2FFE7019943F6004026
