:020000040800F2
:1000000088820020A5010008E1810008A17D000888
:10001000DD810008790A000895CA00080000000088
:1000200000000000000000000000000061860008E1
:10003000D90D000800000000F1850008DD860008E9
:10004000BF010008BF010008BF010008BF01000890
:10005000BF010008BF010008BF010008BF01000880
:10006000BF010008BF010008BF010008BF01000870
:10007000010C0008BF010008BF010008BF01000813
:10008000BF010008BF010008BF010008BF01000850
:100090007D0A00088D0A0008BF010008BF010008A2
:1000A000BF010008BF010008BF010008BF01000830
:1000B000BF010008BF010008BF010008BF01000820
:1000C000BF010008BF010008BF010008BF01000810
:1000D000BF01000831910008BF01000841910008EC
:1000E000BF010008BF010008BF010008BF010008F0
:1000F000BF010008BF010008BF010008BF010008E0
:10010000BF010008BF010008BF010008BF010008CF
:10011000BF010008BF010008CD870008BF0100082B
:10012000BF010008110C0008210C0008BF010008E5
:10013000BF010008BF010008BF010008BF0100089F
:100140009D0A0008AD0A0008BF010008518200089E
:10015000BF010008310C0008BF01000851910008E0
:10016000BF010008BF010008BF010008BF0100086F
:10017000BF010008BF010008BF0100080000000027
:10018000BF010008BF010008DFF814D000F0C0FB79
:1001900000F07EF8004800476968010800F0EAFBBB
:1001A000888200200648804706480047FEE7FEE7B1
:1001B000FEE7FEE7FEE7FEE7FEE7FEE7FEE7FEE717
:1001C000B9870008890100082DE9F05F0546002085
:1001D00092469B4688460646814640241BE02846B8
:1001E00041464746224600F0B4FA53465A46C01AE2
:1001F000914110D311461846224600F09BFA2D1A61
:1002000067EB01084F4622460120002100F092FAD8
:1002100017EB00094E41201EA4F10104DFDC484623
:1002200031462A464346BDE8F09F10B5431A934233
:1002300009D28318881803E010F8011D03F8011D86
:10024000521EF9D210BD40EA01039B0703D009E01A
:1002500008C9121F08C0042AFAD203E011F8013BB2
:1002600000F8013B521EF9D210BDD2B201E000F8F5
:10027000012B491EFBD270470022F6E710B513464A
:100280000A4604461946FFF7F0FF204610BD00005D
:100290007CB507480090074801900546009C04E0A3
:1002A0002046016808448047241DAC42F8D17CBD3B
:1002B00048A6010858A601080B460146184600F05A
:1002C0007CBA2DE9FE4F804681EA0300C00F0C4640
:1002D000009021F0004123F00045B8EB0200A94155
:1002E00005D24046214690461C460B46024623F066
:1002F0000040104347D0270DC7F30A00C3F30A514B
:100300000290401A019040286BDAC3F3130040F4C6
:10031000801B0098924620B10023D2EB030A63EBC6
:100320000B0B01985946C0F14002504600F002FA0A
:1003300006460D4650465946019A00F01AFA10EB4F
:1003400008006141002487EA115284EAE7731A43E6
:1003500040D0009A62B3019A012A4FEA075215DC95
:10036000001B61EB02014FF0004202EA0752CDE9A7
:100370000042001C41F5801132462B4600F07AFA0B
:1003800003B0BDE8F08F40462146F9E7001B61EB62
:100390000201001C41F5801300185B412018A2F5F2
:1003A000001747EB030140EAD570B6196D4111E023
:1003B0006D084FEA360645EAC0754FEA0752001B42
:1003C00061EB0201001C41F5801149084FEA300041
:1003D0000019514132462B4603B0BDE8F04F00F002
:1003E0003ABA0098012240000023D0EB020263EBEE
:1003F000E073009821464FEAE074B8EB000061EB2F
:100400000401E9E783F000435BE781F0004158E72E
:100410002DE9FE4F81EA030404F0004421F000417D
:1004200000944FF0000B23F0004350EA01045ED02B
:1004300052EA03045BD0C3F30A54C1F30A552C44B7
:10044000A4F2F3340194A0FB0254C1F3130141F46C
:100450008011C3F3130343F4801301FB024400FB38
:10046000034E840A970A44EA815447EA8357A4FB5F
:10047000076802958D0A05FB07854FEA932C04FB5C
:100480000C542705029D4FEA065847EA1637B5EB8C
:1004900008056EEB070C870E920E47EA811742EAB9
:1004A0008312A7FB0201B6EB0B0164EB00042B0DDA
:1004B00043EA0C335E1844EB1C50DA465146E7FB26
:1004C0000201C5F313044FEA0B3343EA14534FEA16
:1004D0000432019C43EA0603A4F10C040294009C3C
:1004E000CDE900B400F0C6F903B0BDE8F08F0020FC
:1004F0000146F9E72DE9F04D81EA030404F0004BD1
:1005000021F0004514464FF0000A23F0004150EA64
:10051000050220D054EA01021DD0C5F30A57024655
:10052000C5F31303C1F31300C1F30A5640F4801559
:1005300043F48013A7EB0608101BD64608F2FD38DB
:1005400073EB050002D308F1010801E092185B414A
:10055000B8F1000F03DA00200146BDE8F08D00205D
:100560004FF48011064684460EE0171B73EB050717
:1005700005D3121B63EB050306434CEA010C490843
:100580004FEA300092185B4150EA0107EDD152EA80
:10059000030012D082EA040083EA0501084305D073
:1005A000101BAB4106D20122002306E000224FF0CF
:1005B000004302E06FF0010253101AEB06004CEB0F
:1005C000085110EB0A0041EB0B01BDE8F04D00F0C3
:1005D00042B930B5041E71F1000404DB4FF0004451
:1005E000404264EB0101141E73F1000405DB1C465C
:1005F0004FF00043524263EB0403801A994101D348
:10060000012030BD002030BD30B5041E71F1000462
:1006100004DB4FF00044404264EB0101141E73F10F
:10062000000405DB1C464FF00043524263EB040319
:10063000101A8B4101D3012030BD002030BD30B5F0
:10064000041E71F1000404DB4FF00044404264EBEF
:100650000101141E73F1000405DB1C464FF000433A
:10066000524263EB040342404B401A4301D0002046
:1006700030BD012030BD0EB5C10F80EAE0700844E6
:10068000CA07002140F233438DE80E000A460B46AC
:1006900000F0F0F803B000BD70B5C1F30A5201F0EC
:1006A00000450024C1F3130140F2FF3341F48011EF
:1006B0009A4201DA002070BD40F233439A42A2F21E
:1006C000334203DC524200F044F800E090402C43F7
:1006D000F1D0404270BD00F0004230F000400AD03E
:1006E000C10D01F56071C0F3160042EA0151C20864
:1006F00040071143704700200146704701F0004356
:1007000030B421F0004150EA010206D00A0DA2F5F2
:100710006072C1F31301002A02DC30BC0020704774
:10072000440F44EAC104C100E01830BC00EBC250E1
:1007300000F05AB8202A04DB203A00FA02F1002027
:1007400070479140C2F1200320FA03F3194390400F
:100750007047202A04DB203A21FA02F0002170477A
:1007600021FA02F3D040C2F1200291400843194619
:100770007047202A06DBCB17203A41FA02F043EA01
:10078000E07306E041FA02F3D040C2F1200291404A
:1007900008431946704710B50446481E014201D16E
:1007A000042901D2052010BD104618F0E7FE10B153
:1007B0002060002010BD062010BD2DE9F041074645
:1007C00015460E46102018F0F9FF04000AD06760A5
:1007D000C4E9026500F0CAF80168216004600020E5
:1007E000BDE8F0810120FBE70029A8BF7047401C4D
:1007F000490008BF20F00100704710B4B0FA80FC37
:1008000000FA0CF050EA010404BF10BC704749B173
:10081000CCF1200421FA04F411FA0CF118BF0121E3
:1008200021430843A3EB0C01CB1D4FEA00614FEAC3
:10083000102042BF002010BC704700EBC350104492
:100840000029A4BF10BC7047401C490008BF20F01D
:10085000010010BC704710B5141E73F1000408DAD3
:10086000401C41F1000192185B411A4301D120F074
:10087000010010BD2DE9F04D92469B4611B1B1FA31
:1008800081F202E0B0FA80F220329046FFF752FF88
:1008900004460F4640EA0A0041EA0B0153465A4615
:1008A000084313D0114653EA010019D0C8F14002A1
:1008B0005046FFF74EFF05460E4650465946424603
:1008C000FFF738FF084305D0012004E020463946F1
:1008D000BDE8F08D0020054346EAE0762C4337431F
:1008E0000A986305E40AA0EB08000022FD0A44EA26
:1008F00047540A3002D500200146E9E701051019E6
:100900006941DDE9084500196941BDE8F04DA2E7FC
:100910001CB509480090094801900546009C06E076
:10092000E06840F0010394E8070098471034AC42B7
:10093000F6D3FFF72DFC000028A6010848A6010801
:1009400030B50B46014600202022012409E021FA9F
:1009500002F59D4205D303FA02F5491B04FA02F59C
:100960002844151EA2F10102F1DC30BD0048704799
:10097000100000202DE9F0410646FFF7F7FF804602
:10098000454613E016B1E068B0420ED120682860F9
:10099000D4E90101D8F800708847204618F03EFEDF
:1009A000D8F80000B842EBD100E025462C68002CB6
:1009B000E8D1BDE8F081C1F30A52C1F3130140F25E
:1009C000FF3341F480119A4202DA00200146704759
:1009D00040F233439A42A2F2334202DC5242FFF722
:1009E000B8BEFFF7A7BE000030B5041E71F10004C9
:1009F00004DB4FF00044404264EB0101141E73F12C
:100A0000000405DB1C464FF00043524263EB040335
:100A1000994208BF904230BD704770B58D1810F8EC
:100A2000014B14F0030201D110F8012B231106D160
:100A300010F8013B03E010F8016B01F8016B521E46
:100A4000F9D1ABB110F8012B04F00C048A1A0C2C6C
:100A500003D0A2EB84129B1C08E010F8014BA2EB20
:100A60000422F8E712F8014B01F8014B5B1EF9D59F
:100A7000A942D4D3002070BDFFE7FEE780B542F65F
:100A80006430C2F2000002F031FE80BD80B542F653
:100A90006430C2F2000002F029FE80BD80B542F64B
:100AA0008C30C2F2000002F021FE80BD80B542F61B
:100AB0008C30C2F2000002F019FE80BD84B08DF8C7
:100AC0000F000291ADF806209DF80F00014600913D
:100AD00023281DD80099DFE801F012131415161B06
:100AE0001B1B1B1B1B1B1B1B1B1B1B1B1B1B1B1B56
:100AF0001B1B1B1B1B1B1B1B1B1B1718191A08E09E
:100B000007E006E005E004E003E002E001E000E0C9
:100B1000FFE7002004B070470020704780B582B026
:100B200042F68800C2F20000009041F23041C2F269
:100B300000010022019208F0ADFE009840F630411D
:100B4000C2F2000108F088FE019802B080BD0000EA
:100B500080B584B0039002910398029909680BF064
:100B60009BFF039942F68800C2F20000019008F052
:100B700073FE019808F016FE002004B080BD00004E
:100B800080B584B0039002918DF8072000208DF885
:100B900006000BF08DFF9DF9060004B080BD00003B
:100BA00080B586B00490ADF80E1000208DF80D00D1
:100BB00042F68800C2F20000D0F8BC02029002980F
:100BC000D0F8140220B1FFE701208DF8170013E0E0
:100BD0000499BDF80E2042F68800C2F20000019090
:100BE00008F058FE019808F05FFF8DF80D009DF8A1
:100BF0000D008DF81700FFE79DF8170006B080BDC7
:100C000080B542F61440C2F2000003F0C5FB80BD7F
:100C100080B542F67440C2F2000003F0BDFB80BD17
:100C200080B542F6B430C2F2000003F0B5FB80BDDF
:100C300080B542F6D440C2F2000003F0ADFB80BDA7
:100C400082B001900198007810384AF6AB21CAF6BC
:100C5000AA21A0FB01100009009000994AF254203B
:100C6000C0F60100405C0199C8650098042807D3CC
:100C7000FFE701990868042262F30900886506E02D
:100C80000199086840F2FF3290438865FFE70198B8
:100C9000806D02B07047000086B0059000208DF88E
:100CA00013000598806A03900598806910BBFFE7E0
:100CB0000398029003281BD80299DFE801F0020D87
:100CC0000218059890F82F00C00720B1FFE7012017
:100CD0008DF81300FFE70CE00598C06AB0F1C07F03
:100CE00004D1FFE701208DF81300FFE701E000E0E9
:100CF000FFE745E005988069B0F5005F25D1FFE783
:100D00000398019003281ED80199DFE801F002063C
:100D1000021101208DF8130016E0059890F82F00BD
:100D2000C00720B1FFE701208DF81300FFE70BE0BB
:100D30000598C06AB0F1C07F04D1FFE701208DF8AB
:100D40001300FFE700E0FFE719E003980090032895
:100D500004D3FFE70098032804D00EE001208DF8AB
:100D600013000BE0059890F82F00C00720B1FFE7B3
:100D700001208DF81300FFE700E0FFE7FFE7FFE742
:100D80009DF8130006B0704784B003900291019261
:100D9000009303980168086820F480200860009898
:100DA00003990968486003988068402809D1FFE7E3
:100DB0000198039909688860029803990968C860D6
:100DC00008E0029803990968886001980399096806
:100DD000C860FFE704B070477047000072B6FFE7D5
:100DE000FEE7000080B584B047F61020C1F6FF7022
:100DF0000068039047F61420C1F6FF700068029067
:100E000047F61820C1F6FF70006801900199039819
:100E100008440390039888B1FFE7039840F210411B
:100E2000C2F2000100910231082206F0BBFF0099D6
:100E300002981231042206F0B5FFFFE704B080BD2E
:100E400080B5ACB012F0E2F812F004FA2B9012F078
:100E5000DDF812F009FA2A9041F63440C2F200009F
:100E60000078BFF35F8FC00718BBFFE741F634403F
:100E7000C2F2000016F0D5FED8B1FFE72B9942F27E
:100E8000C010C2F200001490002210F037F914993B
:100E900041F2D510C0F6010040F20002C0F6000297
:100EA000FFF70AFA41F63440C2F2000016F0CFFE16
:100EB000FFE741F63840C2F200000078BFF35F8FD1
:100EC000C00718BBFFE741F63840C2F2000016F039
:100ED000A8FED8B1FFE72B9942F28020C2F20000B1
:100EE0001390002210F080F9139941F2BD20C0F652
:100EF000010040F20002C0F60002FFF7DDF941F602
:100F00003840C2F2000016F0A2FEFFE741F63C4076
:100F1000C2F200000078BFF35F8FC00718BBFFE785
:100F200041F63C40C2F2000016F07BFED8B1FFE76C
:100F30002B9942F20030C2F200001290012210F010
:100F40008FFD129941F6F520C0F6010040F2000233
:100F5000C0F60002FFF7B0F941F63C40C2F20000D3
:100F600016F075FEFFE741F64040C2F2000000783F
:100F7000BFF35F8FC00770BBFFE741F64040C2F28E
:100F8000000016F04EFE30B3FFE72B9901208DF8DC
:100F9000A60002208DF8A70068464FF40072026098
:100FA00042F27830C2F2000011900DF1A60311F068
:100FB00051F8119942F2ED00C0F6010040F2000232
:100FC000C0F60002FFF778F941F64040C2F2000097
:100FD00016F03DFEFFE742F2A811C2F2000142F214
:100FE000C010C2F200000990086042F2A411C2F2DF
:100FF000000142F28020C2F200000A90086042F232
:10100000B811C2F2000142F20030C2F200000B90AF
:10101000086042F2BC11C2F2000142F27830C2F222
:1010200000000F9008602B98019025A8029015F001
:10103000DBF8019802990268D2699047029815F08E
:1010400003F92B98039020A8049015F0D9F8039881
:1010500004990268D2699047049815F0F5F82B9826
:1010600005901BA8069015F0D7F805980699026818
:10107000D2699047069815F0E7F82B98079016A8C4
:10108000089015F0D5F8079808990268D26990473A
:10109000089815F0D9F841F66440C2F200000EF04D
:1010A00065FF41F60050C2F200000EF067FD11F03E
:1010B0008BFA11F0F5F942F2E800C2F200000CF0F0
:1010C000B9FF0CF0CBFA0CF0F9F94FF4FA7003F019
:1010D0000DFC099801210C910FF09CFC0A20109046
:1010E00003F004FC099802210D910FF093FC109875
:1010F00003F0FCFB0A980C990FF0E6F8109803F047
:10110000F5FB0B980C9910F0A7F9109803F0EEFB83
:101110000B980C9900220E9210F052F9109803F0DF
:10112000E5FB0C990E9A0F9810F0EEFC0D990E9AB3
:101130000F9810F0E9FC0F9810F070FD109803F074
:10114000D5FB2CB080BD000010B5ADF56C7D56A868
:101150004D9042F2E800C2F2000050900DF0B4F859
:1011600040F23020C2F200004E9000F1200141F622
:101170006440C2F200004F900BF0A2FD4E994F98D0
:10118000343054310BF09CFD4E994F9868308831C3
:101190000BF096FD4F9842F2A811C2F200010968C7
:1011A00042F2A412C2F2000212680EF021FF50981F
:1011B00013F0A2FB0146002918BF012141F600509F
:1011C000C2F2000080F8B21390F8B203A0B3FFE7B8
:1011D00042F2E800C2F200004A9013F095FB4A98F0
:1011E0009FEDD51A8DED4B1A20EE410A41F60051C4
:1011F000C2F200014C9181EDEA0A13F069FB4A98B2
:101200009DED4B1A4C9920EE410A81EDEB0A13F04B
:1012100069FB9DED4B1A4C9820EE010A80EDED0A1A
:10122000D0F8A82340F23401C2F200014A64D0F899
:10123000B403C1F8B00015E041F66440C2F200000A
:10124000489013F0C1FB489840F23401C2F200010B
:10125000499181ED110A343013F08EFB499880EDED
:101260002C0AFFE740F2C470C2F2000000780028A8
:101270005ED1FFE703F038FDEB90EB9842F24C4172
:10128000C2F200010968401AC82850D3FFE7EB9862
:1012900042F24C41C2F20001086042F2A810C2F2D0
:1012A0000000006838B3FFE742F2A810C2F2000065
:1012B0000068012110F0BCFF48B9FFE742F2A81016
:1012C000C2F20000006801210FF0A4FBFFE742F228
:1012D000A810C2F200000068022110F0A9FF48B96E
:1012E000FFE742F2A810C2F20000006802210FF0EE
:1012F00091FBFFE7FFE742F2A410C2F20000006892
:10130000A0B1FFE742F2A410C2F200000068012180
:1013100010F0F6FE48B9FFE742F2A410C2F2000056
:10132000006801210EF0D0FFFFE7FFE7FFE7FFE7CE
:1013300011F04AF9EA90EA9813F072FDE990EA9800
:1013400013F074FDE890EA9811F080F98DF89F038E
:10135000E998022806D1FFE7E89901200229479081
:1013600004D0FFE79DF89F034790FFE7479800F000
:1013700001008DF89E03E99840F2C471C2F20001A9
:101380008870E898C8709DF89F0300F001004870CD
:10139000002048719DF89E03C007002856D0FFE743
:1013A00040F2C470C2F20000007800284DD1FFE77F
:1013B00040F2C472C2F200020120107040F2340107
:1013C000C2F2000191F83800D07191F8A4001072B7
:1013D00091F8100150720020907181F8380081F866
:1013E000A40081F8100142F2A810C2F200000068C7
:1013F00078B1FFE742F2A810C2F200004690006800
:1014000001210FF031FB4698006802210FF02CFB00
:10141000FFE742F2A410C2F20000006848B1FFE703
:1014200042F2A410C2F20000006801210EF076FF23
:10143000FFE740F24031C2F200010320887640F21B
:10144000C471C2F200014871FFE794E140F2C47038
:10145000C2F200000078002847D0FFE740F2C471D4
:10146000C2F200010020087042F2A810C2F200008F
:10147000006878B1FFE742F2A810C2F20000459080
:10148000006801210FF0C6FA4598006802210FF0AC
:10149000C1FAFFE742F2A410C2F20000006848B1AE
:1014A000FFE742F2A410C2F20000006801210EF032
:1014B0000BFFFFE740F2C471C2F20001C87940F2AD
:1014C0003402C2F2000282F83800087A82F8A400DE
:1014D000487A82F810010020887140F24032C2F24E
:1014E000000204209076487144E1EA9813F098FCD9
:1014F000014600200329449013D1FFE7EA9813F036
:1015000095FC01460020032944900AD1FFE740F2F0
:10151000CC20C2F200000078002818BF01204490BF
:10152000FFE7449800F001008DF89B039DF89B03B2
:10153000C00768B902E000BF35FA8E3C40F2C470C3
:10154000C2F20000811D0DF29D3014F04FFFFFE745
:101550009DF89B03C007002879D0FFE7EA9813F0B5
:1015600007FCADF8990340F2E870C2F20000007881
:101570008DF8980342F24940C2F20000007800BBA7
:10158000FFE79DF89A03C0F3801042F24441C2F293
:101590000001087040F2C471C2F20001002088729C
:1015A0009DF8980302280BD0FFE740F2C470C2F206
:1015B000000000F10A01E7A8012214F087FFFFE70D
:1015C000FFE79DF89A03C0F380108DF8970340F26F
:1015D000C470C2F20000807A58B1FFE740F2C470D4
:1015E000C2F2000000F10A010DF29D3014F0FEFE7F
:1015F000FFE79DF89703D0B1FFE742F24440C2F203
:101600000000007898B9FFE79DF89803022818BFFA
:1016100001208DF896039DF8962340F2C470C2F223
:10162000000000F10A01E7A814F050FFFFE79DF861
:10163000970342F24441C2F200010870EA9813F0A5
:10164000EFFB40F2C471C2F20001087188E040F281
:10165000C471C2F200010020887242F24442C2F218
:1016600000021070E9988DF895039DF895030979AB
:10167000884274D0FFE79DF8950301280AD0FFE760
:101680009DF89503032805D0FFE79DF895030228F0
:101690005CD1FFE79DF89503022818BF01208DF863
:1016A000940312F025FF13F0EDFCE490E498013868
:1016B000B0FA80F040098DF88F039DF88F03C007C2
:1016C000B8B9FFE741F60050C2F2000090F80801F7
:1016D00078B1FFE740F23400C2F20000007F40B171
:1016E000FFE740F2FC10C2F20000007D01281AD191
:1016F000FFE741F60050C2F20000439090EDEA0A85
:101700000DF08EFE439840F23401C2F20001012236
:101710000A77D0F8A803086040F2FC11C2F2000179
:1017200000200875FFE79DF8940340F2C471C2F2EF
:10173000000101F8060F42910DF29D3014F056FEA3
:1017400042999DF8950301F8020C07E09DF8950376
:1017500040F2C471C2F200010871FFE7FFE7FFE742
:101760009DF89B0300F0010042F24941C2F20001E2
:101770000870FFE7FFE740F2E870C2F20000694638
:10178000086042F2C000C2F2000041F66441C2F2B9
:10179000000140F23402C2F2000240F24033C2F2D1
:1017A000000311F051F80BF059FF0BF003FE10F09D
:1017B0000BFFE290E29813F033FBE190E29813F014
:1017C00035FBE090E19901200329419007D0FFE724
:1017D000E1980138B0FA80F040094190FFE7419864
:1017E00000F001008DF87F03E1990020012940906D
:1017F00010D1FFE7E099012001293F9007D0FFE7D2
:10180000E0980238B0FA80F040093F90FFE73F9837
:101810004090FFE7409800F001008DF87E039DF8AE
:101820007E130020C9073E9099B1FFE740F22C409B
:10183000C2F20000817E00203E9051B1FFE740F2ED
:101840002C40C2F20000007C002818BF01203E900E
:10185000FFE73E9800F001008DF87D0340F2E8704C
:10186000C2F20000007811F0A3FB8DF87C039DF814
:101870007D130020C9073D9079B1FFE740F2C470A5
:10188000C2F20000017800203D9031B9FFE79DF8D9
:101890007C0380F001003D90FFE73D9800F00100DF
:1018A0008DF87B0300208DF87A039DF87B03C00739
:1018B000002800F0A680FFE742F24640C2F2000096
:1018C0000078002840F09D80FFE742F24641C2F2D6
:1018D0000001012008708DF87A0341F66440C2F2DD
:1018E0000000343013F078F8A0B1FFE741F6005063
:1018F000C2F2000090F8B20360B1FFE741F6005079
:10190000C2F20000D0F8B40340F23401C2F2000188
:10191000C86617E041F66440C2F20000343013F0AC
:101920005BF870B1FFE741F66440C2F2000034306A
:1019300013F022F840F23400C2F2000080ED1B0ADE
:10194000FFE7FFE741F66440C2F2000013F044F8FD
:10195000002840D0FFE740F2FC10C2F20000007DFA
:10196000012815D1FFE741F60050C2F2000090EDCA
:10197000EA0A0DF055FD40F23401C2F200010120E7
:10198000087740F2FC11C2F2000100200875FFE761
:1019900041F60050C2F2000090F8B20348B1FFE7F0
:1019A00041F60050C2F2000090EDEA0A8DED3C0ACB
:1019B00008E041F66440C2F2000013F005F88DED36
:1019C0003C0AFFE79DED3C0A40F23400C2F2000001
:1019D00080ED000AFFE741F60050C2F200003B90A4
:1019E00011F0ECFD3B98783011F0E8FD3B9800F5E4
:1019F0009C7011F0E3FD3B9800F5D87011F0DEFD0E
:101A000095E09DF87B03C007002840F08F80FFE73A
:101A100042F24640C2F200000078002800F08680C2
:101A2000FFE742F24641C2F20001002008708DF843
:101A30007A039DF87C03C007002861D1FFE740F2DC
:101A4000C470C2F200000078002859D1FFE741F6C7
:101A50006440C2F2000012F0BFFF18B3FFE741F686
:101A60000050C2F2000090F8B20348B1FFE741F61F
:101A70000050C2F2000090EDEA0A8DED3A0A08E04B
:101A800041F66440C2F2000012F09EFF8DED3A0A6A
:101A9000FFE79DED3A0A40F23400C2F2000080ED0B
:101AA000000AFFE741F66440C2F20000343012F051
:101AB00093FF20B3FFE741F60050C2F2000090F818
:101AC000B20348B1FFE741F60050C2F2000090EDCA
:101AD000ED0A8DED390A09E041F66440C2F20000DA
:101AE000343012F049FF8DED390AFFE79DED390AD8
:101AF00040F23400C2F2000080ED1B0AFFE7FFE76E
:101B000041F60050C2F20000389011F057FD3898AD
:101B1000783011F053FD389800F59C7011F04EFDAF
:101B2000389800F5D87011F049FDFFE7FFE712F093
:101B3000DFFC13F0A7FADD9040F2E870C2F200007B
:101B400000788DF87303DD9900200429379008D1BF
:101B5000FFE79DF873030438B0FA80F0400937902E
:101B6000FFE7379800F001008DF872039DF87203CB
:101B700000F001008DF871039DF8710342F25041AD
:101B8000C2F20001097888425CD0FFE79DF871033A
:101B900020B3FFE741F66440C2F2000012F014FFE8
:101BA0004D9981ED850A41F60050C2F200000022F5
:101BB000369280F8B02391ED850A0DF031FC36980D
:101BC00040F23402C2F2000201211177DB99116068
:101BD00040F2FC11C2F20001087532E041F60050FB
:101BE000C2F20000012180F8B01390F8B20348B1AE
:101BF000FFE741F60050C2F2000090EDEA0A8DEDD9
:101C0000350A08E041F66440C2F2000012F0DCFE42
:101C10008DED350AFFE74D989DED350A80ED840A7C
:101C200090ED840A41F60050C2F200000DF0F8FB7E
:101C300040F23401C2F2000101200877DA9808600E
:101C4000FFE7FFE79DF8710342F25041C2F2000145
:101C5000087040F2C470C2F20000007848B9FFE793
:101C600040F2E870C2F20000007811F0A1F908B16A
:101C7000FFE7CDE29DF87F03C007002800F09280C7
:101C8000FFE742F24640C2F200000078002800F070
:101C90008980FFE79DF87A03002840F08280FFE703
:101CA00041F66440C2F20000343012F095FE002884
:101CB00077D0FFE74D9840F22C41C2F2000191ED40
:101CC000000A9FEDDE1A20EE010A80ED830A41F63C
:101CD0000050C2F2000090F8B20368B3FFE74D98DD
:101CE00047F20721C3F61371D89146F2F361CBF6A0
:101CF000DF61D79190ED830A9FEDD11AB4EE410ACE
:101D0000F1EE10FA06DDFFE747F20720C3F6137085
:101D1000D990FFE74D9890ED830A9FEDCA1AB4EE73
:101D2000410AF1EE10FA06DAFFE746F2F360CBF66D
:101D3000DF60D990FFE72DE041F66440C2F2000079
:101D4000343012F053FED690D698007C08BBFFE7E3
:101D50004D9890ED830AD69890ED021AB4EE410AA0
:101D6000F1EE10FA04DDFFE7D6988068D990FFE71E
:101D70004D9890ED830AD69890ED011AB4EE410A81
:101D8000F1EE10FA04DAFFE7D6984068D990FFE741
:101D9000FFE7FFE7D99840F23401C2F20001C866BC
:101DA000FFE734E29DF87F03C007002800F02E8291
:101DB000FFE710F009FCD590D59813F031F80146F3
:101DC00000200329349013D1FFE7D59813F02EF8A3
:101DD00001460020032934900AD1FFE740F2CC20CD
:101DE000C2F200000078002818BF01203490FFE7FD
:101DF000349800F001008DF853039DF8530300F070
:101E000001000BF075F98DF852039DF85303C007DC
:101E1000D0B1FFE742F24A40C2F20000007898B920
:101E2000FFE740F23401C2F20001486C0860D1F8CB
:101E3000B000C86640F2CC21C2F200010020C862A6
:101E4000086348638863FFE79DF8530300F00100CF
:101E500042F24A41C2F2000108709DF85203C007E5
:101E600050B1FFE740F2CC21C2F20001002008632C
:101E7000C86288634863C8E19DF85303C00700281F
:101E800000F0FC80FFE7D59812F0A8FF4D9880ED98
:101E9000780B80ED7A1B90ED7A0B51EC100BFEF76E
:101EA0002DFC01464D98D39140F2CC21C2F20001A5
:101EB0004968CD9190ED7D0A90ED771AB1EE411A07
:101EC000B4EE410AF1EE10FA0EDDFFE74D9890ED09
:101ED0007D0A90ED771AB4EE410AF1EE10FA03DABA
:101EE000FFE70020D390FFE74D9991ED7D0A40F286
:101EF000CC20C2F20000339090ED121A20EE010ABD
:101F000081ED760A91ED760A90ED141AF1EE410A10
:101F10000AF008FE4D99339881ED750A41F26F225F
:101F2000C3F68322CA9291ED750AD0ED0F0A90EDA7
:101F3000101A3830DFED441A0BF084F84D983399BD
:101F400080ED730AC998086341F66440C2F200004C
:101F5000343012F041FD002800F08F80FFE74D98EB
:101F600040F23401C2F2000191ED1B1A90ED730AA8
:101F70009FED352A20EE020A30EE010A80ED720A4A
:101F800041F60050C2F2000090F8B20368B3FFE7D8
:101F90004D9847F20721C3F61371C7914FF63521CB
:101FA000CBF68E61C69190ED720A9FED251AB4EEC4
:101FB000410AF1EE10FA06DDFFE747F20720C3F60B
:101FC0001370C890FFE74D9890ED720A9FED1F1AAD
:101FD000B4EE410AF1EE10FA06DAFFE74FF63520CB
:101FE000CBF68E60C890FFE740E041F66440C2F255
:101FF0000000343012F0FAFCC590C598007CA0BBFC
:10200000FFE74D9890ED720AC59890ED021AB4EE74
:10201000410AF1EE10FA04DDFFE7C5988068C89028
:10202000FFE74D9890ED720AC59890ED011AB4EE55
:10203000410AF1EE10FA17DA12E000BF35FA8E3CD1
:102040000772133FF366DFBE6F12833A35FA8EBE16
:10205000CDCC4CBDCDCC4C3D3333334035FA8EBC6A
:10206000C5984068C890FFE7FFE7FFE7C89840F2CF
:102070003401C2F20001C866FFE7C5E040F2CC219E
:10208000C2F2000100200863D59812F0DDFE51EC89
:10209000100BFEF733FB01464D98C4914CF6CD4131
:1020A000C3F64C51C39190ED6E0A1FED171AB4EEB2
:1020B000410AF1EE10FA0EDDFFE74D9890ED6E0A41
:1020C0001FED1C1AB4EE410AF1EE10FA03DAFFE735
:1020D0000020C490FFE74D9843F23331C4F233013E
:1020E000C29190ED6E0A1FED241A20EE010A80EDD8
:1020F0006B0A41F26F20C3F68320C09041F6644022
:10210000C2F20000343012F067FC00287BD0FFE7F9
:102110004D9840F23401C2F2000191ED1B1A90ED8E
:102120006B0A1FED372A20EE020A30EE010A80ED1D
:10213000690A41F60050C2F2000090F8B20368B399
:10214000FFE74D9847F20721C3F61371BE914FF692
:102150003521CBF68E61BD9190ED690A1FED481ACD
:10216000B4EE410AF1EE10FA06DDFFE747F2072070
:10217000C3F61370BF90FFE74D9890ED690A1FED0D
:102180004D1AB4EE410AF1EE10FA06DAFFE74FF607
:102190003520CBF68E60BF90FFE72DE041F664401E
:1021A000C2F20000343012F021FCBC90BC98007CDC
:1021B00008BBFFE74D9890ED690ABC9890ED021AB4
:1021C000B4EE410AF1EE10FA04DDFFE7BC98806836
:1021D000BF90FFE74D9890ED690ABC9890ED011A09
:1021E000B4EE410AF1EE10FA04DAFFE7BC98406859
:1021F000BF90FFE7FFE7FFE7BF9840F23401C2F26C
:102200000001C866FFE7FFE7FFE7FFE7FFE7FFE73B
:1022100040F2C470C2F20000007848B9FFE740F213
:10222000E870C2F20000007810F0C2FE08B1FFE7CB
:10223000BBE29DF87F03C00760B3FFE742F2464070
:10224000C2F20000007828B3FFE79DF87A0300BBD4
:10225000FFE741F66440C2F2000012F0BDFBC0B1DE
:10226000FFE74D9840F22C41C2F2000191ED010AC6
:1022700091ED0B1A30EE410A1FED881A20EE010A8B
:1022800080ED650ABB9840F23401C2F2000108609B
:10229000FFE789E29DF87F03C007002800F08382F2
:1022A000FFE710F091F9BA90BA9812F0B9FD014623
:1022B00000200329329013D1FFE7BA9812F0B6FD3F
:1022C00001460020032932900AD1FFE740F2CC20DA
:1022D000C2F200000078002818BF01203290FFE70A
:1022E000329800F001008DF8E7029DF8E70200F057
:1022F00001000AF0FDFE8DF8E60212F0F9F812F086
:10230000C1FEB890B89900200129319006D1FFE7AD
:102310009DF8E70280F001003190FFE7319800F06E
:1023200001008DF8DF020020B69041F60050C2F2A5
:10233000000090F8B203D8B1FFE742F2E800C2F221
:10234000000012F0C5FA4D981FEDBC1A20EE010AEC
:1023500080ED600AB69841F60051C2F20001C1F862
:10236000AC03B69840F2FC11C2F200014860FFE7EE
:102370009DF8DF0200F001008DF8D7029DF8D7121A
:102380000020309051B3FFE742F24840C2F2000013
:10239000017801202F90F1B1FFE740F2FC10C2F26A
:1023A0000000017D012001292F9014D1FFE741F6A3
:1023B0000050C2F2000090F8081101202F9051B98E
:1023C000FFE740F23400C2F20000007F002818BF8F
:1023D00001202F90FFE72F983090FFE7309800F012
:1023E00001008DF8D6029DF8D71200202E9051BB27
:1023F000FFE742F24840C2F20000017801202D9030
:10240000F1B9FFE740F2FC10C2F20000017D0120AB
:102410002D90A9B9FFE741F60050C2F2000090F8F4
:102420000811012001292D900AD1FFE740F2340064
:10243000C2F20000007F013818BF01202D90FFE795
:102440002D982E90FFE72E9800F001008DF8D50210
:102450009DF8D602C007B0B1FFE74D9890ED600A35
:1024600041F60050C2F200000CF0F4FF40F2FC1103
:10247000C2F200010120087540F23401C2F20001ED
:10248000002008771FE09DF8D502C007D0B1FFE714
:1024900041F60050C2F200002C9090EDEA0A0CF0D8
:1024A000BFFF2C9840F2FC12C2F20002002111750D
:1024B00040F23401C2F2000101220A77D0F8A803E9
:1024C0000860FFE7FFE79DF8D70242F24841C2F2F9
:1024D00000010870BA9812F0AFFC51EC100BFEF737
:1024E0000DF901464D98B4914CF6CD41C3F64C51CF
:1024F000B39190ED5E0A9FEDE31AB4EE410AF1EE5E
:1025000010FA0EDDFFE74D9890ED5E0A9FEDDE1AA2
:10251000B4EE410AF1EE10FA03DAFFE70020B490BE
:10252000FFE74D9843F23331C4F23301B29190ED9D
:102530005E0A9FEDD61A20EE010A80ED5B0A41F695
:102540006440C2F2000012F047FA002800F02A812D
:10255000FFE79DF8E602C00740B1FFE740F2CC215B
:10256000C2F200010020C86248631AE19DF8E70248
:10257000C007002874D0FFE7BA9812F02FFC4D98DE
:1025800080ED560B80ED581B90ED560B51EC100B67
:10259000FEF7B4F801464D98B09140F2CC21C2F25A
:1025A00000014968AB9190ED5A0A90ED551AB1EED1
:1025B000411AB4EE410AF1EE10FA0EDDFFE74D9834
:1025C00090ED5A0A90ED551AB4EE410AF1EE10FA68
:1025D00003DAFFE70020B090FFE74D9941F26F204A
:1025E000C3F68320AA9091ED5A0A40F2CC20C2F2A1
:1025F00000002A9090ED111A20EE010A81ED530A95
:1026000091ED530A90ED131AF1EE410A0AF08AFA9D
:102610002A984D9981ED520A91ED520AD0ED0F0A98
:1026200090ED101A3430DFED9A1ACDED2B1A0AF026
:1026300009FD2A9A4D989DED2B2A80ED510AA79904
:10264000D16290ED510A40F23400C2F2000090EDE8
:10265000001A20EE020A30EE010A80ED000A9FE027
:102660009DF8DF02C00700287BD0FFE740F2CC21B5
:10267000C2F200010020C8624863B19840F2FC1128
:10268000C2F2000108608868CA6820920969229134
:10269000FEF721F80246209821920A46219942EC41
:1026A000101B8DED240BFEF716F80246229823929C
:1026B0000A46239942EC101B8DED260BFEF70BF812
:1026C0009DED240B9DED261B41EC120BA0A811F0F3
:1026D00007F94D9890ED5B0AD0ED600AA099A19A98
:1026E000A29BDDF88CC2DDF890E2A59C9D94CDF80C
:1026F00070E2CDF86CC29A939992989190ED421B3A
:1027000090ED442B90ED463B41F60050C2F20000A4
:102710000CF002FE4D9880ED490A42F2A811C2F277
:1027200000010968299190ED490A8DED280A41F6CA
:102730006440C2F2000012F059F99DED280A0146EA
:10274000299891ED031A20EE012A0121DFED511A9B
:10275000B0EE610AF0EE610AB0EE611A0EF04CFBC9
:102760001DE04D9840F2CC22C2F200020021D1625D
:10277000516341F26F21C3F68321979190ED5B0A7B
:1027800040F23400C2F2000090ED001A9FED402AA2
:1027900020EE020A30EE010A80ED000AFFE7FFE7B3
:1027A000FFE7FFE7FFE7FFE7FFE711F0A1FE11F00A
:1027B000E1FD40F2E870C2F20000007810F0F8FB92
:1027C0008DF85B0242F24640C2F20000007830B160
:1027D000FFE740F25C40C2F200001F9005E040F2CB
:1027E0003400C2F200001F90FFE71F997BA86C2203
:1027F000FDF71BFD40F23400C2F2000001687B913E
:1028000090F838008DF8240242F24640C2F20000EF
:10281000007838B1FFE740F25C40C2F200006C3053
:102820001E9006E040F23400C2F200006C301E90B0
:10283000FFE71E9960A86C22FDF7F7FC40F2340018
:10284000C2F20000C16E609190F8A4008DF8B8014A
:1028500042F24640C2F200000078002818BF012072
:1028600041F60051C2F2000181F8B10340F2FC10C0
:10287000C2F20000007D88B1FFE79DF85B02C0074F
:10288000A0B10BE0CDCC4CBDCDCC4C3D333333406F
:102890006F12833A0000000035FA8E3C41F6005179
:1028A000C2F200017BA80AF005FBFFE741F60050E9
:1028B000C2F200001D9000F59C7160A80AF0FAFABF
:1028C0001D9940F23400C2F20000D83001F51C71AD
:1028D0000AF0F0FA42F2E800C2F2000012F00CF83E
:1028E00001461D98002918BF012180F8B21390F805
:1028F000B20348B3FFE742F2E800C2F200001A90C8
:1029000012F002F81A981FED1C1A8DED1B1A20EE1A
:10291000410A41F60051C2F200011C9181EDEA0A20
:1029200011F0D6FF1A989DED1B1A1C9920EE410A52
:1029300081EDEB0A11F0D6FF9DED1B1A1C9820EEDD
:10294000010A80EDED0AFFE742F2A810C2F2000092
:10295000026842F2A410C2F20000036841F600507F
:10296000C2F20000169041F66441C2F200011491D7
:102970000DF076F9149840F23021C2F20001139163
:102980000AF056F9139914983430159034310AF03E
:102990004FF9139914986830189068310AF048F983
:1029A000149A169842F24641C2F200011991097830
:1029B000B1FA81F14B0940F23401C2F200011791E2
:1029C0000AF02AFA159A16981799199B1B78B3FAE8
:1029D00083F35B0900F59C706C310AF01DFA1698C0
:1029E0001799189A00F51C70D83101230AF014FACF
:1029F00019980078F0B1FFE741F60050C2F20000EC
:102A00000F9040F25C41C2F20001109141F6644225
:102A1000C2F200021192012312930AF0FDF90F98FD
:102A20001099119A129B00F59C706C3134320AF0A7
:102A3000F3F9FFE740F23401C2F2000101F16C0248
:102A400041F60050C2F200000AF0E0F842F24640BF
:102A5000C2F20000007868B1FFE740F25C41C2F2C8
:102A6000000101F16C0241F60050C2F200000AF0D0
:102A7000CDF8FFE70FF0A8FD5F905F9812F0DCF94A
:102A800051EC100BFDF73AFE40F2C851C2F20001C2
:102A90000C9108605F9812F0D7F951EC100BFDF71C
:102AA0002DFE0C9948605F9812F0D6F951EC100B8E
:102AB000FDF724FE0C9988605F9812F0D5F951EC6F
:102AC000100BFDF71BFE0C99C8605F9812F0A8F977
:102AD0000C9908745F9812F0A9F90C9948745F98E2
:102AE00012F07CF94D9880ED040B80ED061B90ED03
:102AF000040B51EC100BFDF701FE0C9948615F9837
:102B000012F06CF94D9880ED000B80ED021B90EDFA
:102B1000020B51EC100BFDF7F1FD0C9988615F98E9
:102B200012F0AAF90C998DF857019DF8570100F0A1
:102B3000010008775F9812F09FF90C998DF8560103
:102B40009DF85601C0F3400048775F9812F010F9E5
:102B50000C99ADF854019DF8540100F001008877FC
:102B60009DF85401C0F34000C8779DF85401C0F3AC
:102B7000800081F820009DF85401C0F3C00081F866
:102B800021009DF85401C0F3001081F822009DF847
:102B90005401C0F3401081F823009DF85401C0F3A4
:102BA000801081F824009DF85401C00981F82500A7
:102BB0009DF8550100F0010081F826009DF85501AF
:102BC000C0F3400081F827009DF85501C0F3800054
:102BD00081F828009DF85501C0F3C00081F8290054
:102BE0009DF85501C0F3001081F82A009DF85501A9
:102BF000C0F3401081F82B009DF85501C0F3801000
:102C000081F82C009DF85501C00981F82D005F98CE
:102C100012F03EF951EC100BFDF770FD0C990863B2
:102C20005F980FF013FD0C9980F0010081F83400DB
:102C30005F9812F0CBF840F20061C2F200010D91F2
:102C400008605F9812F0DCF80D9948605F9812F008
:102C5000DFF80D9988605F9812F096F80D998881D9
:102C60005F9812F099F80D9908615F9812F0D8F802
:102C70000146002003290E9009D1FFE75F9812F06A
:102C8000D5F80338B0FA80F040090E90FFE70E98AF
:102C900000F0010140F20060C2F200000175017D08
:102CA00000200B90A1B1FFE740F2C850C2F2000033
:102CB00090F8341000200B9051B1FFE740F2CC2087
:102CC000C2F200000078002818BF01200B90FFE737
:102CD0000B9800F0010040F2CC21C2F2000181F813
:102CE000200042F2E800C2F20000099011F0AAFDB3
:102CF000099840F26071C2F200010A9181ED000A68
:102D000011F0F0FD09980A9981ED010A11F0C2FD58
:102D100009980A9981ED020A11F0C6FD09980A99ED
:102D200081ED030A11F0CAFD09980A9981ED040AA0
:102D300011F0CEFD09980A9981ED050A11F08CFD7C
:102D400009980A9981ED060A11F090FD09980A99EF
:102D500081ED070A11F094FD09980A9981ED080A9E
:102D600011F0DAFD09980A9981ED090A11F0DEFDEA
:102D700009980A9981ED0A0A11F0E2FD09980A9969
:102D800081ED0B0A11F0E6FD09980A9981ED0C0A14
:102D900011F0BAFD09980A9981ED0D0A11F042FD72
:102DA0000A9A01460998916311F044FD0A9A014676
:102DB000099882F83C1011F09FFD0A9981F83D00B6
:102DC00042F2B810C2F200000068002858D0FFE7B5
:102DD00042F2B810C2F2000007900068012106918B
:102DE00011F072FE0798069940F2A472C2F2000236
:102DF000089282ED000A006811F0CCFE079806994F
:102E0000089A82ED010A006811F0E6FE079806991B
:102E1000089A82ED020A006811F09AFE0798069956
:102E2000089A82ED030A006811F0FCFD0699089BE0
:102E3000024607985492549AD2881A82549A9288D9
:102E40005A82549A52889A82549A12789A750068D3
:102E500011F0DAFD0699089B024607985392539A9F
:102E600052881A83539A12799A76539A527902F0B9
:102E70000102DA7600680FF043F908990877FFE756
:102E800042F2BC10C2F200000068002860D0FFE7E8
:102E900042F2BC10C2F20000006852905298012128
:102EA000039111F0BBFE039940F22870C2F20000BA
:102EB000059080ED000A529811F0DEFD0399059807
:102EC00080ED010A529811F00FFF0399059880EDEB
:102ED000020A529811F02AFF0399059880ED030A1F
:102EE000529811F0DFFE0399059880ED040A52987C
:102EF0000FF09EF90599087552980221049111F07E
:102F00008DFE0499059880ED060A529811F0B4FDE3
:102F10000499059880ED070A529811F0E5FE04998E
:102F2000059880ED080A529811F000FF0499059861
:102F300080ED090A529811F0B5FE0499059880EDCC
:102F40000A0A52980FF074F9059981F82C00FFE7EE
:102F50000AF084FB0AF02EFA8DF8470140F22C406B
:102F6000C2F2000090F82800002818BF01208DF858
:102F700046019DF84701C00728B9FFE79DF84601C3
:102F8000C007B8B1FFE742F24740C2F20000017843
:102F900001310170007802280BDBFFE742F2474164
:102FA000C2F20001002008700AF058FB0AF0AAFAE9
:102FB000FFE7FFE742F24540C2F20000017801312D
:102FC00001700078022809DBFFE742F24541C2F2B6
:102FD00000010020087009F071FDFFE741F6444050
:102FE000C2F200000078BFF35F8FC007B0B9FFE7FF
:102FF00041F64440C2F2000014F013FE70B1FFE746
:1030000011F0A2F842F24041C2F20001086041F61C
:103010004440C2F2000014F01AFEFFE742F24040C2
:10302000C2F200000290006810F030FD02980068C3
:1030300011F0B0F80DF56C7D10BD000084B0029069
:103040000191029890F820008DF803009DF803008C
:10305000012805D0FFE79DF8030002280AD1FFE709
:10306000019A0298016848691043486100208DF870
:103070000F0008E00299486A40F48020486201206D
:103080008DF80F00FFE79DF80F0004B070470000B7
:1030900088B00690059104920393069890F820005A
:1030A0008DF8070006980068806800900598806891
:1030B00008B9FFE700E0FFE79DF80700012806D008
:1030C000FFE79DF80700022840F08080FFE79DF8A9
:1030D0000300400700280CD4FFE79DF80300000719
:1030E000002806D4FFE79DF80300C006002864D539
:1030F000FFE70098C0F30160029002990120884028
:10310000039908600598806868B9FFE70598016829
:10311000C06840EA415006990968029A01EB021121
:10312000C1F880010EE005994A688868C96840EADC
:10313000C200084306990968029A01EB0211C1F81E
:103140008001FFE70598006906990968029A01EB7A
:103150000211C1F884010598007D01280CD1FFE718
:1031600006980068029900EB0111D1F8840140F43F
:103170008070C1F88401FFE70498406806990968E7
:10318000029A01EB0211C1F88C01049800680699BB
:103190000968029A01EB0211C1F8880106980068DB
:1031A000029900EB0111D1F8800140F00100C1F853
:1031B000800100208DF81F0011E00699486A40F454
:1031C0000010486201208DF81F0008E00699486A47
:1031D00040F48020486201208DF81F00FFE79DF831
:1031E0001F0008B07047000086B004900391049857
:1031F00090F820008DF803009DF80300012806D008
:10320000FFE79DF80300022840F0B080FFE746F298
:103210000040C4F2000001900199D1F8000240F092
:103220000100C1F800020199D1F8000220F47C509D
:10323000C1F800020398426A0199D1F8000240EAFD
:103240000220C1F800020398406900F01F0101202C
:1032500088400290029A0199D1F81C029043C1F86B
:103260001C020398C069F0B9FFE7029A0199D1F8EE
:103270000C029043C1F80C02039A9088D1685269FD
:1032800040EA0140019901EBC201C1F84002039AF2
:1032900010889168526940EA0140019901EBC2012E
:1032A000C1F84402FFE70398C06901281ED1FFE777
:1032B000029A0199D1F80C021043C1F80C02039A4A
:1032C00090881168526940EA0140019901EBC201FE
:1032D000C1F84002039A90899168526940EA01401E
:1032E000019901EBC201C1F84402FFE7039880692C
:1032F00040B9FFE7029A0199D1F804029043C1F85E
:10330000040207E0029A0199D1F804021043C1F8BF
:103310000402FFE70398006940B9FFE7029A0199A8
:10332000D1F814029043C1F8140207E0029A0199FF
:10333000D1F814021043C1F81402FFE70398006AA1
:10334000012808D1FFE7029A0199D1F81C02104325
:10335000C1F81C02FFE70199D1F8000220F001003A
:10336000C1F8000200208DF8170008E00499486AAF
:1033700040F48020486201208DF81700FFE79DF897
:10338000170006B07047000080B582B00190019828
:10339000006846F20041C4F20001884201D0FFE714
:1033A00030E0019800F030F8009042F63401C2F2AB
:1033B0000001086801300860009842F63801C2F246
:1033C000000108609DF801008007002808D5FFE78C
:1033D00042F64401C2F20001086801300860FFE7CC
:1033E0009DF800004007002808D5FFE742F63001AD
:1033F000C2F20001086801300860FFE7019900206F
:103400004862FFE702B080BD81B000900098406A3A
:1034100001B0704784B0039002910020019003989E
:1034200090F820008DF803009DF80300012805D0D6
:10343000FFE79DF80300022812D1FFE7029838B990
:10344000FFE703980068C06800F00300019006E001
:1034500003980068006900F003000190FFE7FFE7B0
:10346000019804B07047000086B004900391029266
:103470000193049890F820008DF803009DF8030054
:10348000012806D0FFE79DF80300022840F0E880FD
:10349000FFE7039880B9FFE704980068C0688007D9
:1034A00048B9FFE70499486A40F4001048620120D7
:1034B0008DF81700DDE00FE00498006800698007D0
:1034C00048B9FFE70499486A40F4001048620120B7
:1034D0008DF81700CDE0FFE704980068039900EB32
:1034E0000110D0F8B00100F0040002998860029841
:1034F000806858B9FFE704980068039900EB011051
:10350000D0F8B001400D029908600AE00498006804
:10351000039900EB0110D0F8B001C008029948608F
:10352000FFE704980068039900EB0110D0F8B001A0
:1035300000F002000299C86004980068039900EB4B
:103540000110D0F8B40100F00F00082804D3FFE701
:103550000299082008610BE004980068039900EBC9
:103560000110D0F8B40100F00F0002990861FFE7E4
:1035700004980068039900EB0110D0F8B40180B200
:10358000000A0299886104980068039900EB011011
:10359000D0F8B401000C02994861049800680399BE
:1035A00000EB0110D0F8B801019908700498006888
:1035B000039900EB0110D0F8B801000A0199487096
:1035C00004980068039900EB0110D0F8B801000CD2
:1035D0000199887004980068039900EB0110D0F8F5
:1035E000B801000E0199C87004980068039900EBB7
:1035F0000110D0F8BC010199087104980068039982
:1036000000EB0110D0F8BC01000A01994871049840
:103610000068039900EB0110D0F8BC01000C01997F
:10362000887104980068039900EB0110D0F8BC0180
:10363000000E0199C871039838B9FFE70498016832
:10364000C86840F02000C86006E004980168086976
:1036500040F020000861FFE700208DF8170008E027
:103660000499486A40F48020486201208DF81700D0
:10367000FFE79DF8170006B07047000083B0029086
:1036800000200190029890F820008DF803009DF82A
:103690000300012805D0FFE79DF80300022822D18E
:1036A000FFE70298006880684001002804D5FFE722
:1036B000019801300190FFE70298006880680001DE
:1036C000002804D5FFE7019801300190FFE7029838
:1036D00000688068C000002804D5FFE70198013029
:1036E0000190FFE7FFE7019803B0704780B58AB00B
:1036F000099000200890099800684069079009988F
:1037000000684068069009980068806805900998EC
:103710000068C068049009980068006903900998DF
:103720000068806902909DF81C00C007002800F026
:103730009480FFE79DF81400C00758B3FFE709988D
:103740000168012088609DF814008007002804D5D6
:10375000FFE7099800F06AFD1BE09DF814004007A0
:10376000002805D5FFE7089840F4006008900FE0B6
:103770009DF814000007002805D5FFE7089840F4DD
:103780008050089003E0099800F04CFDFFE7FFE748
:10379000FFE7FFE79DF81500C00760B3FFE7099852
:1037A00001684FF4807088609DF81500800700283C
:1037B00004D5FFE7099800F041FD1BE09DF81500D6
:1037C0004007002805D5FFE7089840F4005008900E
:1037D0000FE09DF815000007002805D5FFE70898C1
:1037E00040F48040089003E0099800F023FDFFE7D3
:1037F000FFE7FFE7FFE79DF81600C00760B3FFE7AC
:10380000099801684FF4803088609DF816008007A1
:10381000002804D5FFE7099800F018FD1BE09DF88B
:1038200016004007002805D5FFE7089840F400403F
:1038300008900FE09DF816000007002805D5FFE767
:10384000089840F48030089003E0099800F0FAFCF2
:10385000FFE7FFE7FFE7FFE7FFE79DF81C00000732
:10386000002810D5FFE79DF81000C006002809D5F4
:10387000FFE7089840F4007008900998016810204C
:10388000C860FFE7FFE79DF81C00400700280FD540
:10389000FFE79DF810000007002808D5FFE709980A
:1038A00001680820C860099800F0E0FAFFE7FFE728
:1038B0009DF81C00800700280BD5FFE709980068D9
:1038C000C068800720B1FFE7099800F0E5FAFFE73C
:1038D000FFE79DF81C004006002810D5FFE79DF883
:1038E0000C00C006002809D5FFE7089840F4806066
:1038F00008900998016810200861FFE7FFE79DF82C
:103900001C00800600280FD5FFE79DF80C0000077B
:10391000002808D5FFE70998016808200861099880
:1039200000F088FBFFE7FFE79DF81C00C0060028B9
:103930000BD5FFE7099800680069800720B1FFE711
:10394000099800F07BFBFFE7FFE79DF81E0080076A
:1039500000280FD5FFE79DF81800C006002808D5FD
:10396000FFE70998016810204860099800F010FCF2
:10397000FFE7FFE79DF81E00C00778B1FFE79DF85D
:1039800018000007002808D5FFE7099801680820FB
:103990004860099800F05EFCFFE7FFE79DF81D0016
:1039A0000006002840F18D80FFE79DF818004007D1
:1039B000002840F18180FFE79DF81D00C00750B14D
:1039C000FFE79DF80800C00728B1FFE7089840F01E
:1039D00001000890FFE79DF81D00800700280BD527
:1039E000FFE79DF808008007002805D5FFE7089845
:1039F00040F002000890FFE79DF81D0040070028F6
:103A00000BD5FFE79DF808004007002805D5FFE724
:103A1000089840F004000890FFE79DF81D0000079B
:103A2000002848D5FFE79DF8080010F0700F42D03D
:103A3000FFE7029800F0700001460191102814D0B1
:103A4000FFE70198202815D0FFE70198302816D00D
:103A5000FFE70198402817D0FFE70198502818D0B9
:103A6000FFE70198602819D01DE0089840F0080091
:103A7000089019E0089840F01000089014E00898A9
:103A800040F0200008900FE0089840F040000890B7
:103A90000AE0089840F08000089005E0089840F49B
:103AA0008070089000E0FFE709980168886920F0BD
:103AB00070008861FFE7FFE709980168042048600B
:103AC000FFE7089848B1FFE7089A0999486A104348
:103AD00048620998FFF758FCFFE70AB080BD000074
:103AE00080B584B00290029820B9FFE701208DF8DC
:103AF0000F00E0E0029890F8200020B9FFE702985C
:103B000000F0DEF8FFE702980168086840F0010065
:103B1000086001F0E9F80190FFE70298006840684A
:103B2000C007A8B9FFE701F0DFF80199401A0B2898
:103B30000DD3FFE70299486A40F4003048620299C9
:103B4000052081F8200001208DF80F00B3E0E4E7A4
:103B500002980168086820F00200086001F0C4F8CB
:103B60000190FFE70298006840688007002815D59B
:103B7000FFE701F0B9F80199401A0B280DD3FFE7D0
:103B80000299486A40F4003048620299052081F8A1
:103B9000200001208DF80F008DE0E3E70298007E01
:103BA000012807D1FFE702980168086840F080000B
:103BB000086006E002980168086820F0800008604C
:103BC000FFE70298407E012807D1FFE702980168CD
:103BD000086840F04000086006E002980168086844
:103BE00020F040000860FFE70298807E012807D19E
:103BF000FFE702980168086840F02000086006E0CE
:103C000002980168086820F020000860FFE7029829
:103C1000C07E012807D1FFE702980168086820F0FC
:103C20001000086006E002980168086840F0100083
:103C30000860FFE70298007F012807D1FFE702989C
:103C40000168086840F00800086006E00298016812
:103C5000086820F008000860FFE70298407F01280C
:103C600007D1FFE702980168086840F00400086087
:103C700006E002980168086820F004000860FFE789
:103C8000029B19685A689868D3F80CC040EA0C0087
:103C9000D3F810C040EA0C005B691843013A1043A6
:103CA000C861029900204862029A012182F820101E
:103CB0008DF80F00FFE79DF80F0004B080BD0000F5
:103CC00080B594B0139000201290119010900F9036
:103CD0000E901398006846F20041C4F20001884239
:103CE00053D1FFE740F25C70C2F20000016801317D
:103CF00001600068012812D1FFE7FFE700200D9066
:103D000043F64000C4F20200016841F00071016016
:103D1000006800F000700D900D98FFE7FFE7FFE7E7
:103D200000200C9043F63000C4F20200016841F01C
:103D300008010160006800F008000C900C98FFE793
:103D400003200E9002210F910021079110911190F4
:103D50000920129040F60040C4F202000EA900F0C3
:103D6000E7FD079A142005900521069101F09AF8C5
:103D7000059801F08DF80699079A1520089001F032
:103D800091F8089801F084F86EE01398006846F600
:103D90000001C4F20001884265D1FFE7FFE700207F
:103DA0000B9043F64000C4F20200016841F08061CC
:103DB0000160006800F080600B900B98FFE740F214
:103DC0005C70C2F2000001680131016000680128E6
:103DD00012D1FFE7FFE700200A9043F64000C4F24B
:103DE0000200016841F000710160006800F000709D
:103DF0000A900A98FFE7FFE7FFE70020099043F6E3
:103E00003000C4F20200016841F002010160006864
:103E100000F0020009900998FFE760200E90022050
:103E20000F90002003901090032011900920129011
:103E300040F20040C4F202000EA900F079FD039A9E
:103E4000402001900521029101F02CF8019801F029
:103E50001FF80299039A4120049001F023F8049876
:103E600001F016F8FFE7FFE714B080BD81B00090C5
:103E70000098006846F20041C4F20001884208D16F
:103E8000FFE742F64001C2F2000108680130086015
:103E9000FFE701B07047000080B588B00790079831
:103EA000006846F20041C4F20001884240F0B4804C
:103EB000FFE7002006900590049003900290019087
:103EC000FFE70798002101AA08F054FE002800F03F
:103ED000A280FFE742F67001C2F2000108680130DB
:103EE0000860039842F66C01C2F2000108609DF878
:103EF0001800C007E8B9FFE79DF81900C007C0B96E
:103F0000FFE79DF81000082813D1FFE703980F285A
:103F10000FD8FFE79DF804100320B0EB111F08D164
:103F2000FFE742F63C01C2F2000108680130086078
:103F3000FFE70398009010B3FFE70098012826D010
:103F4000FFE7009802282AD0FFE7009803282ED028
:103F5000FFE70098042832D0FFE7009840F24111B3
:103F6000884234D0FFE7009840F20121884236D0E1
:103F7000FFE7009840F20221884238D03FE042F645
:103F80004801C2F200010868013008603FE042F6D3
:103F90004C01C2F2000108680130086037E042F6C7
:103FA0005001C2F200010868013008602FE042F6BB
:103FB0005401C2F2000108680130086027E042F6AF
:103FC0005801C2F200010868013008601FE042F6A3
:103FD0005C01C2F2000108680130086017E042F697
:103FE0006001C2F200010868013008600FE042F68B
:103FF0006401C2F2000108680130086007E042F67F
:104000006801C2F20001086801300860FFE701A8FA
:1040100008F092FE55E70AE00798006846F60001AE
:10402000C4F20001884201D1FFE7FFE7FFE708B0D3
:1040300080BD000081B0009001B0704780B588B0AD
:1040400007900798006846F60001C4F20001884214
:1040500040F09C80FFE741F64C40C2F2000000783F
:10406000BFF35F8FC007C0B9FFE741F64C40C2F213
:10407000000013F0D6FD80B1FFE70EF0C7FF0FF090
:10408000F3F842F25841C2F20001086041F64C4098
:10409000C2F2000013F0DBFDFFE741F64840C2F238
:1040A00000000078BFF35F8FC007B0B9FFE741F6AB
:1040B0004840C2F2000013F0B4FD70B1FFE710F009
:1040C00043F842F25441C2F20001086041F6484010
:1040D000C2F2000013F0BBFDFFE7FFE742F25840D9
:1040E000C2F20000006801684A6901A990470028EF
:1040F0004BD0FFE742F68001C2F2000108680130B0
:104100000860039840F20121884206D0FFE7039837
:1041100040F20221884217D1FFE7039840F20121C3
:10412000884208D1FFE742F67401C2F20001086834
:104130000130086007E042F67801C2F20001086829
:1041400001300860FFE71FE0039840F20721884232
:1041500005D0FFE70398B0F5027F0CD1FFE742F2EC
:104160005440C2F20000006803999DF8103001AA83
:104170000FF0CEFB07E042F67C01C2F200010868B6
:1041800001300860FFE7FFE7A8E7FFE708B080BD60
:1041900081B0009001B0704780B584B00290029861
:1041A00090F8200001282FD1FFE70299022081F822
:1041B000200002980168086820F00100086000F003
:1041C00093FD0190FFE7029800684068C007A8B11E
:1041D000FFE700F089FD0199401A0B280DD3FFE796
:1041E0000299486A40F4003048620299052081F83B
:1041F000200001208DF80F000FE0E4E70299002075
:1042000048628DF80F0008E00299486A40F40020E7
:10421000486201208DF80F00FFE79DF80F0004B001
:1042200080BD000081B0009001B0704781B0009067
:1042300001B0704781B0009001B0704781B000902C
:1042400001B0704781B0009001B0704781B000901C
:1042500001B0704781B0009001B0704780B584B064
:1042600002900298806D019000F03EFD009002984F
:1042700090F8350002280DD0FFE7029980204865AC
:10428000FFE70299002081F83400FFE701208DF854
:104290000F0055E002980168086820F016000860D9
:1042A00002980168486920F0800048610298006C1B
:1042B00020B9FFE70298806C38B1FFE702980168E7
:1042C000086820F008000860FFE7029801680868A5
:1042D00020F001000860FFE7029800680068C0074E
:1042E000C8B1FFE700F000FD0099401A062811D37D
:1042F000FFE70299202048650299032081F83500E4
:10430000FFE70299002081F83400FFE703208DF8D1
:104310000F0015E0E0E70298C16D3F208840019949
:1043200088600299012081F83500FFE7029900209A
:1043300081F83400FFE7FFE700208DF80F00FFE76A
:104340009DF80F0004B080BD82B00090009890F8F6
:104350003500022807D0FFE700998020486501203A
:104360008DF807000EE00099052081F835000098CF
:104370000168086820F001000860FFE700208DF860
:104380000700FFE79DF8070002B0704781B000907A
:104390000098406D01B0704780B586B00590002050
:1043A000039040F23C30C2F20000006848F2B511C0
:1043B000C1F64E31A0FB0110800A02900598806D75
:1043C000019001980068049004980599C96DC8404F
:1043D000000700281AD5FFE7059800680068400725
:1043E000002812D5FFE705980168086820F004004E
:1043F00008600598C16D082088400199886005997A
:10440000486D40F001004865FFE7FFE70498059913
:10441000C96DC840C007A0B1FFE7059800684069B2
:10442000000600280CD5FFE70598C16D01208840E3
:10443000019988600599486D40F002004865FFE7E2
:10444000FFE704980599C96DC8404007002814D5B6
:10445000FFE7059800680068800700280CD5FFE793
:104460000598C16D04208840019988600599486DC0
:1044700040F004004865FFE7FFE704980599C96D1F
:10448000C840C006002847D5FFE7059800680068C7
:10449000000700283FD5FFE70598C16D1020884030
:1044A00001998860059800680068400300281AD5C3
:1044B000FFE70598006800680003002809D4FFE7BB
:1044C0000598006C20B1FFE70598016C8847FFE76D
:1044D00008E00598806C20B1FFE70598816C88475B
:1044E000FFE7FFE716E0059800680068C0050028B0
:1044F00007D4FFE705980168086820F00800086005
:10450000FFE70598006C20B1FFE70598016C88472C
:10451000FFE7FFE7FFE7FFE704980599C96DC8408B
:104520008006002840F18D80FFE70598006800684C
:10453000C006002840F18480FFE70598C16D202067
:10454000884001998860059890F83500052834D195
:10455000FFE705980168086820F0160008600598D4
:104560000168486920F0800048610598006C20B916
:10457000FFE70598806C38B1FFE705980168086887
:1045800020F008000860FFE70598C16D3F208840D3
:10459000019988600599012081F83500FFE70599A8
:1045A000002081F83400FFE70598006D20B1FFE797
:1045B0000598016D8847FFE77BE005980068006873
:1045C000400300281AD5FFE705980068006800033B
:1045D000002809D4FFE70598406C20B1FFE7059853
:1045E000416C8847FFE708E00598C06B20B1FFE702
:1045F0000598C16B8847FFE7FFE720E00598006852
:104600000068C005002811D4FFE705980168086814
:1046100020F0100008600599012081F83500FFE7BF
:104620000599002081F83400FFE7FFE70598C06B8B
:1046300020B1FFE70598C16B8847FFE7FFE7FFE779
:10464000FFE70598406DA0B3FFE70598406DC007F0
:1046500030B3FFE70599052081F83500059801681A
:10466000086820F001000860FFE70398013003901C
:104670000299884201D9FFE707E0FFE70598006843
:104680000068C0070028F0D1FFE70599012081F8F4
:104690003500FFE70599002081F83400FFE7FFE7C8
:1046A0000598C06C20B1FFE70598C16C8847FFE70B
:1046B000FFE706B080BD000080B586B00490002002
:1046C000039000F011FB0290049820B9FFE701204D
:1046D0008DF81700A3E00498406A08B1FFE7FFE7F0
:1046E0000499022081F83500FFE70499002081F841
:1046F0003400FFE704980168086820F001000860B2
:10470000FFE7049800680068C00790B1FFE700F079
:10471000EBFA0299401A06280AD3FFE704992020F1
:1047200048650499032081F835008DF8170076E07C
:10473000E7E70498006800680390039848F23F0197
:10474000CFF2100108400390049900914868D1F815
:1047500008C0CB680A6940EA0C00184310434A6954
:1047600010438A691043CA691043096A01430398D8
:10477000084303900498406A042808D1FFE704998D
:10478000C86A096B0143039808430390FFE7039845
:1047900004990968086004980068406903900398C8
:1047A00020F0070003900498416A0398084303909F
:1047B0000498406A04281AD1FFE70498816A039894
:1047C000084303900498C06A80B1FFE70498FCF79F
:1047D00063FA50B1FFE7049940204865049901202D
:1047E00081F835008DF8170019E0FFE7FFE703981F
:1047F0000499096848610498FCF722FA019004982A
:10480000C16D3F2088400199886004990020486567
:10481000049A012182F835108DF81700FFE79DF802
:10482000170006B080BD000080B588B006900591E5
:104830000492039300208DF80B000698806D019080
:10484000FFE7069890F83400012804D1FFE7022022
:104850008DF81F0045E00699012081F83400FFE73C
:10486000FFE7069890F8350001282BD1FFE706995D
:10487000022081F8350006990020486506980599C0
:10488000049A039BFCF780FA0698C16D3F2088408C
:104890000199886006980168086840F01600086071
:1048A0000698006C38B1FFE706980168086840F088
:1048B00008000860FFE706980168086840F00100FA
:1048C000086009E0FFE70699002081F83400FFE75F
:1048D00002208DF80B00FFE79DF80B008DF81F00FC
:1048E000FFE79DF81F0008B080BD000080B584B0D0
:1048F000039000F0F9F902900398019001980130BB
:1049000048B1FFE740F2A050C2F2000001780198E0
:1049100008440190FFE7FFE700F0E6F90299401A2A
:104920000199884201D2FFE7F6E704B080BD00009C
:104930008EB00D900C9100200A90099008900B9079
:10494000FFE70B980F2800F2CC81FFE70B990120BD
:1049500088400A900C9800680A99084009900998C4
:104960000A99884240F0B881FFE70C98406800F04F
:104970000300012807D0FFE70C98406800F003000F
:1049800002282FD1FFE70D98806808900B9841000E
:10499000032000FA01F10898884308900C98C06839
:1049A0000B99490000FA01F108980843089008980B
:1049B0000D9988600D98406808900B99012000FAC5
:1049C00001F10898884308900C984068C0F30010E3
:1049D0000B9900FA01F108980843089008980D997E
:1049E0004860FFE70C98406800F00300032818D0E7
:1049F000FFE70D98C06808900B984100032000FA6B
:104A000001F10898884308900C9880680B99490038
:104A100000FA01F108980843089008980D99C860B9
:104A2000FFE70C98406800F00300022826D1FFE75A
:104A30000D980B996FF0030202EA51010844006AD5
:104A400008900B9800F0070081000F2000FA01F198
:104A50000898884308900C9800690B9901F00701A9
:104A6000890000FA01F108980843089008980D9908
:104A70000B9B02EA530211440862FFE70D9800689D
:104A800008900B984100032000FA01F10898884330
:104A900008900C98406800F003000B99490000FA58
:104AA00001F108980843089008980D9908600C983F
:104AB00080798007002800F00E81FFE7FFE70020E3
:104AC000079043F64400C4F20200016841F48041BB
:104AD0000160006800F4804007900798FFE70B989A
:104AE00020F0030043F60801C4F201014058089089
:104AF0000B9800F0030081000F2000FA01F10898E4
:104B0000884308900D980021C4F20201884203D125
:104B1000FFE7002006905EE00D9840F20041C4F2ED
:104B20000201884203D1FFE70120059050E00D9873
:104B300040F60001C4F20201884203D1FFE70220DF
:104B4000049042E00D9840F60041C4F20201884210
:104B500003D1FFE70320039034E00D9841F20001F8
:104B6000C4F20201884203D1FFE70420029026E04C
:104B70000D9841F20041C4F20201884203D1FFE7DF
:104B80000520019018E00D9841F60001C4F20201E1
:104B9000884203D1FFE7062000900AE00D9941F614
:104BA0000042C4F202020820914208BF0720009090
:104BB000FFE700980190FFE701980290FFE7029855
:104BC0000390FFE703980490FFE704980590FFE740
:104BD00005980690FFE70698C0B20B9901F0030113
:104BE000890000FA01F108980843089008980B9989
:104BF00021F0030143F60802C4F20102885043F693
:104C00000840C4F201000068089009990898884398
:104C100008900C988079C006002805D5FFE709990F
:104C2000089808430890FFE7089843F60841C4F243
:104C30000101086043F60C40C4F2010000680890CE
:104C400009990898884308900C9880798006002874
:104C500005D5FFE70999089808430890FFE70898E9
:104C600043F60C41C4F20101086043F60440C4F26B
:104C700001000068089009990898884308900C98EA
:104C800080798007002805D5FFE70999089808432F
:104C90000890FFE7089843F60441C4F20101086058
:104CA00043F60040C4F20100006808900999089892
:104CB000884308900C988079C00728B1FFE70999CC
:104CC000089808430890FFE7089843F60041C4F2AB
:104CD00001010860FFE7FFE7FFE70B9801300B9049
:104CE0002FE60EB07047000047F2AC40C2F2000061
:104CF0000068704740F2A050C2F20000027847F20C
:104D0000AC41C2F20001086810440860704700001E
:104D100080B543F60041C4F20201086840F4007017
:104D20000860086840F480600860086840F480709B
:104D30000860032000F0D0F80F2000F005F800F024
:104D40007BF8002080BD000080B58CB00B90002067
:104D500004900390FFE70020009043F64000C4F267
:104D60000200016841F010010160006800F01000CD
:104D700000900098FFE706A802A901F05BFB0998E4
:104D80000490049820B9FFE701F084FB059004E04B
:104D900001F080FB40000590FFE705984DF6836128
:104DA000C4F21B31A0FB01014FF0FF3000EB91403A
:104DB000039043F21820C2F2000041F20001C4F255
:104DC0000001016040F2E731C160039941600021B8
:104DD00001618160816101F05DFF8DF807009DF840
:104DE000070028BBFFE743F21820C2F2000001F0E1
:104DF000A3FF8DF807009DF80700C0B9FFE7362034
:104E000000F046F80B980F280CD8FFE70B993620D6
:104E1000002200F047F80B9840F2A451C2F20001C2
:104E2000086003E001208DF80700FFE7FFE7FFE7D8
:104E30009DF807000CB080BD80B582B0FFE7002070
:104E4000019043F64400C4F20200016841F480413D
:104E50000160006800F4804001900198FFE7FFE7DF
:104E60000020009043F64000C4F20200016841F0C7
:104E700080510160006800F0805000900098FFE7CA
:104E80006FF001000F21002200F00CF802B080BD8D
:104E900080B582B08DF807009DF9070011F0F0FB96
:104EA00002B080BD80B586B08DF8170004910392E2
:104EB0000020029011F0FCFB02909DF91700019078
:104EC00002980499039A03F08DF90146019811F0B4
:104ED000F7FB06B080BD000080B582B0019001985C
:104EE00011F032FC02B080BD82B001908DF8031049
:104EF00002B0704782B00190ADF80210BDF8020018
:104F0000019909684862002002B0704784B003909C
:104F10008DF80B10ADF8082003980068406A0090E7
:104F20009DF80B0048B9FFE7BDF80810009840EA6B
:104F3000014003990968886233E003980068816A38
:104F4000009800EB1140009000208DF80700FFE76B
:104F50009DF807009DF80B100139884213D2FFE736
:104F6000039800689DF8071000EB8100D0F8041149
:104F7000009800EB11400090FFE79DF8070001301A
:104F80008DF80700E4E7BDF80810009840EA0140FA
:104F9000039909689DF80B2001EB8201C1F800011B
:104FA000FFE7002004B0704780B582B001900198FF
:104FB000D0F8E00405F01CFC02B080BD80B582B0E2
:104FC00001908DF80310019AD2F8E0049DF80310C7
:104FD00001EBC10302EB8302126A05F067FA02B02B
:104FE00080BD000080B582B001908DF80310019A59
:104FF000D2F8E0049DF8031001EBC10302EB830239
:10500000D2F8602205F01AFB02B080BD80B582B0F4
:1050100001900198D0F8E00405F0F0FB02B080BDEB
:1050200080B584B003908DF80B109DF80B0000063E
:1050300000280CD5FFE703989DF80B1001F00F0135
:1050400001EBC10100EB8100143001900CE00398EA
:105050009DF80B1001F00F0101EBC10100EB810085
:1050600000F515700190FFE703980068019907F0BB
:1050700049F98DF80A009DF80A0004B080BD0000CF
:1050800080B584B002908DF807109DF807000006E7
:1050900000280FD5FFE702989DF8071001F00F01D7
:1050A00001EBC10100EB8100143000900099012058
:1050B00048700FE002989DF8071001F00F0101EB16
:1050C000C10100EB810000F51570009000990020EF
:1050D0004870FFE79DF8070000F00F000099087086
:1050E000FFE7029890F89404012804D1FFE702201A
:1050F0008DF80F0014E00299012081F89404FFE775
:10510000FFE702980068009906F0ECFBFFE70299C0
:10511000002081F89404FFE700208DF80F00FFE7DE
:105120009DF80F0004B080BD80B584B002908DF86A
:1051300007109DF8070000F00F00029909798842D6
:1051400004D9FFE701208DF80F004DE09DF807001E
:10515000000600280FD5FFE702989DF8071001F020
:105160000F0101EBC10100EB8100143000900099A8
:10517000012048700FE002989DF8071001F00F0120
:1051800001EBC10100EB810000F515700090009962
:1051900000204870FFE70099002088709DF8070004
:1051A00000F00F0000990870FFE7029890F894044F
:1051B000012804D1FFE702208DF80F0014E00299C6
:1051C000012081F89404FFE7FFE702980068009946
:1051D00006F0F8FDFFE70299002081F89404FFE74C
:1051E00000208DF80F00FFE79DF80F0004B080BD90
:1051F00082B001908DF8031001989DF8031001F022
:105200000F0101EBC10100EB8100D0F8680202B090
:105210007047000080B586B004908DF80F10ADF88F
:105220000C208DF80B3000208DF80A009DF80F003F
:10523000000600280FD5FFE704989DF80F1001F035
:105240000F0101EBC10100EB8100143001900199C5
:10525000012048700FE004989DF80F1001F00F0135
:1052600001EBC10100EB810000F51570019001997F
:1052700000204870FFE79DF80F0000F00F00019933
:105280000870BDF80C006FF3DF20019988609DF86D
:105290000B00019908710198407820B1FFE701994E
:1052A00008784883FFE79DF80B00022804D1FFE748
:1052B000019900204871FFE7FFE7049890F89404F3
:1052C000012804D1FFE702208DF8170015E00499AA
:1052D000012081F89404FFE7FFE704980068019932
:1052E00006F0CAF9FFE70499002081F89404FFE76B
:1052F0009DF80A008DF81700FFE79DF8170006B02B
:1053000080BD000080B586B005908DF81310039223
:10531000029305989DF8131001F00F0101EBC101F4
:1053200000EB810000F51570019003980199C860A9
:10533000029801990861019900204861019948701B
:105340009DF8130000F00F0001990870059880790E
:10535000012804D1FFE703980199C861FFE7059A86
:1053600010680199927906F0D1FD002006B080BD49
:1053700080B584B002908DF807109DF8070000F00A
:105380000F0002990979884204D9FFE701208DF8BE
:105390000F0058E09DF80700000600280FD5FFE732
:1053A00002989DF8071001F00F0101EBC10100EB1D
:1053B0008100143000900099012048700DE002989F
:1053C0009DF8071001EBC10100EB810000F515709D
:1053D0000090009900204870FFE700990120887034
:1053E0009DF8070000F00F0000990870FFE7029891
:1053F00090F89404012804D1FFE702208DF80F00F3
:1054000021E00299012081F89404FFE7FFE7029868
:105410000068009906F026FD9DF80700000740B9D6
:10542000FFE7029A1068917902F29C4206F07AFC3A
:10543000FFE7FFE70299002081F89404FFE70020CE
:105440008DF80F00FFE79DF80F0004B080BD00004D
:1054500080B586B005908DF81310039202930598DD
:105460009DF8131001F00F0101EBC10100EB810069
:105470001430019003980199C8600298019908615D
:105480000199002048610199012048709DF813009E
:1054900000F00F000199087005988079012804D167
:1054A000FFE703980199C861FFE7059A1068019921
:1054B000927906F02BFD002006B080BD80B58CB03F
:1054C0000B900B9800680A900A9809900B98006856
:1054D00007F04EF8002840F00C84FFE70B980068B6
:1054E00007F0B2F810B9FFE700F003BC0998D0F854
:1054F0000808C0F30D200B99C1F8D4040B9800687C
:1055000007F0A2F88007002807D5FFE70B9801688D
:10551000486900F002004861FFE70B98006807F057
:1055200093F8C006002862D5FFE70B9801688869E8
:1055300020F0100088610A98006A02900B98029986
:1055400001F00F0101EBC10100EB810000F51570C6
:105550000890029800F4F0110220B0EB514F23D1D3
:10556000FFE7BDF8080047F6F07108421BD0FFE7DF
:105570000A980899C968029AC2F30A1207F072F8E9
:10558000029847F6F07100EA0103089AD06800EB30
:105590001310D060029800EA01020899486900EBF4
:1055A00012104861FFE71BE0029800F4F01106209A
:1055B000B0EB514F12D1FFE70A980B9901F29C41D1
:1055C000082207F04FF8029847F6F07100EA01024E
:1055D0000899486900EB1210486100E0FFE7FFE717
:1055E0000B980168886940F010008861FFE70B980C
:1055F000006807F029F80003002840F1A680FFE7C3
:10560000002004900B98006806F0CCFF0690FFE79E
:105610000698002800F09880FFE79DF81800C00762
:10562000002800F08A80FFE70B9800689DF81010B2
:1056300006F0F2FF05909DF81400C00760B1FFE787
:105640000998049900EB41110120C1F8080B0B984F
:10565000049902F04BFEFFE79DF8140000070028B4
:105660000CD5FFE70998049900EB41110820C1F817
:10567000080B0B98049902F0F3FDFFE79DF8140066
:10568000C006002808D5FFE70998049900EB4111EE
:105690001020C1F8080BFFE79DF8140080070028D0
:1056A0002DD5FFE70A9840690006002808D5FFE7D6
:1056B0000999D1F8040840F48060C1F80408FFE7B4
:1056C0000B98049901EBC10100EB810000F5157006
:1056D00008900898C078012809D1FFE708990020B0
:1056E000C8700B989DF8101000F014FBFFE70998A4
:1056F000049900EB41110220C1F8080BFFE79DF867
:1057000014008006002808D5FFE70998049900EBEB
:1057100041112020C1F8080BFFE79DF81500800615
:10572000002809D5FFE70998049900EB41114FF4CF
:105730000050C1F8080BFFE7FFE704980130049020
:1057400006984008069063E7FFE70B98006806F0AC
:105750007BFF4003002840F1C680FFE70B980068FC
:1057600006F00EFF069000200490FFE70698002840
:1057700000F0B880FFE79DF81800C007002800F08F
:10578000AA80FFE70B9800689DF8101006F01CFF38
:1057900005909DF81400C00700283ED0FFE704984C
:1057A00000F00F01012000FA01F10391039B099A17
:1057B000D2F834189943C2F834180999049A01EBC5
:1057C0004211C1F808090B98807901281FD1FFE721
:1057D0000B98049901EBC10100EB8101CA69086AC9
:1057E00010440862049888B9FFE70B98049901EB0C
:1057F000C10100EB8100406A40B9FFE70B990868DE
:1058000001F29C42012106F08DFAFFE7FFE70B98B9
:105810009DF81010FFF7D2FBFFE79DF8140000077A
:10582000002808D5FFE70998049900EB41110820EA
:10583000C1F80809FFE79DF81400C006002808D544
:10584000FFE70998049900EB41111020C1F80809FD
:10585000FFE79DF814004006002808D5FFE70998E7
:10586000049900EB41114020C1F80809FFE79DF8B9
:1058700014008007002822D5FFE70A98049906F053
:1058800013FE0B98049901EBC10100EB8100143069
:1058900008900898C078012809D1FFE708990020EE
:1058A000C8700B989DF8101000F026FAFFE70998D1
:1058B000049900EB41110220C1F80809FFE79DF8A7
:1058C00014000006002805D5FFE70B98049902F0A4
:1058D000F1FDFFE7FFE704980130049006984008C7
:1058E000069043E7FFE70B98006806F0ADFEC00F97
:1058F00000B3FFE70999D1F8040820F00100C1F8CE
:1059000004080B9890F8CC04012808D1FFE70B9805
:10591000002180F8CC140B98FFF7E6FA03E00B980F
:1059200000F0AAFBFFE70B980168486900F000400F
:105930004861FFE70B98006806F086FE0005002826
:1059400011D5FFE70998D0F80808C00720B1FFE794
:105950000B9800F01DFCFFE70B980168486900F404
:1059600000604861FFE70B98006806F06DFEC00418
:10597000002840F18680FFE70999D1F8040820F05B
:105980000100C1F804080B980068102106F08CFD96
:1059900000200790FFE707980B990979884231D2D8
:1059A000FFE70998079900EB41114FF67F30C1F8E6
:1059B00008090999079A01EB4212D2F8001921F45B
:1059C0000011C2F800190999079A01EB4211C1F8B8
:1059D000080B0998079900EB4111D1F8000B20F44E
:1059E0000010C1F8000B0998079900EB4111D1F89C
:1059F000000B40F00060C1F8000BFFE70798013092
:105A00000790C8E70999D1F81C0840F00110C1F8C7
:105A10001C080B98C07B78B1FFE70999D1F884087E
:105A200040F00B00C1F884080999D1F8440840F00F
:105A30000B00C1F844080FE00999D1F8140842F2AC
:105A40002B021043C1F814080999D1F8100840F04E
:105A50000B00C1F81008FFE70999D1F8000820F4FD
:105A6000FE60C1F800080B9A1068917902F29C421E
:105A700006F058F90B980168486900F480504861B5
:105A8000FFE70B98006806F0DFFD800400281FD5B3
:105A9000FFE70B98006805F05FFE0B98006806F0C2
:105AA00041FD0B99C8710B980068019000F0ECFC67
:105AB000014601980B9AD27906F0CCFE0B9800F0C3
:105AC000B1FA0B980168486900F400504861FFE79B
:105AD0000B98006806F0B8FD000700280AD5FFE71C
